:1000000000000420750300005D0300005F03000092
:1000100061030000630300006503000000000000AE
:100020000000000000000000000000006703000066
:1000300069030000000000006B0300006D03000076
:100040006F0300006F030000B1160000F5180000F8
:10005000051900006F0300006F0300006F0300002C
:100060006F0300006F0300006F0300006F030000C8
:100070006F0300006F0300006F0300006F030000B8
:100080006F0300006F0300006F0300006F030000A8
:100090006F0300006F0300006F0300006F03000098
:1000A0006F0300006F0300006F0300006F03000088
:1000B0006F0300006F03000000000000000000005C
:1000C0006F0300006F0300006F0300006F03000068
:1000D0006F0300006F0300006F0300006F03000058
:1000E0006F0300006F0300006F03000000000000BA
:1000F000000000006F030000000000006F0300001C
:1001000000000000000000000000000000000000EF
:1001100000000000000000000000000000000000DF
:1001200000000000000000000000000000000000CF
:1001300000000000000000000000000000000000BF
:1001400000000000000000000000000000000000AF
:10015000000000000000000000000000000000009F
:10016000000000000000000000000000000000008F
:10017000000000000000000000000000000000007F
:10018000000000000000000000000000000000006F
:10019000000000000000000000000000000000005F
:1001A000000000000000000000000000000000004F
:1001B000000000000000000000000000000000003F
:1001C000000000000000000000000000000000002F
:1001D000000000000000000000000000000000001F
:1001E000000000000000000000000000000000000F
:1001F00000000000000000000000000000000000FF
:10020000354936480A1A02D0072291438D463449AF
:1002100034480A1A06D00722914381F30988022242
:1002200082F3148830483149314A00F044F83148AB
:100230003149324A00F03FF831483249324A00F041
:100240003AF832483249334A00F035F832483349F7
:10025000334A00F030F833483349344A00F02BF881
:1002600033483449344A00F026F8344834490022EF
:1002700000F02CF833483449002200F027F83348C6
:100280003349091A082902DB002202604160314A21
:1002900090471F481F49884205D00268043003B4C4
:1002A000904703BCF7E700208646EC46002000217B
:1002B000294A9047FEE7884207D0521A05D00378B2
:1002C00001300B700131013AF9D17047884202D0F8
:1002D00002700130FAE770470000042000E00320BC
:1002E0000000042000000420E8330000000000208B
:1002F0003C000020D0030000D0030000BE2E000010
:10030000E833000000000020000000201C2F000047
:100310001C2F00001C2F00001C2F00001C2F0000B1
:100320001C2F00001C2F00001C2F0000E6330000D3
:10033000243400003C0000203C0000203C00002051
:10034000C1090020C4090020C4090020C4090020FC
:10035000C42900209D03000041270000FEE7FEE7BE
:10036000FEE7FEE7FEE7FEE7FEE7FEE7FEE7FEE765
:1003700000F002B8FFF7FCBF0F484FF007018843B9
:1003800085460E4880470E48016841F470010160BF
:10039000BFF34F8FBFF36F8FFFF732BF09480A4992
:1003A0000A4A884207D0521A05D0037801300B70F0
:1003B0000131013AF9D1704700000420DD29000025
:1003C00088ED00E01C2F000000000020000000204D
:1003D0007047000007B5044B0093044A402300F027
:1003E00032F803B05DF804FBF10300003D0000208B
:1003F0002DE9F84388461446B2B10F4B0F4E032542
:10040000002743F00109224608EB0701002002F013
:100410008FFA0744241A48B933782BB14FF47A4045
:10042000C847013D02D13570BDE8F8830123337020
:10043000002CE8D1F8E700BF202F00003C0000208E
:10044000704702F0A5BAF0B595B01D4616460846AD
:100450000C4600F0D3FF1A9B0D93CDE908650025EB
:100460002B46082205A920460A958DF82C500C959C
:1004700000F0E0FF079B0293069B03939DF8143066
:100480008DF8115003F00302012A1DD1BDF814208C
:10049000059DC3F3C203C2F383168DF81030B2007A
:1004A00008230EA9204600F0C5FFC5F3952508AB2B
:1004B0000093324602AB0EA9284600F095FB204679
:1004C00000F0A0FF15B0F0BD022AF8D1BDF816501B
:1004D000C3F3C203C5F389158DF810300827082D22
:1004E0002E4628BF08263B4632460EA9204600F07D
:1004F000A1FFAD1B08AB02AA31460EA8374400F09D
:10050000D7FB002DEBD1DAE77047000007B5044BAD
:100510000093044A4023FFF796FF03B05DF804FB05
:10052000690500007E00002030B50C4D0FCD89B06C
:100530006C460FC495E80F0084E80F0006230848B6
:1005400000930022694601F075F808B100F010FC34
:10055000044B00221A7009B030BD00BF342F0000D8
:10056000000000207D00002038B50D480D4C0E4DD8
:10057000002323700378EB5CD2B263B1043002F045
:1005800083F808B100F0F4FB084B1A7812B1237815
:10059000002BFBD038BD0C3001F006FEF1E700BFA8
:1005A00000000020BE0000206C0600207D0000201E
:1005B00008B50848084A0378D35C33B1043001F029
:1005C000D3FFBDE80840FFF7AFBF0C3001F084FD5A
:1005D000F7E700BF000000206C060020FFF7A4BF73
:1005E00038B50A4DFFF72DFF0421284600F066FAC2
:1005F000074B01245C71FFF7F1FF042105F11000A6
:1006000000F05CFA034B5C7138BD00BFE82E0000BF
:10061000140000201C000020037813F0040216D000
:1006200003F00303012B03D0022B09D001207047F4
:100630000A6800880232C0F3831002440A60F5E7BA
:100640000B684288023303EB92130B60EEE710460F
:10065000704700002DE9F04FDFF810A10F4685B07C
:100660000446861C0020154600F0D8FBDAF804206A
:100670003A60DAF8083003F580739B1A0AF21C47D7
:100680000AF583690AF21448B34219D30020002DF9
:1006900068D004F00F039B0143F0050363F30F00E0
:1006A000DAF80430DAB2033233444AF82200002088
:1006B000CAF8043000F0B4FB012005B0BDE8F08FAB
:1006C0000121384600F0D1FB484600F0E6FB4046E9
:1006D00000F0E3FBDAF808000090C0B203300AEB48
:1006E00080006946FFF798FF009B30BBDAB20AEB47
:1006F0008202D16801919A1C0133DBB20AEB8303B9
:100700000092D3F80CB001F00303012B22D0022B8E
:1007100015D08346404600F0C3FB10B1009BCAF8D9
:1007200008305946384600F0A0FBDAF80830DAF80D
:10073000042003F580739B1AA6E7D8B2CEE7BDF874
:100740000630C3F3891303334FEA1B4B02EB9303C9
:100750000093DFE7BDF80430C3F383134FEA1B4B6C
:100760001344F5E7A40544F0060099E79001002042
:10077000064B074810B501221A7000F0F8FD044638
:1007800010B9044800F060FE204610BD9001002022
:10079000082F0000982F000030B50A4C71B10A4AAA
:1007A0000A49121BD20800239A4201D1002030BD11
:1007B00031F82350854202D00133F5E7034654F85F
:1007C0003300F4E7C02E0000E82E000000000020F7
:1007D000094B013903EBC000032909D8DFE801F018
:1007E0000A02040604207047007970474079704778
:1007F0000020704702207047C02E0000034BD3E951
:100800000130C31A58425841704700BF9001002080
:100810002DE9FF41FFF7F2FF0546002840F0E9808F
:10082000754CC4F81804BFF34F8FA3680093DBB274
:10083000033304EB83006946FFF7EEFE009B18B11B
:10084000D4F81824002A5AD0DAB2991C013304EBE8
:100850008202DBB204EB8303D268DB68029302F00E
:100860000303022B0192009154D1BDF80630634876
:10087000C3F38917502F3E4628BF502606F10801C2
:1008800066F38F13C1F30901ADF8063000F087FD60
:100890000546002800F0988000F0B0FD00230822F3
:1008A00001A9284600F0BCFD0099CB43DBB201331F
:1008B000C9B20331B6EB830F4FEA830204EB810127
:1008C00025D95FFA82F80823A6EB0806284600F02F
:1008D000A7FDF6B208F10803494903F0FC033246CC
:1008E000284600F09DFD009B033703EB9707009718
:1008F000D4F81834002B43D1D4F8106453E0626864
:100900009A4294D8A260284604B0BDE8F08108233A
:100910003246E5E7012B57D1BDF804303748C3F321
:100920008311062928BF062161F38913023101F0E2
:100930000F018900ADF8043000F031FD05460028B4
:1009400042D000F05BFD0023082201A9284600F0F8
:1009500067FD0026BDF80420C2F38312B30096425F
:1009600003F10803C4D200994A1CC9B203310092B2
:1009700004EB81010422284600F052FD0136E9E72C
:10098000284600F03FFDFFF739FF80F00100C5B2B7
:10099000B9E7F3685B7923B1336829461B683046B1
:1009A0009847F3681E68002EF3D1284600F02AFD10
:1009B000304600F033FAD4F818340BB9009BA3602A
:1009C000002000F02DFADEE7D4F8104454B90D4BA6
:1009D0000D480E49C01AC008000440F0020000F0A3
:1009E0005DF8D0E7236820469B689847E3681C6859
:1009F000ECE7002587E700BF90010020082F0000EA
:100A00009C010020C02E0000E02E0000812F00007D
:100A10002DE9F34704460E46924601A901221846E5
:100A20009946FFF717FE1B4F10B3019D4FF00008CA
:100A3000AA1CC84508EB020123D11748002100F089
:100A4000F1F980F31000000440EA1440E4006B1C4C
:100A500004F03804DBB2EDB244F0010407EB830389
:100A6000033544EA881444EA8624D86047F82540D0
:100A70003B781BB1FFF7CCFE0028FBD102B0BDE8EC
:100A8000F087C9B207EB81015AF82830CB6008F132
:100A90000108CEE790010020AC05002000231A4693
:100AA000FFF7B6BF1FB5CDE90123069B039301AA4B
:100AB0000323FFF7ADFF05B05DF804FB30B50F4C25
:100AC000D4F8102403460020114631B9D9680871C2
:100AD0004AB9C4F810340A6030BDC9680D7985423E
:100AE00006D00968F1E7D26814680C601360F3E778
:100AF00001300A28E8D14FF0FF30EDE790010020E7
:100B000038B5084B0125D3F810441D7004B938BD21
:100B1000E3685D71236820465B689847E3681C685A
:100B2000F4E700BF9001002030B5C38885B00446CB
:100B30000D4633B1144A00921449154A284600F074
:100B400009FA217A05291DD0637A4BB1A088FFF7F5
:100B50003FFE104B104953F82020284600F0FAF9C8
:100B6000227A0E4BA08853F8222003920021FFF72F
:100B700013FE039A0A490346284605B0BDE83040F3
:100B800000F0E8B905B030BDC42F0000AC2F000064
:100B9000A42F000030300000C92F000054300000A6
:100BA000CC2F000007B503460846197A052911D055
:100BB0005B7A2BB1094A0A49019000F0CBF9019800
:100BC0000849019000F0C6F9019803B05DF804EB04
:100BD00000F0B5B9002AF8D0F2E700BFC42F00003A
:100BE000C92F0000C12F00002DE9F04385B01F463A
:100BF0000C9D002395F80C902B7306460C469046EE
:100C000029463846FFF790FFB8F1060F09D8DFE80C
:100C100008F00412181F283340003146284600F01F
:100C200099F9002229463846FFF7BCFF85F80C9059
:100C300005B0BDE8F08322683146284600F08AF905
:100C4000EFE7D4E900233146284600F083F9E8E7CE
:100C5000A36800933146D4E90023284600F07AF9CE
:100C6000DFE7E3680193A36800933146D4E90023EA
:100C7000284600F06FF9D4E723690293E3680193F3
:100C8000A36800933146D4E90023284600F062F9B6
:100C9000C7E76369039323690293E3680193A36839
:100CA00000933146D4E90023284600F053F9B8E711
:100CB00008292DE9F74F80460E4617461C463DD8B9
:100CC00000251B7B2573214610460193FFF72CFF5F
:100CD000DFF88CA0DFF88CB0AE4232D918F80520CE
:100CE0005946204600F036F90135082DF4D11B494C
:100CF000DFF874A0DFF874B0204600F02BF94FF055
:100D000000094E4524D918F809507E2D1ED82846D2
:100D100002F052F8002814BF2A462E2259462046D7
:100D200000F018F909F10109B9F1080FE9D1012220
:100D300021463846FFF736FF019B237303B0BDE819
:100D4000F08F5146204600F005F9CDE72E22E5E769
:100D50005146204600F0FEF8E4E700BFE02F000017
:100D6000DC2F0000D62F0000DE2F0000E22F000055
:100D70001FB50021039001AA44F20100CDE9011141
:100D800000F004F805B05DF804FB000038B572B659
:100D9000FFF7B6FEFFF73CFD0028FBD1104B114CCE
:100DA000114D1249E41AE408240444F00100FFF74D
:100DB00075FED5F8F030DB0700D500BE0C4944F0D5
:100DC0000200FFF76BFEBFF34F8FEA68094B02F496
:100DD000E0621343EB60BFF34F8F00BFFDE700BF3E
:100DE000C02E0000E02E000000ED00E068300000A2
:100DF000743000000400FA0572B6024A1368013329
:100E00001360704748060020034A1368013B1360D3
:100E100003B962B6704700BF48060020FFF7ECBF79
:100E2000FFF7F2BF10B5034653E8000F0A4643E848
:100E3000002494F0000FF7D110BD10B5034653E81D
:100E4000002F42EA010043E8000494F0000FF6D1BD
:100E500010BD10B5034653E8000F00EA010243E855
:100E6000002494F0000FF6D110BD10B5034653E8EE
:100E7000002F02EB010043E8000494F0000FF6D1CC
:100E800010BD10B5034653E8002FA2EB010043E864
:100E9000000494F0000FF6D110BD0121FFF7CDBF83
:100EA0000021FFF7D6BF10B590B1D0E9012301684A
:100EB0009B1ADBB20A60013BDBB2FF2B026802D156
:100EC0000020107110BD11684C1C14600B70F2E70B
:100ED0000E20F7E738B504460020FFF79FFF226891
:100EE00063681168994213D9481E106011F8013CDB
:100EF000E568218A01FB0355A36811791B1ADBB24F
:100F0000994200D213710020FFF78AFF284638BDAE
:100F10000025F8E738B5054600200C46FFF77EFFB0
:100F20002A681368591C1160E968641A298AB4FB9D
:100F3000F1F41C70BDE838400020FFF771BF8268F3
:100F400010B504462AB14369016800699847002337
:100F5000A36010BD0EB403B5039921B104AB01AA7F
:100F6000019300F077F802B05DF804EB03B070472E
:100F70000A2938B504460D4602D10D21FFF7F8FFC6
:100F8000A3682268591CA160D554D4E901329A4261
:100F900004D32046BDE83840FFF7D1BF38BD00007C
:100FA0002DE9F84F9846DDE90A43154682460F467B
:100FB0000A464FF00109AA420FD2C14538BFC146C7
:100FC00013F0010B01D16CB900240126B8F1010F17
:100FD0001BD908F1FF386E43F8E709F10109B2FBAC
:100FE000F5F2E8E79B070ED5B8F1000F0CBF3026ED
:100FF0002026A145E9D2013C31465046FFF7B8FF13
:10100000002CF6D1E0E72026F3E7B7FBF6F39D428C
:10101000E1D9DFF83C80B7FBF6F3504618F803102F
:1010200006FB1377FFF7A4FF3346AB42B6FBF5F69A
:10103000F1D2BBF1000F02D00CB1A14501D3BDE844
:10104000F88F20215046013CFFF792FFF4E700BFE4
:10105000813000002DE9F74F0546174688460029E4
:1010600000F03E8118F8011B49B92B7B002B00F0E2
:101070003781284603B0BDE8F04FFFF760BF252950
:1010800040F0B780002698F800302D2B424608F13A
:10109000010823D0302B24D02B2B25D000242A2B41
:1010A00002F1010123D13B681A1D1B683A601C4400
:1010B0000A4613782E2B26D101324FF0000A104633
:1010C00010F8011BA1F1300CBCF1090F1DD80A2347
:1010D00003FB0A13A3F1300A0246F0E746F00106CB
:1010E000D1E746F00206CEE746F00406CBE711F85A
:1010F000013CA3F130000928DBD80A2202FB0434AA
:10110000303C0A46CBE74FF0000A12F8011B01F011
:10111000FB0068289046F8D0782909D86F290CD8A8
:10112000632962D022D8252963D0582900F088800D
:1011300098F80030002B95D197E770390829F7D837
:1011400001A353F821F000BFBB12000031110000D1
:101150003111000051120000311100002F12000067
:10116000311100003111000041120000642901D04A
:101170006929DDD13A68D2F80090111D89EAE97237
:101180003960A2EBE9724FF0010B092A35DCD34537
:1011900038BFD3462CB1B9F1000F01DB720700D57F
:1011A000013CB30702D5BAF1000F03D0F00701D418
:1011B0004CBB0024B9F1000F2DDAC9F100092D2133
:1011C0002846FFF7D5FE06F00302022A04D1BAF141
:1011D000000F01D11CBB0024CDE9004653460A2272
:1011E00049462846FFF7DCFEA2E73B681A1D19783E
:1011F0003A602846FFF7BCFE9AE70A230BF1010B81
:10120000B2FBF3F2C1E7A345D4D220212846013C2A
:10121000FFF7AEFECCE77107D5D52B21D0E7A3456C
:10122000DAD230212846013CFFF7A2FED2E7396826
:10123000CDE900460A1D3A6053460A220968D0E704
:1012400039680A1D3A60CDE9004653461022F5E799
:101250003B681A1D3A6016F00106D3F8009024D1BD
:10126000B9F1000F03D0484601F0F9FD0646B4423B
:101270001DD809F1FF3919F8011F00293FF458AFB3
:101280002846FFF775FEF6E728460136FFF770FEA1
:1012900019F806100029F7D1A642BFF449AF202162
:1012A0002846013CFFF764FEF6E70026F0E7202120
:1012B0002846013CFFF75CFED9E73B681A1D3A60FF
:1012C000302128461C68FFF753FE78212846FFF797
:1012D0004FFE00220823CDE900322146102280E78C
:1012E00003B0BDE8F08F00BF2DE9F84FB0F806A0BD
:1012F0004579D2F800B09DF828900AFB05F5043D29
:1013000088460BEB0301A94203F1040488BFA5EB57
:10131000030BB4FBFAF607460AFB1644C2F800B00A
:101320004EB9AAEB04055D4528BF5D46BBF1000F31
:1013300004D1BDE8F88F3F68013EF1E7043408EBC3
:1013400006003C442A46B9F1000F0DD02146ABEB14
:10135000050B01F039FDDA452E443F6855464FF044
:10136000000428BF5D46E1E701462046EFE7FFF7AE
:101370009ABDF8B546790146721E05460023934290
:101380002D6803D30024A64202D8F8BD0133F6E746
:101390000F682846FFF7BEFD01343946F3E72DE913
:1013A000F843068ACD1C0746FFF794FD043E3544FA
:1013B0000446B5FBF6F5F0B14FF48073EDB28380CF
:1013C000C680013D076081464FF00008A84512D253
:1013D0003846FFF77FFD064648B1637901336371F4
:1013E00008F10108C9F8000007608146EEE72046D1
:1013F000FFF7BFFF34462046BDE8F88301210430E3
:10140000FFF733BD10B5012104460430FFF739FD65
:10141000C0B220B92046BDE81040FFF7AABF10BDFA
:101420001FB503920022009203AAFFF75DFF05B0EB
:101430005DF804FB1FB503920122009203AAFFF797
:1014400053FF05B05DF804FB836800225A60C3E9CE
:1014500004229A60DA601A60704700001FB50378B2
:101460008DF800308388ADF8043083688DF806303D
:10147000C3688DF80730036902934369054A0393F3
:10148000054B684653F8213052F82110984705B0B3
:101490005DF804FB4C06002054060020024B4FF47C
:1014A000807043F001031847A03000001F2886BF5A
:1014B000054A00F01F004FF0A042012303FA00F09C
:1014C000C2F80805704700BF000300502DE9F0473F
:1014D000154690F80080394A42F82850384A42F8B8
:1014E00028304B7B06460C46A3B30868DFF8D8903B
:1014F0004FF0A04100F5E07340F20C6241F8232068
:10150000636803F5E073002741F82320FFF7CEFF5F
:101510006068FFF7CBFF236803F5E07340F20D62CC
:1015200041F82320636803F5E0734FF0010A41F8A6
:101530002320FFF7B3FF63681F2B8ABF4A464FF093
:10154000A04203F01F03D2F8102522FA03F3DB07B1
:101550000BD507BB002D1B4A434608BF2A46214630
:10156000301DBDE8F04700F0D5B923681F2B86BFBA
:1015700003F01F034A464FF0A0420AFA03F3C2F8F1
:101580000C35FFF78BFF01372068FFF78FFFFFF760
:1015900085FF092FCFD163681F2B86BF0A4903F04F
:1015A0001F034FF0A041012202FA03F3C1F80C35EA
:1015B000FFF774FF6068FFF779FFCBE75406002060
:1015C0004C0600205D140000000300501FB5037896
:1015D0008DF800304368019383688DF80830C36844
:1015E000054A0393054B684653F8213052F8211001
:1015F000984705B05DF804FB5C06002064060020F7
:101600001FB503788DF800304368019383688DF827
:101610000830C368054A0393054B684653F82130E8
:1016200052F82110984705B05DF804FB5C060020D5
:1016300064060020F0B5194B90F800C0DFF86CE0AC
:1016400043F82C20164B16460A6943F82C204B7F92
:101650000EF80C300C4607460FCC89B06D460FC50E
:1016600094E80F0085E80F003B78CDF810C01EF815
:1016700003304BB1002E0B4A694608BF3246381D75
:1016800000F096FE09B0F0BD002E074A694608BF7B
:10169000324607F10C0000F04FFCF3E7640600202F
:1016A0005C060020CD150000011600006C0600202D
:1016B000014B1B68184700BF7006002038B50B4B64
:1016C00098420C4601D0002038BD0020FFF7A6FB51
:1016D000074B1D7915B901221C601A710020FFF714
:1016E0009FFB002DEFD01120EEE700BF002000404F
:1016F00070060020034B984201BF034B00221A6082
:101700001A717047002000407006002000234350EB
:1017100082B043580193019B02B070470B7B032BAF
:101720002AD8DFE803F022261A028B685A0304D570
:10173000D0F84C350A699A4207D18B685B031BD4F9
:10174000D0F84C354A699A4216D000230622C0F8D8
:101750000035C0F8002518467047D0F84C350A69A6
:101760009A42F2D1D0F83C35ECE7D0F84C350A6912
:10177000E9E7D0F83C35FAE701207047F0B5D0F83A
:10178000243187B004460D46EBB14FF49271FFF758
:10179000BDFFD0F80431B3B9AB68C0F808330223F9
:1017A000AB60AB68C0F80433D0F860311BB1D0F83F
:1017B00000329B0502D4012323626361012385F873
:1017C0002E3007B0F0BDD4F80431002B41D04FF4D7
:1017D00082712046FFF79AFF2B6A5F0609D495F8BD
:1017E0002E3033B92946FFF799FF80F0010085F8C4
:1017F0002E002B6A5E073ED405F10C070FCF01AE19
:101800000FC63B6833604FF4B0712046FFF77EFF90
:101810004FF4AE71FFF77AFF95F8303013B195F8B9
:101820002E3043B30023C4F80032AB602F4BC4F812
:10183000083344F30733002B4FEA14321BDB02F06A
:101840001F015B0901228A406033294941F82320A6
:1018500011E04FF4A4712046FFF758FF2B7B23BB08
:1018600005F10C070FCF01AE0FC63B68336095F84A
:101870003030002BD7D0D4F8C434C4F8C43498071F
:1018800025D501238DF8003095F830300BB985F857
:101890002F302B6A5B0703D595F82E30002B90D0A4
:1018A000D5E90031684698478BE74FF40073C4F8D8
:1018B000003240F20223AB6003F1CE73C4F8083368
:1018C000AB68C4F804330123A360236279E75907A6
:1018D00001D50223D6E7DA0701D50323D2E795F82D
:1018E0002E30002BCED00423CCE700BF02029C0197
:1018F00000E100E001490248FFF740BF7806002000
:101900000030004002494FF04020FFF737BF00BFD2
:10191000AC0600202DE9F84F06793A4D4FF0340A15
:101920000AFB06FA05EB0A079B4697F82D3080461E
:101930000C469146002B61D1334B006853F82610BA
:10194000FFF7BCFE00285BD12168637B87F832304B
:101950001F298CBF01F01F030B4603F5E07388BFFE
:101960002A4AB86098BF4FF0A04240F20C6C87F84A
:101970002F0042F823C06268C7F804B01F2A8CBF4A
:1019800002F01F03134687F8300003F5E07388BFA9
:101990001E4F45F80A9098BF4FF0A04747F823C064
:1019A000D8F80030C3F80815C3F80C25A268C3F8AE
:1019B0002425B9F1000F14D0227B43F307315201E3
:1019C0000029C3F30733D2B213DB114C671887F831
:1019D00000230122490903F01F0302FA03F344F82C
:1019E0002130342303FB0655012385F82D30BDE853
:1019F000F88F084903F00F03CA54F2E70820F6E70E
:101A00001120F4E778060020B030000000030050F9
:101A100000E100E014ED00E0036802790621C3F85C
:101A20000015044B342101FB0233022283F82D20E0
:101A3000704700BF780600202DE9F843DFF8C88220
:101A400090F804900468342606FB0986002386F883
:101A50002E30CB6803F06043B3F1005F0D461746AC
:101A600003D010263046BDE8F883A64BC4F80833EF
:101A700096F82F3023B1B368C4F804331126F1E788
:101A800012F0140F0CBF0123002386F82F308E466E
:101A9000BEE80F0006F10C0CACE80F00DEF80030D9
:101AA000CCF80030C7F3001386F8303037626B781B
:101AB000C4F8883520464FF48271FFF727FE4FF4B3
:101AC0009271FFF723FE4FF4B071FFF71FFE4FF442
:101AD000A471FFF71BFE17F0010318BF0123C4F820
:101AE000503517F0020318BF0123C4F840352B7896
:101AF000032B00F2B580DFE803F084A069022B69B4
:101B000003F06043B3F1005FABD14FF48073C4F8CE
:101B10000032EA686B68C4F844254FF4A871C4F831
:101B20004835FFF7F3FD01232362A360D4F8503159
:101B3000002BFBD04FF4A8712046FFF7E7FDAB6800
:101B40002A69C4F84425C4F84835342303FB0983C3
:101B50004FF480229A60082300263A0704D42A789A
:101B6000032A1CBF0122E250342303FB09F308EBD4
:101B7000030258F80330002B75D10125D4F8482111
:101B8000D4F80431002B40F08980003A18BF0122BC
:101B9000D4F82431002B00F088804FF49271204655
:101BA000FFF7B4FDD4F86011D4F8003209B19805FC
:101BB00004D4256265610029E0D00022D90574D5DE
:101BC0004FF4A4712046FFF7A1FDD7E76B68EA68E0
:101BD000C4F84425C4F848352B6903F06042B2F1DB
:101BE000005F7FF43EAFAA68C4F834354FF48453E5
:101BF000C4F83825C4F80032342303FB09830222D9
:101C000012E06B68EA68C4F8442517F0200FC4F8A6
:101C100048354FF034030BD04FF48072C4F80022E3
:101C200003FB09834FF480229A600123236292E729
:101C30004FF40072C4F80022DFE76B68EA68C4F86A
:101C40003425C4F838354FF48053C4F800323423B7
:101C500003FB098302229A600123236200237BE7AE
:101C60000823072679E77B0744BF002393607D069E
:101C700006D4342303FB09839A6842F002029A6077
:101C8000342303FB0988D8F8083043F40073C8F8FC
:101C90000830D8F80830C4F80433E3E64FF4827112
:101CA0002046FFF733FD012272E7002A3FF466AFBA
:101CB0003421D4F8C434C4F8C43401FB09820020B0
:101CC00082F82F0093B113F0010F14BF4FF40246B6
:101CD000032648F2012213F0020F18BF164613F034
:101CE000040F48F2022318BF1E46BBE67B063FF5F1
:101CF000B9AE09FB01812046FFF710FD002808BF9F
:101D00000326AFE602029C017806002010B586B0DB
:101D10000024CDE902349DF820308DF80510A3424F
:101D2000CDE9042401A914BF202222468DF80440E5
:101D3000FFF782FE06B010BD10B586B001240293F5
:101D40000023CDE903328DF805101A4601A98DF85C
:101D500004400593FFF770FE06B010BD002343500A
:101D600082B043580193019B02B070470A4610B5F8
:101D70004FF48E71FFF7F2FF136A9168C95C136A22
:101D800001331362C0F81C1510BD8B690A4610B5EB
:101D90004FF4847123B9FFF7E1FFD0F8183510BD77
:101DA000FFF7DCFF536AD168D0F81805C854536AAE
:101DB00001335362F3E700001FB501238DF80030B3
:101DC000044BCDE90110D3E900126846904705B0F5
:101DD0005DF804FBE006002030B54D4DD5F8043326
:101DE0009A0585B051D5D5F82431002B4DD04FF44C
:101DF00092712846FFF7B2FF4FF40173C5F808331C
:101E0000444B93F829200AB901226A604049022212
:101E10008DF80020D1F88024C1F8802403929A69BB
:101E20000292DA6801920022C3E906226846D3E9E9
:101E3000001290473648D0F81C315BB1354A5169E1
:101E4000136A99424DD992F82830002B49D1114696
:101E5000FFF78CFF2E48D0F84431002B56D04FF4BA
:101E6000A271FFF77BFF2B4B93F829200AB10122C7
:101E700002609A69002A49D0586AD96800229A619A
:101E800005B0BDE83040FFF797BFD5F804335B07D6
:101E9000D0D5D5F80831002BCCD01E4C1C4821469B
:101EA000FFF773FF636AA2699A42C3D1E369E168ED
:101EB0004BB1A3612369E3600023606AE36163625D
:101EC000FFF77AFFB6E794F829300BB901236B606E
:101ED0000F4B4FF40172C3F808230023606AA3611B
:101EE000EEE70B484FF48E71FFF738FF5369002B74
:101EF000B0D051690291002391688DF800300191B2
:101F000053616846D2E900139847A3E705B030BD96
:101F100000200040E00600201F2886BF00F01F00C0
:101F2000044B4FF0A04300F5E070022243F820205C
:101F3000704700BF000300502DE9F843604D90F852
:101F400004802C2303FB0853064693F82A300C46E2
:101F50009146002B40F0AF805A490068FFF7AEFB76
:101F60000746002840F0A9802268531C10D01F2A81
:101F700087BF554902F01F0313464FF0A0410120CF
:101F8000984003F5E073C1F80805032041F82300E9
:101F90006168481C0DD01F298BBF01F01F030B4641
:101FA00049484FF0A04003F5E0734FF0000C40F8B3
:101FB00023C03068A369C0F8243594F814C0637D49
:101FC000BCF1010F4CEA0303C0F86C35C0F81415DE
:101FD000C0F80C252BD1A368591C0DD01F2B8BBF2B
:101FE00003F01F021A4638494FF0A04102F5E07293
:101FF0004FF0000C41F822C0E1684A1C13D01F29A1
:1020000087BF314A01F01F0C8C464FF0A0424FF0C1
:10201000010E0EFA0CFE0CF5E07CC2F808E54FF05C
:10202000030E42F82CE0C0F80815C0F810352C2239
:1020300002FB08F2AB18C3F804902369AB50B9F166
:10204000000F20D04FF48E71247FFFF787FE4FF4EE
:10205000A2713068FFF782FE32681C4BC2F804336D
:10206000130B42F307326101002AC9B21EDB184884
:10207000841884F800130121520903F01F0301FAA8
:1020800003F340F8223033680422C3F800252C23E0
:1020900003FB08530022C3E9062283F829205A6172
:1020A000012283F82A203846BDE8F883094A03F064
:1020B0000F03D154E7E70827F5E71127F3E700BF3F
:1020C000E0060020D91D000000030050800002003F
:1020D00000E100E014ED00E02DE9F041036805792E
:1020E000284C0022C3F800252C2202FB05420146A1
:1020F0005268A2B1244AC3F808231A0B43F30733EA
:10210000002B0CDB02F01F005B0901228240203310
:102110001E4840F82320BFF34F8FBFF36F8F0B682B
:10212000D3F80C05D3F81485D3F80865D3F81075E7
:102130004FF0FF329042C3F81425C3F80C25C3F8C2
:102140000825C3F8102501D0FFF7E6FEB8F1FF3FE0
:1021500002D04046FFF7E0FE7A1C02D03846FFF777
:10216000DBFE731C02D03046FFF7D6FE0868FFF78F
:10217000C1FA2C2303FB0544002384F82A30636052
:10218000BDE8F081E00600208402020000E100E0EA
:102190000279044B2C2101FB02335869003818BF27
:1021A00001207047E00600202DE9F84F064690F820
:1021B000048089469246FFF7EBFF044600283CD195
:1021C000204F2C2508FB057B4FF48E71CBF814A013
:1021D000CBF80890CBF820008BF828003068FFF788
:1021E000BDFD3068012383605946FFF7BFFDDBF872
:1021F00004305D461BBB3068DBF814402B6A9C4200
:1022000011D83368D3F81C21002AFBD00122DA60F0
:1022100000202C2303FB087700237B61BDE8F88FA7
:1022200095F828303BB9D0F81C31002BF8D059462E
:10223000FFF79CFDE2E70F20EBE71120EEE72046D9
:10224000ECE700BFE00600200023435082B0435873
:102250000193019B02B070471FB501238DF8003038
:10226000044BCDE90110D3E900126846904705B050
:102270005DF804FB0C0700207FB5434AD2F82461C7
:10228000002E60D010464FF49271FFF7DDFF02235D
:102290008DF80030D2F88034C2F880340393D2F83D
:1022A0003C350293394BDA6801920022C3E90622D9
:1022B0006846D3E9001290473348D0F8443173B1EF
:1022C0004FF4A271FFF7C0FF304B9A693AB1002278
:1022D000C3E90622D968D0F83C05FFF7BDFF2A48BC
:1022E000D0F82031ABB14FF49071FFF7ADFF01236F
:1022F000C360264B5A6962B1D0F84C150291002296
:1023000099688DF8002001915A616846D3E900125E
:1023100090471D48D0F858319BB14FF4AC71FFF78E
:1023200093FF1A4B5A6962B1D0F84C150291002202
:1023300099688DF8002001915A616846D3E900122E
:10234000904704B070BDD2F81031002BB4D04FF4D8
:1023500088711046FFF778FF0C4BD2F83C0599695D
:102360008842A9D1DC69D96864B1D2F8005225F05D
:102370002005C2F800521A699C61DA60DE61FFF73D
:102380006BFF99E79C61FAE7002000400C070020F2
:102390001F2886BF00F01F00044B4FF0A04300F53C
:1023A000E070022243F82020704700BF0003005075
:1023B0002DE9F843664E90F80480242303FB08635C
:1023C000044693F820300D469146002B40F0BC8027
:1023D00060490068FFF772F90746002840F0B680B0
:1023E00029684B1C10D01F2987BF5B4A01F01F03CF
:1023F0000B464FF0A0420120984003F5E073C2F86D
:102400000805032042F823006A68501C0DD01F2ADB
:102410008BBF02F01F0313464F484FF0A04003F557
:10242000E0734FF0000C40F823C02068AB69C0F89F
:10243000243595F814C06B7DBCF1010F4CEA030301
:10244000C0F86C35C0F80C15C0F814252BD1AB685A
:10245000591C0DD01F2B8BBF03F01F021A463E499B
:102460004FF0A04102F5E0724FF0000C41F822C09D
:10247000E9684A1C13D01F2987BF374A01F01F0C97
:102480008C464FF0A0424FF0010E0EFA0CFE0CF5F8
:10249000E07CC2F808E54FF0030E42F82CE0C0F8EB
:1024A0000815C0F81035242202FB08F2B318C3F84F
:1024B00004902B69B350B9F1000F2FD04FF48871FD
:1024C0002A7FFFF7C1FE20684FF49071FFF7BCFE32
:1024D00020684FF49271FFF7B7FE20684FF4A271A5
:1024E000FFF7B2FE4FF4AC712068FFF7ADFE236832
:1024F0001A49C3F80413190B43F307335201002B95
:10250000D2B21CDB1648C51885F8002301225B09EE
:1025100001F01F0102FA01F140F82310236808229C
:10252000C3F80025242303FB08660023C6E906330D
:102530007361012386F820303846BDE8F883094BE3
:1025400001F00F015A54E9E70827F5E71127F3E7EF
:102550000C07002079220000000300501003420005
:1025600000E100E014ED00E02DE9F0413D4D067979
:102570000468242303FB065302465B68ABB13A4B65
:10258000C4F8083344F30733002B4FEA14310CDB53
:1025900001F01F005B09012181402033334840F8DE
:1025A0002310BFF34F8FBFF36F8FD4F8003223F0A7
:1025B0002003C4F80032242303FB06539B6933B184
:1025C0004FF4A2712046FFF73FFE012363604FF4F2
:1025D000AC712046FFF738FE0123E360242303FBA0
:1025E0000653D4F858110029FBD0996919B1D4F8D1
:1025F00044110029F5D00023C4F800351368D3F83E
:102600000C05D3F81485D3F80815D3F810754FF0DE
:10261000FF329042C3F80C25C3F81425C3F80825EF
:10262000C3F8102501D0FFF7B3FEB8F1FF3F02D089
:102630004046FFF7ADFE7A1C02D03846FFF7A8FEF1
:102640004B1C02D00846FFF7A3FE2046FFF752F8C6
:10265000242303FB0655002385F820306B60BDE87A
:10266000F08100BF0C0700201003420000E100E0F1
:102670000279044B242101FB02335869003818BF4A
:10268000012070470C07002001F06043B3F1005FA8
:102690002DE9F0470646884692463BD190F80490D3
:1026A000FFF7E6FF0446002836D11D4F3068242589
:1026B00005FB09754FF49071C5F814A0C5F80880A2
:1026C000FFF7C2FD4FF4AC713068FFF7BDFD336812
:1026D0006A69A968C3F84415C3F8482501229A60BD
:1026E0006A68DAB9D3F82021D3F858011AB900285A
:1026F000F8D00F2007E00028FBD10122DA60D3F8E0
:102700005821002AFBD0242303FB097700237B6197
:10271000BDE8F0871020FBE71120F9E72046F7E736
:102720000C07002038B5054D044645F001054FF46F
:102730007A40A847013CFAD138BD00BF7031000093
:10274000F7B500210846FEF713F808B1FEF710FBB5
:10275000FDF746FF2D4C2E4B2E49E41AE4082404C5
:1027600044F003042046FEF799F9FEF751F80028DB
:10277000FBD100F02FFA4FF47A70FFF7D3FF264D0C
:1027800000F09FFA78B325492046FEF787F9FEF757
:102790003FF80028FBD122492046FEF77FF9FEF7DB
:1027A00037F80028FBD14FF4FA601E4D1E4FFFF79B
:1027B000B9FF2E1D1D493246881E00F093FAF8B16C
:1027C000B5F904300093B5F90230B5F90020184985
:1027D0002046FEF767F9FEF71BF80028FBD16420BE
:1027E000FFF7A0FFE6E729462046FEF757F9FEF778
:1027F0000FF80028FBD14FF47A70FFF793FFBFE783
:1028000039462046FEF74AF9E5E700BFE02E000012
:10281000C02E0000C3300000C9300000E8300000C6
:10282000033100003007002046310000320700204D
:10283000223100000369C26893429CBF80681B1864
:10284000013B981A70472DE9F843D0E902940546F8
:10285000A9EB04084068904520440F46144404D96D
:1028600000F0B2FAEC60BDE8F8834246A4EB09043C
:1028700000F0AAFA6868224607EB0801F0E72DE9A4
:10288000F843C5680646894617464FF00008346984
:10289000B3687068A54228BFE418013C621B5C1B4A
:1028A000BC4228BF3C46944228BF144649462844AF
:1028B000224600F089FAB3682544AB4208BF0025E0
:1028C0003F1BA044A144F560E1D14046BDE8F88338
:1028D00010B5114C114AA2610223C4E90433104B14
:1028E000E361A2644FF400730E4A0F492362E2646D
:1028F00000231022E01DA3626362E362A3656365A7
:10290000E365226500F089FA0849204600F085FA5F
:102910002023A37110BD00BF3807002076310000CE
:10292000C0070020B00700207F3100008331000085
:1029300070B5164B182400FB04451D4404FB0033FE
:102940001646DC6A012C0ED0022C18D0E4B92846B9
:10295000FFF770FF864204D832462846FFF773FF20
:102960003446204670BD2846FFF764FF8642344651
:1029700028BF044622462846FFF765FFF1E72846B0
:10298000BDE87040FFF77BBF0024EAE7380700206E
:10299000FFF79EBF4FF08053D3F83001A0F108033A
:1029A00058425841704700004FF08053D3F830210F
:1029B000082A06D1D3F83431052B02D8024AD05C5C
:1029C00070470020704700BF90310000024AD2F8E3
:1029D0000034002BFBD0704700E0014010B5FFF73A
:1029E000D9FF40B14FF080430022C3F80C21C3F857
:1029F0001021C3F83825FFF7CDFF002846D04FF04F
:102A00008052654BD2F80414C3F82015D2F808148C
:102A1000C3F82415D2F80C14C3F82815D2F81014F2
:102A2000C3F82C15D2F81414C3F83015D2F81814C2
:102A3000C3F83415D2F81C14C3F84015D2F820148A
:102A4000C3F84415D2F82414C3F84815D2F8281452
:102A5000C3F84C15D2F82C14C3F85015D2F8301422
:102A6000C3F85415D2F83414C3F86015D2F83814EA
:102A7000C3F86415D2F83C14C3F86815D2F84014B2
:102A8000C3F86C15D2F84424C3F87025FFF78CFF07
:102A900018B1424B424AC3F88C26FFF785FF18B1A4
:102AA000404BFB22C3F81825FFF77EFF70B14FF0B3
:102AB00080414FF08053D1F8E42ED3F8583222F001
:102AC0000F0203F00F031343C1F8E43EFFF76CFF5E
:102AD00020B1354B4FF40072C3F84026FFF75AFF80
:102AE00048B14FF08043D3F80024D20744BF6FF0C1
:102AF0000102C3F800242D4AD2F8883043F4700351
:102B0000C2F88830BFF34F8FBFF36F8F4FF0805301
:102B1000D3F83021082A0ED1D3F83431052B02D84E
:102B2000234AD35C3BB14FF01023D3F808224FF077
:102B30008043C3F858254FF01023D3F80022002A11
:102B400003DBD3F80432002B22DA1A4901234FF0B9
:102B50001020C1F804351224FFF738FFC0F80042F6
:102B6000FFF734FFC0F80442FFF730FF0023C1F83D
:102B70000435FFF72BFFBFF34F8F0C490E4BCA688C
:102B800002F4E0621343CB60BFF34F8F00BFFDE759
:102B90000A4B0B4A1A6010BD00C0004000500040B4
:102BA0004881030000F000400090024000ED00E08A
:102BB0008A31000000E001400400FA0524000020F2
:102BC0000090D003037813B9014B01221A707047AB
:102BD000C00900201FB50F220E23CDE900234FF0BE
:102BE000CD610223CDE90213074A08480023694654
:102BF000FEF76CFC08B1FEF7BBF80548FEF70CFFCA
:102C000005B05DF804FB00BFC52B00009831000043
:102C10009C3100001FB50B4C8DF80C0000238DF883
:102C20000D10237000930848022303AA1F21FFF709
:102C30006DF82378002BFCD0B0FA80F0400904B086
:102C400010BD00BFC00900209C3100007FB5124CB0
:102C50008DF80F000023237001230D4616460F4800
:102C600000930DF10F021F21FFF750F82378002B7E
:102C7000FCD070B92070334608482A461F21FFF760
:102C80005BF82378002BFCD0B0FA80F0400904B048
:102C900070BD0020FBE700BFC00900209C31000090
:102CA00007B501220DF107011320FFF7CFFF28B16F
:102CB0009DF80700A0F13D035842584103B05DF86C
:102CC00004FB10B5FFF7ECFF0446FFF7E9FF40B146
:102CD000E0211B20FFF79EFF10211720FFF79AFF2E
:102CE000204610BDF7B507460E4615466946062232
:102CF0000820FFF7ABFF044668B1062269460820AA
:102D0000FFF7A4FFBDF800303B80BDF802303380F0
:102D1000BDF804302B80204603B0F0BD7F2805D8D5
:102D2000034A044B105C5B5C1840704700207047FE
:102D3000B431000034320000A0F16103192B98BFB8
:102D400020387047A0F14103192B98BF20307047FD
:102D50007F299ABF017001206FF02E00704700BFDD
:102D60005AB10A787F2A0AD800B102600021501AAD
:102D7000C3E9001118BF01207047104670476FF07B
:102D80002E007047A0F16103192B98BF20387047BF
:102D9000A0F14103192B98BF203070477F2805D838
:102DA000034A044B105C5B5C18407047002070477E
:102DB000B431000034320000024B5B689B6809218B
:102DC0001B68184728000020844640EA010313F0DE
:102DD000030F18D18446202A0BD32DE9F007B1E860
:102DE000F807A0E8F807A2F12002202AF7D2BDE8F0
:102DF000F007042A07D351F8043B40F8043BA2F142
:102E00000402042AF7D2002A05D011F8013B00F889
:102E1000013B013AF9D160467047024610F0030FBA
:102E200016D111F0030F13D12DE9F0004FF0013747
:102E30004FF0803351F8044BA4EB070525EA040555
:102E40001D4002D142F8044BF4E7A1F10401F0BCAB
:102E500011F8013B02F8013B002BF9D1704700F15A
:102E6000010110F0030F11D010F8012B002A23D01C
:102E700010F0030F0AD010F8012B002A1CD010F01C
:102E8000030F03D010F8012B002A15D02DE9700094
:102E90004FF001324FF0803350F8044BA4EB0205A1
:102EA00025EA04051D4000D1F6E7A0F1040070BC3E
:0E2EB00010F8012B002AFBD1A0EB01007047A7
:102EC000A630000000000000AA3000000000000052
:102ED000B830000000000000BD300000000000001D
:082EE000922F00000000030323
:102EE800282F000000000000712F000014000020AF
:102EF800542F000000000000602F00001C0000207C
:102F0800C00000208801002090010020C800002097
:042F1800180000009D
:102F1C00000000000338FDD870470000D503000006
:102F2C0041040000D1030000FFFFFFFFFFFFFFFF84
:102F3C00FFFFFFFFFFFFFFFF00000000000000008D
:102F4C000000D601060100000D050000B1050000CF
:102F5C0009050000756172745F6C6F675F62616375
:102F6C006B656E64007274745F6C6F675F62616333
:102F7C006B656E64004261636B656E647320666C96
:102F8C00757368656400617070000000B005002006
:102F9C007F000000300600201B5B313B33316D009D
:102FAC0025734C6F67732064726F70706564202892
:102FBC0025642925730D0A001B5B306D00257300F9
:102FCC003C25733E2025733A2000202530327800B2
:102FDC00202020007C002563001B5B313B33306DCF
:102FEC00001B5B313B33326D001B5B313B33336D6C
:102FFC00001B5B313B33346D001B5B313B33356D58
:10300C00001B5B313B33366D001B5B313B33376D43
:10301C00007761726E696E6700696E666F00646539
:10302C0062756700C42F0000E52F0000A42F00007C
:10303C00ED2F0000F52F0000FD2F000005300000E3
:10304C000D30000015300000000000006E30000054
:10305C001D300000253000002A30000046617461EC
:10306C006C206572726F720053797374656D207287
:10307C006573657400303132333435363738394145
:10308C0042434445460000000000000000000000E0
:10309C00000000000338FDD87047505253005457BD
:1030AC00494D0000F5180000051900005541525417
:1030BC000055415254450048656C6C6F006B78317B
:1030CC00333220696E697469616C697A6174696FF5
:1030DC006E206661696C6564212121006B78313347
:1030EC003220496E6974205375636365737366751A
:1030FC006C6C792121210052656164696E672056E0
:10310C00616C7565732066726F6D20414343202698
:10311C00204759524F004143432056616C756573EB
:10312C003A202078203D202564202079203D202540
:10313C006420207A203D2025640052656164696E0C
:10314C0067204143432076616C7565732046616945
:10315C006C656421212100000000000000000000CB
:10316C00000000000338FDD870475465726D696E1D
:10317C00616C0052545400534547474552000000BF
:10318C000000010101000000000000000000000030
:10319C00003000400000000001000000430000006F
:1031AC00504F534958000000202020202020202080
:1031BC00206828282828202020202020202020209B
:1031CC00202020202020202048101010101010103B
:1031DC001010101010101010848484848484848443
:1031EC008484101010101010108181818181810154
:1031FC0001010101010101010101010101010101B3
:10320C000101011010101010108282828282820241
:10321C000202020202020202020202020202020282
:10322C0002020210101010200007032004170201E4
:10323C000857104080000000A8310000AC3200009C
:10324C00C033000053756E004D6F6E0054756500F1
:10325C0057656400546875004672690053617400C8
:10326C00000000004A616E00466562004D6172000C
:10327C00417072004D6179004A756E004A756C00A0
:10328C0041756700536570004F6374004E6F760094
:10329C004465630000000000414D00504D000000EB
:1032AC00E4330000E0330000E0330000E0330000C2
:1032BC00E0330000E0330000E0330000E0330000B6
:1032CC00E0330000E0330000FFFFFFFFFFFFFFFFD4
:1032DC00FFFFFFFFFFFF0000203300005032000013
:1032EC005C33000070320000A43200000433000094
:1032FC00B433000010330000256D2F25642F257981
:10330C000000000025612025622025652025542021
:10331C002559000053756E646179004D6F6E6461C0
:10332C00790054756573646179005765646E6573D3
:10333C0064617900546875727364617900467269CE
:10334C0064617900536174757264617900000000E6
:10335C004A616E7561727900466562727561727947
:10336C00004D6172636800417072696C004D617947
:10337C00004A756E65004A756C7900417567757306
:10338C00740053657074656D626572004F63746F81
:10339C00626572004E6F76656D626572004465639E
:1033AC00656D62657200000025483A254D3A25533B
:1033BC00000000001D2D0000392D0000452D0000DF
:1033CC009D2D0000852D0000912D0000512D000039
:0A33DC00612D0000000000002E002B
:1033E8000000000000200040000000000020004015
:1033F8000000000000000000FF00000000000000C6
:10340800FF0000000090D003443200004432000066
:0C34180044320000443200004432000046
:040000030000037581
:00000001FF
