:020000040000FA
:10000000905B002091030000990300009B03000017
:100010009D0300009F030000A103000000000000FA
:10002000000000000000000000000000A30300002A
:10003000A503000000000000A7030000A9030000C2
:10004000AB030000AB030000A9080000AB030000F5
:100050004907000000000000AB030000AB030000F4
:10006000AB030000AB030000AB030000AB030000D8
:10007000AB030000AB030000AB030000AB030000C8
:10008000AB030000AB030000AB030000AB030000B8
:10009000AB030000AB030000AB030000AB030000A8
:1000A000AB030000AB0300000000000000000000F4
:1000B000AB0300005D06000000000000000000002F
:1000C0000000000000000000000000000000000030
:1000D0000000000000000000000000000000000020
:1000E0000000000000000000000000000000000010
:1000F0000000000000000000000000000000000000
:1001000000000000000000000000000000000000EF
:1001100000000000000000000000000000000000DF
:1001200000000000000000000000000000000000CF
:1001300000000000000000000000000000000000BF
:1001400000000000000000000000000000000000AF
:10015000000000000000000000000000000000009F
:10016000000000000000000000000000000000008F
:10017000000000000000000000000000000000007F
:10018000000000000000000000000000000000006F
:10019000000000000000000000000000000000005F
:1001A000000000000000000000000000000000004F
:1001B000000000000000000000000000000000003F
:1001C000000000000000000000000000000000002F
:1001D000000000000000000000000000000000001F
:1001E000000000000000000000000000000000000F
:1001F00000000000000000000000000000000000FF
:1002000000F002F800F043F80AA090E8000C8244E5
:100210008344AAF10107DA4501D100F038F8AFF2C2
:10022000090EBAE80F0013F0010F18BFFB1A43F0D4
:1002300001031847C4440000E4440000103A24BFFE
:1002400078C878C1FAD8520724BF30C830C144BF3B
:1002500004680C607047000000230024002500267D
:10026000103A28BF78C1FBD8520728BF30C148BF19
:100270000B6070471FB500F073F9040000200021E7
:1002800004F044F9401C60601FBD10B510BD00F0C3
:10029000AFF91146FFF7EEFF01F052FF00F0CDF984
:1002A00003B4FFF7F2FF03BC00F0D0F930B404460A
:1002B00054E8000F0D4644E80053002BF8D11560B8
:1002C00030BC704730B4044654E8000F40EA0105E2
:1002D00044E80053002BF7D1156030BC704730B4B0
:1002E000044654E8000F00EA010544E80053002BDF
:1002F000F7D1156030BC704730B4044654E8000FA5
:1003000080EA010544E80053002BF7D1156030BCAA
:10031000704730B4044654E8000F00EB010544E890
:100320000053002BF7D1156030BC704730B4044641
:1003300054E8000FA0EB010544E80053002BF7D16F
:10034000156030BC704770B404464FF0000054E8AC
:10035000006F0D68AE4207BF44E80023012044E867
:1003600000630E60002B1CBF0020F0E770BC7047DC
:1003700030B4044654E8000F88422CBF451A0546A5
:1003800044E80053002BF5D1156030BC70470000E5
:100390000948804709480047FEE7FEE7FEE7FEE719
:1003A000FEE7FEE7FEE7FEE7FEE7FEE70448054955
:1003B000054A064B704700009D070000010200003F
:1003C000901B0020905B0020903B0020903B002081
:1003D00010B500F0C5F8001D10BD00BF3141000090
:1003E00010B5431C02E010F8011B71B18107FAD16E
:1003F0004FF0013202C88C1A8C4314EAC211F9D0B2
:10040000C01A0A0603D0C01E10BDC01A10BD0A04CF
:1004100001D0801E10BD0902FCD0401E10BD032A71
:1004200040F2308010F0030C00F0158011F8013B11
:10043000BCF1020F624498BF11F801CB00F8013BF8
:1004400038BF11F8013BA2F1040298BF00F801CBBC
:1004500038BF00F8013B11F0030300F02580083A93
:10046000C0F0088051F8043B083A51F804CBA0E8EA
:100470000810F5E7121D5CBF51F8043B40F8043B3F
:10048000AFF30080D20724BF11F8013B11F801CB74
:1004900048BF11F8012B24BF00F8013B00F801CB45
:1004A00048BF00F8012B704710B5203AC0F00B8010
:1004B000B1E81850203AA0E81850B1E81850A0E868
:1004C0001850BFF4F5AF5FEA027C24BFB1E81850C2
:1004D000A0E8185044BF18C918C0BDE810405FEA32
:1004E000827C24BF51F8043B40F8043B08BF7047AE
:1004F000D20728BF31F8023B48BF11F8012B28BFB3
:1005000020F8023B48BF00F8012B70474FF0000273
:1005100000B5134694469646203922BFA0E80C50F9
:10052000A0E80C50B1F12001BFF4F7AF090728BFD4
:10053000A0E80C5048BF0CC05DF804EB890028BF50
:1005400040F8042B08BF704748BF20F8022B11F079
:10055000804F18BF00F8012B7047704770477047F5
:1005600000487047501B002000487047301B002097
:100570004FF0013C50F8042B51F8043B9A4221D132
:10058000A2EB0C03934313EACC1317D150F8042BBE
:1005900051F8043B9A4215D1A2EB0C03934313EAA2
:1005A000CC130BD150F8042B51F8043B9A4209D1DB
:1005B000A2EB0C03934313EACC13DBD04FF0000003
:1005C000704700BFD01A01BAB1FA81F101F01801E9
:1005D00022FA01F0CB40C1F12001DBB2C0B2C01A57
:1005E0002CFA01F3D11A914311EAC311E6D17047F5
:1005F0007546FFF7B9FFAE4605006946534620F041
:100600000700854618B020B5FFF7D0FEBDE82040B2
:100610004FF000064FF000074FF000084FF0000BBE
:1006200021F00701AC46ACE8C009ACE8C009ACE871
:10063000C009ACE8C0098D46704710B50446AFF359
:1006400000802046BDE81040FFF72ABE014918206F
:10065000ABBEFEE726000200704700002DE9FE4316
:100660004FF48078404602F049FB0126334F344C6A
:10067000002570B3404602F049FBA07C26EA000149
:1006800004EB810252682AB9627C022A02D0E07C23
:1006900090B119E08DF80850E574627C022A08D008
:1006A00004EB8000426801924560A1748DF80060FF
:1006B00007E001956674F9E797E807008DE8070001
:1006C000E674216868468847607C022828D16674F1
:1006D00026E0FFE74FF48278404602F00FFBF8B1C6
:1006E000404602F013FB1748056065748DF808500A
:1006F0008DF80050A07C04EB8001486820B1019087
:100700004D60216868468847A07C864304EB8600DC
:10071000416821B101914560216868468847A57408
:10072000207D002808D00C3797E807008DE80700E7
:100730002575216868468847BDE8FE837845000036
:100740009C15002000D50140F8B54FF0402004462C
:10075000114E4FF48C7102F0E3FA00281AD00025F4
:10076000C4F81851D4F818010090F07F3446FF28DF
:1007700006D0A17F11B101F0ADFF01E001F0B1FFA2
:1007800065772572D4E9002101B004F10800BDE8C5
:10079000F0401047F8BD0000541500204FF0805184
:1007A000D1F84412394AC1F3423111604FF080420E
:1007B0000021C2F80C11C2F81011344A121F116046
:1007C00033490968334A11603149091D0968121D0E
:1007D00011602F4908310968121D11602C490C3134
:1007E0000968121D11602A4910310968121D116033
:1007F000274914310968121D11602549183109680B
:10080000244A2032116022491C310968121D1160EE
:100810001F4920310968121D11601D4924310968E2
:10082000121D11601A4928310968121D11601849FA
:100830002C310968121D1160154930310968154ABB
:1008400040321160124934310968121D116010499B
:1008500038310968121D11600D493C310968121DBB
:1008600011600B4940310968121D11600A490A687C
:10087000D20702D06FF001020A600848016841F017
:100880000F01016007490648086070473C050040B9
:100890000404001020C5004000040040E40E0040A5
:1008A0000090D003B00000200149024803F030BDA1
:1008B000781500200020004000F01F020121914027
:1008C0004009800000F1E020C0F8001170470000EE
:1008D00072B602F037F900BF01F0A6FF0028FBD185
:1008E0000E480F49401AC408012000EB04400DA136
:1008F00002F0B4F8022000EB04400DA102F0AEF8C3
:10090000BFF34F8F0E4801680E4A01F4E0611143B6
:100910000160BFF34F8F00BFFDE7000058480000A3
:1009200038480000466174616C206572726F720015
:1009300053797374656D20726573657400000000EF
:100940000CED00E00400FA050EB500210091CDE9A0
:1009500001106A4644F20100FFF7BAFF0EBD000025
:10096000144B10B593F822402CB193F82240032C7D
:1009700003D0112010BD082010BD82B1042483F8DB
:1009800022409C7A240700D44902C3E903019A82D9
:100990000020DA829883012A03D9522002E007203E
:1009A00010BD5120012202F013FE08B1FFF7CCFF69
:1009B000002010BDB415002070B5194B144693F8F3
:1009C00022202AB193F82220032A03D0112070BDDF
:1009D000082070BDECB1052283F822209A7A150711
:1009E00000D44902C3E903019C820020DC82988381
:1009F000012C10D002F0070001284FF001020DD0A9
:100A00002146D72002F0E4FD08B1FFF79DFF00204A
:100A100070BD072070BD01225820F3E75920F1E78F
:100A2000B4150020054890F82210032904D090F84E
:100A3000220008B10120704700207047B415002043
:100A4000044890F82210032901D3001D70470020AC
:100A500070470000B4150020F0B52F4C054687B054
:100A600094F822000F4610B1082007B0F0BDEFB394
:100A7000E878FF284DD06978FF294AD02978FF29E6
:100A800047D0A978FF2944D0002684F858000122D5
:100A9000009633461146019601F0E4FD94F85800A3
:100AA00001F026FE1D4B0DF1080C0FCB8CE80F005A
:100AB000A8788DF8080028788DF8090068788DF8F6
:100AC0000A0016480023164A02A9103801F02AFC31
:100AD00008B1FFF739FF44F8227B012004F8190917
:100AE000607820F00F006070A67600E011E0FF2033
:100AF000E0770A20084B0090084838330122A3F120
:100B00001001103801F046FC08B1FFF71DFF00206E
:100B1000ABE70720A9E70000B4150020A0450000BE
:100B2000113E00007CB50F4D95F8220028B195F8D4
:100B30002200032803D011207CBD08207CBD0A4878
:100B400002F094FA002495F85800009423462246B7
:100B500021462235019401F085FD6C702C70002037
:100B60007CBD0000B41500209445000000F002B8E0
:100B700000F008B872B602480168491C016070476D
:100B80003800002003490868401E086000D162B6A2
:100B900070470000380000202DE9F0410646086843
:100BA0000C46411C4FF0A0474FF0010506D005FA56
:100BB00000F1C7F80815206801F082FD6068411C4B
:100BC00002D0002101F069FD3168A069C1F8240557
:100BD000607D217D32680843C2F86C05D4E90012BB
:100BE0003068C0F80C15C0F81425207D012815D1F7
:100BF000A068411C02D0002101F04FFDE068411CBB
:100C000005D08540C7F80855E06801F059FDD4E9E2
:100C100002123068C0F80825C0F81015BDE8F08150
:100C2000087A0A782AB1012A03D0022A01D0032ABD
:100C300009D100EB400204484978406800EB82008B
:100C40000172002181727047100000208069704796
:100C50002DE9FE430E46016984698046B1F5007FA7
:100C600002D00620BDE8FE83134D696809B111204A
:100C7000F8E7A660A261686010491430FFF7ECFE47
:100C8000070008D1A6B900BFFFF7CCFE0028FBD1B2
:100C9000287878B10D27002068604EB1084A07CA4D
:100CA0008DE80700A0690290A26869464046904717
:100CB0003846D7E70027FBE73C00002089360000D4
:100CC000E045000019B1012906D0062070470AB19D
:100CD000002010700020704712B1001D1060F9E76D
:100CE00007207047FEB51C4F0646846978680D469C
:100CF000B04202D1FFF796FE08B11120FEBD95E883
:100D0000070004F10C0383E80700A888296882B271
:100D1000A868FFF725FE050009D1A068C0B900BF8B
:100D2000FFF780FE0028FBD1387898B10D25A06828
:100D300070B16DB10948016B806B029004F10C0039
:100D4000CDE90010A0690290A2686946304690473C
:100D50002846FEBD0025EAE73C000020C84500000B
:100D6000FEB5124F044685697868A04202D1FFF7AC
:100D700059FE08B11120FEBDFFF7D4FE060000D1D8
:100D80007860A86878B10A4907C98DE807000EB1F4
:100D9000012000E000208DF80100A8690290AA68F7
:100DA0006946204690473046FEBD00003C000020CA
:100DB000EC450000FEB51C4F0646846978680D4678
:100DC000B04202D1FFF72EFE08B11120FEBD95E81A
:100DD000070004F10C0383E80700A888296882B2A1
:100DE000A868FFF7E9FD050009D1A068C0B900BFF8
:100DF000FFF718FE0028FBD1387898B10D25A068C0
:100E000070B16DB10948C16B406C029004F10C00E7
:100E1000CDE90010A0690290A2686946304690476B
:100E20002846FEBD0025EAE73C000020C84500003A
:100E30002DE9F0470546861C91460F464FF0010A02
:100E40000020FFF793FE1B4C04F21C4860683860DA
:100E5000D4E90101184F401A3968081A0EE001213F
:100E6000404601F00CFA01F019F90146404601F044
:100E700006FAD4E90101401A3968081A401C864272
:100E8000EDD8B9F1000F03D0052065F3891002E019
:100E9000062065F39F5061683A68114004EB8101B8
:100EA000C8606068304460600020FFF761FE504613
:100EB000BDE8F087101700205C00002070B50D46DB
:100EC00004460A2902D10D21FFF7F8FFA068226825
:100ED000411CA1601554D4E90101814204D320468C
:100EE000BDE8704001F08FBA70BD00000448816811
:100EF0004068814201D10120704700207047000006
:100F00001017002010B504460020E070401EE0627B
:100F1000204601F095F908B1042010BD04F22E20FE
:100F200001F0B6F8A0F52A41553901D0032010BDD3
:100F300094F83000E92805D0EB2814D194F8320059
:100F4000902810D104F1660001F097F80749B1EB41
:100F5000002F06D004F1820001F08FF80449884286
:100F600001D1002010BD022010BD000000464154F8
:100F7000464154334269891E921E8A4201D800209C
:100F80007047826A408901FB002070472DE9F041DB
:100F900005680F00804606D000F02EFF022809D217
:100FA0000120BDE8F081EE6816B16869B04207D84B
:100FB000012605E0411CF4D069698142F1D83E4622
:100FC00034466869641CA04202D80224022E0AD367
:100FD0002146404600F010FF38B10128E1D0411C05
:100FE000DFD0B442EDD10020DBE74FF0FF363246D0
:100FF0002146284602F032FA30B957B12246394626
:10100000284602F02BFA20B101280FD001242046F7
:10101000C7E7EC60D5E90401891E884201D2401E71
:101020002861287940F001002871F0E73446EEE7A6
:101030002DE9F0410E4620300D6804460B22202198
:1010400001F0A0F80020014608232A5C401C202A59
:1010500012D92F2A0BD05C2A09D02E2A01D099420E
:1010600014D30B2B37D02E2A35D10CE0401C2B5C2F
:101070002F2BFBD05C2BF9D02844306059B320785B
:10108000E52834D035E008210B23DEE7A2F1810703
:101090001E2F02D95F3F1C2F13D82F5C401CA7F1D5
:1010A000400CBCF13F0F04D3A7F1800CBCF17D0FC5
:1010B00011D2A3F1010C61450DD26254491C675451
:1010C00013E010A700E07F1C97F800C0BCF1000FF0
:1010D00004D09445F7D10620BDE8F081A2F1610764
:1010E000192F01D8203AD2B26254491CADE705202D
:1010F0002070202A01D8042000E00020E0720020A7
:10110000EAE70000222A2B2C3A3B3C3D3E3F5B5D48
:101110007C7F000020BF70472DE9F041044600218C
:10112000056800F0D8F8002826D12846A16901F00A
:1011300087F802001FD1E069017899B1C17A01F006
:101140003F01A171C17A09070FD404F120010B26D8
:1011500010F8013B11F8017BDB1B761E04D0002B3D
:10116000F6D002E0042206E02BB10021204600F078
:1011700005F80200D9D01046BDE8F0812DE9F0470E
:1011800005460769046880698946203710B1B7F5BC
:10119000001F02D30420BDE8F087F90560D1401C90
:1011A000A86169694FF0000829B16089401E10EA02
:1011B000572F05D054E02089B0EB571F1DD94FE0C1
:1011C000284600F019FE064601281BD9701C33D0B2
:1011D0006069B0423ED8B9F1000F0ED02846696967
:1011E000FFF7D4FE06000BD0012E0BD0701C23D0CD
:1011F000204603F011F8F8B906E0C5F81880C9E7F1
:101200000720C8E70220C6E74FF40072002104F16E
:10121000300000F0B7FF4FF0000831462046FFF7DE
:10122000A9FE4FF00109E0620DE000BF84F80390D1
:10123000204602F0F1FF08B10120ACE7E06A08F1B6
:101240000108401CE06261894145EFD8E16AA1EBE9
:101250000800E062314620466E61FFF78BFEA86110
:10126000C7F30800204430302F61E861002092E786
:1012700070B504460021066800F02DF80DE03046F8
:10128000A16900F0DDFF50B9E0690078E52809D0D8
:1012900040B101212046FFF771FF0028EFD004285C
:1012A00007D007E03046A16900F0CAFF050003D06F
:1012B0000FE0072005460CE020220021E06900F045
:1012C00061FF0B2204F12001E06900F051FF0120D1
:1012D000F070284670BD2DE9F04107680E460546BE
:1012E000B1F5001F36D2F00634D12E61AC6824B9B6
:1012F0003878032805D37C6A1CB178894FEA4028E6
:1013000012E03889B0EB561F24D9786A12E02846DB
:1013100000F072FD0446401C1AD0022C1AD37869E2
:10132000A04217D9A6EB080646452146EFD238461B
:10133000FFF720FEC5E9054060B100EB5620A8612B
:10134000C6F3080038443030E8610020BDE8F08181
:101350000120FBE70220F9E770B51C4C2178884298
:101360000DD2616800EB400551F825303BB101EB2F
:1013700085014A7AD20704D04A6822B105E00320E9
:1013800070BD487A70BD124A4A6001228A720246D4
:101390001868104906681846B04710B110E0406858
:1013A0008047606800EB8500817A0029F7D1616889
:1013B00001EB8501097A19B9417A21F001014172E5
:1013C000606800EB8500407A70BD000010000020CE
:1013D00015110000210C000038B51D4D2B789842E6
:1013E00001D3042038BD00EB400439B1184801296D
:1013F000406815D002291DD0012038BD01208DF88C
:10140000000068686A46002150F8240000F087FF59
:1014100008B1112817D19DF800000028F1D112E081
:1014200050F8240088B1016814464969884700686B
:10143000206008E050F8240038B10168144649697A
:10144000884780882080002038BD032038BD0000F8
:1014500010000020FEB51D4C2578A8420DD263B1C6
:1014600000EB4005606850F8256026B100EB85066A
:10147000777AFF0703D00320FEBD0420FEBD009253
:10148000CDE901310121B17250F825606F46306815
:1014900041693046884700680099884214D930680D
:1014A000394682683046904710B10DE04068804769
:1014B000606800EB8500817A0029F7D1606800EB55
:1014C0008500007A0028D9D00120FEBD1000002040
:1014D00006490A78904201D301207047496800EB21
:1014E000400001EB8000407A7047000010000020AF
:1014F000FEB5204C2578A8420DD263B100EB400523
:10150000606850F8256026B100EB8506777AFF0702
:1015100003D00320FEBD0420FEBD777A7F0701D5EE
:101520000220FEBD0092CDE901310121B17250F8D7
:1015300025606F46306841693046884700680099E9
:10154000884214D930683946C2683046904710B195
:101550000DE040688047606800EB8500817A0029D3
:10156000F7D1606800EB8500007A0028D9D001200F
:10157000FEBD000010000020014A5060117070474D
:101580001000002010B50021024800F083FE80F317
:10159000100010BD2C1B002070B5007800280BD067
:1015A000084C4FF480610125207830B1064801F0E5
:1015B000D7FB00202070657070BD044801F0D0FB9F
:1015C0002570F8E700000020380D002038050020C5
:1015D00038B5044600F03EF9002807D16946204698
:1015E00002F07AFF002801D10021216038BD0000FF
:1015F00017B581B0144602980090684600F05BFC75
:10160000002802DA0B2004B010BD0B4A002352F868
:10161000201001B10B700199002900D00B7042F825
:10162000201001D0012C01D00020ECE7002201A9FC
:1016300002A800F081FAE6E71C0000202DE9F7433C
:101640008CB005000BD002F03F06324669460DA86B
:1016500000F072FA04004FF0000804D0C0E0092046
:101660000FB0BDE8F0830098019001A80D9900F03B
:1016700089FB040004D19DF82F00000600D5062444
:1016800016F01C0F4CD04CB1042C03D101A8FFF76D
:10169000EFFD044646F008065CB1A1E09DF80A00A3
:1016A00010F0110F01D007249AE0700701D508242B
:1016B00096E0300743D54D4F089839460E3002F07A
:1016C00011FD08983946163002F00CFD08992020CB
:1016D000C8720899009800F0BDFC074600220899DE
:1016E000009802F0EBFC089800211C3002F0FAFC94
:1016F00000990120C87007B3D1F82C900022394618
:1017000001A801F020FF04006AD14946009800F0CA
:1017100097FD04000098A7F10107C7600BD05FE0B8
:10172000CCBB9DF80A00C10601D5042458E0B107DE
:1017300001D5C007B7D1300701D546F04006009863
:10174000C16A296208996962089900F083FCA8605F
:1017500008981C3000F091FCE86000982860009820
:101760004FF400720021C088A8802E7485F8118083
:10177000C5F81C8005F128008146C5F8148000F0EA
:1017800001FDB0062ED5EE6866B36E610098A968BB
:10179000408947020FE023E0284600F02DFB014678
:1017A000012800D80224481C02D0F61B1CB104E01A
:1017B0000124F61B01E0BE42EED8A96184B9F00510
:1017C00010D00098FFF7D6FB70B100EB5622EA610B
:1017D0000098012349464078FFF73CFE10B10124F0
:1017E000C5F8008020463BE70224F9E700002148C5
:1017F00013B582B0040006D00022694603A800F0A9
:101800009BF918B120E0092004B010BD00992160B7
:101810002046039900F0B6FA90B994F82B00000620
:1018200007D4A079C00612D5E169009800F012FC37
:10183000A0600098C188A18020460021FFF74BFDE1
:10184000042804D00028DFD000212160DCE7052037
:10185000FAE70000F8B50446694602F03DFE0028AC
:101860000ED1217C4A060BD508060ED50098E269F8
:101870000123407804F12801FFF73AFE08B1012066
:10188000F8BD207C00F07F002074154E216A00987E
:1018900000F0D6FC0028F3D1656A2946E87A40F0CA
:1018A0002000E872A268206802F008FC05F11C0024
:1018B000E16802F017FC314605F1160002F012FC57
:1018C000002105F1120002F015FC00980121C17001
:1018D00002F05EFC217C01F0BF012174F8BD000024
:1018E000000021482DE9FE4F8846002119609946E5
:1018F0001546044602A902F0EFFD002806D1607CDF
:10190000002803D1207C800702D40720BDE8FE8F89
:101910006069012742194FF0020A04F1280B824244
:1019200000D2C54394E06069C1056ED1029949892E
:10193000491E11EA502612D108B1A16902E0A0683F
:1019400028B900212046FFF721FB00287DD001287F
:101950002DD0411C54D0A061A16801B9A060207CA9
:1019600000060BD50298E269012340785946FFF73B
:10197000BFFDA0BB207C00F07F002074A16902980D
:10198000FFF7F8FA98B130440190680A009027D028
:10199000029932184889824201D9801B0090DDE902
:1019A000003248784146FFF7A3FDC0B903E084F850
:1019B00011A00220AAE7E1690198081A009988425B
:1019C0000AD208EB40214FF40072584600F0D0FBD9
:1019D000207C00F07F0020740098460227E00FE092
:1019E000E169019881420ED0E168606988420AD2BB
:1019F0000298012359464078019AFFF72BFD10B158
:101A00006774012082E70198E061A08AC0F30800B2
:101A1000C0F50076AE4200D92E46204432464146FB
:101A2000283000F0A5FB207C40F080002074606925
:101A3000B04430446061E168884200D80846E06004
:101A4000D9F80000AD1B304400E004E0C9F8000004
:101A5000002D7FF468AF207C40F04000207400200F
:101A600054E7000038B501212048FFF785FD032425
:101A70000020FFF771FC641E02D00028F8D10BE0B3
:101A800050B11B481B49401AC008032101EB00401C
:101A900019A100F0E3FF38BD01221EA11E48FFF787
:101AA000A7FD0028F7D11DA11D48FFF7A1FE0028C2
:101AB000F1D11B4833221BA12C30FFF7BFFD0028BA
:101AC000E9D10A4C4FF40062241F002520786B46B0
:101AD00008B1174900E0174911482C30FFF702FF01
:101AE0000F4865702C30FFF773FD38BD04000020EF
:101AF00058480000384800004469736B20696E69DB
:101B00007469616C697A6174696F6E206661696C71
:101B100065642E0000000000B40000202F000000CB
:101B2000E40200204E4F524449432E70636D000082
:101B300038050020380D00202DE9FF410027904690
:101B40000E460F6000F0B7F9050003D50B2004B076
:101B5000BDE8F081884850F825409CB13460207879
:101B600008F0FE0620B16078FFF7B2FCC1070BD089
:101B70002770E8B2B8466070FFF7EEFBC10708D0E7
:101B80000320E4E70C20E2E70EB1400704D4002074
:101B9000DDE71EB1400701D50A20D8E7002631460F
:101BA0002046FFF7AFF9022822D100254FEA0D07A2
:101BB00004EB051090F8F21100F5F77019B1083038
:101BC00000F05BFA00E0002047F825006D1C042DB2
:101BD000EED3002557F8256036B131462046FFF791
:101BE00091F9022801D203E003206D1C042DF1D3EA
:101BF000042809D002286DD204F13B0000F048FA15
:101C0000B0F5007F66D101E00120A0E704F14600B5
:101C100000F03EFA18B904F1540000F02EFAA06169
:101C200094F84050A570012D01D0022D52D14543AA
:101C300094F83D006081E8B3411E08424AD104F1A6
:101C4000410000F025FA2081000743D104F1430050
:101C500000F01EFA070004D104F1500000F00DFA64
:101C6000074604F13E0000F013FA010032D0238948
:101C7000481900EB131297422CD3B81A6789B0FBAE
:101C8000F7F0B8B103274FF6F57C604500D802277E
:101C900040F6F57C604500D80127801C3244A262E2
:101CA00031446061C4E90761032F15D013B12944A1
:101CB000616200E00EE0022F1FD000F0010100EB96
:101CC000400001EB500000BFA16900F2FF10B1EB32
:101CD000502F14D20D203AE704F15A0000F0D8F941
:101CE0000028F7D120890028F4D104F15C0000F02D
:101CF000C4F9606260698000E6E74000E4E74FF005
:101D0000FF302061E06080202071032F2CD104F18E
:101D1000600000F0BDF9012826D1711C204600F0BA
:101D20008FFA08BB84F8048004F22E2000F0B0F98A
:101D3000A0F52A41553917D104F1300000F09DF982
:101D40000E49884210D104F5057000F096F90C494F
:101D5000884209D104F5067000F08FF9206104F57E
:101D6000077000F08AF9E06003492770091F0888AE
:101D7000401C0880E0800AE71C00002052526141AC
:101D80007272416173B504460568019801E0401C18
:101D9000019001782F29FAD05C29F8D00021A160A8
:101DA00001980078202806D2802084F82B00204655
:101DB000FFF791FA7CBD01A92046FFF739F9002809
:101DC000F8D12046FFF7A8F994F82B1028B1042881
:101DD000F0D14907EED405207CBD4907FCD4A07999
:101DE000C006F8D5208AC0F30800411928463031D2
:101DF00000F030F9A060DEE72DE9F04104680D46FF
:101E000002290BD36069A84208D920784FF0FF3629
:101E1000012807D002282BD0032839D001263046CC
:101E2000BDE8F081206A05EB550700EB57212046FD
:101E300000F006FA0028F2D1C7F3080020447F1C06
:101E400090F83080206A00EB5721204600F0F8F926
:101E50000028E4D1C7F30800204490F8301048EA85
:101E60000120E90701D00609D9E7C0F30B06D6E740
:101E7000206A00EB1521204600F0E2F90028CED1BF
:101E8000E8B204EB4000303000F002F90646C6E745
:101E9000206A00EBD511204600F0D2F90028BED10F
:101EA00040F2FF1000EA85002044303000F0E5F8F1
:101EB00020F07046B3E710B504464FF0FF302268BB
:101EC000002A13D0114600E0491C0B78212B0ED3B9
:101ED0003A2BF9D112F8013B303B0A2B06D28A4249
:101EE00004D1002B02D1491C1846216010BD0020EE
:101EF00010BD00002DE9FC5F0E008346DDE90C47B4
:101F0000C6F1000098469246814600D40846012555
:101F100003E000BF90FBFAF06D1C5045FADAA845CB
:101F200000D9454624B1002E01DB780700D5641E98
:101F3000B80702D5B8F1000F0AD0F80708D13CB1B4
:101F4000A54205D220215846641EFEF7B7FFF6E7EA
:101F5000002E02DA4E462D2102E0780703D52B2110
:101F60005846FEF7ABFF07F0030002280BD1B8F18B
:101F7000000F08D13CB1A54205D230215846641E5D
:101F8000FEF79CFFF6E7CDE900474346524631464F
:101F9000584602F047FABDE8FC9F000070B50D46B8
:101FA000044600684FF4887100F0C4FE4FF490714D
:101FB000206800F0BFFE4FF49271206800F0BAFE76
:101FC0004FF4A271206800F0B5FE4FF4AC712068A8
:101FD00000F0B0FE20681149C0F8041320686907BA
:101FE00040F30730090E002806DA00F00F0000F178
:101FF000E02080F8141D03E000F1E02080F80014D8
:102000002068012140F3073000F01F029140400991
:10201000800000F1E020C0F8001170BD1003420004
:10202000024600201268530713D502F0030001286E
:1020300002D002280CD105E0C2F383100B68801C8B
:10204000184404E00223086803EB9252104408602D
:102050000120704770B506460D4601F11A0000F0E8
:1020600017F804463078032805D105F1140000F074
:102070000FF844EA0044204670BDC178827842EAF5
:1020800001214278007842EA012140EA01207047AC
:102090004178007840EA0120704700002DE9FF41B7
:1020A0000026244800F0E8F82248001F074600F008
:1020B000E3F8214C2149A06800900D6800E00098E9
:1020C0006946284004EB80000C30FFF7A9FF002888
:1020D000F5D101AA009901EA050304EB8303491C29
:1020E000DB6842F82030401C00910228F2D30198AE
:1020F00000F0030001280BD0022810D10198032121
:1021000001EB90500099BDF80A6001EB900005E0EA
:102110000198BDF80A60C0F3831008440090384667
:1021200000F0A7F808B10098A06004B03046BDE800
:10213000F0810000281B0020101700205C00002008
:102140000EB5084A07CA8DE807000749684600F03F
:102150004FFE00F0BBFE054C60780028FCD0FFF776
:1021600081FCF9E7544500009915000000000020AB
:10217000002A05D011F8013B00F8013B521EF9D1AD
:10218000704700005FFA81F100F8011B521EFBD17D
:1021900070472DE9F047C5881E1DB6FBF5F7894647
:1021A000B6FBF5F1044605FB176C407916686843E9
:1021B000DDF820A0F718001F874200D9C61A166064
:1021C00001E02468491E0029FBD1A5EB0C078846D5
:1021D000B74216D818E004EB0C00001D09EB080309
:1021E000BAF1000F3A4602D00146184600E01946FF
:1021F000FEF715F92468F61B4FF0000CB844B54201
:1022000001D9374600E02F46002EE4D1BDE8F08723
:1022100030B5024651B100F07DFC0021074C08E0CA
:1022200034F821301568AB4202D11160002030BD76
:10223000491C8142F4D3052030BD0000000000009D
:1022400070B50446C06A0D460026A8420FD020464D
:1022500001F0E2FF06000AD1607801232A4604F16A
:102260003001FFF7F7F808B1751E0126E562304628
:1022700070BD002100F009B8012100F010B808B5C8
:102280006A46FEF746F8009808BD08B56A46FEF7AC
:1022900026F808BD08B56A46FEF708F808BD08B577
:1022A0006A46FEF70FF8009808BD08B56A46FEF7C3
:1022B0003DF8009808BD70B5044600252846FEF795
:1022C00055FC21686268086890420ED9401E08607B
:1022D0000178238AE26801FB0325227A2168101A1B
:1022E000C0B20A79824200D208710020FEF740FC99
:1022F000284670BD70B505460C460020FEF736FC3A
:10230000E868298A201AB0FBF1F12A681068431C9A
:1023100013600170BDE870400020FEF729BC03681F
:102320001B6918472DE9FF411C460378164D174ECF
:1023300045F82320083545F82340F0CE8DE8F0001D
:102340000C788DF800404C788DF801408C788DF831
:102350000240CC788DF803400C798DF805404C791B
:102360008DF806408C6802940C7B8DF80C40497BFC
:102370008DF80D1002B1064A6946001D00F0C2FD3D
:1023800004B0BDE8F081000020000020604500009E
:10239000C93F00001FB5001D069C8DE81E000022ED
:1023A000694600F0A7FE04B010BD000070B50646F7
:1023B00004780C4888B0154640F82420094A08697A
:1023C000121D42F8240020226846FEF76DF804949E
:1023D0000DB1054A00E000226946301D00F0BCFE48
:1023E00008B070BD30000020E14200000FB408B515
:1023F0000399002904D004AA00926A4600F00FF85D
:1024000001B05DF814FB10B582680446002A05D0BF
:10241000D4E90403216898470020A06010BD2DE98D
:10242000FC4791460C00804676D014F8011B39B168
:1024300025290ED04046FEF741FD20780028F4D132
:1024400098F80C00002867D04046BDE8FC47FFF72D
:10245000DABF0020012221782B291BD02D2902D0A0
:10246000302908D102E040F0010001E040F0020014
:10247000641C002AEFD100252A290ED02178A1F171
:1024800030020A2A11D205EB850201EB4205641CD9
:10249000303DF1E740F00400EAE7D9F800100B1DE9
:1024A000C9F800300968641C0D44217800232E29E6
:1024B0000BD114F8011FA1F130020A2A05D203EB57
:1024C000830201EB4203303BF3E76C290DD068290E
:1024D0000BD0692921D00BDC252918D0582931D0FF
:1024E00063290ED0642915D117E014F8011FECE719
:1024F000702969D0732932D075291BD0782909D168
:1025000020E0D9F80000011DC9F80010017840460C
:10251000FEF7D4FC641C90E76CE0D9F800100A1DAB
:10252000C9F800200968CDE900500A224046FFF7AB
:10253000E1FCEFE7D9F800100A1DC9F8002009688E
:102540000A2206E0D9F800100A1DC9F8002009681F
:102550001022CDE90050404601F064FFDAE7D9F8D7
:10256000001000270A1DC9F800200E68C00705D119
:1025700012E04046761C7F1CFEF7A0FC3178002953
:10258000F7D104E0202140466D1EFEF797FCBD42C6
:10259000C0D9002DF6D1BDE74EB13046FDF720FF82
:1025A000074604E0202140466D1EFEF787FCBD4231
:1025B00006D9002DF6D103E04046761CFEF77EFCDE
:1025C00031780029F8D1A5E7D9F80000011DC9F834
:1025D0000010056830214046FEF770FC7821404627
:1025E000FEF76CFC08200021CDE900010346102213
:1025F0002946B0E7BDE8FC8770B541EA4201DDE954
:1026000004564FF0A04441EA830141EA052104EB5E
:10261000800041EA0641C0F8001770BD70B541EA7C
:102620004201DDE904564FF0A04441EA830141EA4A
:10263000052104EB800041EA0641C0F8001770BD97
:1026400070B541EA4201DDE904564FF0A04441EA89
:10265000830141EA052104EB800041EA0641C0F80C
:10266000001770BD70B541EA4201DDE904564FF034
:10267000A04441EA830141EA052104EB800041EADC
:102680000641C0F8001770BD1CB5002100910B4633
:1026900001220191FFF7C2FF1CBD1CB500220B46B1
:1026A000009211460192FFF7B9FF1CBD1CB5002135
:1026B00000910B46012201911146FFF79DFF1CBDC1
:1026C0001CB5002100910B46012201911146FFF734
:1026D000A5FF1CBD4FF0A04201218140C2F80C159E
:1026E00070474FF0A04201218140C2F808157047A1
:1026F0004FF0A04201218140C2F808157047F0B5A3
:1027000095B01C4615460F4608461A9E00F0D2FAB0
:10271000182109A8FDF7FAFE0E96CDE90954002309
:10272000082203A9384600F0D8FA05980690BDF8AB
:102730001000ADF81C00BDF81200ADF81E0000201E
:102740008DF821000398082600F00300012802D02C
:10275000022818D032E003983346850AC0F3C2003D
:102760008DF8200003980FA9C0F38314A200384607
:1027700000F0B3FA09A8009006AB22460FA928463C
:1027800000F0F4F91AE00398840DC0F3C2008DF84C
:102790002000082C01D2254600E0082533462A46B1
:1027A0000FA9384600F099FA2E44641B09AB06AA1B
:1027B00029460FA800F056F9002CEAD1384600F05F
:1027C0007DFA15B0F0BD704710B5044800F05EFD0D
:1027D000BDE81040002001F05BBD00004C0000206F
:1027E00008B5034A00924023024AFFF788FF08BD5C
:1027F000E53D0000101600200A4A012902EBC00046
:1028000007D0022907D0032907D0042907D00020C8
:102810007047022070470420704700797047407964
:1028200070470000384800002DE9F0478CB0FEF7F3
:102830005DFB18B100200CB0BDE8F0877D4C002096
:10284000C4F81804BFF34F8F7B49A06802900D684D
:102850004FF00008284004EB80000BE0D4F8180487
:1028600070B961680298814201D8A160E2E728400E
:1028700004EB80000C3002A9FFF7D2FB0028EDD159
:10288000002003AA029901EA050304EB8303491C13
:10289000DB6842F82030401C02910228F2D30398F2
:1028A00000F00300022802D001284DD0A7E00398D1
:1028B0005022810D8946B2EB905F00D850210E4620
:1028C00066F39F50039008315C4800F0AAF90700B6
:1028D00078D000F0EFF94346082203A9384600F00B
:1028E00004FA029908F1080A2940681A8000001DBC
:1028F000864222D94F4D0C3530B1C2B204EB810172
:10290000301A90460C3104E02946F2B20025904678
:102910002846C6B25346384600F0E7F90AEB0803EA
:1029200025B132462946384600F0DFF9029909F10F
:10293000030001EB900002903BE004EB8101534661
:10294000324638460C31EFE70398C0F3831006286F
:1029500000D30620039960F38911C1F38310801C12
:1029600003918100354800F05CF9070047D000F082
:10297000A1F94346082203A9384600F0B6F908F148
:10298000080800260FE00298434600EA0501401CB3
:1029900004EB81010290042238460C3100F0A5F9C5
:1029A00008F10408761C0398C0F38310B042EAD8FB
:1029B00047B1D4F81054D4F8180478B1384600F070
:1029C0007DF931E01BE0E8684079012804D12A68EC
:1029D0002846394612689047E8680568002DF2D10C
:1029E000384600F06BF90020FEF7C0F8D4F8180460
:1029F00008B90298A0600020FEF7BAF814E0D4F8F5
:102A0000104405E02168204689688847E06804682A
:102A1000002CF7D10A480B49401AC008022101EBEB
:102A2000004009A100F01AF8FEF760FA80F00100FA
:102A300001E70000101700205C0000206048000043
:102A400058480000384800004261636B656E64734B
:102A500020666C75736865640000000000231A46E8
:102A600001F04CBB2DE9F0470E4680461C469246CD
:102A7000082940D894F80C9000202073194610467D
:102A800000F0A0FC0025B54206D218F805201BA1D5
:102A90002046FFF7ABFC03E01AA12046FFF7A6FC97
:102AA0006D1C082DEFD318A12046FFF79FFC0025D1
:102AB000B54212D218F805707E2F08D8FDF788FCB1
:102AC0000068C05D10F03E0F01D03A4600E02E22B3
:102AD0000EA12046FFF78AFC03E00DA12046FFF778
:102AE00085FC6D1C082DE3D301222146504600F0E1
:102AF0004BFC84F80C90BDE8F087000020253032B4
:102B000078000000202020007C00000025630000E9
:102B10002000000002480349401AC0087047000026
:102B2000604800003848000013B56846FFF770FBA6
:102B300008B100201CBD0248009950F831001CBDAE
:102B40003848000070B508480125D0F810440570D9
:102B500007E0E06845712168204649688847E068D9
:102B60000468002CF5D170BD101700202DE9FF4737
:102B700081460C9D00200C462F7B287398461646F4
:102B80002946184600F01EFC072E42D2DFE806F068
:102B900004090F161F2A360049462846FFF726FC6F
:102BA00037E0494628462268FFF720FC31E0D4E9A7
:102BB000002349462846FFF719FC2AE0A068009048
:102BC000D4E9002349462846FFF710FC21E0D4E968
:102BD0000201CDE90001D4E9002349462846FFF768
:102BE00005FC16E004F1080007C88DE80700D4E9E9
:102BF000002349462846FFF7F9FB0AE004F10800E4
:102C00000FC88DE80F00D4E9002349462846FFF796
:102C1000EDFB00222946404600F0B6FB2F73BDE8CD
:102C2000FF872DE9F041058A80462D1F4819C01CF9
:102C3000B0FBF5F0C6B24046FFF73DFB041E19D0CD
:102C40000020207101206071E58000272546761E56
:102C5000C4F800800BE04046FFF72DFB60B16179BE
:102C6000491C6171286005467F1CC0F80080B7428E
:102C7000F1D32046BDE8F081204600F002F80020A4
:102C8000F8E72DE9F041457901466B1E002201E08D
:102C90000968521C9A42FBD30F680146002605E0E2
:102CA00038460C68FFF726FB2146761CAE42F7D368
:102CB000BDE8F0810121001DFFF7E1BA10B504461F
:102CC0000121001DFFF7F1FA10F0FF0F04D120469B
:102CD000BDE81040FFF7D5BF10BD1CB50192012221
:102CE000009201AAFFF755FA1CBD1CB50192002203
:102CF000009201AAFFF74DFA1CBD0000024940589E
:102D0000002800D00120704700D00140034908B5D9
:102D10000844002202600068009008BD00D0014015
:102D20004058002800D0012070474058002800D0AB
:102D30000120704708B5002242504058009008BD5D
:102D40000121B1EB507F01D1012070470020704775
:102D50000121B1EB507F01D1012070470020704765
:102D60002DE9F0411F4A137C4BB1537C032B08D053
:102D700010B1B1F5004F06D30720BDE8F08108205F
:102D8000FBE71120F9E7002601254FF0E0246B074F
:102D9000C4F88031937C25EA0304537C022B00D1D4
:102DA000002402EB84035F680FB1112614E0586021
:102DB00002EB440399810C4B1860181D0160107CD4
:102DC000022809D002201074074860380560801579
:102DD000FFF79CFF054805601D20FDF76DFD30469F
:102DE000CBE700009C15002060D5014000D00140D9
:102DF0002DE9FC41314E0446307C10B10820BDE87D
:102E0000FC81207A502802D8607A502801D9072006
:102E1000F5E700257560B560B574F57431607574BB
:102E200027496068086021786078022201F001017A
:102E300002EA400001432248001D0160204A207A36
:102E40001432617A1060101D0160A0780122009593
:102E5000002311460195FFF7F3FBA1784FF0A04244
:102E6000012707FA01F0C2F80C05E078002200956E
:102E70002B4611460195FFF7E3FB114AA1783C323E
:102E8000E0781160111D08608815FFF73FFF4FF4CF
:102E90008470FFF73BFF4FF48270FFF737FF09495B
:102EA0000320C1F80403A07A0749400181F8000417
:102EB0001D20FDF701FD37742846A0E79C15002072
:102EC00004D5014000D001401DE000E00A48417CEB
:102ED00031B1407C012801D011207047002070479B
:102EE000022141740121017549074FF0E0220020C1
:102EF000C2F80012704700009C15002000207047A7
:102F0000704700002DE9FC470C46154601798046C4
:102F1000544A01EBC10002EB80069946307F10B1A4
:102F20000820BDE8FC87504AD8F80000074652F850
:102F30002110FFF7E3FF08B11120F2E7C6E90059BD
:102F4000207B0128207802D8FFF7C4FB01E0FFF7BF
:102F5000C8FB4FF0000ACDF800A0CDF804A02078FF
:102F6000534652460121FFF747FB60784FF0FF358B
:102F7000FF2806D08146FFF7ADFB4846FFF796FBDA
:102F800000E0A946A078FF2809D0002205460123C9
:102F9000CDF800A01146CDF804A0FFF72DFBA078D6
:102FA00086F82000E078F077E078FF280BD02179D0
:102FB00011B1FFF78FFB01E0FFF793FBE078FFF71C
:102FC00075FB2079B0772178C7F80815C7F80C95FC
:102FD000C7F81055A068C7F82405217B607B00B1B5
:102FE0000120012904D0022905D0032908D105E0D8
:102FF00040F0020004E040F0040001E040F0060070
:10300000C7F85405A079C7F8C0050720C7F8000520
:103010003068012108B3D8F80000627940F3073026
:1030200000284FEA421206DA00F00F0000F1E0201B
:1030300080F8142D03E000F1E02080F80024D8F897
:10304000000040F3073000F01F0201FA02F24009CD
:10305000800000F1E020C0F80021504686F81DA055
:1030600031775EE754150020704500002DE9FC41E2
:10307000074600791D4900EBC00001EB80040121E7
:10308000206860B1386840F3073000F01F0201FA91
:1030900002F24009800000F1E020C0F880213D6884
:1030A0002068002670B11248C5F80803607F48B157
:1030B00069614FF4827841462846FFF731FE0028C7
:1030C000F9D0667794F82000FF2806D000230096F8
:1030D000012219460196FFF78FFAC5F80065386896
:1030E000FFF70EFF2677BDE8FC8100005415002095
:1030F000520108002DE9F04105460F4600791549B7
:1031000000EBC00001EB80041646607F10B1112077
:10311000BDE8F081206820B116F0140F01D1012024
:10312000607797E80F0004F10C0888E80F00E07F53
:10313000FF2806D0A17F11B1FFF7D3FA01E0FFF716
:10314000C9FA33463A4621462868BDE8F04100F006
:1031500057BF0000541500202DE9F04105461646E2
:1031600000790F46154A00EBC00102EB810494F888
:10317000201011B10820BDE8F081114951F820104C
:103180002868FFF7BBFE08B11120F4E7394628464E
:10319000FDF702FD6660386920601EB1397F284660
:1031A000FEF7FCFE28680821C0F800150020A06189
:1031B000E0616061012184F82010DCE778150020CF
:1031C000744500002DE9F04704460E460079274972
:1031D00000EBC00001EB800517463046FFF7B8FD55
:1031E00030B1204600F044F820B11120BDE8F0874E
:1031F0001020FBE76F61AE604FF490774FF000084E
:1032000039462068FFF796FD4FF4AC7631462068CA
:10321000FFF790FD2068AA686969C0F84425C0F8E6
:10322000481520684FF00109C0F808906868D0B9C7
:10323000BA4651462068FFF778FD074631462068B8
:10324000FFF773FD0743F4D010B14FF00F0808E00B
:103250002068C0F80C9031462068FFF766FD002812
:10326000F9D0002068614046C0E7000078150020D2
:103270000079054900EBC00001EB8000406900289F
:1032800000D0012070470000781500202DE9F0479C
:10329000064600793A4900EBC00001EB800534682E
:1032A0006868012778B13749C4F80813306840F3DB
:1032B000073000F01F0107FA01F14009800000F11A
:1032C000E020C0F88011D4F8000220F02000C4F8FB
:1032D0000002A8694FF4A27820B141462046FFF7CA
:1032E00029FD67604FF4AC7949462046FFF722FD7F
:1032F000E760474649462046FFF717FD0028F9D00A
:10330000A86928B139462046FFF70FFD0028F1D003
:103310004FF0000AC4F800A53068D0F80C25D0F8AA
:103320001495D0F80885D0F810754FF0FF31C0F82B
:103330000C15C0F814153068C0F80815C0F8101541
:10334000501C02D01046FFF79FF9B9F1FF3F02D0A1
:103350004846FFF799F9781C02D03846FFF794F9F0
:10336000B8F1FF3F02D04046FFF78EF92046FFF745
:10337000C7FD85F820A0C5F804A0BDE8F0870000CF
:10338000781500201003420010B50C46017A05297B
:1033900008D0407A38B1084808A102682046FFF7F3
:1033A00025F800E01AB106A12046FFF71FF82046D5
:1033B000BDE81040FFF727B88C00002025730000FF
:1033C0000D0A000038B5C3880D46044633B114A079
:1033D000009015A216A12846FFF708F8217A0529C2
:1033E0001CD0607A48B1A088FFF706FA164951F858
:1033F000202016A12846FEF7F9FFA0880021FFF73C
:1034000093FB03461049207A143951F8202001B06B
:103410002846BDE830400EA1FEF7E8BF38BD0000E9
:103420001B5B306D000000001B5B313B33316D00D6
:1034300025734C6F67732064726F70706564202809
:1034400025642925730D0A008C00002025730000D7
:103450003C25733E2025733A200000002DE9F047FB
:10346000022617460D460446022969D36069A84220
:1034700066D920784FF00109012804D0022836D0FF
:1034800003285DD143E0216A05EB550801EB582183
:103490002046FEF7D5FE060052D1C8F308002044AE
:1034A000303008F10108E90704D00178FAB262F37C
:1034B0001F1100E03946017084F80390216A20460C
:1034C00001EB5821FEF7BCFE060039D1C8F3080015
:1034D00020443030E90702D0C7F3071105E0017836
:1034E000C7F3032201F0F0011143017026E0206AC6
:1034F00000EB15212046FEF7A3FE060020D1E8B21E
:1035000004EB4000B9B2303000F0F4FD16E0206A60
:1035100000EBD5112046FEF793FE060010D140F2D5
:10352000FF1000EA8500204430300546FEF7A5FD77
:1035300067F31B000146284600F0D4FD84F8039091
:103540003046BDE8F0872DE9F041056813460E4688
:10355000074602292DD36869B0422AD93BB14FF002
:10356000FF3219462846FFF779FF00281FD1314660
:103570003846FEF741FC040018D0012C19D0601C1D
:1035800019D0002231462846FFF768FF00280ED1E7
:10359000D5E90410821E914205D2491C296129797E
:1035A00041F0010129712646B042E0D80020BDE873
:1035B000F0810220FBE70120F9E71FB501238DF818
:1035C0000030CDE90121D0E90012684690471FBDC7
:1035D0002DE9F0412B4B93F8234014B11120BDE8A5
:1035E000F0810125002783F82350040612D5022418
:1035F00083F82340772483F82840002483F8294067
:1036000083F82A4083F82B40062783F82C40FF24B8
:1036100083F82D40DC1900F07F0684F828600E0E38
:1036200084F829600E0C84F82A600E0A84F82B6056
:1036300084F82C10402810D0482810D05FF0FF01EB
:1036400084F82D100521022A0BD0032A09D083F813
:103650002450000608D5012008E09521F0E78721D5
:10366000EEE783F82410F4E793F82400054A0E30BF
:10367000C3B238320621A2F1100000F095FB002001
:10368000ADE70000B4150020FEB5244F0546407894
:1036900038707E682978B46949B12148012923D05E
:1036A000022936D0BDE8FE400320FDF74DB928B110
:1036B0003046FDF755FB08B1FDF746F9FDF7C0F9B7
:1036C000006820604FF400706060786880698068EE
:1036D00000281DD00020009001900290687800B171
:1036E00001208DF801000DE0A168002910D007C865
:1036F0008DE80700687800B101208DF8010004F121
:103700000C000190A0690290A2686946304690477B
:10371000FEBDA1680029FBD00C30E8E73C0000208A
:10372000C84500002DE9F84FA44C1746D0F80120F9
:10373000264612BA037922F0FF02B6F820C042EA08
:10374000030E8A46A38B06F1480596F80AB0017865
:103750004FF40E7804220CF1010C00261FFA8CF9AC
:1037600043456ED020DC40F21325A3F2132CAB426C
:103770003CD00EDC4FF4047773B3BB4228D1012256
:1037800000214020FFF724FF08B1FDF7DDF8A583F5
:103790006DE08A48BCF1060F807A20F0070035D032
:1037A000BCF1130F14D14DE040F2612CA3F261285B
:1037B000634577D006DCA3F500734D3B79D0062B2B
:1037C00006D185E0B8F10A0F6ED0B8F10F0F6CD0BA
:1037D000A6830320BDE8F88F012200214020FFF7D7
:1037E000F7FE08B1FDF7B0F8A78340E0880801D0E4
:1037F0003A70BBE003224FF4D5714820FFF7E8FE92
:1038000008B1FDF7A1F840F2192015E04B0703D4E9
:10381000C01CA0728808EBD12684A07A00F00700B3
:1038200003280BD000210222E920FFF7D1FE08B1C6
:10383000FDF78AF840F22620A08318E04FF080417F
:10384000F1E716E04B0734D5401CA072A4F8209095
:10385000B9F5FA6F01D9022079E002220021412056
:10386000FFF7B6FE08B1FDF76FF8A4F81C80012041
:10387000B0E78808BCD1C807E8D131E0A4F82090AF
:10388000B9F5FA6FE7D80BF0070003280ED0002136
:103890000222E920FFF79CFE08B1FDF755F840F23F
:1038A0004D20C9E72CE004E03AE044E04FF08041CD
:1038B000EEE788089CD1C807E0D1022200217A20D7
:1038C000FFF786FE08B1FDF73FF840F25320B3E75B
:1038D00088088DD15FEA4E0002D54BF00800A07237
:1038E000A07A00F0070003280CD0012251025020DA
:1038F000FFF76EFE08B1FDF727F840F261209BE765
:10390000880888D10120E560A08202460021492074
:10391000FFF75EFE08B1FDF717F840F26B208BE76A
:103920008908A7D1AAF1010101F0FF0AE6834FF44B
:103930001C71A183401C6B461022514600F080F898
:10394000022801D2002045E79DF8000008B1387038
:103950000CE0287880090CD0012823D0022808D058
:10396000304660604FF4007020813E70A6830220D4
:1039700030E7287AE979800900EB8100A979AA7AF1
:1039800001F0030100EB81206B7A6979D20903F021
:10399000030301F00F0102EB43021144401CC91F55
:1039A0008840DEE7287A0102E87901EB0040697A75
:1039B0000844800200F58060D3E70000B4150020C1
:1039C000F8B51E4C16464FF42673A28B002542B163
:1039D0009A4210D0A2F50072A23A2AD0A583032001
:1039E000F8BD0278920801D0042010E0491EE5835A
:1039F000C9B2A383401C6B464FF4007200F020F85C
:103A0000022801D20020F8BD9DF8000008B13070F6
:103A100010E0A08A01280CD9012200214C20FFF7D8
:103A2000D7FD08B1FCF790FF40F2A220A08301204F
:103A3000F8BD3570A5830220F8BD0000B415002044
:103A40002DE9F05F554C9A461646E38B254605F165
:103A5000380240F2D91B2835A3F2D91C4FF00009D7
:103A60005B4560D005DC7BB1A3F58073C73B06D115
:103A700055E0BCF1070F7AD0BCF1130F76D0A4F853
:103A80001E900320BDE8F09FA38AE38270E000BF90
:103A9000A4F8209084F82870A4F81890032384F8E0
:103AA0002330238C44F620675B1C9BB22384BB42EB
:103AB00004D902210AE0491EC9B2401C59B1037859
:103AC000FF2BF8D0DBB2FE2B0FD005218AF80010B7
:103AD000A4F81E9060E010230121284600F064F94C
:103AE00040F2C710E0830120CCE7491E0423C9B28D
:103AF000401C84F82330B14201D9374600E00F461C
:103B0000002306E0D4F80C8010F803C008F803C0C6
:103B10005B1CBB42F6D32783E3683B44E36094F825
:103B20002330032BBDD0208BB04213D2301A86B283
:103B3000F02E00D9F026F3B201212846E26800F009
:103B400033F9E0683044E060208B30442083A4F8EF
:103B50001EB0C8E7E08A0223401EE0820121284609
:103B600000F022F94FF4F070BCE700E00EE0002115
:103B7000E38AFF27002B8BD184F8287002230121D0
:103B8000284600F011F94FF4F670ABE784F8239063
:103B90008AF80090A4F81E90022073E7B415002064
:103BA0002DE9F05F7F4C164623460746B4F81C808B
:103BB00003F1380203F1280093F823909D8A002333
:103BC0004FF0040A4FF0020E4FF0030C44F6206B46
:103BD000B8F53B7F74D00EDCB8F1000F1AD0A8F511
:103BE0000078B8F1C3082ED0B8F1100F55D0B8F155
:103BF000210F0BD151E0A8F50078B8F585786ED08B
:103C0000B8F1160F6CD0B8F1260F6AD0A383032049
:103C1000BDE8F09F3978890803D000BF86F800A07E
:103C2000ABE0A17A01F0070101290FD0012D0DD9D8
:103C3000012259202169FFF7CBFC08B1FCF784FE73
:103C400040F2C32016E039788908E7D1E5826FE0B9
:103C5000238384F823A084F82810012D01D9FC21A6
:103C600000E0FE2184F829100223194600F09CF898
:103C700040F2D320A0836EE0C3F5007085B2F02D32
:103C800000D9F025C818E9B2012300F08DF8208B87
:103C9000284420834FF43970ECE74249238BC968EC
:103CA000B3F5007FE8D301F50071E16084F823C02B
:103CB0000323012100F078F84FF43B70DAE7FFE7C7
:103CC00094F83A1001F01F01052906D00B2901D004
:103CD0000D29A3D1052030704FE0238422E011E0AC
:103CE0003BE04DE0218C491C89B22184594502D921
:103CF00086F800E041E01023012100F055F840F281
:103D00000A30B7E74FF0000C0AE000BF17F80C804C
:103D1000B8F1000F02D084F8233006E00CF1010C5A
:103D20008C45F3D3B9F1030FDCD0E18A491EE1825F
:103D3000E78AFF21002F8BD1012D31D984F828107B
:103D4000FD2184F82910032302211C3400F02CF8F3
:103D50004FF44870208001205AE7238484F823C060
:103D6000218C491C89B221845945C1D810230121D5
:103D700000F01AF84FF44C707CE7A383022047E769
:103D8000002508E017F805C0BCF1000F02D084F848
:103D9000233005E06D1C8D42F4D3B9F1030FDFD061
:103DA0003370EAE7B4150020F8B50C460B494FF024
:103DB000A04691F858500121A940C6F80C1500936F
:103DC0001346014622460648FEF7E4FA002803D0CF
:103DD000BDE8F840FCF7B8BDF8BD0000B415002000
:103DE0009045000010B5094C0020D2B2207004F1BB
:103DF0000800FFF7E7F908B1FCF7A6FD6078002896
:103E000002D021780029FAD010BD00004400002023
:103E10002DE9F04FDFF8AC810746057CC468B8F89F
:103E2000160087B018B998F85800FEF761FC98F8AA
:103E3000230000264FF0020B4FF003094FF0010A58
:103E4000022801D001284BD17968AD1FA41D097843
:103E5000EDB24C2903D15DB16D1EEDB2641C1DB1F4
:103E60002278FF2AF8D005E04C2901D0002402E096
:103E70000125641E5CBB98F82210012927D08DF81B
:103E800001A098F822105046012907D0022905D038
:103E900004290DD005290ED0032006E08DF800601E
:103EA00088F82290FCF73EFE38B1FCF74DFD04E0A7
:103EB0008DF8000001E08DF800B098F85800FEF78A
:103EC00017FC88F822906846D8F800105EE00228B7
:103ED00004D188F823A02078400814D088F8236003
:103EE00006208DF80C0098F82200012817D002282F
:103EF00019D0042831D005284AD00320FCF724FD2E
:103F000007B0BDE8F08F98F824002E4A0E30C3B2F7
:103F100038320621A2F10A00FFF746FFF0E788F8E1
:103F200022B0A8F81C6003AA29462046FFF7FAFB36
:103F30000228E5D38DF808609DF80C008DF8090083
:103F400088F8229098F85800FEF7D2FB4FF04021F5
:103F50004FF00040C1F8240515E003AA2946204689
:103F6000FFF72EFD0228CBD38DF808A09DF80C009A
:103F70008DF8090088F82290A8F81460A8F8166057
:103F800088F8236019E0D8F8001002A88847B7E73E
:103F900003AA29462046FFF703FE0228B0D38DF876
:103FA00008B09DF80C008DF8090088F8229088F878
:103FB0002360A8F81460A8F8166098F85800FEF777
:103FC00097FBE0E7B415002000B585B00A460178FC
:103FD0008DF8001041680191017A8DF80810C168D0
:103FE0000391007C8DF81000044850F82210083826
:103FF00050F822206846904705B000BD28000020F8
:104000002DE9F843044610681E4615460F464FF04A
:10401000000810B1FEF794FEF8B1A86810B1FEF7E1
:104020008FFED0B1D5E90001C4F84405C4F84815A5
:10403000D5E90201C4F83405C4F838154FF48C757D
:104040004046C4F81881D4F818110091F2074FF0D7
:10405000010107D0C4F8501506E087F81D80102034
:10406000BDE8F883C4F85005B20702D5C4F840157E
:1040700001E0C4F84005300700D42161386848B138
:1040800046F38000401C4FF0400014D0C4F80403F5
:104090000020E5E729462046FEF742FE0028F9D039
:1040A000F87FFF28F4D0B97F11B1FEF713FBEFE7DB
:1040B000FEF717FBECE7C4F80803E9E770B50C4618
:1040C0000646154691B204F11A0000F013F8307854
:1040D000032806D1290C04F11400BDE8704000F05B
:1040E00009B870BD0170090A4170090A8170090A96
:1040F000C17070470170090A417070472DE9F84F8F
:10410000074621489146884605681E4601226946B1
:104110001846FCF78DFEDFF874A060B3009800210C
:104120000446801C0AE000BF00EA050259F821C0DD
:104130000AEB8202401C491CC2F80CC0B142F3D306
:104140004FEA1749FDF71EFA611C29400AEB81016D
:1041500049EA00422C40CA600AEB8401C86867F350
:10416000C50066F3891068F39F2020F00300401C0F
:1041700020F00400C8609AF8000001E0FEF754FB4C
:104180000028FBD1BDE8F88F5C000020101700204C
:1041900070B5044600F040F8050036D120780328B9
:1041A0002CD12079012829D1420204F130000021CC
:1041B0000646FDF7E7FF4AF6552104F22E20FFF7E9
:1041C00099FF13493046FFF78DFF124904F505703A
:1041D000FFF788FF04F506702169FFF783FF04F5F8
:1041E0000770E168FFF77EFFE2690123521CE2627B
:1041F00060783146FDF77CF900202071002260785C
:104200001146FDF7E9F800B10125284670BD000010
:1042100052526141727241612DE9F0410446C07809
:104220000027F8B1E56A04F13001607801232A46DD
:104230008846FDF75DF908B1012713E00020E07022
:10424000206AA169281A88420CD2A67808E0A069E1
:104250000123054460782A464146FDF749F9761E58
:10426000022EF4D23846BDE8F0811FB500228DF849
:1042700000200291816801914261D0E900126846F4
:1042800090471FBD0149012008707047440000207D
:1042900010B588B0044620220E496846FCF704F9A0
:1042A00006200090C01F0190029003904FF0EB7029
:1042B00006900CB1084A00E0002269460748FEF764
:1042C00075F808B1FCF740FB0448001F447008B0C3
:1042D00010BD00002C460000854200004800002070
:1042E0001FB50A4601788DF8001041680191017AE6
:1042F0008DF80810C0680390044850F82210001F81
:1043000050F82220684690471FBD0000340000206E
:104310002DE9FF410C464FF4927705463946FEF7EA
:1043200004FD0026B8B139462846FEF703FD0220F9
:104330008DF80000D5F88004C5F880040390D5F806
:104340003C050290E0680190A661E661D4E90012A4
:104350006846904723E04FF4887739462846FEF7B1
:10436000E4FCE0B139462846FEF7E4FCD5F83C15FC
:10437000A069884213D1E06960B1E268D5F8000213
:1043800020F02000C5F80002E069A0612069E66124
:10439000E06001E0A661E2682046FFF70EF94FF405
:1043A000A27739462846FEF7C0FC68B13946284650
:1043B000FEF7C0FCA06938B1A661E661D5F83C15EE
:1043C0002046E268FFF7F9F84FF490763146284628
:1043D000FEF7ABFC60B131462846FEF7ABFC01208E
:1043E000E860606920B1D5F84C152046FFF73DFF25
:1043F0004FF4AC7631462846FEF797FC00280ED0E5
:1044000031462846FEF796FC6069002807D0D5F8AB
:104410004C1504B02046BDE8F041FFF726BFBDE8CB
:10442000FF8100002DE9F05F8346DDE90A4A9946E5
:1044300090460D460846012703E000BFB0FBF8F0A8
:104440007F1C4045FAD2B94500D94F465FEACA7091
:1044500012D18CB15FEA8A7002D5B9F1000F01D098
:10446000202607E0302605E031465846641EFCF75A
:1044700025FD0CB1A742F7D35FF00106B9F1010F9A
:1044800002D9A9F1010903E0B5FBF6F0404502D3DA
:1044900006FB08F6F2E7DFF83C9000BFB5FBF6F04C
:1044A00000FB165519F800105846FCF707FDB6FB3F
:1044B000F8F6002EF2D15FEACA7009D0002C07D0BE
:1044C000A74205D220215846641EFCF7F7FCF5E709
:1044D000BDE8F09F1046000070B50D4604000CD0FA
:1044E000206850B1017841B1C188A288914204D1BD
:1044F0004078FCF7EDFFC00703D0002028600920BA
:1045000070BD20682860002070BD000010B5002933
:104510000AD00878002807D005487844FCF728F826
:10452000002801D0002010BD0248784410BD0000D2
:10453000FE010000F6010000B045000058460000F2
:10454000544600004C460000000200000400010533
:10455000381500200100121000004008282806002D
:10456000FFFFFFFF0006FF0000000040000000000A
:1045700049070000A908000000000000000000003A
:104580000100000001000000000000000000000029
:10459000000000000040004000000000010000009A
:1045A000000000FF06FF0000000000040000000003
:1045B000510C0000610D0000E50C0000B50D00007D
:1045C000C50C00004D0C00000200000000000000BF
:1045D00000000000030000000000000000000000D8
:1045E00000010000000000000000000001000000C9
:1045F00000000000000000000201000000000000B8
:1046000000000000020100000000000000000000A7
:1046100030313233343536373839414243444546F8
:10462000E1270000C9270000C7270000FFFFFFFFA8
:10463000FFFFFFFFFFFFFFFFFFFFFFFF0000000086
:10464000000000000000D60106000000312E3030CE
:1046500000000000534443004E6F72646963000021
:104660007761726E696E670064656275670000004D
:104670001B5B313B33306D001B5B306D0000000075
:104680001B5B313B33316D001B5B313B33326D00C3
:104690001B5B313B33336D001B5B313B33346D00AF
:1046A0001B5B313B33356D001B5B313B33366D009B
:1046B0001B5B313B33376D00696E666F0000000095
:1046C0006572726F72000000505253005350494D92
:1046D00000000000554152544500000050444D0078
:1046E000756172745F6C6F675F6261636B656E6446
:1046F000000000006170700074480000000000209D
:10470000B40000003C02000028490000B400002072
:10471000DC5A0000580200001001000043000000B5
:10472000F8FFFFFF004040404040404040404141D2
:104730004141414040404040404040404040404076
:104740004040404040050202020202020202020210
:10475000020202020220202020202020202020020D
:10476000020202020202909090909090101010109D
:104770001010101010101010101010101010101039
:1047800002020202020288888888888808080808CD
:104790000808080808080808080808080808080899
:1047A00002020202400000000000000000000000C1
:1047B00000000000000000000000000000000000F9
:1047C00000000000000000000000000000000000E9
:1047D00000000000000000000000000000000000D9
:1047E00000000000000000000000000000000000C9
:1047F00000000000000000000000000000000000B9
:1048000000000000000000000000000000000000A8
:104810000000000000000000000000000000000098
:104820000000000000000000204600000000000022
:10483000E046000054000020C846000000000000D0
:10484000CC46000000000000D4460000000000003C
:10485000DC46000000000000F446000000000303F6
:104860006800002060000020680000205016002032
:1048700018000000000000003845000000000000A3
:104880000001000000000000000000000000000027
:104890000000000000000000000000000000000018
:1048A0000000000000000000000000000000000008
:1048B00000000000000000000000000000000000F8
:1048C000002000400000000000000000FF00000089
:1048D000FF000000000000000000000000000000D9
:1048E00000000000000000000000000000000000C8
:1048F000C046000060460000B84600006846000060
:10490000784600007046000080460000884600009F
:104910009046000098460000A0460000A84600000F
:08492000B04600000090D00336
:0400000500000201F4
:00000001FF
