:1000000000000420750300005D0300005F03000092
:1000100061030000630300006503000000000000AE
:100020000000000000000000000000006703000066
:1000300069030000000000006B0300006D03000076
:100040006F0300006F030000E11C0000251F00008B
:10005000351F00006F0300006F0300006F030000F6
:100060006F0300006F0300006F0300006F030000C8
:100070006F0300006F0300006F0300006F030000B8
:100080006F0300006F0300006F0300006F030000A8
:100090006F0300006F0300006F0300006F03000098
:1000A0006F0300006F0300006F0300006F03000088
:1000B0006F03000025290000000000000000000080
:1000C0006F0300006F0300006F0300006F03000068
:1000D0006F0300006F0300006F0300006F03000058
:1000E0006F0300006F0300006F03000000000000BA
:1000F000000000006F030000000000006F0300001C
:1001000000000000000000000000000000000000EF
:1001100000000000000000000000000000000000DF
:1001200000000000000000000000000000000000CF
:1001300000000000000000000000000000000000BF
:1001400000000000000000000000000000000000AF
:10015000000000000000000000000000000000009F
:10016000000000000000000000000000000000008F
:10017000000000000000000000000000000000007F
:10018000000000000000000000000000000000006F
:10019000000000000000000000000000000000005F
:1001A000000000000000000000000000000000004F
:1001B000000000000000000000000000000000003F
:1001C000000000000000000000000000000000002F
:1001D000000000000000000000000000000000001F
:1001E000000000000000000000000000000000000F
:1001F00000000000000000000000000000000000FF
:10020000354936480A1A02D0072291438D463449AF
:1002100034480A1A06D00722914381F30988022242
:1002200082F3148830483149314A00F044F83148AB
:100230003149324A00F03FF831483249324A00F041
:100240003AF832483249334A00F035F832483349F7
:10025000334A00F030F833483349344A00F02BF881
:1002600033483449344A00F026F8344834490022EF
:1002700000F02CF833483449002200F027F83348C6
:100280003349091A082902DB002202604160314A21
:1002900090471F481F49884205D00268043003B4C4
:1002A000904703BCF7E700208646EC46002000217B
:1002B000294A9047FEE7884207D0521A05D00378B2
:1002C00001300B700131013AF9D17047884202D0F8
:1002D00002700130FAE770470000042000E00320BC
:1002E0000000042000000420E03D00000000002089
:1002F00058000020FC030000FC0300000433000051
:10030000E03D0000000000200000002094330000C9
:1003100094330000943300009433000094330000C1
:10032000943300009433000094330000E03D00005B
:10033000383E0000580000205800002058000020DF
:10034000942B0020942B0020942B0020942B002031
:10035000944B00209D0300004D2D0000FEE7FEE7BA
:10036000FEE7FEE7FEE7FEE7FEE7FEE7FEE7FEE765
:1003700000F002B8FFF7FCBF0F484FF007018843B9
:1003800085460E4880470E48016841F470010160BF
:10039000BFF34F8FBFF36F8FFFF732BF09480A4992
:1003A0000A4A884207D0521A05D0037801300B70F0
:1003B0000131013AF9D1704700000420792F000083
:1003C00088ED00E0943300000000002000000020D1
:1003D00000000000000000004D2C0000000008009C
:0403E000FFFF0F000C
:1003E40000290020EC280020040000000400000084
:0803F400010000004C3B000079
:1003FC007047000007B5044B0093044A402300F0FB
:10040C0032F803B05DF804FB1D0400005900002015
:10041C002DE9F84388461446B2B10F4B0F4E032515
:10042C00002743F00109224608EB0701002002F0E7
:10043C0047FD0744241A48B933782BB14FF47A405E
:10044C00C847013D02D13570BDE8F88301233370F4
:10045C00002CE8D1F8E700BFA033000058000020C2
:10046C00704702F05DBDF0B595B01D4616460846C6
:10047C000C4600F0FBFF1A9B0D93CDE90865002597
:10048C002B46082205A920460A958DF82C500C9570
:10049C0001F008F8079B0293069B03939DF8143018
:1004AC008DF8115003F00302012A1DD1BDF8142060
:1004BC00059DC3F3C203C2F383168DF81030B2004E
:1004CC0008230EA9204600F0EDFFC5F3952508ABD7
:1004DC000093324602AB0EA9284600F09FFB204643
:1004EC0000F0C8FF15B0F0BD022AF8D1BDF81650C7
:1004FC00C3F3C203C5F389158DF810300827082DF6
:10050C002E4628BF08263B4632460EA9204600F050
:10051C00C9FFAD1B08AB02AA31460EA8374400F048
:10052C00E1FB002DEBD1DAE77047000007B5044B77
:10053C000093044A4023FFF796FF03B05DF804FBD9
:10054C00950500009A00002030B50C4D0FCD89B0F8
:10055C006C460FC495E80F0084E80F00062308488A
:10056C0000930022694601F077FB08B100F01AFCF9
:10057C00044B00221A7009B030BD00BFB433000028
:10058C00000000209900002038B50D480D4C0E4D90
:10059C00002323700378EB5CD2B263B1043002F019
:1005AC0061F908B100F0FEFB084B1A7812B1237800
:1005BC00002BFBD038BD0C3001F0E4FEF1E700BF9E
:1005CC0000000020DA0000207C06002099000020AA
:1005DC0008B50848084A0378D35C33B1043002F0FC
:1005EC00B1F8BDE80840FFF7AFBF0C3001F062FE78
:1005FC00F7E700BF000000207C060020FFF7A4BF37
:10060C0038B50A4DFFF72DFF0421284600F070FA8B
:10061C00074B01245C71FFF7F1FF042105F1100079
:10062C0000F066FA034B5C7138BD00BF3C33000030
:10063C00140000201C000020037813F0040216D0D4
:10064C0003F00303012B03D0022B09D001207047C8
:10065C000A6800880232C0F3831002440A60F5E78E
:10066C000B684288023303EB92130B60EEE71046E3
:10067C00704700002DE9F04FDFF810A10F4685B050
:10068C000446861C0020154600F0E2FBDAF8042034
:10069C003A60DAF8083003F580739B1A0AF21C47AB
:1006AC000AF583690AF21448B34219D30020002DCD
:1006BC0068D004F00F039B0143F0050363F30F00B4
:1006CC00DAF80430DAB2033233444AF8220000205C
:1006DC00CAF8043000F0BEFB012005B0BDE8F08F75
:1006EC000121384600F0F3FB484600F00BFC404675
:1006FC0000F008FCDAF808000090C0B203300AEBF6
:10070C0080006946FFF798FF009B30BBDAB20AEB1A
:10071C008202D16801919A1C0133DBB20AEB83038C
:10072C000092D3F80CB001F00303012B22D0022B62
:10073C0015D08346404600F0E8FB10B1009BCAF888
:10074C0008305946384600F0C2FBDAF80830DAF8BF
:10075C00042003F580739B1AA6E7D8B2CEE7BDF848
:10076C000630C3F3891303334FEA1B4B02EB93039D
:10077C000093DFE7BDF80430C3F383134FEA1B4B40
:10078C001344F5E7A40544F0060099E7AC010020FA
:10079C00064B074810B501221A7000F020FE0446E3
:1007AC0010B9044800F088FE204610BDAC010020B2
:1007BC006C3300000834000030B50A4C71B10A4AA1
:1007CC000A49121BD20800239A4201D1002030BDE5
:1007DC0031F82350854202D00133F5E7034654F833
:1007EC003300F4E7043300003C3300000000002029
:1007FC00094B013903EBC000032909D8DFE801F0EC
:10080C000A0204060420704700797047407970474B
:10081C00002070470220704704330000034BD3E9DB
:10082C000130C31A58425841704700BFAC01002038
:10083C002DE9FF41FFF7F2FF0546002840F0E98063
:10084C00754CC4F81804BFF34F8FA3680093DBB248
:10085C00033304EB83006946FFF7EEFE009B18B1EF
:10086C00D4F81824002A5AD0DAB2991C013304EBBC
:10087C008202DBB204EB8303D268DB68029302F0E2
:10088C000303022B0192009154D1BDF8063063484A
:10089C00C3F38917502F3E4628BF502606F1080196
:1008AC0066F38F13C1F30901ADF8063000F0AFFD0C
:1008BC000546002800F0988000F0D8FD002308229F
:1008CC0001A9284600F0E4FD0099CB43DBB20133CB
:1008DC00C9B20331B6EB830F4FEA830204EB8101FB
:1008EC0025D95FFA82F80823A6EB0806284600F003
:1008FC00CFFDF6B208F10803494903F0FC03324678
:10090C00284600F0C5FD009B033703EB97070097C3
:10091C00D4F81834002B43D1D4F8106453E0626837
:10092C009A4294D8A260284604B0BDE8F08108230E
:10093C003246E5E7012B57D1BDF804303748C3F3F5
:10094C008311062928BF062161F38913023101F0B6
:10095C000F018900ADF8043000F059FD0546002860
:10096C0042D000F083FD0023082201A9284600F0A4
:10097C008FFD0026BDF80420C2F38312B30096420B
:10098C0003F10803C4D200994A1CC9B20331009286
:10099C0004EB81010422284600F07AFD0136E9E7D8
:1009AC00284600F067FDFFF739FF80F00100C5B263
:1009BC00B9E7F3685B7923B1336829461B68304685
:1009CC009847F3681E68002EF3D1284600F052FDBC
:1009DC00304600F03DFAD4F818340BB9009BA360F4
:1009EC00002000F037FADEE7D4F8104454B90D4B70
:1009FC000D480E49C01AC008000440F0020000F077
:100A0C005DF8D0E7236820469B689847E3681C682C
:100A1C00ECE7002587E700BFAC0100206C33000039
:100A2C00B8010020043300002C330000F033000028
:100A3C002DE9F34704460E46924601A901221846B9
:100A4C009946FFF717FE1B4F10B3019D4FF000089E
:100A5C00AA1CC84508EB020123D11748002100F05D
:100A6C00FBF980F31000000440EA1440E4006B1C16
:100A7C0004F03804DBB2EDB244F0010407EB83035D
:100A8C00033544EA881444EA8624D86047F82540A4
:100A9C003B781BB1FFF7CCFE0028FBD102B0BDE8C0
:100AAC00F087C9B207EB81015AF82830CB6008F106
:100ABC000108CEE7AC010020C805002000231A462F
:100ACC00FFF7B6BF07B5CDE9002302236A46FFF74F
:100ADC00AFFF03B05DF804FB1FB5CDE90123069B06
:100AEC00039301AA0323FFF7A3FF05B05DF804FBF2
:100AFC0030B50F4CD4F8102403460020114631B900
:100B0C00D96808714AB9C4F810340A6030BDC96894
:100B1C000D79854206D00968F1E7D26814680C603B
:100B2C001360F3E701300A28E8D14FF0FF30EDE70E
:100B3C00AC01002038B5084B0125D3F810441D70CA
:100B4C0004B938BDE3685D71236820465B6898473B
:100B5C00E3681C68F4E700BFAC01002030B5C38823
:100B6C0085B004460D4633B1144A00921449154A17
:100B7C00284600F027FA217A05291DD0637A4BB15B
:100B8C00A088FFF735FE104B104953F8202028465B
:100B9C0000F018FA227A0E4BA08853F82220039208
:100BAC000021FFF709FE039A0A490346284605B0BF
:100BBC00BDE8304000F006BA05B030BD343400005A
:100BCC001C34000014340000A03400003934000040
:100BDC00C43400003C34000007B503460846197ABB
:100BEC00052911D05B7A2BB1094A0A49019000F012
:100BFC00E9F901980849019000F0E4F9019803B073
:100C0C005DF804EB00F0D3B9002AF8D0F2E700BF8E
:100C1C003434000039340000313400002DE9F04345
:100C2C0085B01F460C9D002395F80C902B7306463F
:100C3C000C46904629463846FFF790FFB8F1060F50
:100C4C0009D8DFE808F00412181F28334000314699
:100C5C00284600F0B7F9002229463846FFF7BCFFBA
:100C6C0085F80C9005B0BDE8F08322683146284623
:100C7C0000F0A8F9EFE7D4E900233146284600F04C
:100C8C00A1F9E8E7A36800933146D4E9002328468C
:100C9C0000F098F9DFE7E3680193A368009331460D
:100CAC00D4E90023284600F08DF9D4E72369029398
:100CBC00E3680193A36800933146D4E900232846E6
:100CCC0000F080F9C7E76369039323690293E36833
:100CDC000193A36800933146D4E90023284600F021
:100CEC0071F9B8E708292DE9F74F80460E461746EB
:100CFC001C463DD800251B7B2573214610460193CD
:100D0C00FFF72CFFDFF88CA0DFF88CB0AE4232D9A5
:100D1C0018F805205946204600F054F90135082DE5
:100D2C00F4D11B49DFF874A0DFF874B0204600F052
:100D3C0049F94FF000094E4524D918F809507E2D79
:100D4C001ED8284602F054FA002814BF2A462E2238
:100D5C005946204600F036F909F10109B9F1080F9E
:100D6C00E9D1012221463846FFF736FF019B237358
:100D7C0003B0BDE8F08F5146204600F023F9CDE7D3
:100D8C002E22E5E75146204600F01CF9E4E700BFAF
:100D9C00503400004C340000463400004E34000047
:100DAC00523400001FB50021039001AA44F2010047
:100DBC00CDE9011100F004F805B05DF804FB00006A
:100DCC0038B572B6FFF7B6FEFFF732FD0028FBD13F
:100DDC00104B114C114D1249E41AE408240444F050
:100DEC000100FFF76BFED5F8F030DB0700D500BE35
:100DFC000C4944F00200FFF761FEBFF34F8FEA6825
:100E0C00094B02F4E0621343EB60BFF34F8F00BF5A
:100E1C00FDE700BF043300002C33000000ED00E0C0
:100E2C00D8340000E43400000400FA0572B6024A1B
:100E3C00136801331360704764060020034A13687B
:100E4C00013B136003B962B6704700BF6406002013
:100E5C00FFF7ECBFFFF7F2BF10B5034653E8000FE6
:100E6C000A4643E8002494F0000FF7D110BD10B5EA
:100E7C00034653E8000F40EA010243E8002494F0D3
:100E8C00000FF6D110BD10B5034653E8002F42EA0F
:100E9C00010043E8000494F0000FF6D110BD10B52A
:100EAC00034653E8000F00EA010243E8002494F0E3
:100EBC00000FF6D110BD10B5034653E8002F02EA1F
:100ECC00010043E8000494F0000FF6D110BD10B5FA
:100EDC00034653E8002F02EB010043E8000494F0B2
:100EEC00000FF6D110BD10B5034653E8002FA2EB4E
:100EFC00010043E8000494F0000FF6D110BD01216D
:100F0C00FFF7B5BF0121FFF7BEBF0021FFF7C7BF39
:100F1C000021FFF7D0BF10B590B1D0E901230168D3
:100F2C009B1ADBB20A60013BDBB2FF2B026802D1D9
:100F3C000020107110BD11684C1C14600B70F2E78E
:100F4C000E20F7E738B504460020FFF781FF226832
:100F5C0063681168994213D9481E106011F8013C5E
:100F6C00E568218A01FB0355A36811791B1ADBB2D2
:100F7C00994200D213710020FFF76CFF284638BD50
:100F8C000025F8E738B5054600200C46FFF760FF52
:100F9C002A681368591C1160E968641A298AB4FB21
:100FAC00F1F41C70BDE838400020FFF753BF826895
:100FBC0010B504462AB143690168006998470023BB
:100FCC00A36010BD0EB403B5039921B104AB01AA03
:100FDC00019300F077F802B05DF804EB03B07047B2
:100FEC000A2938B504460D4602D10D21FFF7F8FF4A
:100FFC00A3682268591CA160D554D4E901329A42E5
:10100C0004D32046BDE83840FFF7D1BF38BD0000FF
:10101C002DE9F84F9846DDE90A43154682460F46FE
:10102C000A464FF00109AA420FD2C14538BFC1464A
:10103C0013F0010B01D16CB900240126B8F1010F9A
:10104C001BD908F1FF386E43F8E709F10109B2FB2F
:10105C00F5F2E8E79B070ED5B8F1000F0CBF302670
:10106C002026A145E9D2013C31465046FFF7B8FF96
:10107C00002CF6D1E0E72026F3E7B7FBF6F39D4210
:10108C00E1D9DFF83C80B7FBF6F3504618F80310B3
:10109C0006FB1377FFF7A4FF3346AB42B6FBF5F61E
:1010AC00F1D2BBF1000F02D00CB1A14501D3BDE8C8
:1010BC00F88F20215046013CFFF792FFF4E700BF68
:1010CC00F13400002DE9F74F0546174688460029F4
:1010DC0000F03E8118F8011B49B92B7B002B00F066
:1010EC003781284603B0BDE8F04FFFF760BF2529D4
:1010FC0040F0B780002698F800302D2B424608F1BE
:10110C00010823D0302B24D02B2B25D000242A2BC4
:10111C0002F1010123D13B681A1D1B683A601C4483
:10112C000A4613782E2B26D101324FF0000A1046B6
:10113C0010F8011BA1F1300CBCF1090F1DD80A23CA
:10114C0003FB0A13A3F1300A0246F0E746F001064E
:10115C00D1E746F00206CEE746F00406CBE711F8DD
:10116C00013CA3F130000928DBD80A2202FB04342D
:10117C00303C0A46CBE74FF0000A12F8011B01F095
:10118C00FB0068289046F8D0782909D86F290CD82C
:10119C00632962D022D8252963D0582900F0888091
:1011AC0098F80030002B95D197E770390829F7D8BB
:1011BC0001A353F821F000BF37130000AD1100005C
:1011CC00AD110000CD120000AD110000AB120000FB
:1011DC00AD110000AD110000BD120000642901D05A
:1011EC006929DDD13A68D2F80090111D89EAE972BB
:1011FC003960A2EBE9724FF0010B092A35DCD345BB
:10120C0038BFD3462CB1B9F1000F01DB720700D502
:10121C00013CB30702D5BAF1000F03D0F00701D49B
:10122C004CBB0024B9F1000F2DDAC9F100092D21B6
:10123C002846FFF7D5FE06F00302022A04D1BAF1C4
:10124C00000F01D11CBB0024CDE9004653460A22F5
:10125C0049462846FFF7DCFEA2E73B681A1D1978C1
:10126C003A602846FFF7BCFE9AE70A230BF1010B04
:10127C00B2FBF3F2C1E7A345D4D220212846013CAE
:10128C00FFF7AEFECCE77107D5D52B21D0E7A345F0
:10129C00DAD230212846013CFFF7A2FED2E73968AA
:1012AC00CDE900460A1D3A6053460A220968D0E788
:1012BC0039680A1D3A60CDE9004653461022F5E71D
:1012CC003B681A1D3A6016F00106D3F8009024D141
:1012DC00B9F1000F03D0484601F0DDFF0646B442D9
:1012EC001DD809F1FF3919F8011F00293FF458AF37
:1012FC002846FFF775FEF6E728460136FFF770FE25
:10130C0019F806100029F7D1A642BFF449AF2021E5
:10131C002846013CFFF764FEF6E70026F0E72021A3
:10132C002846013CFFF75CFED9E73B681A1D3A6082
:10133C00302128461C68FFF753FE78212846FFF71A
:10134C004FFE00220823CDE900322146102280E70F
:10135C0003B0BDE8F08F00BF2DE9F84FB0F806A040
:10136C004579D2F800B09DF828900AFB05F5043DAC
:10137C0088460BEB0301A94203F1040488BFA5EBDB
:10138C00030BB4FBFAF607460AFB1644C2F800B08E
:10139C004EB9AAEB04055D4528BF5D46BBF1000FB5
:1013AC0004D1BDE8F88F3F68013EF1E7043408EB47
:1013BC0006003C442A46B9F1000F0DD02146ABEB98
:1013CC00050B01F01DFFDA452E443F6855464FF0E2
:1013DC00000428BF5D46E1E701462046EFE7FFF732
:1013EC009ABDF8B546790146721E05460023934214
:1013FC002D6803D30024A64202D8F8BD0133F6E7CA
:10140C000F682846FFF7BEFD01343946F3E72DE996
:10141C00F843068ACD1C0746FFF794FD043E35447D
:10142C000446B5FBF6F5F0B14FF48073EDB2838052
:10143C00C680013D076081464FF00008A84512D2D6
:10144C003846FFF77FFD064648B163790133637177
:10145C0008F10108C9F8000007608146EEE7204654
:10146C00FFF7BFFF34462046BDE8F8830121043066
:10147C00FFF72DBD10B5012104460430FFF733FDF5
:10148C00C0B220B92046BDE81040FFF7AABF10BD7E
:10149C001FB503920022009203AAFFF75DFF05B06F
:1014AC005DF804FB1FB503920122009203AAFFF71B
:1014BC0053FF05B05DF804FB836800225A60C3E952
:1014CC0004229A60DA601A607047000013B50B466C
:1014DC00114680B9104B1148114AC01A0E23C0088E
:1014EC000093104B0004104940F00100FFF7F4FA90
:1014FC000E2002B010BD4BB9074B08480B4AC01A5E
:10150C00C0080E2300930004064BECE703601B6835
:10151C0002B0BDE81040184704330000343300001B
:10152C00013500003136000006350000353500006D
:10153C002DE9F743DDF8288088B93E4B3E483F4AF9
:10154C00C01AC0080E243E4B009400043D4940F0E4
:10155C000100FFF7C1FA204603B0BDE8F0834AB999
:10156C00344B3548384AC01AC0080E24344B00940A
:10157C000004EBE7D0F800E0BEF1000F09D12D4BD1
:10158C002D48324AC01AC00808242D4B0094000480
:10159C00DCE74BB9274B28482D4AC01AC008092450
:1015AC00274B00940004D1E74568D5F80490B3FBB1
:1015BC00F9F509FB15354DB11E4B1F48254AC01ACC
:1015CC00C00809241E4B00940004BFE78D0709D006
:1015DC00184B1948204AC01AC0081024184B009404
:1015EC000004B3E712F0030F09D0124B12481B4A48
:1015FC00C01AC0081024124B00940004A6E7C5685A
:10160C00A9420DD34D1EEC180569AC4208D8CDF893
:10161C002880DEF80C40A44603B0BDE8F0436047D8
:10162C00044B05480E4AC01AC0081024044B009401
:10163C0000048BE704330000343300000135000054
:10164C001E360000063500007F3500002F350000E7
:10165C003939000085350000AF350000C735000072
:10166C00EA350000014B436000207047443600000F
:10167C000846704700207047024B1868003818BFA6
:10168C00012070476806002008B50248FFF740FCAF
:10169C00002008BD6806002008B510461A4601F067
:1016AC00AFFD002008BD00002DE9F041804686B05A
:1016BC0011480F4616461D46FFF721FC0446C8B9D3
:1016CC00AA083146384601F09BFA0B48FFF720FC7C
:1016DC00D8F8083053B101228DF800200C9A0592ED
:1016EC00CDE90147CDE9036568469847204606B029
:1016FC00BDE8F0811124F9E7680600202DE9F043DC
:10170C00814687B014480E4615469846FFF7F7FBFE
:10171C000446F0B90746BD4215D10F48FFF7F8FB58
:10172C00D9F808305BB102228DF800200022CDE9F7
:10173C000126CDE90325CDF814806846984720464C
:10174C0007B0BDE8F08306EB073001F041FA013732
:10175C00E1E71124F3E700BF68060020436810B5E9
:10176C009C686068036801219B689847A36810B95E
:10177C0003221A7010BD0422FBE708B101F08BBDE7
:10178C00704710B584680068FFF7F7FFE37F627E4F
:10179C00A07653FA80F3B3FBF2F102FB1133013361
:1017AC002375A37F53FA80F00131B0FBF2F302FBF7
:1017BC001300A1750130591C6075E17504F114001A
:1017CC0010BD000007B58368DA7E8A421ED01B224A
:1017DC008DF800205B228DF8012031228DF802203B
:1017EC003B228DF8032033228DF8042001F12F02C7
:1017FC008DF805206D22D9768DF8062000228DF803
:10180C000720044900696A46FFF7DCFB03B05DF86A
:10181C0004FB00BF393400000A4609B1FFF7D2BF00
:10182C008168CA760069024A0249FFF7CBBB00BF48
:10183C00AE3600003934000007B583681A7F8A423F
:10184C0018D01B228DF800205B228DF80120342249
:10185C008DF8022001F12F028DF803206D221977EB
:10186C008DF8042000228DF80520044900696A4691
:10187C00FFF7A8FB03B05DF804FB00BF3934000090
:10188C00014A0249FFF79EBBAA360000393400001A
:10189C000A4619B102490069FFF794BB704700BFB3
:1018AC00703600000A4619B102490069FFF78ABB7D
:1018BC00704700BF763600000CB473B506AB044617
:1018CC0053F8046B01938368D3F848516D0719D50D
:1018DC00DD7E8D4216D0B3F81B50FFF79DFF2069BB
:1018EC0001AA3146FFF7EEFBE9B22046FFF794FF61
:1018FC00290A02D02046FFF79FFF02B0BDE87040D6
:10190C0002B07047206901AA3146FFF7DBFBF4E710
:10191C002DE9F041C3685B6890B004460D46186829
:10192C00002203A900F025F9002840F08A808DB12F
:10193C000398FFF79FFDA268D2F838310133C2F843
:10194C00383103F00703012B04D00125284610B0D1
:10195C00BDE8F0812046FFF714FF81780129064687
:10196C0004D90139C9B22046FFF792FF3178012919
:10197C0004D90139C9B22046FFF794FF2069FFF75B
:10198C007FFF2DB1304A02212046FFF795FFDDE79E
:10199C0000230822039804A9FFF784FD069B0793F4
:1019AC00059B08939DF810308DF8255003F0030229
:1019BC00012A25D1BDF81020049E0398C3F3C2035D
:1019CC00C2F383178DF82430BA0008230AA9FFF755
:1019DC0069FDC6F39526236900933A4607AB0AA91D
:1019EC003046FFF71BF90398FFF744FDE3685B688B
:1019FC000022186803A900F0BCF80028C8D0A4E79E
:101A0C00022AF0D1BDF81260C3F3C203C6F38916E3
:101A1C008DF824304FF00808082E374628BF0827C9
:101A2C00434603983A460AA9FFF73CFDF61B236987
:101A3C0007AA39460AA8B844FFF754F9002EEBD18F
:101A4C00D1E7002582E700BF7C3600004368012106
:101A5C009868FFF75DBFF7B547680191BD68AB6843
:101A6C001E78042E0ED0386801A900F02CF804461C
:101A7C0050B90198FFF7FAFC032E03D121462846F2
:101A8C00FFF746FF03B0F0BDF11E18BF0121284639
:101A9C00FFF73EFFE7E7026813685268934291BF75
:101AAC00D01A80680130801888BFC01A704703684C
:101ABC0081681A685B688B4234BF01330023D31AE8
:101ACC0058425841704770B5044600200D46FFF748
:101ADC00BFF92046FFF7EBFF10B1237C002B3BD165
:101AEC002368A1685E685A688A4234BF01320022BA
:101AFC005A6028B11A688A4234BF013200221A6037
:101B0C00E2686368511E072920D8DFE801F0041051
:101B1C001F141F1F1F182A789A552046FFF7BBFF6A
:101B2C0023689A68824200D29860002415E02A88C3
:101B3C0023F81620F1E72A6843F82620EDE7D5E9CB
:101B4C00000103EBC603C3E90001E6E7294602FBEB
:101B5C00063001F055FBE0E704240020FFF77AF98A
:101B6C00204670BD036818685B68C31A5842584118
:101B7C00704770B5054600200C461646FFF768F90D
:101B8C002846FFF7EFFF002830D12B6819682EB9D3
:101B9C001A68A868824238BF561C1E60EA686B68D7
:101BAC00501E07281CD8DFE800F0040C1B101B1B70
:101BBC001B145B5C237000240020FFF74BF92046BC
:101BCC0070BD33F811302380F5E753F821302360D2
:101BDC00F1E703EBC103D3E90023C4E90023EAE7EF
:101BEC0001FB0231204601F00BFBE4E70524E3E79F
:101BFC001FB503788DF800304368019383688DF826
:101C0C000830C368054A0393054B684653F82130E6
:101C1C0052F82110984705B05DF804FB6C060020C3
:101C2C00740600201FB503788DF8003043680193CB
:101C3C0083688DF80830C368054A0393054B6846E2
:101C4C0053F8213052F82110984705B05DF804FB89
:101C5C006C06002074060020F0B5194B90F800C0FB
:101C6C00DFF86CE043F82C20164B16460A6943F853
:101C7C002C204B7F0EF80C300C4607460FCC89B04D
:101C8C006D460FC594E80F0085E80F003B78CDF842
:101C9C0010C01EF803304BB1002E0B4A694608BF2A
:101CAC003246381D00F072FC09B0F0BD002E074A18
:101CBC00694608BF324607F10C0000F02BFAF3E737
:101CCC00740600206C060020FD1B0000311C000077
:101CDC007C060020014B1B68184700BF80060020C3
:101CEC0038B50B4B98420C4601D0002038BD002073
:101CFC00FFF7AEF8074B1D7915B901221C601A715C
:101D0C000020FFF7A7F8002DEFD01120EEE700BF61
:101D1C000020004080060020034B984201BF034B7B
:101D2C0000221A601A7170470020004080060020C3
:101D3C000023435082B043580193019B02B070477B
:101D4C000B7B032B2AD8DFE803F022261A028B68C0
:101D5C005A0304D5D0F84C350A699A4207D18B68DE
:101D6C005B031BD4D0F84C354A699A4216D0002339
:101D7C000622C0F80035C0F8002518467047D0F888
:101D8C004C350A699A42F2D1D0F83C35ECE7D0F8E0
:101D9C004C350A69E9E7D0F83C35FAE70120704781
:101DAC00F0B5D0F8243187B004460D46EBB14FF4B2
:101DBC009271FFF7BDFFD0F80431B3B9AB68C0F82E
:101DCC0008330223AB60AB68C0F80433D0F8603141
:101DDC001BB1D0F800329B0502D40123236263614E
:101DEC00012385F82E3007B0F0BDD4F80431002B58
:101DFC0041D04FF482712046FFF79AFF2B6A5F06A1
:101E0C0009D495F82E3033B92946FFF799FF80F0A5
:101E1C00010085F82E002B6A5E073ED405F10C07F5
:101E2C000FCF01AE0FC63B6833604FF4B071204644
:101E3C00FFF77EFF4FF4AE71FFF77AFF95F8303065
:101E4C0013B195F82E3043B30023C4F80032AB60C5
:101E5C002F4BC4F8083344F30733002B4FEA1432EA
:101E6C001BDB02F01F015B0901228A406033294908
:101E7C0041F8232011E04FF4A4712046FFF758FFDE
:101E8C002B7B23BB05F10C070FCF01AE0FC63B68B4
:101E9C00336095F83030002BD7D0D4F8C434C4F864
:101EAC00C434980725D501238DF8003095F83030CF
:101EBC000BB985F82F302B6A5B0703D595F82E30BC
:101ECC00002B90D0D5E90031684698478BE74FF44A
:101EDC000073C4F8003240F20223AB6003F1CE73FE
:101EEC00C4F80833AB68C4F804330123A36023623D
:101EFC0079E7590701D50223D6E7DA0701D5032381
:101F0C00D2E795F82E30002BCED00423CCE700BFBF
:101F1C0002029C0100E100E001490248FFF740BFCA
:101F2C00880600200030004002494FF04020FFF7A7
:101F3C0037BF00BFBC0600200023435082B043587B
:101F4C000193019B02B070470A4610B54FF48E7195
:101F5C00FFF7F2FF136A9168C95C136A01331362CD
:101F6C00C0F81C1510BD8B690A4610B54FF484716E
:101F7C0023B9FFF7E1FFD0F8183510BDFFF7DCFFF0
:101F8C00536AD168D0F81805C854536A01335362A8
:101F9C00F3E700001FB501238DF80030044BCDE9A9
:101FAC000110D3E900126846904705B05DF804FBB8
:101FBC00F006002030B54D4DD5F804339A0585B0A8
:101FCC0051D5D5F82431002B4DD04FF492712846C1
:101FDC00FFF7B2FF4FF40173C5F80833444B93F885
:101FEC0029200AB901226A60404902228DF800209A
:101FFC00D1F88024C1F8802403929A690292DA689D
:10200C0001920022C3E906226846D3E900129047E8
:10201C003648D0F81C315BB1354A5169136A994284
:10202C004DD992F82830002B49D11146FFF78CFF7F
:10203C002E48D0F84431002B56D04FF4A271FFF744
:10204C007BFF2B4B93F829200AB1012202609A697D
:10205C00002A49D0586AD96800229A6105B0BDE8B7
:10206C003040FFF797BFD5F804335B07D0D5D5F8D0
:10207C000831002BCCD01E4C1C482146FFF773FFB7
:10208C00636AA2699A42C3D1E369E1684BB1A36167
:10209C002369E3600023606AE3616362FFF77AFF00
:1020AC00B6E794F829300BB901236B600F4B4FF452
:1020BC000172C3F808230023606AA361EEE70B48A2
:1020CC004FF48E71FFF738FF5369002BB0D0516974
:1020DC000291002391688DF800300191536168469C
:1020EC00D2E900139847A3E705B030BD00200040AB
:1020FC00F00600201F2886BF00F01F00044B4FF095
:10210C00A04300F5E070022243F82020704700BF86
:10211C00000300502DE9F843604D90F804802C2307
:10212C0003FB0853064693F82A300C469146002BC5
:10213C0040F0AF805A490068FFF7D2FD07460028EF
:10214C0040F0A9802268531C10D01F2A87BF554924
:10215C0002F01F0313464FF0A0410120984003F5F5
:10216C00E073C1F80805032041F823006168481C9E
:10217C000DD01F298BBF01F01F030B4649484FF0B0
:10218C00A04003F5E0734FF0000C40F823C030681A
:10219C00A369C0F8243594F814C0637DBCF1010F19
:1021AC004CEA0303C0F86C35C0F81415C0F80C25C4
:1021BC002BD1A368591C0DD01F2B8BBF03F01F0212
:1021CC001A4638494FF0A04102F5E0724FF0000C6E
:1021DC0041F822C0E1684A1C13D01F2987BF314A3D
:1021EC0001F01F0C8C464FF0A0424FF0010E0EFA7E
:1021FC000CFE0CF5E07CC2F808E54FF0030E42F83B
:10220C002CE0C0F80815C0F810352C2202FB08F29F
:10221C00AB18C3F804902369AB50B9F1000F20D070
:10222C004FF48E71247FFFF787FE4FF4A271306854
:10223C00FFF782FE32681C4BC2F80433130B42F3D7
:10224C0007326101002AC9B21EDB1848841884F8D1
:10225C0000130121520903F01F0301FA03F340F8A4
:10226C00223033680422C3F800252C2303FB0853C7
:10227C000022C3E9062283F829205A61012283F83F
:10228C002A203846BDE8F883094A03F00F03D154DD
:10229C00E7E70827F5E71127F3E700BFF006002072
:1022AC00C11F0000000300508000020000E100E0AC
:1022BC0014ED00E02DE9F04103680579284C00226B
:1022CC00C3F800252C2202FB054201465268A2B13C
:1022DC00244AC3F808231A0B43F30733002B0CDBF7
:1022EC0002F01F005B090122824020331E4840F897
:1022FC002320BFF34F8FBFF36F8F0B68D3F80C0500
:10230C00D3F81485D3F80865D3F810754FF0FF3265
:10231C009042C3F81425C3F80C25C3F80825C3F85C
:10232C00102501D0FFF7E6FEB8F1FF3F02D0404682
:10233C00FFF7E0FE7A1C02D03846FFF7DBFE731C79
:10234C0002D03046FFF7D6FE0868FFF7E5FC2C23D9
:10235C0003FB0544002384F82A306360BDE8F08158
:10236C00F00600208402020000E100E00279044B38
:10237C002C2101FB02335869003818BF012070472B
:10238C00F00600202DE9F84F064690F804808946A7
:10239C009246FFF7EBFF044600283CD1204F2C253A
:1023AC0008FB057B4FF48E71CBF814A0CBF808908A
:1023BC00CBF820008BF828003068FFF7BDFD3068A3
:1023CC00012383605946FFF7BFFDDBF804305D46FF
:1023DC001BBB3068DBF814402B6A9C4211D8336865
:1023EC00D3F81C21002AFBD00122DA6000202C2318
:1023FC0003FB087700237B61BDE8F88F95F8283044
:10240C003BB9D0F81C31002BF8D05946FFF79CFD96
:10241C00E2E70F20EBE71120EEE72046ECE700BFE8
:10242C00F00600200023435082B043580193019BD7
:10243C0002B070471FB501238DF80030044BCDE975
:10244C000110D3E900126846904705B05DF804FB13
:10245C001C0700207FB5434AD2F82461002E60D0BF
:10246C0010464FF49271FFF7DDFF02238DF8003018
:10247C00D2F88034C2F880340393D2F83C350293FE
:10248C00394BDA6801920022C3E906226846D3E987
:10249C00001290473348D0F8443173B14FF4A27115
:1024AC00FFF7C0FF304B9A693AB10022C3E906220C
:1024BC00D968D0F83C05FFF7BDFF2A48D0F8203189
:1024CC00ABB14FF49071FFF7ADFF0123C360264B06
:1024DC005A6962B1D0F84C150291002299688DF8B6
:1024EC00002001915A616846D3E9001290471D48BB
:1024FC00D0F858319BB14FF4AC71FFF793FF1A4BE6
:10250C005A6962B1D0F84C150291002299688DF885
:10251C00002001915A616846D3E90012904704B03B
:10252C0070BDD2F81031002BB4D04FF48871104626
:10253C00FFF778FF0C4BD2F83C0599698842A9D17A
:10254C00DC69D96864B1D2F8005225F02005C2F8D4
:10255C0000521A699C61DA60DE61FFF76BFF99E744
:10256C009C61FAE7002000401C0700201F2886BF52
:10257C0000F01F00044B4FF0A04300F5E070022266
:10258C0043F82020704700BF000300502DE9F843AA
:10259C00664E90F80480242303FB0863044693F8EA
:1025AC0020300D469146002B40F0BC8060490068FD
:1025BC00FFF796FB0746002840F0B68029684B1CB5
:1025CC0010D01F2987BF5B4A01F01F030B464FF049
:1025DC00A0420120984003F5E073C2F808050320DF
:1025EC0042F823006A68501C0DD01F2A8BBF02F0E2
:1025FC001F0313464F484FF0A04003F5E0734FF014
:10260C00000C40F823C02068AB69C0F8243595F85D
:10261C0014C06B7DBCF1010F4CEA0303C0F86C35A0
:10262C00C0F80C15C0F814252BD1AB68591C0DD073
:10263C001F2B8BBF03F01F021A463E494FF0A041DF
:10264C0002F5E0724FF0000C41F822C0E9684A1C18
:10265C0013D01F2987BF374A01F01F0C8C464FF04F
:10266C00A0424FF0010E0EFA0CFE0CF5E07CC2F805
:10267C0008E54FF0030E42F82CE0C0F80815C0F83E
:10268C001035242202FB08F2B318C3F804902B690E
:10269C00B350B9F1000F2FD04FF488712A7FFFF798
:1026AC00C1FE20684FF49071FFF7BCFE20684FF418
:1026BC009271FFF7B7FE20684FF4A271FFF7B2FEDC
:1026CC004FF4AC712068FFF7ADFE23681A49C3F8CC
:1026DC000413190B43F307335201002BD2B21CDB4A
:1026EC001648C51885F8002301225B0901F01F016B
:1026FC0002FA01F140F8231023680822C3F80025E0
:10270C00242303FB08660023C6E906337361012307
:10271C0086F820303846BDE8F883094B01F00F01EC
:10272C005A54E9E70827F5E71127F3E71C070020BF
:10273C0061240000000300501003420000E100E09F
:10274C0014ED00E02DE9F0413D4D06790468242399
:10275C0003FB065302465B68ABB13A4BC4F8083333
:10276C0044F30733002B4FEA14310CDB01F01F004C
:10277C005B09012181402033334840F82310BFF31B
:10278C004F8FBFF36F8FD4F8003223F02003C4F8BF
:10279C000032242303FB06539B6933B14FF4A2711F
:1027AC002046FFF73FFE012363604FF4AC712046D7
:1027BC00FFF738FE0123E360242303FB0653D4F810
:1027CC0058110029FBD0996919B1D4F8441100298A
:1027DC00F5D00023C4F800351368D3F80C05D3F8F2
:1027EC001485D3F80815D3F810754FF0FF329042CA
:1027FC00C3F80C25C3F81425C3F80825C3F8102515
:10280C0001D0FFF7B3FEB8F1FF3F02D04046FFF70F
:10281C00ADFE7A1C02D03846FFF7A8FE4B1C02D046
:10282C000846FFF7A3FE2046FFF776FA242303FBA6
:10283C000655002385F820306B60BDE8F08100BFA1
:10284C001C0700201003420000E100E00279044B59
:10285C00242101FB02335869003818BF012070474E
:10286C001C07002001F06043B3F1005F2DE9F04735
:10287C000646884692463BD190F80490FFF7E6FF57
:10288C000446002836D11D4F3068242505FB0975F8
:10289C004FF49071C5F814A0C5F80880FFF7C2FD7D
:1028AC004FF4AC713068FFF7BDFD33686A69A968F5
:1028BC00C3F84415C3F8482501229A606A68DAB94E
:1028CC00D3F82021D3F858011AB90028F8D00F20DA
:1028DC0007E00028FBD10122DA60D3F85821002A46
:1028EC00FBD0242303FB097700237B61BDE8F08731
:1028FC001020FBE71120F9E72046F7E71C07002022
:10290C0000F1804000F5E830002382B003600368DA
:10291C000193019B02B070471FB53C493C4CD1F868
:10292C000021002A47D04FF48070FFF7E9FFA37C09
:10293C00DA4302F0010204EB8201496811B9617CAF
:10294C0002292DD1607C022818BF04EB83034FF0C1
:10295C0000010BBF01235868637459604FF00103E9
:10296C008DF80C10E1740EBF02910290A2748DF8D8
:10297C000430236801A89847637C022B01D1012302
:10298C006374237D53B101238DF80430002302932B
:10299C008DF80C30237501A82368984704B010BD3E
:1029AC00E37C002BE8D18DF80430029301238DF8E1
:1029BC000C30E374DDE7D1F80431002BE1D04FF497
:1029CC008270FFF79DFFC1F80025A37C627404EBB5
:1029DC0083038DF80C2059688DF8042021B15A60BE
:1029EC000291236801A89847A37CDB4303F0010301
:1029FC0004EB83035A682AB1029200225A6001A8A0
:102A0C00236898470023A374BBE700BF00D00140A4
:102A1C004007002070B5334C237C0246002B5DD15F
:102A2C00067A502E5CD8457A502D59D821602E4903
:102A3C006374C4E9013363824368C1F80435437895
:102A4C0000785B0000F0010003F002030343C1F8BF
:102A5C000835C1F81865C1F81C5590781F288BBF34
:102A6C0000F01F050546214B4FF0A04305F5E07122
:102A7C00032643F821600121A940C3F80C15D37833
:102A8C001F2B8BBF03F01F011946184E4FF0A046A9
:102A9C0001F5E075002146F82510134DC5F84005E9
:102AAC00C5F844354FF48070FFF72AFF4FF484705B
:102ABC00FFF726FF4FF48270FFF722FF0323C5F8C0
:102ACC000433937A0A4A5B01DBB282F81D334FF070
:102ADC000053136001232374084670BD0820FCE7E3
:102AEC000720FAE74007002000D001400003005007
:102AFC0000E100E00A4B5A7C02F0FF002AB15B7C3B
:102B0C00012B0CBF00201120704702225A740122A5
:102B1C001A75044B4FF00052C3F80021704700BFE8
:102B2C004007002000E100E038B5224C237C002B4C
:102B3C0039D0637C032B38D0002838D00B0436D422
:102B4C001D4B4FF00052C3F88020BFF34F8FBFF3E3
:102B5C006F8F627CA37C022A1ABFDB4303F0010354
:102B6C00002304EB83056A68BAB904EB430368607D
:102B7C00124D9981C5F86005C5F86415237C022BAC
:102B8C0009D00223012123744FF48070C5F800157D
:102B9C00FFF7B6FE2960104600E01120064B4FF0FF
:102BAC0000521A6038BD0820FCE71120FAE7072014
:102BBC00F8E700BF4007002000E100E000D0014032
:102BCC00024AD2F80034002BFBD0704700E00140E1
:102BDC000A4908B50223C1F80435BFF36F8FBFF360
:102BEC004F8FC1F80805FFF7EBFF0023C1F8043540
:102BFC00BFF36F8FBFF34F8F08BD00BF00E00140E4
:102C0C0070B50E4E01231546C6F80435BFF36F8F11
:102C1C00BFF34F8F0024AC4207D10023C6F8043514
:102C2C00BFF36F8FBFF34F8F70BD51F8243040F856
:102C3C002430FFF7C5FF0134EDE700BF00E0014091
:102C4C00436810B45BB11548154B16495DF8044B3D
:102C5C00C01AC008000440F00300FDF72FBF037832
:102C6C00012B04D0022B10D05DF8044B70470C4B99
:102C7C000A4C02690C49E41AE4088368240444F001
:102C8C0003005DF8044BFDF71DBF054B034C0269B7
:102C9C000649E41AE40883682404F0E72C330000A6
:102CAC0004330000D8360000193700004D370000FF
:102CBC00436873B50446BBB11A4E3378A3B11A4BB3
:102CCC001A4D1B782968FBB9194A00934FF48053AD
:102CDC001848FEF72DFC08B1FEF764F8002333709A
:102CEC002B6803F580532B6023785BB1124B0E4C91
:102CFC00198823780B4D6BB91048FFF715FF01238A
:102D0C0023702B7002B070BD002300930B4A4FF45C
:102D1C008053DDE70648FFF707FF002323700123EC
:102D2C00EFE700BF5927002058270020280000207B
:102D3C0058170020D0030000240000205807002062
:102D4C001FB500210846FDF723FD08B1FEF72AF850
:102D5C00FDF756FC134B14481449C01AC008000464
:102D6C0040F00300FDF7AAFE114912480022FEF7BD
:102D7C00ADFB08B1FEF716F80F4A07CA01AB83E8A2
:102D8C0007000E4A0121C2F8001518460C49FFF73E
:102D9C0041FE08B1FEF706F8FFF7ACFE08B1FEF7EE
:102DAC0001F8FEE7043300002C33000083370000E9
:102DBC0050360000D00300009037000000D00140D6
:102DCC00BD2C00000369C26893429CBF80681B182D
:102DDC00013B981A70472DE9F843D0E90294054657
:102DEC00A9EB04084068904520440F46144404D9CC
:102DFC0000F006FAEC60BDE8F8834246A4EB090447
:102E0C0000F0FEF96868224607EB0801F0E72DE9AF
:102E1C00F843C5680646894617464FF000083469E2
:102E2C00B3687068A54228BFE418013C621B5C1BA8
:102E3C00BC4228BF3C46944228BF1446494628440D
:102E4C00224600F0DDF9B3682544AB4208BF0025EB
:102E5C003F1BA044A144F560E1D14046BDE8F88396
:102E6C0010B5114C114AA2610223C4E90433104B72
:102E7C00E361A2644FF400730E4A0F492362E264CB
:102E8C0000231022E01DA3626362E362A365636505
:102E9C00E365226500F0DDF90849204600F0D9F918
:102EAC002023A37110BD00BF0C2900207E3B000025
:102EBC009429002084290020873B00008B3B0000D4
:102ECC0070B5164B182400FB04451D4404FB00335D
:102EDC001646DC6A012C0ED0022C18D0E4B9284618
:102EEC00FFF770FF864204D832462846FFF773FF7F
:102EFC003446204670BD2846FFF764FF86423446B0
:102F0C0028BF044622462846FFF765FFF1E728460E
:102F1C00BDE87040FFF77BBF0024EAE70C290020D6
:102F2C00FFF79EBF4FF08053D3F83001A0F1080398
:102F3C0058425841704700004FF08053D3F830216D
:102F4C00082A06D1D3F83431052B02D8024AD05CBA
:102F5C0070470020704700BF983B0000024AD2F82F
:102F6C000034002BFBD0704700E0014010B5FFF798
:102F7C00D9FF40B14FF080430022C3F80C21C3F8B5
:102F8C001021C3F83825FFF7CDFF002846D04FF0AD
:102F9C008052654BD2F80414C3F82015D2F80814EB
:102FAC00C3F82415D2F80C14C3F82815D2F8101451
:102FBC00C3F82C15D2F81414C3F83015D2F8181421
:102FCC00C3F83415D2F81C14C3F84015D2F82014E9
:102FDC00C3F84415D2F82414C3F84815D2F82814B1
:102FEC00C3F84C15D2F82C14C3F85015D2F8301481
:102FFC00C3F85415D2F83414C3F86015D2F8381449
:10300C00C3F86415D2F83C14C3F86815D2F8401410
:10301C00C3F86C15D2F84424C3F87025FFF78CFF65
:10302C0018B1424B424AC3F88C26FFF785FF18B102
:10303C00404BFB22C3F81825FFF77EFF70B14FF011
:10304C0080414FF08053D1F8E42ED3F8583222F05F
:10305C000F0203F00F031343C1F8E43EFFF76CFFBC
:10306C0020B1354B4FF40072C3F84026FFF75AFFDE
:10307C0048B14FF08043D3F80024D20744BF6FF01F
:10308C000102C3F800242D4AD2F8883043F47003AF
:10309C00C2F88830BFF34F8FBFF36F8F4FF0805360
:1030AC00D3F83021082A0ED1D3F83431052B02D8AD
:1030BC00234AD35C3BB14FF01023D3F808224FF0D6
:1030CC008043C3F858254FF01023D3F80022002A70
:1030DC0003DBD3F80432002B22DA1A4901234FF018
:1030EC001020C1F804351224FFF738FFC0F8004255
:1030FC00FFF734FFC0F80442FFF730FF0023C1F89C
:10310C000435FFF72BFFBFF34F8F0C490E4BCA68EA
:10311C0002F4E0621343CB60BFF34F8F00BFFDE7B7
:10312C000A4B0B4A1A6010BD00C000400050004012
:10313C004881030000F000400090024000ED00E0E8
:10314C00923B000000E001400400FA054000002022
:10315C000090D0037F2805D8034A044B105C5B5CBD
:10316C001840704700207047AC3B00002C3C00001E
:10317C00A0F16103192B98BF20387047A0F14103CF
:10318C00192B98BF203070477F299ABF01700120FE
:10319C006FF02E00704700BF5AB10A787F2A0AD808
:1031AC0000B102600021501AC3E9001118BF0120C0
:1031BC007047104670476FF02E007047A0F1610306
:1031CC00192B98BF20387047A0F14103192B98BFD9
:1031DC00203070477F2805D8034A044B105C5B5C99
:1031EC001840704700207047AC3B00002C3C00009E
:1031FC00024B5B689B6809211B6818474400002040
:10320C00844640EA010313F0030F18D18446202AA8
:10321C000BD32DE9F007B1E8F807A0E8F807A2F105
:10322C002002202AF7D2BDE8F007042A07D351F870
:10323C00043B40F8043BA2F10402042AF7D2002A12
:10324C0005D011F8013B00F8013B013AF9D1604679
:10325C007047024610F0030F16D111F0030F13D173
:10326C002DE9F0004FF001374FF0803351F8044B4B
:10327C00A4EB070525EA04051D4002D142F8044BD6
:10328C00F4E7A1F10401F0BC11F8013B02F8013B99
:10329C00002BF9D1704700F1010110F0030F11D090
:1032AC0010F8012B002A23D010F0030F0AD010F8CD
:1032BC00012B002A1CD010F0030F03D010F8012BA7
:1032CC00002A15D02DE970004FF001324FF08033F9
:1032DC0050F8044BA4EB020525EA04051D4000D16F
:1032EC00F6E7A0F1040070BC10F8012B002AFBD10A
:0832FC00A0EB01007047000087
:10330400D436000000000000C036000000000000B9
:10331400C436000000000000C936000000000000B0
:10332400CE3600000000000001340000000003035A
:08333400113600000000030344
:10333C00A833000000000000E0330000140000205F
:10334C00D4330000000000003B3B00001C000020B8
:10335C00B43600002C000020353B00003800002063
:10336C00DC000020A4010020AC010020E4000020BF
:10337C00180000005C270020E4280020EC28002026
:08338C0064270020300000005E
:103394000000000000000000000000000338FDD819
:1033A40070470000010400006D040000FD030000EC
:1033B400FFFFFFFFFFFFFFFFFFFFFFFFFFFFFFFF19
:1033C40000000000000000000000D601060100001B
:1033D40039050000DD050000350500007274745FD6
:1033E4006C6F675F6261636B656E64004261636BFF
:1033F400656E647320666C757368656400617070D3
:1034040000000000CC0500207F0000004C060020D6
:103414001B5B313B33316D0025734C6F6773206444
:10342400726F70706564202825642925730D0A0065
:103434001B5B306D002573003C25733E2025733AD9
:103444002000202530327800202020007C002563D5
:10345400001B5B313B33306D001B5B313B33326D02
:10346400001B5B313B33336D001B5B313B33346DED
:10347400001B5B313B33356D001B5B313B33366DD9
:10348400001B5B313B33376D007761726E696E6789
:1034940000696E666F00646562756700343400000D
:1034A40055340000143400005D340000653400001D
:1034B4006D340000753400007D3400008534000054
:1034C40000000000DE3400008D340000953400005C
:1034D4009A340000466174616C206572726F7200E8
:1034E40053797374656D207265736574003031327D
:1034F40033343536373839414243444546705F6684
:103504007300257320636865636B206661696C656D
:103514006420696E202573282920776974682076D1
:10352400616C756520307825782E00705F66732D88
:103534003E705F61706900705F64657374006164FC
:1035440064725F69735F616C69676E6564333228A6
:103554007372632900616464725F69735F7769746D
:1035640068696E5F626F756E647328705F66732C32
:10357400207372632C206C656E2900705F73726314
:103584000021286C656E202520705F66732D3E70C7
:103594005F666C6173685F696E666F2D3E70726FF3
:1035A4006772616D5F756E69742900616464725F2E
:1035B40069735F616C69676E65643332286465732F
:1035C400742900616464725F69735F616C69676E1A
:1035D40065643332282875696E7433325F742970D8
:1035E4005F7372632900616464725F69735F7769F2
:1035F4007468696E5F626F756E647328705F66735A
:103604002C20646573742C206C656E29006E7266C0
:103614005F6673746F72616765006E72665F66736E
:10362400746F726167655F7772697465006E726644
:103634005F6673746F726167655F696E69740000B9
:1036440000100000040000000100000071160000DA
:1036540095160000A5160000B51600000917000015
:103664007D16000081160000851600001B5B256492
:1036740041001B5B256444004C6F7374206C6F67BE
:1036840073202D20696E637265617365206C6F67AA
:10369400206261636B656E64207175657565207366
:1036A400697A652E0A001B5B4A001B5B6D000000F3
:1036B400631A000069170000591A000050525300A1
:1036C4005457494D005541525400554152544500F8
:1036D40050444D002D2D3E204576656E7420726554
:1036E4006365697665643A204552524F5220776883
:1036F400696C6520657865637574696E6720616EB1
:10370400206673746F72616765206F70657261748F
:10371400696F6E2E002D2D3E204576656E742072E5
:10372400656365697665643A2077726F74652025F0
:1037340064206279746573206174206164647265C5
:10374400737320307825782E002D2D3E2045766524
:103754006E742072656365697665643A206572618A
:1037640073656420256420706167652066726F6DDF
:10377400206164647265737320307825782E00505C
:10378400444D205354415254454400000100050661
:1037940000000002282806007072696E74206F729F
:1037A400207365742074686520626F756E6461723D
:1037B400696573206F662074686520666C61736840
:1037C4000A75736167653A20666C61736861726536
:1037D40061207072696E740A75736167653A206658
:1037E4006C617368617265612073657420626567DA
:1037F400696E20656E6400657261736520666C6134
:1038040073682070616765730A75736167653A2030
:1038140065726173652061646472207061676573A9
:103824000A2D20616464723A206164647265737362
:10383400206F6620746865207061676520746F204E
:10384400626567696E2065726173696E672066726E
:103854006F6D2C20696E204845580A2D20706167D1
:1038640065733A206E756D626572206F66207061B3
:1038740067657320746F2065726173650077726980
:1038840074652041534349492062797465732074F7
:103894006F20666C6173680A75736167653A207797
:1038A40072697465206164647220646174610A2DB4
:1038B40020616464723A2061646472657373207475
:1038C4006F20777269746520746F2C20696E2048AC
:1038D40045580A2D20646174613A20646174612042
:1038E400746F206265207772697474656E3B20750D
:1038F40073652071756F74657320666F72207374BD
:1039040072696E67730072656164206279746573AD
:103914002066726F6D20666C6173680A75736167E7
:10392400653A2072656164206865787C73747220DE
:1039340061646472206C656E007072696E742074C8
:10394400686520626F756E646172696573206F6665
:103954002074686520666C6173680A7573616765B5
:103964003A20666C61736861726561207072696E79
:1039740074007365742074686520626F756E646189
:1039840072696573206F662074686520666C617364
:10399400680A75736167653A20666C617368617261
:1039A40065612073657420626567696E20656E6465
:1039B4000A2D20626567696E3A20616464726573DA
:1039C40073206F662074686520626567696E6E692E
:1039D4006E67206F662074686520666C617368206A
:1039E400617265612C20696E204845580A2D206556
:1039F4006E643A2061646472657373206F66206537
:103A04006E64206F662074686520666C617368203C
:103A1400617265612C20696E20484558006865789C
:103A240000726561642062797465732066726F6DDB
:103A340020666C61736820696E2048455820666F63
:103A4400726D61740A75736167653A2072656164A9
:103A5400206865782061646472206C656E0A2D208C
:103A6400616464723A207468652061646472657389
:103A74007320746F20726561642066726F6D2C20F0
:103A8400696E204845580A2D206C656E3A206E7583
:103A94006D626572206F6620627974657320746F3D
:103AA40020726561640073747200726561642062DF
:103AB400797465732066726F6D20666C617368201B
:103AC400696E20415343494920666F726D61740ADF
:103AD40075736167653A207265616420737472203E
:103AE40061646472206C656E0A2D20616464723AAC
:103AF40020746865206164647265737320746F2038
:103B0400726561642066726F6D2C20696E20484571
:103B1400580A2D206C656E3A206E756D62657220B0
:103B24006F6620627974657320746F2072656164B6
:103B3400006D5F636C695F756172745F6C6F675F62
:103B44006261636B656E64006D5F636C695F756170
:103B540072745F6C6F675F6261636B656E645F71E3
:103B640075657565006673746F7261676520657845
:103B7400616D706C653A7E2420005465726D696EC7
:103B8400616C0052545400534547474552000000AD
:103B940000000101010000000000000043000000DB
:103BA400504F53495800000020202020202020207E
:103BB4002068282828282020202020202020202099
:103BC4002020202020202020481010101010101039
:103BD4001010101010101010848484848484848441
:103BE4008484101010101010108181818181810152
:103BF40001010101010101010101010101010101B1
:103C0400010101101010101010828282828282023F
:103C14000202020202020202020202020202020280
:103C240002020210101010200007032004170201E2
:103C34000857104080000000A03B0000A43C000096
:103C4400B83D000053756E004D6F6E0054756500ED
:103C540057656400546875004672690053617400C6
:103C6400000000004A616E00466562004D6172000A
:103C7400417072004D6179004A756E004A756C009E
:103C840041756700536570004F6374004E6F760092
:103C94004465630000000000414D00504D000000E9
:103CA400DC3D0000D83D0000D83D0000D83D0000B8
:103CB400D83D0000D83D0000D83D0000D83D0000AC
:103CC400D83D0000D83D0000FFFFFFFFFFFFFFFFCE
:103CD400FFFFFFFFFFFF0000183D0000483C00000D
:103CE400543D0000683C00009C3C0000FC3C00008B
:103CF400AC3D0000083D0000256D2F25642F25797B
:103D0400000000002561202562202565202554201F
:103D14002559000053756E646179004D6F6E6461BE
:103D2400790054756573646179005765646E6573D1
:103D340064617900546875727364617900467269CC
:103D440064617900536174757264617900000000E4
:103D54004A616E7561727900466562727561727945
:103D6400004D6172636800417072696C004D617945
:103D7400004A756E65004A756C7900417567757304
:103D8400740053657074656D626572004F63746F7F
:103D9400626572004E6F76656D626572004465639C
:103DA400656D62657200000025483A254D3A255339
:103DB40000000000613100007D3100008931000005
:103DC400E1310000C9310000D53100009531000017
:0C3DD400A5310000000000002E000000DF
:103DE0000000000000200040000000000020004013
:103DF0000000000000000000FF00000000000000C4
:103E0000FF0000000008000000000800E4030000BC
:103E1000000000000000000000000000FF000000A3
:103E20000090D0033C3C00003C3C00003C3C0000C7
:083E30003C3C00003C3C00009A
:040000030000037581
:00000001FF
