:1000000000000420750300005D0300005F03000092
:1000100061030000630300006503000000000000AE
:100020000000000000000000000000006703000066
:1000300069030000000000006B0300006D03000076
:100040006F0300006F030000E10E00006F0300006B
:100050006F0300006F030000611B00006F030000CE
:100060006F0300006F0300006F0300006F030000C8
:100070006F0300006F0300006F0300006F030000B8
:100080006F0300006F0300006F0300006F030000A8
:100090006F0300006F0300006F0300006F03000098
:1000A0006F0300006F0300006F0300006F03000088
:1000B0006F030000F11800000000000000000000C5
:1000C0006F0300006F0300006F0300006F03000068
:1000D0006F0300006F0300006F0300006F03000058
:1000E0006F0300006F0300006F03000000000000BA
:1000F000000000006F030000000000006F0300001C
:1001000000000000000000000000000000000000EF
:1001100000000000000000000000000000000000DF
:1001200000000000000000000000000000000000CF
:1001300000000000000000000000000000000000BF
:1001400000000000000000000000000000000000AF
:10015000000000000000000000000000000000009F
:10016000000000000000000000000000000000008F
:10017000000000000000000000000000000000007F
:10018000000000000000000000000000000000006F
:10019000000000000000000000000000000000005F
:1001A000000000000000000000000000000000004F
:1001B000000000000000000000000000000000003F
:1001C000000000000000000000000000000000002F
:1001D000000000000000000000000000000000001F
:1001E000000000000000000000000000000000000F
:1001F00000000000000000000000000000000000FF
:10020000354936480A1A02D0072291438D463449AF
:1002100034480A1A06D00722914381F30988022242
:1002200082F3148830483149314A00F044F83148AB
:100230003149324A00F03FF831483249324A00F041
:100240003AF832483249334A00F035F832483349F7
:10025000334A00F030F833483349344A00F02BF881
:1002600033483449344A00F026F8344834490022EF
:1002700000F02CF833483449002200F027F83348C6
:100280003349091A082902DB002202604160314A21
:1002900090471F481F49884205D00268043003B4C4
:1002A000904703BCF7E700208646EC46002000217B
:1002B000294A9047FEE7884207D0521A05D00378B2
:1002C00001300B700131013AF9D17047884202D0F8
:1002D00002700130FAE770470000042000E00320BC
:1002E000000004200000042068210000000000201D
:1002F00018000020D0030000D003000060200000A0
:10030000682100000000002000000020A420000060
:10031000A4200000A4200000A4200000A4200000CD
:10032000A4200000A4200000A420000068210000F8
:100330008021000018000020180000201800002074
:10034000280800202808002028080020280800206D
:10035000282800209D030000F11C0000FEE7FEE7B6
:10036000FEE7FEE7FEE7FEE7FEE7FEE7FEE7FEE765
:1003700000F002B8FFF7FCBF0F484FF007018843B9
:1003800085460E4880470E48016841F470010160BF
:10039000BFF34F8FBFF36F8FFFF732BF09480A4992
:1003A0000A4A884207D0521A05D0037801300B70F0
:1003B0000131013AF9D1704700000420E91D000025
:1003C00088ED00E0A42000000000002000000020D4
:1003D000037813F0040216D003F00303012B03D0BB
:1003E000022B09D0012070470A6800880232C0F34E
:1003F000831002440A60F5E70B684288023303EB7E
:1004000092130B60EEE71046704700002DE9F04FA5
:10041000DFF810A10F4685B00446861C0020154663
:1004200000F0C6FBDAF804203A60DAF8083003F589
:1004300080739B1A0AF21C470AF583690AF2144872
:10044000B34219D30020002D68D004F00F039B01A4
:1004500043F0050363F30F00DAF80430DAB2033235
:1004600033444AF822000020CAF8043000F0A2FB0E
:10047000012005B0BDE8F08F0121384600F0BFFB38
:10048000484600F0D4FB404600F0D1FBDAF8080003
:100490000090C0B203300AEB80006946FFF798FF76
:1004A000009B30BBDAB20AEB8202D16801919A1C40
:1004B0000133DBB20AEB83030092D3F80CB001F0F6
:1004C0000303012B22D0022B15D08346404600F0B7
:1004D000B1FB10B1009BCAF808305946384600F00D
:1004E0008EFBDAF80830DAF8042003F580739B1AE3
:1004F000A6E7D8B2CEE7BDF80630C3F389130333BD
:100500004FEA1B4B02EB93030093DFE7BDF8043087
:10051000C3F383134FEA1B4B1344F5E7A40544F0E0
:10052000060099E7E800002070470000034BD3E97C
:100530000130C31A58425841704700BFE8000020FC
:100540002DE9FF41FFF7F2FF0546002840F0E98062
:10055000754CC4F81804BFF34F8FA3680093DBB247
:10056000033304EB83006946FFF732FF009B18B1A9
:10057000D4F81824002A5AD0DAB2991C013304EBBB
:100580008202DBB204EB8303D268DB68029302F0E1
:100590000303022B0192009154D1BDF80630634849
:1005A000C3F38917502F3E4628BF502606F1080195
:1005B00066F38F13C1F30901ADF8063000F0CBFBF1
:1005C0000546002800F0988000F0F4FB0023082284
:1005D00001A9284600F000FC0099CB43DBB20133AF
:1005E000C9B20331B6EB830F4FEA830204EB8101FA
:1005F00025D95FFA82F80823A6EB0806284600F002
:10060000EBFBF6B208F10803494903F0FC0332465C
:10061000284600F0E1FB009B033703EB97070097A8
:10062000D4F81834002B43D1D4F8106453E0626836
:100630009A4294D8A260284604B0BDE8F08108230D
:100640003246E5E7012B57D1BDF804303748C3F3F4
:100650008311062928BF062161F38913023101F0B5
:100660000F018900ADF8043000F075FB0546002845
:1006700042D000F09FFB0023082201A9284600F089
:10068000ABFB0026BDF80420C2F38312B3009642F0
:1006900003F10803C4D200994A1CC9B20331009285
:1006A00004EB81010422284600F096FB0136E9E7BD
:1006B000284600F083FBFFF739FF80F00100C5B248
:1006C000B9E7F3685B7923B1336829461B68304684
:1006D0009847F3681E68002EF3D1284600F06EFBA1
:1006E000304600F065FAD4F818340BB9009BA360CB
:1006F000002000F05FFADEE7D4F8104454B90D4B47
:100700000D480E49C01AC008000440F0020000F075
:100710005FF8D0E7236820469B689847E3681C6829
:10072000ECE7002587E700BFE800002090200000EC
:10073000F40000206020000088200000A4200000B9
:100740002DE9F34704460E46924601A901221846B8
:100750009946FFF75BFE1C4F10B3019D4FF0000858
:10076000AA1CC84508EB020125D11848002100F059
:1007700023FA80F31000000440EA1440E4006B1CEC
:1007800004F03804DBB2EDB244F0010407EB83035C
:10079000033544EA881444EA8624D86047F82540A3
:1007A0003B781BB1FFF7CCFE0028FBD1FFF7BCFE66
:1007B00002B0BDE8F087C9B207EB81015AF82830D2
:1007C000CB6008F10108CCE7E80000200405002018
:1007D00000231A46FFF7B4BF38B5084B0125D3F8FC
:1007E00010441D7004B938BDE3685D71236820466C
:1007F0005B689847E3681C68F4E700BFE8000020E6
:10080000074B1B5C1F2B86BF064903F01F034FF0ED
:10081000A041012202FA03F3C1F80835704700BF76
:10082000B92000000003005008B50020FFF7E8FFE2
:100830000120FFF7E5FF0220FFF7E2FFBDE80840D7
:100840000320FFF7DDBFC20710B504460CD54FF0FB
:10085000A0430322C3F83427C3F83827C3F83C2742
:10086000C3F84027FFF7E0FFA3070AD54FF0A043E6
:100870000C22C3F82C27C3F83027C3F86027C3F82D
:10088000642710BD1FB50021039001AA44F20100A6
:10089000CDE9011100F004F805B05DF804FB00009B
:1008A00038B572B6FFF798FFFFF74AFE0028FBD174
:1008B000104B114C114D1249E41AE408240444F081
:1008C0000100FFF785FFD5F8F030DB0700D500BE4B
:1008D0000C4944F00200FFF77BFFBFF34F8FEA683B
:1008E000094B02F4E0621343EB60BFF34F8F00BF8C
:1008F000FDE700BF602000008820000000ED00E060
:10090000BD200000C92000000400FA0549B152B121
:10091000531E1A4007D1826001608380C260104676
:1009200070470E2070470920704710B58468C26870
:100930008388121B934208D3C26813400268D154C3
:10094000C3680133C360002010BD0420FCE7826847
:10095000C3689A420AD08268838813400268D35CD5
:100960000B70836801338360002070470520704757
:100970000648074A03780749D35C012213B10430C3
:1009800000F03EBF0C3000F0E7BC00BF00000020CC
:1009900048050020300500200648074A037807492B
:1009A000D35C012213B1043000F0DCBE0C3000F047
:1009B00083BC00BF00000020480500203105002056
:1009C00037B50578012D0DD0022D30D075B91F49EE
:1009D0001F48FFF7BCFF002834D103B0BDE830400A
:1009E000FFF7DABF037A1BB9FFF7C2FF03B030BDD0
:1009F0004368184C19782046FFF797FF80B18DF8AF
:100A000000500190144B68461B689847A168E36842
:100A1000A2885B1A9A42E7D2104B01221A70E5E7CE
:100A2000A268E3689A42F1D08DF80000EAE7C36853
:100A30008DF800500193FFF79BFF074B68461B683A
:100A40009847D3E703238DF80030F6E731050020FF
:100A5000200500200C050020080500201C050020B2
:100A6000F0B51F46234B89B004461A600D46002995
:100A70003DD08A8820480968FFF748FF002834D114
:100A8000AA89A9681D48FFF741FF00282DD11C4EF7
:100A90000FCE6D460FC596E80F0085E80F0063691D
:100AA0000693237C174A18488DF81C70003B18BF2A
:100AB00001238DF81430637C002B14BF0E23002318
:100AC0008DF81530E3680293A368039323680193BC
:100AD00069466368009300F0C5F930B90B4B187094
:100AE0002368013301D0FFF743FF09B0F0BD0720B1
:100AF000FBE700BF080500200C05002020050020B2
:100B0000D8200000C1090000000000201C050020C2
:100B100070B5084D014608482E78FFF718FF0446C7
:100B200036B100232B70FFF723FF08B1FFF7AAFEB1
:100B3000204670BD1C0500200C05002010B50146A4
:100B40000E48FFF7F2FE0446A8B90D480D4A037897
:100B5000D35C63B1043000F0F9FD60B90A4907487D
:100B6000FFF7F5FE38B9BDE81040FFF715BF0C30B0
:100B700000F096FBF1E7204610BD00BF20050020E5
:100B800000000020480500203105002072B6024A0E
:100B9000136801331360704734050020034A13685B
:100BA000013B136003B962B6704700BF34050020F3
:100BB000FFF7ECBFFFF7F2BF10B5034653E8000F95
:100BC0000A4643E8002494F0000FF7D110BD10B599
:100BD000034653E8002F42EA010043E8000494F082
:100BE000000FF6D110BD10B5034653E8000F00EA20
:100BF000010243E8002494F0000FF6D110BD10B5B7
:100C0000034653E8002F02EB010043E8000494F090
:100C1000000FF6D110BD10B5034653E8002FA2EB2C
:100C2000010043E8000494F0000FF6D110BD01214B
:100C3000FFF7CDBF0021FFF7D6BF38B5044600202F
:100C4000FFF7B6FF226863681168994213D9481EFE
:100C5000106011F8013CE568218A01FB0355A36887
:100C600011791B1ADBB2994200D213710020FFF7F1
:100C7000A1FF284638BD0025F8E738B50546002015
:100C80000C46FFF795FF2A681368591C1160E96844
:100C9000641A298AB4FBF1F41C70BDE838400020C6
:100CA000FFF788BF2DE9F84FB0F806A04579D2F8D4
:100CB00000B09DF828900AFB05F5043D88460BEB33
:100CC0000301A94203F1040488BFA5EB030BB4FBA5
:100CD000FAF607460AFB1644C2F800B04EB9AAEB72
:100CE00004055D4528BF5D46BBF1000F04D1BDE89A
:100CF000F88F3F68013EF1E7043408EB06003C44FE
:100D00002A46B9F1000F0DD02146ABEB050B01F0DF
:100D10007BF9DA452E443F6855464FF0000428BF62
:100D20005D46E1E701462046EFE7F8B54679014622
:100D3000721E0546002393422D6803D30024A64269
:100D400002D8F8BD0133F6E70F682846FFF795FF94
:100D500001343946F3E72DE9F843068ACD1C0746EE
:100D6000FFF76BFF043E35440446B5FBF6F5F0B1E2
:100D70004FF48073EDB28380C680013D07608146E9
:100D80004FF00008A84512D23846FFF756FF064636
:100D900048B163790133637108F10108C9F80000B3
:100DA00007608146EEE72046FFF7BFFF3446204646
:100DB000BDE8F88301210430FFF721BF10B5012100
:100DC00004460430FFF727FFC0B220B92046BDE833
:100DD0001040FFF7AABF10BD1FB50392002200927A
:100DE00003AAFFF75FFF05B05DF804FB10B50446EA
:100DF000C0B2FFF7A3FE204610BD00001FB5037868
:100E00008DF800304368019383688DF80830C3681B
:100E1000054A0393054B684653F8213052F82110D8
:100E2000984705B05DF804FB380500204005002018
:100E30001FB503788DF800304368019383688DF8FF
:100E40000830C368054A0393054B684653F82130C0
:100E500052F82110984705B05DF804FB38050020D2
:100E600040050020F0B5194B90F800C0DFF86CE0A9
:100E700043F82C20164B16460A6943F82C204B7F6A
:100E80000EF80C300C4607460FCC89B06D460FC5E6
:100E900094E80F0085E80F003B78CDF810C01EF8ED
:100EA00003304BB1002E0B4A694608BF3246381D4D
:100EB00000F070FB09B0F0BD002E074A694608BF7C
:100EC000324607F10C0000F01BF9F3E74005002063
:100ED00038050020FD0D0000310E000048050020FF
:100EE000014B1B68184700BF4C05002038B50B4B61
:100EF00098420C4601D0002038BD0020FFF758FE74
:100F0000074B1D7915B901221C601A710020FFF7EB
:100F100051FE002DEFD01120EEE700BF0020004071
:100F20004C0500200023435082B043580193019B9D
:100F300002B070470A4610B54FF48E71FFF7F2FF0A
:100F4000136A9168C95C136A01331362C0F81C15F7
:100F500010BD024608B500684FF49271FFF7E2FF3A
:100F600010684FF48471FFF7DDFF136801221A60E7
:100F700008BD8B690A4610B54FF4847123B9FFF799
:100F8000D1FFD0F8183510BDFFF7CCFF536AD168F8
:100F9000D0F81805C854536A01335362F3E70000D0
:100FA0001FB501238DF80030044BCDE90110D3E9C2
:100FB00000126846904705B05DF804FB5405002018
:100FC00030B54D4DD5F804339A0585B051D5D5F8D7
:100FD0002431002B4DD04FF492712846FFF7A2FF29
:100FE0004FF40173C5F80833444B93F829200AB92C
:100FF00001226A60404902228DF80020D1F8802445
:10100000C1F8802403929A690292DA680192002260
:10101000C3E906226846D3E9001290473648D0F863
:101020001C315BB1354A5169136A99424DD992F826
:101030002830002B49D11146FFF77CFF2E48D0F80D
:101040004431002B56D04FF4A271FFF76BFF2B4BAE
:1010500093F829200AB1012202609A69002A49D036
:10106000586AD96800229A6105B0BDE83040FFF7A0
:1010700097BFD5F804335B07D0D5D5F80831002BDE
:10108000CCD01E4C1C482146FFF773FF636AA2694F
:101090009A42C3D1E369E1684BB1A3612369E3607C
:1010A0000023606AE3616362FFF77AFFB6E794F8B2
:1010B00029300BB901236B600F4B4FF40172C3F859
:1010C00008230023606AA361EEE70B484FF48E719A
:1010D000FFF728FF5369002BB0D05169029100231C
:1010E00091688DF80030019153616846D2E9001390
:1010F0009847A3E705B030BD00200040540500200C
:101100002DE9F843604D90F804802C2303FB08532D
:10111000064693F82A300C469146002B40F0AF80EB
:101120005A490068FFF7E2FE0746002840F0A98010
:101130002268531C10D01F2A87BF554902F01F0395
:1011400013464FF0A0410120984003F5E073C1F829
:101150000805032041F823006168481C0DD01F29B1
:101160008BBF01F01F030B4649484FF0A04003F529
:10117000E0734FF0000C40F823C03068A369C0F85A
:10118000243594F814C0637DBCF1010F4CEA0303CD
:10119000C0F86C35C0F81415C0F80C252BD1A36825
:1011A000591C0DD01F2B8BBF03F01F021A46384964
:1011B0004FF0A04102F5E0724FF0000C41F822C060
:1011C000E1684A1C13D01F2987BF314A01F01F0C68
:1011D0008C464FF0A0424FF0010E0EFA0CFE0CF5BB
:1011E000E07CC2F808E54FF0030E42F82CE0C0F8AE
:1011F0000815C0F810352C2202FB08F2AB18C3F812
:1012000004902369AB50B9F1000F20D04FF48E71D8
:10121000247FFFF787FE4FF4A2713068FFF782FE4C
:1012200032681C4BC2F80433130B42F307326101DE
:10123000002AC9B21EDB1848841884F80013012163
:10124000520903F01F0301FA03F340F82230336818
:101250000422C3F800252C2303FB08530022C3E912
:10126000062283F829205A61012283F82A20384671
:10127000BDE8F883094A03F00F03D154E7E70827D4
:10128000F5E71127F3E700BF54050020C10F000068
:10129000000300508000020000E100E014ED00E0D7
:1012A0000279044B2C2101FB02335869003818BF26
:1012B00001207047540500202DE9F84F064690F8AC
:1012C000048089469246FFF7EBFF044600283CD194
:1012D000204F2C2508FB057B4FF48E71CBF814A012
:1012E000CBF80890CBF820008BF828003068FFF787
:1012F00019FE3068012383605946FFF71BFEDBF8B7
:1013000004305D461BBB3068DBF814402B6A9C42FE
:1013100011D83368D3F81C21002AFBD00122DA60EF
:1013200000202C2303FB087700237B61BDE8F88FA6
:1013300095F828303BB9D0F81C31002BF8D059462D
:10134000FFF7F8FDE2E70F20EBE71120EEE720467C
:10135000ECE700BF540500202DE9F0473A4D07792E
:101360002C2303FB075306465C6824B103684FF443
:101370000170C3F808032C2303FB0753986950B18D
:10138000D869002841D024B133684FF40172C3F802
:101390000423112436E09A61D9605862D8612C2365
:1013A00003FB075393F829301BB910B93046FFF7F8
:1013B000D0FD4FF02C0808FB075A3068DAF80430EB
:1013C000002B37D14FF4A271D046FFF7ABFD306848
:1013D000D0F82491D0F80831D0F84441CBB914B9F1
:1013E000B9F1000FF3D02C2303FB07550023AB61A9
:1013F000B9F1000F24D12CBB95F8291033680122D4
:10140000B1B11A602046BDE8F0871961DA610120A8
:10141000C5E7B9F1000FE6D1002CE4D14146FFF752
:10142000A8FDDAF82430DAF818209A42CFD8DAE7A3
:101430005A60E7E74FF40173C0F804330024E1E792
:101440000324DFE70F24DDE7540500200023435089
:1014500082B043580193019B02B070471FB501232E
:101460008DF80030044BCDE90110D3E90012684635
:10147000904705B05DF804FB800500207FB5434A26
:10148000D2F82461002E60D010464FF49271FFF71D
:10149000DDFF02238DF80030D2F88034C2F88034AA
:1014A0000393D2F83C350293394BDA68019200225B
:1014B000C3E906226846D3E9001290473348D0F8C2
:1014C000443173B14FF4A271FFF7C0FF304B9A69FA
:1014D0003AB10022C3E90622D968D0F83C05FFF7EB
:1014E000BDFF2A48D0F82031ABB14FF49071FFF71F
:1014F000ADFF0123C360264B5A6962B1D0F84C1589
:101500000291002299688DF8002001915A61684685
:10151000D3E9001290471D48D0F858319BB14FF4E1
:10152000AC71FFF793FF1A4B5A6962B1D0F84C15B2
:101530000291002299688DF8002001915A61684655
:10154000D3E90012904704B070BDD2F81031002BDF
:10155000B4D04FF488711046FFF778FF0C4BD2F8E7
:101560003C0599698842A9D1DC69D96864B1D2F88F
:10157000005225F02005C2F800521A699C61DA6019
:10158000DE61FFF76BFF99E79C61FAE700200040FE
:10159000800500202DE9F843664E90F8048024234E
:1015A00003FB0863044693F820300D469146002B58
:1015B00040F0BC8060490068FFF798FC07460028AF
:1015C00040F0B68029684B1C10D01F2987BF5B4AAA
:1015D00001F01F030B464FF0A0420120984003F595
:1015E000E073C2F80805032042F823006A68501C23
:1015F0000DD01F2A8BBF02F01F0313464F484FF038
:10160000A04003F5E0734FF0000C40F823C02068C1
:10161000AB69C0F8243595F814C06B7DBCF1010F9F
:101620004CEA0303C0F86C35C0F80C15C0F814255B
:101630002BD1AB68591C0DD01F2B8BBF03F01F02A1
:101640001A463E494FF0A04102F5E0724FF0000CFF
:1016500041F822C0E9684A1C13D01F2987BF374AC6
:1016600001F01F0C8C464FF0A0424FF0010E0EFA15
:101670000CFE0CF5E07CC2F808E54FF0030E42F8D2
:101680002CE0C0F80815C0F81035242202FB08F23F
:10169000B318C3F804902B69B350B9F1000F2FD0E1
:1016A0004FF488712A7FFFF7D1FE20684FF49071C4
:1016B000FFF7CCFE20684FF49271FFF7C7FE206859
:1016C0004FF4A271FFF7C2FE4FF4AC712068FFF730
:1016D000BDFE23681A49C3F80413190B43F30733FB
:1016E0005201002BD2B21CDB1648C51885F8002326
:1016F00001225B0901F01F0102FA01F140F82310F9
:1017000023680822C3F80025242303FB086600236E
:10171000C6E906337361012386F820303846BDE8F8
:10172000F883094B01F00F015A54E9E70827F5E760
:101730001127F3E7800500207D140000000300500E
:101740001003420000E100E014ED00E00279044BD8
:10175000242101FB02335869003818BF012070476B
:101760008005002001F06043B3F1005F2DE9F047F0
:101770000646884692463BD190F80490FFF7E6FF74
:101780000446002836D11D4F3068242505FB097515
:101790004FF49071C5F814A0C5F80880FFF756FE05
:1017A0004FF4AC713068FFF751FE33686A69A9687D
:1017B000C3F84415C3F8482501229A606A68DAB96B
:1017C000D3F82021D3F858011AB90028F8D00F20F7
:1017D00007E00028FBD10122DA60D3F85821002A63
:1017E000FBD0242303FB097700237B61BDE8F0874E
:1017F0001020FBE71120F9E72046F7E780050020DD
:10180000F8B501F06043B3F1005F04460F465ED1C6
:101810000379304D242101FB0351496821B100684F
:101820004FF40476C0F80863242000FB03539E693C
:1018300056B1D869002839D021B123684FF4047219
:10184000C3F80423112030E09A61DF60DE61206874
:101850004FF48871FFF7FAFD20684FF4A271FFF78B
:10186000F5FD2368C3F83475C3F8382516BB01228B
:101870001A602479242202FB045252680ABBD3F86E
:101880001011D3F84421D3F82401114302D10028C8
:10189000F5D00A46242303FB04550023984218BFC1
:1018A00003209A42AB6118BF0F20F8BD1F61DA61B7
:1018B0000126CCE7D3F8002242F02002C3F8002230
:1018C000D7E74FF40472C3F804230020EDE710209B
:1018D000EBE700BF8005002000F1804000F5E83014
:1018E000002382B0036003680193019B02B070473C
:1018F0001FB53C493C4CD1F80021002A47D04FF499
:101900008070FFF7E9FFA37CDA4302F0010204EBE9
:101910008201496811B9617C02292DD1607C0228BD
:1019200018BF04EB83034FF000010BBF012358687D
:10193000637459604FF001038DF80C10E1740EBF11
:1019400002910290A2748DF80430236801A8984790
:10195000637C022B01D101236374237D53B10123E6
:101960008DF80430002302938DF80C30237501A804
:101970002368984704B010BDE37C002BE8D18DF8B4
:101980000430029301238DF80C30E374DDE7D1F8C5
:101990000431002BE1D04FF48270FFF79DFFC1F8B6
:1019A0000025A37C627404EB83038DF80C20596836
:1019B0008DF8042021B15A600291236801A898474C
:1019C000A37CDB4303F0010304EB83035A682AB1D1
:1019D000029200225A6001A8236898470023A3744A
:1019E000BBE700BF00D00140A405002070B5334C18
:1019F000237C0246002B5DD1067A502E5CD8457AB6
:101A0000502D59D821602E496374C4E90133638293
:101A10004368C1F80435437800785B0000F00100AA
:101A200003F002030343C1F80835C1F81865C1F893
:101A30001C5590781F288BBF00F01F050546214BD1
:101A40004FF0A04305F5E071032643F82160012122
:101A5000A940C3F80C15D3781F2B8BBF03F01F01CF
:101A60001946184E4FF0A04601F5E075002146F8E2
:101A70002510134DC5F84005C5F844354FF4807066
:101A8000FFF72AFF4FF48470FFF726FF4FF48270B0
:101A9000FFF722FF0323C5F80433937A0A4A5B0158
:101AA000DBB282F81D334FF000531360012323741F
:101AB000084670BD0820FCE70720FAE7A4050020CF
:101AC00000D001400003005000E100E00A4B5A7CC6
:101AD00002F0FF002AB15B7C012B0CBF002011201B
:101AE000704702225A7401221A75044B4FF00052BB
:101AF000C3F80021704700BFA405002000E100E00A
:101B000000F1804000F5C040002382B0036003680C
:101B10000193019B02B0704703681F2B83BF03F042
:101B20001F03036001484FF0A040704700030050BE
:101B300007B5019001A8FFF7EFFF019B00EB8300C1
:101B4000D0F8003723F44033C0F80037D0F800371E
:101B500043EA0141C0F8001703B05DF804FB000040
:101B60002DE9FF470024CDE90244584D4FF480721F
:101B7000012102F1804303F5C04390B21B68012BA1
:101B800006D1D5F804330B4202D0FFF7B9FF0C435E
:101B90000432B2F5907F4FEA4101EAD14B4BD3F8C2
:101BA0007C31012B11D14FF4BE70FFF7A9FF4FF02C
:101BB000A04344F00044D3F820250292C3F8202526
:101BC000D3F820280392C3F82028E3B2D3B1404FC2
:101BD00000250126344210D0AB0003F1804303F509
:101BE000C043D3F81005D3F8101557F8253023B1AA
:101BF000C1F30141C0F3052098470135082D4FEA94
:101C00004606E7D1002C59DA314D324C324E4FF0B6
:101C10000008012716F9013B5A1C3CD0C3F3C2014E
:101C2000103169445FFA83F911F8081C03F03F0290
:101C300003F0070307FA03F319422CD001A801921D
:101C4000FFF76AFF019B03F5E07350F82330C3F3FD
:101C5000014ABAF1020F0CBF032102211046FFF71F
:101C600067FF01A80192FFF757FF019B07FA03F3F3
:101C7000C0F82035AB1893F9303055F8233053B104
:101C80004FEA9911032904D0BAF1020F19D10129A1
:101C900001D11046984708F10108B8F1040FB9D1F5
:101CA0004FF0A043D3F820250292C3F82025D4F8A2
:101CB00020350393C4F820351343A7D104B0BDE801
:101CC000F087BAF1030FE6D10229E1E70060004096
:101CD000BC050020000300501C060020704703785C
:101CE000022B02D14068FEF7CDBD012BFAD0704720
:101CF00030B5234D8BB00120FEF7A5FD0FCD04AC10
:101D00000FC495E803001F4B1F4A009384E80300AB
:101D10004FF480736C46CDE9022301931B4A0723DD
:101D2000214604A8FEF79CFE08B1FEF7ABFD18485B
:101D300000F04EF9174B93E8070084E807001649B6
:101D40002046FFF753FE08B1FEF79CFDFFF7BEFEED
:101D500008B1FEF797FD2046FEF7DAFE0028FAD11B
:101D60009DF80000FEF7EAFE0028F9D19DF800304A
:101D700003F0DF03512BEED1084800F029F9FEE70C
:101D8000382100002806002028070020DF1C000062
:101D90001221000050210000DD1C00002B2100005A
:101DA0004FF08053D3F83001A0F108035842584156
:101DB000704700004FF08053D3F83021082A06D135
:101DC000D3F83431052B02D8024AD05C704700208A
:101DD000704700BF62210000024AD2F80034002B95
:101DE000FBD0704700E0014010B5FFF7D9FF40B1CC
:101DF0004FF080430022C3F80C21C3F81021C3F830
:101E00003825FFF7CDFF002846D04FF08052654BB4
:101E1000D2F80414C3F82015D2F80814C3F8241516
:101E2000D2F80C14C3F82815D2F81014C3F82C15E6
:101E3000D2F81414C3F83015D2F81814C3F83415B6
:101E4000D2F81C14C3F84015D2F82014C3F8441576
:101E5000D2F82414C3F84815D2F82814C3F84C1546
:101E6000D2F82C14C3F85015D2F83014C3F8541516
:101E7000D2F83414C3F86015D2F83814C3F86415D6
:101E8000D2F83C14C3F86815D2F84014C3F86C15A6
:101E9000D2F84424C3F87025FFF78CFF18B1424BE9
:101EA000424AC3F88C26FFF785FF18B1404BFB224E
:101EB000C3F81825FFF77EFF70B14FF080414FF057
:101EC0008053D1F8E42ED3F8583222F00F0203F0F9
:101ED0000F031343C1F8E43EFFF76CFF20B1354B0D
:101EE0004FF40072C3F84026FFF75AFF48B14FF095
:101EF0008043D3F80024D20744BF6FF00102C3F837
:101F000000242D4AD2F8883043F47003C2F8883098
:101F1000BFF34F8FBFF36F8F4FF08053D3F8302153
:101F2000082A0ED1D3F83431052B02D8234AD35CCA
:101F30003BB14FF01023D3F808224FF08043C3F891
:101F400058254FF01023D3F80022002A03DBD3F8E2
:101F50000432002B22DA1A4901234FF01020C1F875
:101F600004351224FFF738FFC0F80042FFF734FFB2
:101F7000C0F80442FFF730FF0023C1F80435FFF733
:101F80002BFFBFF34F8F0C490E4BCA6802F4E0627F
:101F90001343CB60BFF34F8F00BFFDE70A4B0B4AE3
:101FA0001A6010BD00C0004000500040488103008E
:101FB00000F000400090024000ED00E05C210000D5
:101FC00000E001400400FA05140000200090D00356
:101FD00070B5054600F041F8013D002615F8010FE7
:101FE00048B13146FEF702FF0446B0F1FF3FF5D19C
:101FF00000F034F806E000210A20FEF7F7FE044660
:1020000000F02CF8204670BD844640EA010313F02E
:10201000030F18D18446202A0BD32DE9F007B1E82D
:10202000F807A0E8F807A2F12002202AF7D2BDE8BD
:10203000F007042A07D351F8043B40F8043BA2F10F
:102040000402042AF7D2002A05D011F8013B00F857
:10205000013B013AF9D16046704770477047000074
:102060000B2100000000000007210000000000001C
:10207000F820000000000000FC200000000000002C
:102080000121000000000000B52000000000030353
:1020900018000020E0000020E800002020000020C0
:0420A0001800000024
:1020A4004261636B656E647320666C757368656406
:1020B40000617070000D0E0F10466174616C206534
:1020C40072726F720053797374656D2072657365F3
:1020D40074000000FFFFFFFFFFFFFFFFFFFFFFFF94
:1020E400FFFFFFFF00000000000000000000D60119
:1020F40006010000505253005541525400554152BC
:1021040054450050444D004750494F5445000D0A72
:1021140055415254206578616D706C65207374610B
:10212400727465642E0D00200D0A45786974210DC2
:102134000000000008000000060000000500000088
:10214400070000000000000000E0D70101001210A9
:1021540000004008282806000000000001010100DA
:042164000000000077
:1021680000000000002000400000000000200040A7
:08217800000000000090D003FC
:040000030000037581
:00000001FF
