:1000000000000420750300005D0300005F03000092
:1000100061030000630300006503000000000000AE
:100020000000000000000000000000006703000066
:1000300069030000000000006B0300006D03000076
:100040006F0300006F030000E90A00006F03000067
:100050006F0300006F030000150E00006F03000027
:100060006F0300006F0300006F0300006F030000C8
:100070006F0300006F0300006F0300006F030000B8
:100080006F0300006F0300006F0300006F030000A8
:100090006F0300006F0300006F0300006F03000098
:1000A0006F0300006F0300006F0300006F03000088
:1000B0006F0300000D0B00000000000000000000B6
:1000C0006F0300006F0300006F0300006F03000068
:1000D0006F0300006F0300006F0300006F03000058
:1000E0006F0300006F0300006F03000000000000BA
:1000F000000000006F030000000000006F0300001C
:1001000000000000000000000000000000000000EF
:1001100000000000000000000000000000000000DF
:1001200000000000000000000000000000000000CF
:1001300000000000000000000000000000000000BF
:1001400000000000000000000000000000000000AF
:10015000000000000000000000000000000000009F
:10016000000000000000000000000000000000008F
:10017000000000000000000000000000000000007F
:10018000000000000000000000000000000000006F
:10019000000000000000000000000000000000005F
:1001A000000000000000000000000000000000004F
:1001B000000000000000000000000000000000003F
:1001C000000000000000000000000000000000002F
:1001D000000000000000000000000000000000001F
:1001E000000000000000000000000000000000000F
:1001F00000000000000000000000000000000000FF
:10020000354936480A1A02D0072291438D463449AF
:1002100034480A1A06D00722914381F30988022242
:1002200082F3148830483149314A00F044F83148AB
:100230003149324A00F03FF831483249324A00F041
:100240003AF832483249334A00F035F832483349F7
:10025000334A00F030F833483349344A00F02BF881
:1002600033483449344A00F026F8344834490022EF
:1002700000F02CF833483449002200F027F83348C6
:100280003349091A082902DB002202604160314A21
:1002900090471F481F49884205D00268043003B4C4
:1002A000904703BCF7E700208646EC46002000217B
:1002B000294A9047FEE7884207D0521A05D00378B2
:1002C00001300B700131013AF9D17047884202D0F8
:1002D00002700130FAE770470000042000E00320BC
:1002E000000004200000042008130000000000208B
:1002F00004000020D0030000D003000064120000BE
:10030000081300000000002000000020A8120000D8
:10031000A8120000A8120000A8120000A8120000F5
:10032000A8120000A8120000A81200000813000084
:100330000C13000004000020040000200400002032
:100340008205012084050120840501208405012007
:10035000842501209D030000A50F0000FEE7FEE7B5
:10036000FEE7FEE7FEE7FEE7FEE7FEE7FEE7FEE765
:1003700000F002B8FFF7FCBF0F484FF007018843B9
:1003800085460E4880470E48016841F470010160BF
:10039000BFF34F8FBFF36F8FFFF732BF09480A4992
:1003A0000A4A884207D0521A05D0037801300B70F0
:1003B0000131013AF9D170470000042029100000F2
:1003C00088ED00E0A81200000000002000000020DE
:1003D000037813F0040216D003F00303012B03D0BB
:1003E000022B09D0012070470A6800880232C0F34E
:1003F000831002440A60F5E70B684288023303EB7E
:1004000092130B60EEE71046704700002DE9F04FA5
:10041000DFF810A10F4685B00446861C0020154663
:1004200000F044FADAF804203A60DAF8083003F50C
:1004300080739B1A0AF21C470AF583690AF2144872
:10044000B34219D30020002D68D004F00F039B01A4
:1004500043F0050363F30F00DAF80430DAB2033235
:1004600033444AF822000020CAF8043000F020FA91
:10047000012005B0BDE8F08F0121384600F03DFABB
:10048000484600F052FA404600F04FFADAF8080009
:100490000090C0B203300AEB80006946FFF798FF76
:1004A000009B30BBDAB20AEB8202D16801919A1C40
:1004B0000133DBB20AEB83030092D3F80CB001F0F6
:1004C0000303012B22D0022B15D08346404600F0B7
:1004D0002FFA10B1009BCAF808305946384600F090
:1004E0000CFADAF80830DAF8042003F580739B1A66
:1004F000A6E7D8B2CEE7BDF80630C3F389130333BD
:100500004FEA1B4B02EB93030093DFE7BDF8043087
:10051000C3F383134FEA1B4B1344F5E7A40544F0E0
:10052000060099E7D400002070470000034BD3E990
:100530000130C31A58425841704700BFD400002010
:100540002DE9FF41FFF7F2FF0546002840F0E98062
:10055000754CC4F81804BFF34F8FA3680093DBB247
:10056000033304EB83006946FFF732FF009B18B1A9
:10057000D4F81824002A5AD0DAB2991C013304EBBB
:100580008202DBB204EB8303D268DB68029302F0E1
:100590000303022B0192009154D1BDF80630634849
:1005A000C3F38917502F3E4628BF502606F1080195
:1005B00066F38F13C1F30901ADF8063000F049FA74
:1005C0000546002800F0988000F072FA0023082207
:1005D00001A9284600F07EFA0099CB43DBB2013333
:1005E000C9B20331B6EB830F4FEA830204EB8101FA
:1005F00025D95FFA82F80823A6EB0806284600F002
:1006000069FAF6B208F10803494903F0FC033246DF
:10061000284600F05FFA009B033703EB970700972B
:10062000D4F81834002B43D1D4F8106453E0626836
:100630009A4294D8A260284604B0BDE8F08108230D
:100640003246E5E7012B57D1BDF804303748C3F3F4
:100650008311062928BF062161F38913023101F0B5
:100660000F018900ADF8043000F0F3F905460028C9
:1006700042D000F01DFA0023082201A9284600F00C
:1006800029FA0026BDF80420C2F38312B300964273
:1006900003F10803C4D200994A1CC9B20331009285
:1006A00004EB81010422284600F014FA0136E9E740
:1006B000284600F001FAFFF739FF80F00100C5B2CB
:1006C000B9E7F3685B7923B1336829461B68304684
:1006D0009847F3681E68002EF3D1284600F0ECF925
:1006E000304600F0E3F8D4F818340BB9009BA3604F
:1006F000002000F0DDF8DEE7D4F8104454B90D4BCB
:100700000D480E49C01AC008000440F0020000F075
:100710005FF8D0E7236820469B689847E3681C6829
:10072000ECE7002587E700BFD4000020941200000A
:10073000E0000020641200008C120000A8120000EB
:100740002DE9F34704460E46924601A901221846B8
:100750009946FFF75BFE1C4F10B3019D4FF0000858
:10076000AA1CC84508EB020125D11848002100F059
:10077000A1F880F31000000440EA1440E4006B1C70
:1007800004F03804DBB2EDB244F0010407EB83035C
:10079000033544EA881444EA8624D86047F82540A3
:1007A0003B781BB1FFF7CCFE0028FBD1FFF7BCFE66
:1007B00002B0BDE8F087C9B207EB81015AF82830D2
:1007C000CB6008F10108CCE7D4000020F004002041
:1007D00000231A46FFF7B4BF38B5084B0125D3F8FC
:1007E00010441D7004B938BDE3685D71236820466C
:1007F0005B689847E3681C68F4E700BFD4000020FA
:100800001FB50021039001AA44F20100CDE90111B6
:1008100000F004F805B05DF804FB000038B572B6CE
:10082000FFF7DAFFFFF78CFE0028FBD1104B114CCD
:10083000114D1249E41AE408240444F00100FFF7C2
:10084000C7FFD5F8F030DB0700D500BE0C4944F0F7
:100850000200FFF7BDFFBFF34F8FEA68094B02F4B8
:10086000E0621343EB60BFF34F8F00BFFDE700BFB3
:10087000641200008C12000000ED00E0BD120000C8
:10088000C91200000400FA0572B6024A1368013367
:1008900013607047F4040020034A1368013B13609F
:1008A00003B962B6704700BFF4040020FFF7ECBF45
:1008B000FFF7F2BF10B5034653E8000F0A4643E8BE
:1008C000002494F0000FF7D110BD10B5034653E893
:1008D000002F42EA010043E8000494F0000FF6D133
:1008E00010BD10B5034653E8000F00EA010243E8CB
:1008F000002494F0000FF6D110BD10B5034653E864
:10090000002F02EB010043E8000494F0000FF6D141
:1009100010BD10B5034653E8002FA2EB010043E8D9
:10092000000494F0000FF6D110BD0121FFF7CDBFF8
:100930000021FFF7D6BF38B504460020FFF7B6FF09
:10094000226863681168994213D9481E106011F833
:10095000013CE568218A01FB0355A36811791B1A44
:10096000DBB2994200D213710020FFF7A1FF2846A5
:1009700038BD0025F8E738B5054600200C46FFF7DE
:1009800095FF2A681368591C1160E968641A298A5E
:10099000B4FBF1F41C70BDE838400020FFF788BFBD
:1009A0002DE9F84FB0F806A04579D2F800B09DF8CF
:1009B00028900AFB05F5043D88460BEB0301A9428C
:1009C00003F1040488BFA5EB030BB4FBFAF607465A
:1009D0000AFB1644C2F800B04EB9AAEB04055D4507
:1009E00028BF5D46BBF1000F04D1BDE8F88F3F681A
:1009F000013EF1E7043408EB06003C442A46B9F115
:100A0000000F0DD02146ABEB050B00F001FCDA45E1
:100A10002E443F6855464FF0000428BF5D46E1E78D
:100A200001462046EFE7F8B546790146721E0546B5
:100A3000002393422D6803D30024A64202D8F8BDB8
:100A40000133F6E70F682846FFF795FF0134394672
:100A5000F3E72DE9F843068ACD1C0746FFF76BFF45
:100A6000043E35440446B5FBF6F5F0B14FF480730F
:100A7000EDB28380C680013D076081464FF00008DB
:100A8000A84512D23846FFF756FF064648B16379AB
:100A90000133637108F10108C9F80000076081465D
:100AA000EEE72046FFF7BFFF34462046BDE8F88357
:100AB00001210430FFF721BF10B5012104460430A5
:100AC000FFF727FFC0B220B92046BDE81040FFF76E
:100AD000AABF10BD1FB503920022009203AAFFF720
:100AE0005FFF05B05DF804FB014B1B68184700BFB2
:100AF000F804002000F1804000F5E830002382B0C7
:100B0000036003680193019B02B070471FB53C4925
:100B10003C4CD1F80021002A47D04FF48070FFF7F9
:100B2000E9FFA37CDA4302F0010204EB8201496889
:100B300011B9617C02292DD1607C022818BF04EB19
:100B400083034FF000010BBF0123586863745960A1
:100B50004FF001038DF80C10E1740EBF029102906A
:100B6000A2748DF80430236801A89847637C022B97
:100B700001D101236374237D53B101238DF8043027
:100B8000002302938DF80C30237501A82368984741
:100B900004B010BDE37C002BE8D18DF80430029343
:100BA00001238DF80C30E374DDE7D1F80431002B1C
:100BB000E1D04FF48270FFF79DFFC1F80025A37CC0
:100BC000627404EB83038DF80C2059688DF80420BF
:100BD00021B15A600291236801A89847A37CDB43A6
:100BE00003F0010304EB83035A682AB10292002246
:100BF0005A6001A8236898470023A374BBE700BF8D
:100C000000D001400005002070B5334C237C024623
:100C1000002B5DD1067A502E5CD8457A502D59D8DC
:100C200021602E496374C4E9013363824368C1F8CB
:100C30000435437800785B0000F0010003F0020304
:100C40000343C1F80835C1F81865C1F81C55907800
:100C50001F288BBF00F01F050546214B4FF0A04316
:100C600005F5E071032643F821600121A940C3F88E
:100C70000C15D3781F2B8BBF03F01F011946184E9C
:100C80004FF0A04601F5E075002146F82510134D00
:100C9000C5F84005C5F844354FF48070FFF72AFFCA
:100CA0004FF48470FFF726FF4FF48270FFF722FFA6
:100CB0000323C5F80433937A0A4A5B01DBB282F856
:100CC0001D334FF00053136001232374084670BD99
:100CD0000820FCE70720FAE70005002000D00140CB
:100CE0000003005000E100E00A4B5A7C02F0FF00D4
:100CF0002AB15B7C012B0CBF00201120704702221F
:100D00005A7401221A75044B4FF00052C3F80021A7
:100D1000704700BF0005002000E100E038B5224C1C
:100D2000237C002B39D0637C032B38D0002838D0AB
:100D30000B0436D41D4B4FF00052C3F88020BFF394
:100D40004F8FBFF36F8F627CA37C022A1ABFDB43F5
:100D500003F00103002304EB83056A68BAB904EBCE
:100D600043036860124D9981C5F86005C5F86415A4
:100D7000237C022B09D00223012123744FF48070BD
:100D8000C5F80015FFF7B6FE2960104600E01120F7
:100D9000064B4FF000521A6038BD0820FCE71120C6
:100DA000FAE70720F8E700BF0005002000E100E0B7
:100DB00000D0014000F1804000F5C040002382B027
:100DC000036003680193019B02B0704703681F2B07
:100DD00083BF03F01F03036001484FF0A04070473A
:100DE0000003005007B5019001A8FFF7EFFF019B3A
:100DF00000EB8300D0F8003723F44033C0F800370D
:100E0000D0F8003743EA0141C0F8001703B05DF89D
:100E100004FB00002DE9FF470024CDE90244584DB2
:100E20004FF48072012102F1804303F5C04390B278
:100E30001B68012B06D1D5F804330B4202D0FFF713
:100E4000B9FF0C430432B2F5907F4FEA4101EAD179
:100E50004B4BD3F87C31012B11D14FF4BE70FFF70F
:100E6000A9FF4FF0A04344F00044D3F8202502929C
:100E7000C3F82025D3F820280392C3F82028E3B232
:100E8000D3B1404F00250126344210D0AB0003F10E
:100E9000804303F5C043D3F81005D3F8101557F875
:100EA000253023B1C1F30141C0F305209847013536
:100EB000082D4FEA4606E7D1002C59DA314D324C65
:100EC000324E4FF00008012716F9013B5A1C3CD066
:100ED000C3F3C201103169445FFA83F911F8081CA9
:100EE00003F03F0203F0070307FA03F319422CD083
:100EF00001A80192FFF76AFF019B03F5E07350F828
:100F00002330C3F3014ABAF1020F0CBF03210221BF
:100F10001046FFF767FF01A80192FFF757FF019BFB
:100F200007FA03F3C0F82035AB1893F9303055F8C1
:100F3000233053B14FEA9911032904D0BAF1020FBB
:100F400019D1012901D11046984708F10108B8F1DB
:100F5000040FB9D14FF0A043D3F820250292C3F873
:100F60002025D4F820350393C4F820351343A7D1A6
:100F700004B0BDE8F087BAF1030FE6D10229E1E73A
:100F80000060004018050020000300507805002094
:100F9000037823B1024847F6FF71FFF7BFBE7047E1
:100FA000840500201FB50B4A07CA01AB83E8070080
:100FB000094A0121C2F8001518460849FFF724FE26
:100FC00008B1FFF71DFCFFF78FFE08B1FFF718FC13
:100FD000FEE700BFF012000000D00140910F0000BA
:100FE0004FF08053D3F83001A0F108035842584124
:100FF000704700004FF08053D3F83021082A06D103
:10100000D3F83431052B02D8024AD05C7047002057
:10101000704700BF02130000024AD2F80034002BD0
:10102000FBD0704700E0014010B5FFF7D9FF40B199
:101030004FF080430022C3F80C21C3F81021C3F8FD
:101040003825FFF7CDFF002846D04FF08052654B82
:10105000D2F80414C3F82015D2F80814C3F82415E4
:10106000D2F80C14C3F82815D2F81014C3F82C15B4
:10107000D2F81414C3F83015D2F81814C3F8341584
:10108000D2F81C14C3F84015D2F82014C3F8441544
:10109000D2F82414C3F84815D2F82814C3F84C1514
:1010A000D2F82C14C3F85015D2F83014C3F85415E4
:1010B000D2F83414C3F86015D2F83814C3F86415A4
:1010C000D2F83C14C3F86815D2F84014C3F86C1574
:1010D000D2F84424C3F87025FFF78CFF18B1424BB7
:1010E000424AC3F88C26FFF785FF18B1404BFB221C
:1010F000C3F81825FFF77EFF70B14FF080414FF025
:101100008053D1F8E42ED3F8583222F00F0203F0C6
:101110000F031343C1F8E43EFFF76CFF20B1354BDA
:101120004FF40072C3F84026FFF75AFF48B14FF062
:101130008043D3F80024D20744BF6FF00102C3F804
:1011400000242D4AD2F8883043F47003C2F8883066
:10115000BFF34F8FBFF36F8F4FF08053D3F8302121
:10116000082A0ED1D3F83431052B02D8234AD35C98
:101170003BB14FF01023D3F808224FF08043C3F85F
:1011800058254FF01023D3F80022002A03DBD3F8B0
:101190000432002B22DA1A4901234FF01020C1F843
:1011A00004351224FFF738FFC0F80042FFF734FF80
:1011B000C0F80442FFF730FF0023C1F80435FFF701
:1011C0002BFFBFF34F8F0C490E4BCA6802F4E0624D
:1011D0001343CB60BFF34F8F00BFFDE70A4B0B4AB1
:1011E0001A6010BD00C0004000500040488103005C
:1011F00000F000400090024000ED00E0FC12000012
:1012000000E001400400FA05000000200090D00337
:10121000844640EA010313F0030F18D18446202AC4
:101220000BD32DE9F007B1E8F807A0E8F807A2F121
:101230002002202AF7D2BDE8F007042A07D351F88C
:10124000043B40F8043BA2F10402042AF7D2002A2E
:1012500005D011F8013B00F8013B013AF9D1604695
:0412600070470000D3
:10126400E912000000000000E51200000000000088
:10127400D612000000000000DA1200000000000096
:10128400DF12000000000000B91200000000030398
:1012940004000020CC000020D40000200C0000201A
:0412A400180000002E
:1012A8004261636B656E647320666C757368656410
:1012B8000061707000466174616C206572726F72B3
:1012C8000053797374656D207265736574005052AC
:1012D8005300554152540055415254450050444D15
:1012E800004750494F54450001001A1B00004008B0
:1012F800282806000000000001010100000000008D
:041308000090D0037E
:040000030000037581
:00000001FF
