:020000022000DC
:1070000000000420757302005D7302005F730200CC
:1070100061730200637302006573020000000000E8
:107020000000000000000000000000006773020084
:1070300069730200000000006B7302006D730200B0
:1070400005A602006F730200A1AA0200EDBA0200B9
:10705000FDBA02006F73020025A902006F730200DF
:107060006F7302006F7302006F7302006F73020090
:107070006F730200C9AB02006F7302006F730200EE
:107080006F730200B18302006F7302006F7302001E
:107090006F7302006F730200F92F03006F73020019
:1070A0006F7302006F7302006F7302006F73020050
:1070B0006F7302006F730200000000000000000008
:1070C0006F7302006F7302006F7302006F73020030
:1070D0006F7302006F7302006F7302006F73020020
:1070E0006F7302006F730200F96803000000000074
:1070F000000000006F730200000000006F730200C8
:10710000000000000000000000000000000000007F
:10711000000000000000000000000000000000006F
:10712000000000000000000000000000000000005F
:10713000000000000000000000000000000000004F
:10714000000000000000000000000000000000003F
:10715000000000000000000000000000000000002F
:10716000000000000000000000000000000000001F
:10717000000000000000000000000000000000000F
:1071800000000000000000000000000000000000FF
:1071900000000000000000000000000000000000EF
:1071A00000000000000000000000000000000000DF
:1071B00000000000000000000000000000000000CF
:1071C00000000000000000000000000000000000BF
:1071D00000000000000000000000000000000000AF
:1071E000000000000000000000000000000000009F
:1071F000000000000000000000000000000000008F
:10720000354936480A1A02D0072291438D4634493F
:1072100034480A1A06D00722914381F309880222D2
:1072200082F3148830483149314A00F044F831483B
:107230003149324A00F03FF831483249324A00F0D1
:107240003AF832483249334A00F035F83248334987
:10725000334A00F030F833483349344A00F02BF811
:1072600033483449344A00F026F83448344900227F
:1072700000F02CF833483449002200F027F8334856
:107280003349091A082902DB002202604160314AB1
:1072900090471F481F49884205D00268043003B454
:1072A000904703BCF7E700208646EC46002000210B
:1072B000294A9047FEE7884207D0521A05D0037842
:1072C00001300B700131013AF9D17047884202D088
:1072D00002700130FAE770470000042000E003204C
:1072E0000000042000000420D4FD0300F42B002043
:1072F000482D0020D0730200D073020018A60300AE
:10730000D4FD0300F42B0020F42B0020FCA7030085
:10731000FCA70300FCA70300FCA70300FCA70300D5
:10732000FCA70300FCA70300FCA70300D4FD030097
:1073300028FF0300482D0020482D0020482D002064
:10734000046F0020046F0020046F0020046F0020F1
:10735000048F00209D73020095D00200FEE7FEE737
:10736000FEE7FEE7FEE7FEE7FEE7FEE7FEE7FEE7F5
:1073700000F002B8FFF7FCBF0F484FF00701884349
:1073800085460E4880470E48016841F4700101604F
:10739000BFF34F8FBFF36F8FFFF732BF09480A4922
:1073A0000A4A884207D0521A05D0037801300B7080
:1073B0000131013AF9D170470000042021D50200C3
:1073C00088ED00E0E8A70300E02B0020F42B00206C
:1073D0001F288ABF094B4FF0A04300F01F0003EBAA
:1073E0008000D0F8003723F44033C0F80037D0F8DD
:1073F000003743EA0141C0F800177047000300500E
:10740000022004F003BD00002DE9F04780460D4640
:1074100004F02AFD0328044610D8012D10D0022DB7
:1074200030D05DB91A4800F047FD1A4B04EB440216
:1074300013449D78184B1B5DAB4219D0BDE8F08713
:10744000144E00EB4003F218F55C5378470053B13B
:10745000DFF84C900E484A464FF4804100F0FEFCA5
:1074600008B989F8008027443E440B4BB2781A557E
:10747000002DE3D0094B1B68002BDFD02846BDE868
:10748000F047184700EB4004024804446578EFE7F2
:10749000182C00204A2D0020652D0020602D002092
:1074A000482D002000780221FFF7AEBF08B5094B38
:1074B0001B7853B1002004F077FC012004F074FC29
:1074C000BDE80840032004F06FBCBDE8084004F0AC
:1074D0007FBC00BF492D0020F8B57A4C23780546C3
:1074E0001BB100232370FFF7E1FF172D00F2878007
:1074F000DFE805F00C1717425364757F878C878C83
:10750000949999999999C3C8D0D8E3E3FFF7CEFF2E
:107510006D4800F0D1FC6D4B002204461A702046E5
:10752000F8BD002004F018FCF0B1002004F03CFC91
:10753000022D0CBF4FF4E1644FF47A64634B1D706D
:1075400000254FF400464FF47A7029464FF4FA6252
:107550000023E4FB06010CF00FFB2A460146BDE8C0
:10756000F840594800F07ABC04F00AFC022D0CBF28
:10757000C8244FF4C874E1E7002004F0EDFB40B1EB
:10758000002004F011FC4FF44874504B03221A7091
:10759000D6E704F0F5FBC824F7E7002004F0DCFB95
:1075A00038B1002004F000FC4FF47A64474B042209
:1075B000EDE704F0E5FB4FF4C874F7E7002004F0B2
:1075C000CBFB48B1002004F0EFFB404B05221A70C2
:1075D00040F6CD410022C2E704F0D2FBF5E70020DF
:1075E00004F014FC394B06221A70002240F2666146
:1075F000B5E7002004F0C4FB344B07221A700024C6
:107600008DE70120207004F001FCEEE701202070DE
:1076100004F0FCFB00224FF40051A0E704F0E7FB6C
:107620002A4B0C22EAE72A482A4E00F045FCD5F105
:10763000110504461CD0D8B9012D13D0C8204543EC
:1076400021464FF400474FF47A704FF4FA6200235A
:10765000C5FB07010CF090FA224601461C4800F0D9
:10766000FDFB0446022004F08BFB0123337056E738
:10767000022004F099FB0023F8E7FFF717FF134BF4
:107680001222BBE7FFF712FF002004F079FB0F4B3B
:107690001322B3E7FFF70AFF012004F071FB0B4B45
:1076A0001422ABE7FFF702FF002004F069FB012082
:1076B00004F066FB054B1522A0E704F098FB034B92
:1076C0001D709CE75C2D0020382C0020642D0020CC
:1076D000F82B0020492D0020044B1B68DB0703D545
:1076E000034B1878FFF7F8BE704700BF582D0020F5
:1076F000642D0020032801D804F0A2BB00207047AD
:10770000044B1B6813F0010301D0FFF7E5BE1846D8
:10771000704700BF582D002038B51C4B18601C4B1B
:1077200010F00204054619601AD01A4B1A480E22AE
:107730001A700F22DA7010229A7111225A720421E3
:1077400040F2333200F0F8F9044648B900F04CFA40
:10775000044628B90146114A114800F06DFB044661
:10776000EB0711D5012004F097FB6CB921460D4AB7
:107770000D4800F061FB044630B9BDE838400B4AC3
:107780000B48012100F058BB204638BD582D002081
:10779000602D00204A2D0020FCA70300A5740200E4
:1077A00020A80300D976020024A803000174020077
:1077B0001CA80300032811D8012A0AD101290FD1DE
:1077C00000F10E02D2B20D4B00EB40001A54002023
:1077D00070470129F7D0022904D049B1072070472A
:1077E0000022F8E7054B00EB400018444270EEE73A
:1077F000024B00EB400018448270E8E74A2D00205D
:10780000032808B506D804F041FB0321FFF7E0FD8B
:10781000002008BD0620FCE708B501220221002057
:10782000FFF7C8FF08B1072810D107220221012065
:10783000FFF7C0FF08B1072808D100210A22084637
:10784000FFF7B8FF10B1072808BF002008BD0000EF
:107850000388102B10B502D0112B1ED010BD1A4C6E
:107860002168B1B901220846FFF7A4FF08B1072833
:1078700024D1072202210120FFF79CFF08B107282D
:107880001CD1042202210020FFF794FF08B1072831
:1078900014D1236801332360E0E70B4A1368013BEE
:1078A0001360002BDAD1FFF7B7FF0028D6D0074BC3
:1078B0001B68002BD2D0BDE810401847034B1B6853
:1078C000002BE6D09847E4E7702D00206C2D0020B7
:1078D00008B50020FFF794FF08B1062806D1012063
:1078E000FFF78EFF10B1062808BF002008BD00007A
:1078F0000D4B10B518600C4629B10120FFF7FAFEB8
:1079000040B102232370094B1B6853B9BDE81040F6
:10791000FFF782BFFFF7EEFE08B10B23F2E72070FE
:10792000F1E7002010BD00BF6C2D0020702D00205D
:10793000C30710B507D4F023054A4008145C234060
:107940001943115410BD0901C9B20F23F4E700BF58
:10795000882D002030B5094B1C78094B196800238D
:107960009C4202DC0022104630BD11F833508542A3
:1079700001EBC302F7D00133F2E700BF742D002002
:10798000A82D002013B504460191FFF7E3FF38B19D
:1079900043682BB10199204602B0BDE8104018475A
:1079A00002B010BD034B044819680022490800F0DA
:1079B00055BA00BF782D0020582C002010B5C0B259
:1079C000FFF7C8FF0446007802F09EFF63785A1E56
:1079D00053425341834208D1044BD3E9002313435C
:1079E00003D1BDE81040FFF7DDBF10BD802D0020A2
:1079F00037B54308374AD35CC2074CBF1B0903F0B5
:107A00000F0304460D46042B25D8DFE803F00326B8
:107A10002F3C4000F9B10121FFF78AFF00230DF14F
:107A200007008DF8073000F055FB0120A4F120037A
:107A3000C4F12001284A20FA01F100FA03F30B43B4
:107A4000A040D2E9004120430B43C2E900039DF866
:107A5000070000F063FB03B030BD002918BF02210E
:107A6000204603B0BDE83040FFF762BF49B10321B3
:107A7000FFF75EFF0121204603B0BDE83040FFF76D
:107A800081BF0121ECE70029E5D10421E8E709B134
:107A90000321E5E7FFF74CFF29462046FFF772FF79
:107AA0000DF107008DF8075000F014FB0120A4F140
:107AB0002003C4F12001084A20FA01F100FA03F37F
:107AC0000B43A040D2E9004124EA000021EA03036D
:107AD000BBE700BF882D0020802D00202DE9F0415C
:107AE000124E134F00243378A34208DC114BD3E924
:107AF0000023134318D0BDE8F041FFF753BF3D68A2
:107B000005EBC40815F8340002F0FEFE98F80130C9
:107B10005A1E53425341181A4142414115F834004C
:107B2000FFF766FF0134DEE7BDE8F081742D002029
:107B3000A82D0020802D0020092AF7B505460C4607
:107B400016463ED902F008FEE8B11F4B1F481D60E3
:107B50001F4B204F1C70204B002120221E600CF078
:107B60004DF91E4B00200021C3E90001013CE4B2A5
:107B70000326FF2C0DD11A4A1A48002103B0BDE894
:107B8000F04000F059B902F0A3FD0028DDD003B0A9
:107B9000F0BD9DF8063015F834008DF8046005EB53
:107BA000C40223F007038DF8063001A993788DF8FD
:107BB00005303A4602F0DAFD013CE4B20028D8D0A4
:107BC000E5E70720E3E700BFA82D0020882D00206F
:107BD000742D0020BD790200782D0020802D00201A
:107BE000DD7A020034A8030070B5084D084E002469
:107BF0002B789C4201D3002070BD3368012113F81B
:107C0000340002F033FE0134F2E700BF742D00208F
:107C1000A82D00201FB50021039001AA44F2010005
:107C2000CDE9011100F004F805B05DF804FB000097
:107C300038B572B604F034FD04F082FB0028FBD1A5
:107C4000104B114C114D1249E41AE408240444F07D
:107C5000010004F0C1FCD5F8F030DB0700D500BE10
:107C60000C4944F0020004F0B7FCBFF34F8FEA6800
:107C7000094B02F4E0621343EB60BFF34F8F00BF88
:107C8000FDE700BFD0A6030008A7030000ED00E059
:107C900038A8030044A803000400FA0510B5D0E991
:107CA0000243D1E90202A04272EB03032CBF012080
:107CB000002010BD08B50A4800F063FB094AD2E96C
:107CC0000031C018084BD3E9002341F10001904274
:107CD00071EB030303D210F1807041F1000108BD84
:107CE000782C0020B02D0020282E002037B5054626
:107CF0000C460A4801A901F004FB60B1057044601C
:107D000001A9064801F027FB18B1054800F03EFB29
:107D1000002003B030BD0420FBE700BF142E00207C
:107D2000782C0020294B73B51E7804461EB9002616
:107D3000304602B070BD0028F9D0FFF7BBFFD4E990
:107D400002239042994139D300230DF107008DF8A9
:107D5000073000F0BFF923692BB94FF0FF324FF025
:107D6000FF33C4E902239DF8070000F0D7F9D4E9F6
:107D70000530984700250DF107008DF8075000F0F9
:107D8000A9F92369C3B1D4E90212B2F1FF3F08BFD8
:107D9000B1F1FF3F05D05B1842F10002C4E90232A5
:107DA00035469DF8070000F0B9F9002DBFD008480E
:107DB000214602F03FFABBE71D46F2E7B3F1FF3F71
:107DC00008BFB2F1FF3FB2D0F1E700BFB82D0020ED
:107DD00060A8030013B5114B1149186801900823DE
:107DE0001048582201F058FA044698B90E4A0F4834
:107DF00001A900F0B7F9044660B90C48012100F070
:107E0000A3FA01230A4A0948194600F005FA094B6A
:107E100001221A70204602B010BD00BF5CA803000A
:107E2000BC2D0020142E00201D7F0200782C002085
:107E3000FFFF7F00B82D002030B56AB103684FF016
:107E4000FF344FF0FF355A614A1E5142C3E90245E3
:107E500051411961002030BD0720FCE7F7B5044609
:107E600000250DF1070017460E468DF8075000F06B
:107E700031F9D4E90223B3F1FF3F08BFB2F1FF3F6C
:107E800007D1FFF717FF301841F10001C4E90201E3
:107E900001259DF8070000F041F955B12369A7615C
:107EA00003B126612146002003B0BDE8F040FFF792
:107EB0001DBF284603B0F0BD37B5054600240DF1BF
:107EC00007008DF8074000F005F9D5E90223B3F16A
:107ED000FF3F08BFB2F1FF3F1FBF4FF0FF324FF02F
:107EE000FF33C5E9022301249DF8070000F016F9CD
:107EF00034B12946012003B0BDE83040FFF7F6BE9B
:107F0000204603B030BD401A20F07F40704700008B
:107F1000014800F036BA00BF782C00202DE9F74365
:107F2000064600F019FA40B1624AD2E9003113F175
:107F3000807341F10001C2E900310021304600F0B8
:107F40001AFA38B15C4C236823B12068FFF7EAFEC7
:107F5000002323600121304600F00DFA20B1FFF725
:107F6000A9FE564BC3E900015548534C01A901F045
:107F700002FA4FF0FF384FF0FF39A0B9DFF8448123
:107F80004D4D404602F06CF9002800F08580D0E9A4
:107F90000223B3F1FF3F08BFB2F1FF3F32D14046A9
:107FA00002F058F9EDE70378012B20D0022B08D11D
:107FB000444D284602F04EF9002877D0C0E90289E6
:107FC000F7E75BB94168D1E90223B3F1FF3F08BF8E
:107FD000B2F1FF3F02D03B4802F02CF901A938482A
:107FE00001F0F4F901A9364801F0C5F9C5E7416887
:107FF0002368994202D100232360EFE7314802F061
:1080000032F9EBE7296891B12968D1E9020182428E
:108010008B412FD22B68D3E90223B3F1FF3F08BF76
:10802000B2F1FF3F03D02968404602F003F9404611
:1080300002F010F9D0E902490746FFF73BFE201A8B
:1080400069EB0109012879F1000318DBB0F5350F60
:1080500013D3FFF75DFF1C4A02441C484FF49603FC
:10806000002100F0F9F890B92B6813B9304600F000
:10807000CBF82F6003B0BDE8F0832246EDE713484C
:10808000002100F06EF93846FFF74CFE01E00D28A4
:10809000F9D000232B6074E7074B1B68002BE9D154
:1080A000304603B0BDE8F04300F0B2B8084B0122FF
:1080B0001A7093E7B02D0020302E0020282E0020CB
:1080C000142E002060A80300FFFFB400782C0020CD
:1080D000B82D002070B5EFF3108672B60C4A946884
:1080E00001239CB993600B4B0B4DD3F880102940B2
:1080F0001160C3F88050D3F8841051604FF0FF3204
:10810000C3F88420047006B962B670BD0370FAE744
:10811000342E002000E100E0FC06FFBD084B9A6809
:1081200010B55AB150B9EFF3108172B6054A1C6808
:1081300014605C685460986001B962B610BD00BFFD
:10814000342E002000E100E0435882B03BB1002310
:10815000435043580193019B012002B070471846D9
:10816000FBE70000F8B5204B4479204E43F824206B
:108170001F4A204B06EBC4049B1A2279DB081B0420
:1081800032B143F002001C4904F026FA0820F8BD81
:1081900002680C88C2F8084590F904508A7804797E
:1081A0005201002DD2B219DB14494F1987F8002370
:1081B00001226D0904F01F0402FA04F441F825407D
:1081C000427906EBC201012446F832000C7143F0FB
:1081D00003000B4904F000FA0020D8E7094904F035
:1081E0000F040A55ECE700BF482E0020402E002067
:1081F000D0A6030018A703006CA8030000E100E06C
:108200008EA8030014ED00E0036801221A60704795
:10821000036801225A60704773B501F15005AD0043
:108220000068ADB24FF480348C400026C0F808439B
:10823000C0F84843465101F5A8714559019522F00F
:108240007F42019D40F82120C0F844430BB1C0F8A3
:10825000044302B070BD00002DE9F74F0D4622F037
:108260007F4402684FF4803705F150068F40804606
:10827000B60002EB8500C2F84873B6B2C2F80873C4
:10828000D2F8041599464FF0000BD0F84035C0F8ED
:10829000401542F806B05B1A9259009223F07F43D2
:1082A000012B009A4FEA850A0CD1264B4FF48060CF
:1082B00043F001039847D8F8003043F806B09B59C3
:1082C0000193019BD8F80010D1F80465C1F84473FC
:1082D000A31B23F07F43012B1CD11A4B05F5A87576
:1082E000013443F0010341F825404FF48060984782
:1082F000D8F80030D3F804359E4209D1D8F80030C0
:108300000020C3F84473C3F8047303B0BDE8F08FD2
:108310000D20FAE78A44C9F1FF13CAF84045D1F8A5
:108320000405221A013A22F07F4203F57F4393426B
:10833000EED3002AE2D10134CAF84045D1F8043521
:108340009842DAE7A0A8030003680222C3F8442396
:1083500009B1C3F80423704700684FF48271FFF736
:10836000F3BE4FF4803303FA01F10368C3F84813F6
:10837000C3F80813704750318900006889B2FFF7CD
:10838000E3BE0368D3F804057047000090F9043099
:10839000002B09DB5A09012103F01F0301FA03F343
:1083A0004032024941F82230704700BF00E100E04E
:1083B000024B034A1B681068184700BF482E002074
:1083C000402E002070B5064D0646002455F8043BAB
:1083D0000BB1304698470134042CF7D170BD00BF73
:1083E000582E00204388033300EB830399420BD3BC
:1083F00082884FF6FF739A4208D0038833B18068B1
:10840000431C584258417047022070470120704772
:10841000033080B240F2FE33984230B51FD8134B80
:108420001A783AB91C895D892C440444A4B2B4F585
:10843000806F0AD91A7DAAB99A8BDC8B2244024438
:1084400092B2B2F5806F0DD801220A801446142230
:1084500002FB04335A8910445881002030BD48F291
:108460000860FBE748F20660F8E700BF8C2E0020AA
:108470000B4A0C495388142000FB0311CB6833B915
:108480000420496810700122074801F063BB0749C6
:108490000523137002238B80012209680023F3E770
:1084A000702E00208C2E0020E02B0020542F002066
:1084B00007B5002305490093054A096805480823C4
:1084C00001F0AEFA03B05DF804FB00BF542F0020AA
:1084D000B4A80300E02B002007B500230146009359
:1084E000034A0448082301F09BFA03B05DF804FB3B
:1084F000ACA80300E02B002013B500230C4600932A
:108500000146084A0848042301F08AFA38B9074BA3
:10851000142101FB043101230B7402B010BD48F299
:108520000D60FAE7A8A80300E02B00208C2E0020A5
:1085300037B50A480A4B42689C8819685388032556
:10854000033305709BB2002000909B0001EB840177
:10855000044801F065FA03B030BD00BF702E002062
:10856000542F0020E02B002010B50146044800F0F5
:10857000C8FE1C22044600210BF040FC204610BD22
:10858000402F002068B10268084B9A4209D1406828
:10859000074B984207D00133984214BF03200120B3
:1085A0007047032070470020704700BFDEC0ADDE7B
:1085B000FE011EF12DE9F0410D460223154F2B80DF
:1085C000164600F5805100F108044FF001088C4276
:1085D0000ED2236801330BD02046FFF703FF48B1CA
:1085E0000EB186F80080022809D14FF480632B80F9
:1085F000BDE8F081A3683A68934200D93B602B88BC
:108600006288033313442B806388033304EB8304B1
:10861000DDE700BF842E002038B5144B14220D4630
:1086200002FB00302B68446804F58051A3B15C88DC
:10863000033403EB84048C4215D22368013312D037
:108640002046FFF7CFFE012808D002280BD00028D3
:10865000F1D12C60012038BD0834ECE76388033386
:1086600004EB8304E7E70020F5E700BF8C2E002031
:10867000426873B504460D466AB3234BD9688A42F3
:1086800029D31B699A4226D812F0030323D11F492C
:108690000089098988421ED12068916888421AD1D0
:1086A0001B4841688A4203D901F580518A420DD3A3
:1086B00081698A420CD901F580518A4208D201228F
:1086C0002A80B3FA83F0400902B070BD1A46F7E77A
:1086D00048F20963F5E700262E800196288801A953
:1086E000FFF79AFF30B92B8801339BB2012B2B8007
:1086F000F3D9E9E7019B226899689142EED1636062
:10870000024B1B892381DFE7E02B0020702E002025
:108710008C2E00202DE9F8431C461D4B1B78064685
:108720000F46154673B382B37CB3DFF86C804FF00D
:108730001409A388012B02D948F2096020E009FB43
:1087400003F318F803302BB9A0882146FFF764FF24
:1087500020B92060A3880133A380EAE723681EB113
:10876000998832889142EFD11FB119883A88914295
:10877000EAD19A68C5E90023064B1B892B810020AA
:10878000BDE8F88348F20160FAE748F20460F7E7D1
:10879000682E0020702E00208C2E002008B5074B7C
:1087A0005888191DFFF738FF18B1BDE80840FFF7DA
:1087B000BFBEBDE80840FFF75BBE00BF702E0020C3
:1087C0002DE9F0479F4FDFF8A08288B006463B684E
:1087D00023B99D48414600F0CEFD38603D682978B8
:1087E0004B1E052B07D8DFE813F02000740074003F
:1087F000060106015D0148F20E641422002103A85F
:108800000BF0FCFA41F61D539C4208BF00243B6864
:1088100004941A78023A042A00F2FC81DFE812F08C
:10882000DD01E9010B0213021A022EB1874B00226F
:108830005A604FF40644E0E72B79032B1CD8DFE89D
:1088400003F014022A35824A1378022B1AD0137DC2
:10885000022B4FF0010317D114214B43D1180020F4
:10886000D0544868FFF738FE03E001232B71FFF76F
:108870001FFE002800F0B980744B00225A6048F2B5
:108880000D64BAE70023E7E7704A137000235360D2
:1088900041F61D54B1E76F496F48002302222B7146
:1088A0008A800968012201F055F9E2E76B4B684CB8
:1088B0005B88684A14214B43E11800262E714D68ED
:1088C00010681560958848600D810221E6549180FA
:1088D000C8E7B5F814A0AA7DDFF87491AEB1022AFA
:1088E000EB8806D9142101FB0A91DA1C088902449D
:1088F0000A81142202FB0A99C3F57F43B9F80A20C2
:10890000FD331344A9F80A3093E7142303FB0A93B9
:1089100018895C6804EB8004062A69D8DFE802F055
:10892000274E36441D5A040041F61D54AA7DEB889B
:10893000022A06D9142101FB0A91DA1C0889024493
:108940000A81142202FB0A99C3F57F43B9F80A2071
:10895000FD331344A9F80A304FE741484149002349
:108960004360AB690360FFF783FE00285BD00223FE
:10897000AB75002300930423EA182146364801F022
:108980004FF8002831D048F20D64CFE72B69002B57
:1089900014BF03230123AB750023009305F10C02E0
:1089A000042304F10801E9E70123AB750022EB88F9
:1089B00000922A699B0004F10C01DFE703290CBF38
:1089C00005230623AB7500230093042305F1080259
:1089D000E118D3E70623AB75224B1988204B586862
:1089E000FFF78AFD04460028A0D108B0BDE8F08753
:1089F00048F20E649AE7002E7FF41BAF2B79012B0F
:108A000034D0022B3FF444AF002B7FF4F4AE0223AA
:108A10002B710DF10A01EB68039303A8CDE90466FD
:108A2000FFF726FE10B948F20964E6E60498BDF89F
:108A30000A108388EB8003882B81FFF75DFD0446D5
:108A400029E000BF882E0020402F0020682E002043
:108A50008C2E0020542F0020E02B0020702E0020B0
:108A60004C2E0020602F0020802E0020DFF8009286
:108A700003AA4B463146A81DFFF74CFE044670B9C9
:108A8000B9F804100498FFF737FD044648F209636B
:108A90009C423FF4FDAE002C7FF4AFAEA5E7C9E9E0
:108AA0000066F3E7002E7FF4C4AE6C4B1A7BBAB1BC
:108AB0001E731A78013A062A3FF69DAE01A151F8BD
:108AC00022F000BF6F8B0200958B0200B38B020077
:108AD000B98B0200F7870200BF8B0200D18B020026
:108AE0001A78072AE5D801A151F822F00D8B02006F
:108AF000B38A0200B38A0200338B0200478B020064
:108B00006B8B02006B8B02002F8B02001A89544979
:108B100001321A8100225A801A730A78B2FA82F25C
:108B200052099A720A7DB2FA82F25209DA7201226D
:108B300007E04C4958688A884088033202448A809A
:108B400002221A70B5E75C88454A4649142505FBA0
:108B500004220868546850608888108102200C60E4
:108B60008880002111740622EBE70722E9E79A7A50
:108B700032B9DA7A8AB900221A705A805A6087E6C6
:108B8000374900229A72CA68002AF2D1097C00296A
:108B9000EFD05A80FFF702FE51E70022DA72304A26
:108BA000116A0029E7D192F82420002AE3D001229B
:108BB000EFE7FFF7BDFC42E7FFF75AFC3FE75A88B3
:108BC000274B142101FB02335868FFF785FC36E779
:108BD00000225A60FFF76CFC31E701228DF80C206F
:108BE0001A89ADF818209A88DB68ADF81A20059329
:108BF00010E002228DF80C201A89ADF818209A880E
:108C0000ADF81A20DA689B7D05929A1F53425341B2
:108C10008DF81C3003A8FFF7D5FB0026414612480B
:108C20003E6000F0D3FB1148012100F089FC0028D0
:108C30007FF4CDADD9E603228DF80C20DA88ADF8AB
:108C400018201A89D0E704228DF80C20DB88ADF8B3
:108C50001830DFE705238DF80C30DBE7702E00209D
:108C60008C2E0020542F0020402F0020502F002059
:108C7000642F00204068FFF7A3BD000008B5054839
:108C8000012100F045FC18B9BDE80840FFF798BD88
:108C900008BD00BF502F00202DE9F3419846374B07
:108CA0001B7806460D46002B5CD000295DD0098854
:108CB0004FF6FF7399425BD06B88002B58D06B68DE
:108CC0009B0758D14AB92F890DF102013846FFF7A9
:108CD0009FFB30B102B0BDE8F08113885788ADF832
:108CE000023001A8FFF740FC044660B9BDF802203D
:108CF000234B142101FB023358890338C01B5881D0
:108D000048F20760E6E780F8008000238375BDF82D
:108D1000023083826B68036101211A4800F004FC71
:108D20002B882381B8F1030F6B88A38004BF042331
:108D3000A3754FF0000508BF3368E06008BFA3616A
:108D40001148E780658101A900F005FB36B1E368B1
:108D500033600E4B75601B89B5723381FFF78EFF50
:108D60000020B7E748F20160B4E748F20460B1E7D9
:108D700048F20360AEE748F20260ABE7682E0020DD
:108D80008C2E0020842E0020402F0020702E0020EA
:108D900008B5034607480268042A08D00168064A55
:108DA00042F82130012100F0BFFB002008BD48F24D
:108DB0000B60FBE75C2F0020582E00202DE9F04FC0
:108DC000DFF8208289B01422002103A80BF016F8E6
:108DD00098F8003003F0FF0200923BB103A8FFF7C0
:108DE000F1FA0027384609B0BDE8F08F08F1040019
:108DF00000F0B2FB0028F4D1009BDFF8ECA1D3F81F
:108E0000F83F5C1C08BF4FF010234FF0805208BFA2
:108E10005B6911695269581C08BF02FB01F3CAF86B
:108E200010306949A3F5405300225046CAF80C306F
:108E300000F0C4FD07460028D4D11C2363496448D0
:108E4000DFF8A8B18C2200F027FA0323B9463D468B
:108E500001933C46DAF80C604E443046FFF792FB33
:108E6000012867D0032817D000283DD159494FF079
:108E7000140C0CFB04FC01EB0C0201F80C00566016
:108E80000CF110020CF1080C0A4430466144FFF763
:108E900091FB45F002054AE03268531C02D04E4B6C
:108EA0009A4239D1321D06F580511068013033D114
:108EB00004329142F9D1DBF800203AB902220123B1
:108EC000CBF80060ABF8042000930BE0142262435F
:108ED000404B022099189854404A4E605480013407
:108EE0000881A4B245F0010509F58059B9F5405F44
:108EF000B0D1019B012B98BF0025EDB2022D03D00C
:108F0000062D36D0002D3ED1002388F8003048F2DF
:108F10000A67C8F8043065E7019B2E495A1E93B2D0
:108F20001422624388180193466003208854013458
:108F3000A4B2D9E7009B6BB1264B14226243991867
:108F400002209854DBF800204A60244A08815480AB
:108F50000134A4B200222249CBF800603046FFF76A
:108F600029FBBBF80420022A0CBF04220822154367
:108F7000BAE7012388F8003003A80023C8F80430BA
:108F8000FFF720FA2EE702A8FFF7EEFAC8B1012397
:108F9000013D03700A2D09D8DFE805F00608060830
:108FA000070807080F110F000023037102A90848E2
:108FB00000F0D1F9FFF762FE14E70323F5E702237F
:108FC000F3E748F207670DE7B0AA0300B42E0020CC
:108FD000402F00208C2E0020DEC0ADDE702E002041
:108FE000582F0020682E0020E02B0020542F002056
:108FF00073B50D460446C8B1C1B10DF10601FFF7C6
:1090000037FBB0B1BDF806300B486668142202FB8E
:10901000030001210C3000F087FA63682E600C33E6
:109020006B600123A372002002B070BD48F204609F
:10903000FAE748F20960F7E78C2E002013B50446E2
:10904000A8B10DF10601FFF713FB98B1BDF806209A
:109050000B4B142101FB0233DA6872B1A27A62B1C0
:10906000DA680020013ADA60A07202B010BD48F25E
:109070000460FAE748F20960F7E748F20560F4E7B0
:109080008C2E002002230022FFF706BE18B1032316
:109090000022FFF701BE48F204607047114B1B78B5
:1090A00013B50446ABB14FF6FF73984214D001A834
:1090B000FFF75AFA98B10523037001230371C480A6
:1090C00001A9094800F047F9FFF7D8FD002002B0D8
:1090D00010BD48F20160FAE748F20360F7E748F292
:1090E0000760F4E7682E0020402F00200F4B1B780C
:1090F00007B5A3B101A8FFF737FA98B106230370AB
:1091000001A90B4800F027F90A4B1A780AB101228D
:109110001A73FFF7B3FD002003B05DF804FB48F2BB
:109120000160F9E748F20760F6E700BF682E00200B
:10913000402F0020702E002007B5ADF80600ADF8D6
:1091400004100DF1060001A9FFF7E4FA03B05DF881
:1091500004FB07B51346ADF806000A4600200DF1E2
:109160000601FFF7D7FA03B05DF804FB07B5134615
:10917000ADF806000A460DF106000021FFF7CAFA15
:1091800003B05DF804FB20B119B103680B60002047
:10919000704748F2046070472DE9F84F3C4B1B784C
:1091A0000446002B6DD000286ED0DFF8E890122224
:1091B00000210AF023FE032323804FF0000A4F46CC
:1091C00014264FF00108D9F80410B9F80AB0B9F81C
:1091D00008500846FFF7D6F9032808BF238862889D
:1091E00004BF03F1FF33238006FB0A735D44DB6891
:1091F0001344638023899B446389A4F808B0ADB20B
:109200002B446381C5F58065A389ADB2AB4238BFFD
:10921000A58101F1080501F58051A94229D92B68E2
:10922000013326D02846FFF7DDF801280AD00228AE
:1092300015D00028F1D1A3880133A3800AE04FF0B4
:10924000010AC0E7E3880133E380E3896A880333D6
:109250001344E3816B88033305EB8305DDE7E38883
:1092600084F810804D1BE189013301EBA501E380F7
:10927000E18109F11409BAF1000FE0D00020BDE846
:10928000F88F48F20160FAE748F20460F7E700BFA0
:10929000682E00208C2E002010B561B1B2FBF3F4D3
:1092A00003FB1424A4B244B9C0E900148460828191
:1092B000C381204610BD0E20FCE70920FAE782B0EA
:1092C00050E8022FC188B2EB324F4FF0000317BFB6
:1092D00092B241EA014142EA014104E04268B2EB44
:1092E000324F08BF012340E80212002AE8D18DF86E
:1092F00007309DF80730002B0CBF1120002002B072
:10930000704737B550E8013F9DB2C4892544848930
:10931000A54228BF2D1B0489A54202BFBFF32F8F92
:10932000002207E0C5EA030540E80154002CE9D11A
:109330004FF001028DF803200193019A0A609DF815
:10934000031001F0FF0321B1006810FA82F003B0AE
:1093500030BD1846FBE70A884B889A4209D150E88D
:10936000012FC2EA024240E80123002BF7D101207D
:1093700070470020704737B550E8023F1FFAA3F549
:10938000C488A54202BFBFF32F8F00220DE0C4891D
:1093900025448489A54228BF2D1BC3EA054540E822
:1093A0000254002CE8D14FF001028DF80320019304
:1093B000019A0A609DF8031001F0FF0321B10068D3
:1093C00000EB124003B030BD1846FBE70A884B881B
:1093D0009A4209D150E8022FC2EA224240E8022311
:1093E000002BF7D1012070470020704701F01F02C9
:1093F0004B090121914000EB830000F065B84B0957
:1094000010B501F01F040121A14000EB830000F022
:109410004FF8E04000F0010010BD01F01F030122F1
:109420009A404B0900EB8300D14300F065B84B092B
:1094300001F01F0150F82300C84000F00100704700
:109440002DE9F0474F1E7F0980460E460137002563
:1094500058F8254008EB8509E44394FAA4F4B4FADB
:1094600084F44FEA451A202C06D10135AF42EFD8DB
:1094700034462046BDE8F0875444A642F5D921463B
:109480004046FFF7BCFF0028F3D0D9F80040E44382
:1094900094FAA4F4B4FA84F4E5E710B5034653E86B
:1094A000000F0A4643E8002494F0000FF7D110BDE6
:1094B00010B5034653E8000F40EA010243E80024D8
:1094C00094F0000FF6D110BD10B5034653E8002FFD
:1094D00042EA010043E8000494F0000FF6D110BD09
:1094E00010B5034653E8000F00EA010243E80024E8
:1094F00094F0000FF6D110BD10B5034653E8002FCD
:1095000002EA010043E8000494F0000FF6D110BD18
:1095100010B5034653E8000F00EB010243E80024B6
:1095200094F0000FF6D110BD10B5034653E8002F9C
:1095300002EB010043E8000494F0000FF6D110BDE7
:1095400010B5034653E8002FA2EB010043E80004E6
:1095500094F0000FF6D110BD0121FFF7A9BF012142
:10956000FFF7B2BF0021FFF7BBBF10B590B1D0E944
:10957000012301689B1ADBB20A60013BDBB2FF2BBF
:10958000026802D10020107110BD11684C1C1460DB
:109590000B70F2E70E20F7E737B5054600240DF112
:1095A00007008DF80740FEF795FD2A686B68116883
:1095B00099420ED9481E106011F8013CEC68298AC6
:1095C00001FB0344AB6811791B1ADBB2994238BF27
:1095D00013719DF80700FEF7A1FD204603B030BDD2
:1095E00037B5054600230DF107000C468DF807300E
:1095F000FEF770FD2A681368591C1160E968641A47
:10960000298AB4FBF1F41C709DF80700FEF786FD73
:1096100003B030BD826810B504462AB143690168C1
:10962000006998470023A36010BD0EB403B50399E9
:1096300021B104AB01AA019300F076F802B05DF805
:1096400004EB03B070470A2938B504460D4602D131
:109650000D21FFF7F8FFA3682268591CA160D554BB
:10966000D4E901329A4204D32046BDE83840FFF7DE
:10967000D1BF38BD2DE9F84F9846DDE90A431546BC
:1096800082460F460A464FF00109AA420FD2C14551
:1096900038BFC14613F0010B01D16CB9002401267B
:1096A000B8F1010F1BD908F1FF386E43F8E709F153
:1096B0000109B2FBF5F2E8E79B070ED5B8F1000F00
:1096C0000CBF30262026A145E9D2013C3146504648
:1096D000FFF7B9FF002CF6D1E0E72026F3E7B7FB50
:1096E000F6F39D42E1D9DFF83C80B7FBF6F3504634
:1096F00018F8031006FB1377FFF7A5FF3346AB42BC
:10970000B6FBF5F6F1D2BBF1000F02D00CB1A145CA
:1097100001D3BDE8F88F20215046013CFFF793FFAD
:10972000F4E700BFC5A803002DE9F74F054617462B
:109730008846002900F03E8118F8011B49B92B7BAF
:10974000002B00F03781284603B0BDE8F04FFFF74B
:1097500061BF252940F0B780002698F800302D2BF6
:10976000424608F1010823D0302B24D02B2B25D0E2
:1097700000242A2B02F1010123D13B681A1D1B682A
:109780003A601C440A4613782E2B26D101324FF042
:10979000000A104610F8011BA1F1300CBCF1090FB2
:1097A0001DD80A2303FB0A13A3F1300A0246F0E78F
:1097B00046F00106D1E746F00206CEE746F0040681
:1097C000CBE711F8013CA3F130000928DBD80A22CD
:1097D00002FB0434303C0A46CBE74FF0000A12F893
:1097E000011B01F0FB0068289046F8D0782909D8C1
:1097F0006F290CD8632962D022D8252963D0582933
:1098000000F0888098F80030002B95D197E77039E8
:109810000829F7D801A353F821F000BF8F9902005F
:10982000059802000598020025990200059802009B
:10983000039902000598020005980200159902009C
:10984000642901D06929DDD13A68D2F80090111D50
:1098500089EAE9723960A2EBE9724FF0010B092A3B
:1098600035DCD34538BFD3462CB1B9F1000F01DB4D
:10987000720700D5013CB30702D5BAF1000F03D03F
:10988000F00701D44CBB0024B9F1000F2DDAC9F167
:1098900000092D212846FFF7D6FE06F00302022A12
:1098A00004D1BAF1000F01D11CBB0024CDE9004660
:1098B00053460A2249462846FFF7DCFEA2E73B68EA
:1098C0001A1D19783A602846FFF7BDFE9AE70A2369
:1098D0000BF1010BB2FBF3F2C1E7A345D4D2202177
:1098E0002846013CFFF7AFFECCE77107D5D52B2109
:1098F000D0E7A345DAD230212846013CFFF7A3FE8A
:10990000D2E73968CDE900460A1D3A6053460A227B
:109910000968D0E739680A1D3A60CDE90046534628
:109920001022F5E73B681A1D3A6016F00106D3F8DD
:10993000009024D1B9F1000F03D048460AF0B3FAE1
:109940000646B4421DD809F1FF3919F8011F002954
:109950003FF458AF2846FFF776FEF6E72846013673
:10996000FFF771FE19F806100029F7D1A642BFF4DF
:1099700049AF20212846013CFFF765FEF6E70026A7
:10998000F0E720212846013CFFF75DFED9E73B6860
:109990001A1D3A60302128461C68FFF754FE7821D2
:1099A0002846FFF750FE00220823CDE90032214669
:1099B000102280E703B0BDE8F08F00BF13B50B465F
:1099C000114680B9104B1148114AC01A0E23C00825
:1099D0000093104B0004104940F0010002F013FE08
:1099E0000E2002B010BD4BB9074B08480B4AC01AF5
:1099F000C0080E2300930004064BECE703601B68CD
:109A000002B0BDE810401847D0A6030040A70300ED
:109A1000D5A8030091AA0300DAA8030009A903004E
:109A20002DE9F743DDF8288088B93E4B3E483F4A90
:109A3000C01AC0080E243E4B009400043D4940F07B
:109A4000010002F0E0FD204603B0BDE8F0834AB912
:109A5000344B3548384AC01AC0080E24344B0094A1
:109A60000004EBE7D0F800E0BEF1000F09D12D4B68
:109A70002D48324AC01AC00808242D4B0094000417
:109A8000DCE74BB9274B28482D4AC01AC0080924E7
:109A9000274B00940004D1E74568D5F80490B3FB48
:109AA000F9F509FB15354DB11E4B1F48254AC01A63
:109AB000C00809241E4B00940004BFE78D0709D09D
:109AC000184B1948204AC01AC0081024184B00949B
:109AD0000004B3E712F0030F09D0124B12481B4ADF
:109AE000C01AC0081024124B00940004A6E7C568F1
:109AF000A9420DD34D1EEC180569AC4208D8CDF82B
:109B00002880DEF80C40A44603B0BDE8F04360476F
:109B1000044B05480E4AC01AC0081024044B009498
:109B200000048BE7D0A6030040A70300D5A80300DC
:109B30007EAA0300DAA8030057A9030003A90300C3
:109B400016A903005DA9030087A903009FA90300CC
:109B5000C2A90300F7B580B92A4B2B482B4AC01A7B
:109B6000C0080E242A4B009400042A4940F001004A
:109B700002F049FD204603B0F0BDD0F800C0BCF1B2
:109B8000000F09D11F4B2048234AC01AC0080824DF
:109B90001F4B00940004E8E74AB91A4B1A481F4AC1
:109BA000C01AC00809241A4B00940004DDE7456878
:109BB000D5F800E00EF1FF350D4209D0114B1248E7
:109BC000174AC01AC0081024114B00940004CCE7B7
:109BD000C568A9420CD34D1E0EFB02540569AC4268
:109BE00006D8DCF81040A44603B0BDE8F04060475A
:109BF000044B05480B4AC01AC0081024044B0094BB
:109C00000004B2E7D0A6030040A70300D5A80300D4
:109C10006BAA0300DAA8030003A9030016A9030036
:109C2000E9A903000FAA030029DF704728DF704766
:109C300070B503689E6886B004460D466EB1142266
:109C4000002168460AF0DAF8A368059323790195A4
:109C50002BB1012B0DD06846B04706B070BD012373
:109C60008DF8003023690293E368039363690493DA
:109C7000F1E702238DF80030E3681B030293F5E758
:109C80000846704700207047024B187A003818BF0A
:109C90000120704708300020034B187A0122B0FAE7
:109CA00080F05A74400970470830002008B510460B
:109CB0001A460AF07AF8002008BD000008B5142200
:109CC000002104480AF09AF80348FFF7F8FA002048
:109CD00008BD00BF08300020F82F002010B5094C47
:109CE000094B43602046FFF737FC40B909F06AF999
:109CF000064920741C2306488C22FFF7CDFA002069
:109D000010BD00BF08300020A4AA03006C2F002063
:109D1000F82F002038B5234D234C2B7A3BB923492B
:109D20002348FFF728FB206008B9686038BD02238C
:109D300024682B72237973B1012B24D02046032190
:109D4000FFF776FF00232B726B6018491848BDE8B7
:109D50003840FFF73BBBD4E90523D21AB2F5805F48
:109D6000D4E9031028BF4FF480529208012A38BF6B
:109D7000012219441844FFF757FF50B11128DDD1D3
:109D800001232B72D2E7D4E903031844FFF74EFFF7
:109D9000F3E72B7C002BC9D1BDE83840022000F04E
:109DA00009B800BF08300020203000201C300020FF
:109DB000F82F002038B5234C237A002B41D0022BFA
:109DC00009D1032830D0204B00221B68E2601A79A9
:109DD0003AB1012A22D0637C7BBBBDE83840FFF753
:109DE00099BFD3E905128D1AB5F5805F94BF52195A
:109DF00002F580529A619142EDD102284FF00003A2
:109E000008BF19462372104B18BF0D211868FFF7C1
:109E10000FFF0E490E48FFF7D9FADCE71A69013245
:109E20001A615B699A42E7E7E3680133082B01D8BE
:109E3000E360D0E70023E360DFE7BDE8384009F0E6
:109E4000B1B838BD08300020203000201C30002080
:109E5000F82F0020831E012B01D8FFF7ABBF7047FE
:109E600000F0FD03012B08D1044B00225A74421E5E
:109E7000504250411874FFF74DBF70470830002022
:109E800010B5064C201DFFF767FB28B9637C1BB992
:109E9000BDE81040FFF73EBF10BD00BF08300020F6
:109EA0002DE9F34180460D46104801A916461F468C
:109EB000FFF727FA0446B0B118220021043009F058
:109EC0009DFF2D0B0123237101A90848C4F80080D0
:109ED000A760E5606661FFF73EFAFFF7D1FF00205B
:109EE00002B0BDE8F0810420FAE700BFF82F00209F
:109EF0002DE9F34180460F460F4801A916461D463D
:109F0000FFF7FFF90446A8B118220021043009F038
:109F100075FF089BA36001A9C4E903670648C4F85C
:109F200000806561FFF717FAFFF7AAFF002002B073
:109F3000BDE8F0810420FAE7F82F00202DE9F84F62
:109F4000B0F806A04579D2F800B09DF828900AFB39
:109F500005F5043D88460BEB0301A94203F1040417
:109F600088BFA5EB030BB4FBFAF607460AFB1644C1
:109F7000C2F800B04EB9AAEB04055D4528BF5D46A6
:109F8000BBF1000F04D1BDE8F88F3F68013EF1E757
:109F9000043408EB06003C442A46B9F1000F0DD00A
:109FA0002146ABEB050B09F000FFDA452E443F6874
:109FB00055464FF0000428BF5D46E1E701462046C4
:109FC000EFE7FFF7D2BAF8B546790146721E0546AB
:109FD000002393422D6803D30024A64202D8F8BD83
:109FE0000133F6E70F682846FFF7FAFA01343946DD
:109FF000F3E72DE9F843068ACD1C0746FFF7CCFAB4
:10A00000043E35440446B5FBF6F5F0B14FF48073D9
:10A01000EDB28380C680013D076081464FF00008A5
:10A02000A84512D23846FFF7B7FA064648B1637919
:10A030000133637108F10108C9F800000760814627
:10A04000EEE72046FFF7BFFF34462046BDE8F88321
:10A0500001210430FFF768BA10B50121044604302D
:10A06000FFF76EFAC0B220B92046BDE81040FFF7F6
:10A07000AABF10BD1FB503920022009203AAFFF7EA
:10A080005DFF05B05DF804FB1FB50392012200924D
:10A0900003AAFFF753FF05B05DF804FB41DF7047EB
:10A0A000064B10B500241C70054B1C60BFF35F8F7E
:10A0B0000449054800F0A8F8204610BD2C300020C7
:10A0C00030300020DCAA03002430002007B5002334
:10A0D0000DF107008DF80730FDF7FCFFF1EE103AA7
:10A0E00023F09F03E1EE103ABFF35F8F0A4B40224B
:10A0F000C3F884219DF80700FEF710F808F062FF0E
:10A1000020B103B05DF804EBFFF7C8BF20BF40BF2C
:10A1100020BF03B05DF804FB00E100E002681368B3
:10A120005268934291BFD01A80680130801888BF6E
:10A13000C01A7047036881681A685B688B4234BF35
:10A1400001330023D31A58425841704773B5002396
:10A1500004460DF107000D468DF80730FDF7BAFFF4
:10A160002046FFF7E7FF10B1237C002B3BD123688B
:10A17000A1685E685A688A4234BF013200225A6080
:10A1800028B11A688A4234BF013200221A60E2689C
:10A190006368511E072920D8DFE801F004101F145E
:10A1A0001F1F1F182A789A552046FFF7B7FF23680C
:10A1B0009A68824200D29860002415E02A8823F829
:10A1C0001620F1E72A6843F82620EDE7D5E90001DB
:10A1D00003EBC603C3E90001E6E7294602FB0630AC
:10A1E00009F0E3FDE0E704249DF80700FDF796FF82
:10A1F000204602B070BD836800225A60C3E9042281
:10A200009A60DA601A6070470B684A68436093424C
:10A2100008BF0023016008BF43607047436843B133
:10A220000268916852680B449342436004BF002364
:10A230004360704770B5446806460D46206818B103
:10A24000B3682946984718B923682B60256070BD0C
:10A250002468F3E74368186808B102681A60704719
:10A260004368186870474368186800B970478842A7
:10A2700003D102681A600120704703460068F4E7C2
:10A2800010B50D49A1F59472914201D800200FE05C
:10A290008C1AE30F03EBE4035B1002EBC30452F8E8
:10A2A0003330834205D802D204F10802ECE760683B
:10A2B00010BD2146E8E700BFE8AF030008B5FFF78F
:10A2C000DFFF024B002808BF184608BDABAE0300F5
:10A2D00038B5074C051E04F1080318BF1C46236857
:10A2E0002BB11A6822605B6828469847F7E738BDAB
:10A2F0003C30002020B9054B01225A70FFF7E8BF1F
:10A30000012802D1014A9070F8E7704734300020EC
:10A3100020B9034B01225A70FFF7DABF704700BF24
:10A320003430002038B50E4C2378B3B90D48636043
:10A33000A3602361E36000F035F9054608F042FEB2
:10A3400008B900F03BF901232370074BD3F8003420
:10A350000BB10123A370284638BD8525F5E700BF62
:10A3600034300020F5A202000000014037B50D4C4A
:10A3700000230DF107008DF80730FDF7ABFEE36811
:10A38000013BE360E36833B9074BD3F8005415B9D8
:10A3900000F026F9A5709DF80700FDF7BFFE03B099
:10A3A00030BD00BF3430002000000140012813B54B
:10A3B0000CD0032820D038B9134B0122C3F88020D9
:10A3C000BFF34F8FBFF36F8F02B010BD0F4C002350
:10A3D0000DF107008DF80730FDF77CFE23780BB9EF
:10A3E000FFF7A0FFE3689DF807000133E360012356
:10A3F000A370FDF793FEE7E700F0E0F802B0BDE8D8
:10A400001040FFF7B3BF00BF00E100E03430002090
:10A410001FB500238DF807000DF10F008DF80F30E8
:10A42000FDF758FE08F0CEFD50B909480DF10701BF
:10A43000FFF78CFE0648FFF77DFE08B100F0A4FB95
:10A440009DF80F00FDF76AFE05B05DF804FB00BF44
:10A4500070A6030007B520B103280DD003B05DF846
:10A4600004FB104B1B78012BF8D100F08DFB03B0DF
:10A470005DF804EB00F090BB00230DF107008DF8B0
:10A480000730FDF727FE07480378012B05D1064961
:10A49000013000F039FB00F065FB9DF80700FDF787
:10A4A0003DFEDBE79830002011A402001FB50378C1
:10A4B0008DF800304368019383688DF80830C368D5
:10A4C000054A0393054B684653F8213052F8211092
:10A4D000984705B05DF804FB9C300020A4300020B4
:10A4E0001FB503788DF800304368019383688DF8B9
:10A4F0000830C368054A0393054B684653F821307A
:10A5000052F82110984705B05DF804FB9C300020FC
:10A51000A4300020F0B5194B90F800C0DFF86CE0D3
:10A5200043F82C20164B16460A6943F82C204B7F23
:10A530000EF80C300C4607460FCC89B06D460FC59F
:10A5400094E80F0085E80F003B78CDF810C01EF8A6
:10A5500003304BB1002E0B4A694608BF3246381D06
:10A5600000F070FE09B0F0BD002E074A694608BF32
:10A57000324607F10C0000F029FCF3E7A43000207C
:10A580009C300020ADA40200E1A40200AC30002009
:10A5900000F18040002382B0036003680193019BB7
:10A5A00002B07047044A137923B9012110609180E9
:10A5B0001846704785207047B0300020074B1A6856
:10A5C000D20704D4C02283F8002301221A604FF07E
:10A5D00080430122C3F81825704700BF00E100E066
:10A5E0004FF0804208B50223C2F808334FF482705E
:10A5F000FFF7CEFF0123D360D2F81834DB03FBD47E
:10A6000008BD00004FF0804110B5D1F8003163B1B2
:10A610004FF48070FFF7BCFF0D4B58790122C1F851
:10A62000082310B95A711B6898474FF08042D2F83E
:10A63000043163B14FF48270FFF7AAFF0223C2F81E
:10A640000833034BBDE810401B680120184710BDBC
:10A65000B030002000F1804000F5C040002382B0FF
:10A66000036003680193019B02B0704703681F2BCE
:10A6700083BF03F01F03036001484FF0A040704701
:10A680000003005007B5019001A8FFF7EFFF019B01
:10A6900000EB8300D0F8003723F44033C0F80037D4
:10A6A000D0F8003743EA0141C0F8001703B05DF865
:10A6B00004FB0000054B4FF0FF32072843F8202031
:10A6C00084BFC01880F85820704700BFB830002001
:10A6D00038B51D4991F86A30A3BB4FF6FF70FF24CF
:10A6E0005A09012A0CBF02464FF0FF3203F01F0542
:10A6F000EA40D20748BFCA1803F1010348BF82F8F5
:10A700003040302BECD10024E0B20134FFF7D2FF0F
:10A710000C2CF9D10D4B00224A669A800C4BC020BC
:10A7200083F80603402018604FF4BE70FFF792FFD5
:10A73000084B4FF00040C3F80403012381F86A304E
:10A74000104638BD0820FCE7B83000201C3100203E
:10A7500000E100E000600040034B93F86A0000381D
:10A7600018BF0120704700BFB8300020F7B53D4F3B
:10A770003B18044693F93030002B71DA8B78C3F321
:10A780004003002B0BBF082500250C200820854224
:10A7900002D1042003B0F0BD57F82560013647D13F
:10A7A00038196EB247F8252080F8306013B97B194C
:10A7B00083F858408B785A071AD4D8073AD501A89D
:10A7C0000194FFF753FF019B00EB8300D0F80037A3
:10A7D00023F00203C0F800372348E20804F0070C16
:10A7E000012303FA0CF310F802C043EA0C0383546C
:10A7F00088780B7810F0020028D0AD0005F1804574
:10A8000005F5C0452402D5F8102522F44F3222F474
:10A810004072C5F810251B04D5F8102504F47C54AB
:10A8200003F440331C431443C5F810450020B1E73E
:10A830000135ACE701A84A780194FFF717FF019BA7
:10A8400003F5E073920040F82320C5E7083E47FA7D
:10A8500086F797F8604044EA831387F8603099E7F9
:10A86000082097E7B83000201C31002073B5244D34
:10A870002E18044696F93020072A1DDD083A45FABD
:10A8800082F595F860309B09032B10D1019001A847
:10A89000FFF7ECFE019BD0F81015D94001F0010143
:10A8A0000231204602B0BDE87040FFF7EBBE012B3D
:10A8B0000CBF02210321F4E7D3B2072B1DD893006C
:10A8C00003F1804303F5C043D3F8100540F00100C5
:10A8D000C3F8100502F1400040B2800080B2FFF7DB
:10A8E000B9FE51B196F9303055F823302BB1012320
:10A8F00003FA02F2034BC3F8042302B070BD00BF99
:10A90000B83000200060004007B5019001A8FFF7B3
:10A91000ADFE019BD0F81005D84000F0010003B057
:10A920005DF804FB2DE9FF470024CDE90244584DB2
:10A930004FF48072012102F1804303F5C04390B2CD
:10A940001B68012B06D1D5F804330B4202D0FFF768
:10A9500081FE0C430432B2F5907F4FEA4101EAD107
:10A960004B4BD3F87C31012B11D14FF4BE70FFF764
:10A9700071FE4FF0A04344F00044D3F8202502922A
:10A98000C3F82025D3F820280392C3F82028E3B287
:10A99000D3B1404F00250126344210D0AB0003F163
:10A9A000804303F5C043D3F81005D3F8101557F8CA
:10A9B000253023B1C1F30141C0F30520984701358B
:10A9C000082D4FEA4606E7D1002C59DA314D324CBA
:10A9D000324E4FF00008012716F9013B5A1C3CD0BB
:10A9E000C3F3C201103169445FFA83F911F8081CFE
:10A9F00003F03F0203F0070307FA03F319422CD0D8
:10AA000001A80192FFF732FE019B03F5E07350F8B5
:10AA10002330C3F3014ABAF1020F0CBF0321022114
:10AA20001046FFF72FFE01A80192FFF71FFE019BC2
:10AA300007FA03F3C0F82035AB1893F9303055F816
:10AA4000233053B14FEA9911032904D0BAF1020F10
:10AA500019D1012901D11046984708F10108B8F130
:10AA6000040FB9D14FF0A043D3F820250292C3F8C8
:10AA70002025D4F820350393C4F820351343A7D1FB
:10AA800004B0BDE8F087BAF1030FE6D10229E1E78F
:10AA900000600040B8300020000300501831002052
:10AAA000014B1B68184700BF243100200E4B984211
:10AAB00037B50C4602D0002003B030BD00230DF1A5
:10AAC00007008DF80730FDF705FB084B1D7915B918
:10AAD00001221C601A719DF80700FDF71FFB002D75
:10AAE000E9D01120E8E700BF002000402431002019
:10AAF000034B984201BF034B00221A601A71704742
:10AB0000002000402431002010B5124C2378FBB9FE
:10AB1000114B1960037813F0010F104B1EBFD3F8CF
:10AB2000042542F00102C3F80425D3F8002222F0E4
:10AB30000102C3F800224378094A5B01DBB282F8C4
:10AB40000D334FF40053136001232370002010BD18
:10AB50008520FCE7303100202C31002000D000405F
:10AB600000E100E0074B0022C3F8002182B0D3F8D7
:10AB700000210192019A0122C3F804231A6002B055
:10AB8000704700BF00D00040024B0122C3F80823E9
:10AB90005A60704700D00040084B0122C3F80823D8
:10ABA0005A60074B4FF40052C3F88020BFF34F8F19
:10ABB000BFF36F8F034B00221A70704700D0004024
:10ABC00000E100E030310020074B0022C3F80021F3
:10ABD00082B0D3F800210192019AD3F80805034B03
:10ABE0001B68C0B202B0184700D000402C310020D2
:10ABF0000023435082B043580193019B02B0704739
:10AC00000A4610B54FF48E71FFF7F2FF136A916890
:10AC1000C95C136A01331362C0F81C1510BD8B693F
:10AC20000A4610B54FF4847123B9FFF7E1FFD0F85D
:10AC3000183510BDFFF7DCFF536AD168D0F818054E
:10AC4000C854536A01335362F3E700001FB5012370
:10AC50008DF80030044BCDE90110D3E900126846AD
:10AC6000904705B05DF804FB3431002030B54D4D00
:10AC7000D5F804339A0585B051D5D5F82431002B89
:10AC80004DD04FF492712846FFF7B2FF4FF4017395
:10AC9000C5F80833444B93F829200AB901226A60A9
:10ACA000404902228DF80020D1F88024C1F8802488
:10ACB00003929A690292DA6801920022C3E906229D
:10ACC0006846D3E9001290473648D0F81C315BB192
:10ACD000354A5169136A99424DD992F82830002BB0
:10ACE00049D11146FFF78CFF2E48D0F84431002B94
:10ACF00056D04FF4A271FFF77BFF2B4B93F829201E
:10AD00000AB1012202609A69002A49D0586AD968BA
:10AD100000229A6105B0BDE83040FFF797BFD5F833
:10AD200004335B07D0D5D5F80831002BCCD01E4CAE
:10AD30001C482146FFF773FF636AA2699A42C3D198
:10AD4000E369E1684BB1A3612369E3600023606AB2
:10AD5000E3616362FFF77AFFB6E794F829300BB935
:10AD600001236B600F4B4FF40172C3F808230023DB
:10AD7000606AA361EEE70B484FF48E71FFF738FF6E
:10AD80005369002BB0D051690291002391688DF86E
:10AD90000030019153616846D2E900139847A3E758
:10ADA00005B030BD00200040343100201F2886BF90
:10ADB00000F01F00044B4FF0A04300F5E0700222AA
:10ADC00043F82020704700BF000300502DE9F843EE
:10ADD000604D90F804802C2303FB0853064693F83B
:10ADE0002A300C469146002B40F0AF805A4900684B
:10ADF000FFF75CFE0746002840F0A9802268531C3C
:10AE000010D01F2A87BF554902F01F0313464FF089
:10AE1000A0410120984003F5E073C1F80805032024
:10AE200041F823006168481C0DD01F298BBF01F039
:10AE30001F030B4649484FF0A04003F5E0734FF065
:10AE4000000C40F823C03068A369C0F8243594F89A
:10AE500014C0637DBCF1010F4CEA0303C0F86C35EC
:10AE6000C0F81415C0F80C252BD1A368591C0DD0BF
:10AE70001F2B8BBF03F01F021A4638494FF0A04129
:10AE800002F5E0724FF0000C41F822C0E1684A1C64
:10AE900013D01F2987BF314A01F01F0C8C464FF099
:10AEA000A0424FF0010E0EFA0CFE0CF5E07CC2F849
:10AEB00008E54FF0030E42F82CE0C0F80815C0F882
:10AEC00010352C2202FB08F2AB18C3F8049023695A
:10AED000AB50B9F1000F20D04FF48E71247FFFF7F3
:10AEE00087FE4FF4A2713068FFF782FE32681C4B78
:10AEF000C2F80433130B42F307326101002AC9B2CE
:10AF00001EDB1848841884F800130121520903F04D
:10AF10001F0301FA03F340F8223033680422C3F818
:10AF200000252C2303FB08530022C3E9062283F8E3
:10AF300029205A61012283F82A203846BDE8F88387
:10AF4000094A03F00F03D154E7E70827F5E7112773
:10AF5000F3E700BF343100206DAC02000003005065
:10AF60008000020000E100E014ED00E02DE9F04176
:10AF700003680579284C0022C3F800252C2202FB27
:10AF8000054201465268A2B1244AC3F808231A0BAD
:10AF900043F30733002B0CDB02F01F005B09012297
:10AFA000824020331E4840F82320BFF34F8FBFF369
:10AFB0006F8F0B68D3F80C05D3F81485D3F80865A8
:10AFC000D3F810754FF0FF329042C3F81425C3F840
:10AFD0000C25C3F80825C3F8102501D0FFF7E6FEBD
:10AFE000B8F1FF3F02D04046FFF7E0FE7A1C02D0E6
:10AFF0003846FFF7DBFE731C02D03046FFF7D6FE63
:10B000000868FFF775FD2C2303FB0544002384F833
:10B010002A306360BDE8F0813431002084020200F0
:10B0200000E100E00279044B2C2101FB0233586956
:10B03000003818BF01207047343100202DE9F84F47
:10B04000064690F8048089469246FFF7EBFF0446D7
:10B0500000283CD1204F2C2508FB057B4FF48E7136
:10B06000CBF814A0CBF80890CBF820008BF8280080
:10B070003068FFF7BDFD3068012383605946FFF754
:10B08000BFFDDBF804305D461BBB3068DBF81440C5
:10B090002B6A9C4211D83368D3F81C21002AFBD0BC
:10B0A0000122DA6000202C2303FB087700237B6158
:10B0B000BDE8F88F95F828303BB9D0F81C31002B4B
:10B0C000F8D05946FFF79CFDE2E70F20EBE711208F
:10B0D000EEE72046ECE700BF343100200023435068
:10B0E00082B043580193019B02B070471FB5012302
:10B0F0008DF80030044BCDE90110D3E90012684609
:10B10000904705B05DF804FB603100207FB5434AED
:10B11000D2F82461002E60D010464FF49271FFF7F0
:10B12000DDFF02238DF80030D2F88034C2F880347D
:10B130000393D2F83C350293394BDA68019200222E
:10B14000C3E906226846D3E9001290473348D0F895
:10B15000443173B14FF4A271FFF7C0FF304B9A69CD
:10B160003AB10022C3E90622D968D0F83C05FFF7BE
:10B17000BDFF2A48D0F82031ABB14FF49071FFF7F2
:10B18000ADFF0123C360264B5A6962B1D0F84C155C
:10B190000291002299688DF8002001915A61684659
:10B1A000D3E9001290471D48D0F858319BB14FF4B5
:10B1B000AC71FFF793FF1A4B5A6962B1D0F84C1586
:10B1C0000291002299688DF8002001915A61684629
:10B1D000D3E90012904704B070BDD2F81031002BB3
:10B1E000B4D04FF488711046FFF778FF0C4BD2F8BB
:10B1F0003C0599698842A9D1DC69D96864B1D2F863
:10B20000005225F02005C2F800521A699C61DA60EC
:10B21000DE61FFF76BFF99E79C61FAE700200040D1
:10B22000603100201F2886BF00F01F00044B4FF044
:10B23000A04300F5E070022243F82020704700BFD1
:10B24000000300502DE9F843664E90F80480242353
:10B2500003FB0863044693F820300D469146002B0B
:10B2600040F0BC8060490068FFF720FC07460028DA
:10B2700040F0B68029684B1C10D01F2987BF5B4A5D
:10B2800001F01F030B464FF0A0420120984003F548
:10B29000E073C2F80805032042F823006A68501CD6
:10B2A0000DD01F2A8BBF02F01F0313464F484FF0EB
:10B2B000A04003F5E0734FF0000C40F823C0206875
:10B2C000AB69C0F8243595F814C06B7DBCF1010F53
:10B2D0004CEA0303C0F86C35C0F80C15C0F814250F
:10B2E0002BD1AB68591C0DD01F2B8BBF03F01F0255
:10B2F0001A463E494FF0A04102F5E0724FF0000CB3
:10B3000041F822C0E9684A1C13D01F2987BF374A79
:10B3100001F01F0C8C464FF0A0424FF0010E0EFAC8
:10B320000CFE0CF5E07CC2F808E54FF0030E42F885
:10B330002CE0C0F80815C0F81035242202FB08F2F2
:10B34000B318C3F804902B69B350B9F1000F2FD094
:10B350004FF488712A7FFFF7C1FE20684FF4907187
:10B36000FFF7BCFE20684FF49271FFF7B7FE20682C
:10B370004FF4A271FFF7B2FE4FF4AC712068FFF7F3
:10B38000ADFE23681A49C3F80413190B43F30733BE
:10B390005201002BD2B21CDB1648C51885F80023D9
:10B3A00001225B0901F01F0102FA01F140F82310AC
:10B3B00023680822C3F80025242303FB0866002322
:10B3C000C6E906337361012386F820303846BDE8AC
:10B3D000F883094B01F00F015A54E9E70827F5E714
:10B3E0001127F3E7603100200DB102000003005087
:10B3F0001003420000E100E014ED00E02DE9F0410F
:10B400003D4D06790468242303FB065302465B681E
:10B41000ABB13A4BC4F8083344F30733002B4FEA7F
:10B4200014310CDB01F01F005B0901218140203346
:10B43000334840F82310BFF34F8FBFF36F8FD4F81A
:10B44000003223F02003C4F80032242303FB065308
:10B450009B6933B14FF4A2712046FFF73FFE0123F1
:10B4600063604FF4AC712046FFF738FE0123E360C0
:10B47000242303FB0653D4F858110029FBD0996903
:10B4800019B1D4F844110029F5D00023C4F80035CF
:10B490001368D3F80C05D3F81485D3F80815D3F83E
:10B4A00010754FF0FF329042C3F80C25C3F81425F5
:10B4B000C3F80825C3F8102501D0FFF7B3FEB8F193
:10B4C000FF3F02D04046FFF7ADFE7A1C02D038465F
:10B4D000FFF7A8FE4B1C02D00846FFF7A3FE20464C
:10B4E000FFF706FB242303FB0655002385F82030D5
:10B4F0006B60BDE8F08100BF6031002010034200A6
:10B5000000E100E00279044B242101FB0233586979
:10B51000003818BF012070476031002001F06043FF
:10B52000B3F1005F2DE9F0470646884692463BD1CD
:10B5300090F80490FFF7E6FF0446002836D11D4F2F
:10B540003068242505FB09754FF49071C5F814A0E7
:10B55000C5F80880FFF7C2FD4FF4AC713068FFF703
:10B56000BDFD33686A69A968C3F84415C3F8482566
:10B5700001229A606A68DAB9D3F82021D3F8580119
:10B580001AB90028F8D00F2007E00028FBD10122CB
:10B59000DA60D3F85821002AFBD0242303FB097773
:10B5A00000237B61BDE8F0871020FBE71120F9E75D
:10B5B0002046F7E7603100201FB503788DF8003092
:10B5C0008388ADF8043083688DF80630C3688DF841
:10B5D0000730036902934369054A0393054B6846A4
:10B5E00053F8213052F82110984705B05DF804FB5C
:10B5F000843100208C310020024B4FF4807043F0E6
:10B600000103184720B003001F2886BF054A00F039
:10B610001F004FF0A042012303FA00F0C2F8080512
:10B62000704700BF000300502DE9F047154690F821
:10B630000080394A42F82850384A42F828304B7B7B
:10B6400006460C46A3B30868DFF8D8904FF0A04137
:10B6500000F5E07340F20C6241F82320636803F5C3
:10B66000E073002741F82320FFF7CEFF6068FFF763
:10B67000CBFF236803F5E07340F20D6241F823200D
:10B68000636803F5E0734FF0010A41F82320FFF7E8
:10B69000B3FF63681F2B8ABF4A464FF0A04203F0F6
:10B6A0001F03D2F8102522FA03F3DB070BD507BBE3
:10B6B000002D1B4A434608BF2A462146301DBDE8DF
:10B6C000F04700F023BA23681F2B86BF03F01F0347
:10B6D0004A464FF0A0420AFA03F3C2F80C35FFF7CE
:10B6E0008BFF01372068FFF78FFFFFF785FF092FDA
:10B6F000CFD163681F2B86BF0A4903F01F034FF0A9
:10B70000A041012202FA03F3C1F80C35FFF774FFE0
:10B710006068FFF779FFCBE78C310020843100208F
:10B72000B9B50200000300500023435082B04358D3
:10B730000193019B02B070478B6A4A6B9A4210B525
:10B740004FF0010305D2496A8A5CC0F81C251A46ED
:10B7500004E091F82C201AB1C3610022104610BDFC
:10B760000C6A640603D5C36181F82D30F6E74361A6
:10B77000EDE770B5D0F8046105460C4626B14FF4EC
:10B780008271FFF7D1FF012694F82F2022B34FF4E6
:10B7900092712846FFF7C8FF4FF48E71FFF7C4FF80
:10B7A0004FF48471FFF7C0FF002E69D094F82F206A
:10B7B000002384F82D3092BBA36A616B99421CBFB1
:10B7C0001646052386F001061CBFC5F80025C5F8FE
:10B7D000003584F82F6023E0D5F824314BB14FF4C5
:10B7E00092712846FFF7A0FF01236B6184F82F3088
:10B7F000DAE7D5F81C31ABB14FF48E712846FFF76C
:10B8000093FF636B01336363D5F8243113B14FF4B5
:10B810009271E7E72146FFF78FFF0028C4D100228D
:10B82000104670BDD5F80831002BBDD04FF484719F
:10B830002846FFF779FFD5F82431002BE7D1636B59
:10B84000A16A8B42B0D2616AD5F81805C854636BFF
:10B85000A16A0133481E8342636308D1206A40060F
:10B8600010D40223C5F8003201232B629CE78B42DF
:10B87000FAD1236A5B0697D5022384F82D30CFE7EF
:10B880000122CDE78B42EFD1F6E7000037B5314B0F
:10B8900001930D464FF48271FFF746FF4FF492710A
:10B8A000FFF742FF4FF48E71FFF73EFF4FF48471B4
:10B8B000FFF73AFF0023C0F800326B6385F82F30A2
:10B8C0000123036295F82D209A4218BF8360294610
:10B8D0000446FFF731FF2B6883B140F28623AB604B
:10B8E000AB68C4F80433002003B030BD29462046BD
:10B8F000FFF73FFF28B1019B013B0193019B002B08
:10B90000F4DC95F82F0050B9019B002BECDC0023F0
:10B91000C4F800350523C4F800350320E4E7D4F863
:10B92000C434C4F8C43493B113F0010F14BF4FF4FE
:10B930000240032048F2012213F0020F18BF104604
:10B9400013F0040F48F2022318BF1846DCE7032067
:10B95000DAE700BFA086010037B5344B01930D46EE
:10B960004FF48271FFF7E0FE4FF49271FFF7DCFEB7
:10B970004FF48E71FFF7D8FE4FF48471FFF7D4FEB9
:10B9800000236B6385F82F30AB6A012B044617D177
:10B990002B6A5B0614D40223C4F80032012323620D
:10B9A00095F82D20022A18BF23602B6893B140F22E
:10B9B0008623AB60AB68C4F80433002003B030BD0D
:10B9C0000123E9E729462046FFF7D3FE28B1019B72
:10B9D000013B0193019B002BF4DC95F82F0050B93B
:10B9E000019B002BEADC0023C4F800350523C4F8D2
:10B9F00000350320E2E7D4F8C434C4F8C43493B16A
:10BA000013F0010F14BF4FF40240032048F201224B
:10BA100013F0020F18BF104613F0040F48F2022370
:10BA200018BF1846DCE70320DAE700BFA086010054
:10BA3000F0B587B007460C46FFF79BFE002846D1BD
:10BA400094F82FC0D4F820E0BCF1000F1FD1237B65
:10BA50009A1E012A1BD8616AA269914217D1E26934
:10BA60006262CEF3401E6269A262032B84F82CE06E
:10BA700084F82DC02146384604D107B0BDE8F04017
:10BA8000FFF704BF07B0BDE8F040FFF765BF04F162
:10BA90000C060FCE01AD0FC533682B60BCF1000F53
:10BAA00020D0D7F8C434C7F8C434990711D501237E
:10BAB0008DF8003000231EF0040F84F8303002D0DF
:10BAC000BCF1000F03D0D4E900316846984707B0B5
:10BAD000F0BD5A0701D50223EAE7DB074CBF032379
:10BAE0000423E5E78DF800C0E4E7000001490248BF
:10BAF000FFF79EBF943100200030004002494FF014
:10BB00004020FFF795BF00BFD03100202DE9F84F4E
:10BB100007793B4E4FF03C0A0AFB07FA06EB0A0591
:10BB20009B4695F82E3080460C469146002B63D1FB
:10BB3000344B006853F82710FEF7B8FF00285DD19A
:10BB40002168637B85F838301F298CBF01F01F0303
:10BB50000B4603F5E07388BF2B4AA86098BF4FF0EF
:10BB6000A04240F20C6C85F8300042F823C06268B5
:10BB7000C5F804B01F2A8CBF02F01F03134685F8D6
:10BB80002D0085F8310003F5E07388BF1E4D46F89F
:10BB90000A9098BF4FF0A04545F823C0D8F8003070
:10BBA000C3F80815C3F80C25A268C3F82425B9F119
:10BBB000000F14D0227B43F3073152010029C3F355
:10BBC0000733D2B213DB114C651885F8002301222C
:10BBD000490903F01F0302FA03F344F821303C2320
:10BBE00003FB0766012386F82E30BDE8F88F08496D
:10BBF00003F00F03CA54F2E70820F6E71120F4E738
:10BC0000943100202CB003000003005000E100E05C
:10BC100014ED00E0036802790521C3F80015044B18
:10BC20003C2101FB0233022283F82E20704700BF23
:10BC3000943100202DE9F047314F0479D0F800907D
:10BC40003C2303FB04730D4693F82D30012B9446DF
:10BC500004D10B78012B06D1082011E0022B02D170
:10BC60000B78012BF8D13C26264BC9F8083306FB8C
:10BC7000047696F830302BB1B368C9F8043311203C
:10BC8000BDE8F0878CF00403C3F3800386F83030FE
:10BC9000C6F820C0A846B8E80F0006F10C0EAEE8C2
:10BCA0000F00D8F80030CEF800306B68B362EB6854
:10BCB00073626B78C9F888352B78C4EB041A012BB2
:10BCC00007EB8A0A17D09BB9CCF3401C3C2303FB3B
:10BCD0000473514683F82CC04846FFF7D7FD3C2338
:10BCE0005C433A193B59002BCAD182F83030C7E780
:10BCF0004FF0010CEAE751464846FFF72DFEEEE70C
:10BD0000943100208642040010B586B00024CDE9AD
:10BD100002349DF820308DF80510A342CDE90424AB
:10BD200001A914BF202222468DF80440FFF782FFAC
:10BD300006B010BD10B586B0012402930023CDE9F2
:10BD400003328DF805101A4601A98DF804400593B9
:10BD5000FFF770FF06B010BD074B1B5C1F2B8ABF9F
:10BD6000064A4FF0A04203F01F03D2F80405D84062
:10BD7000C04300F00100704738B0030000030050DA
:10BD8000074B1B5C1F2B86BF064903F01F034FF0B8
:10BD9000A041012202FA03F3C1F80C35704700BF3D
:10BDA00038B0030000030050074B1B5C1F2B86BFFD
:10BDB000064903F01F034FF0A041012202FA03F3EA
:10BDC000C1F80835704700BF38B0030000030050C9
:10BDD00008B50020FFF7E8FF0120FFF7E5FF02208C
:10BDE000FFF7E2FFBDE808400320FFF7DDBF08B51D
:10BDF0000020FFF7C5FF0120FFF7C2FF0220FFF779
:10BE0000BFFFBDE808400320FFF7BABF0A4B185C2C
:10BE10001F288ABF094B4FF0A04300F01F00D3F842
:10BE200004250121814021EA02000A40C3F80805E7
:10BE3000C3F80C25704700BF38B003000003005062
:10BE4000074B1B5C1F2B8ABF064A4FF0A04203F032
:10BE50001F03D2F81005D840C04300F0010070471E
:10BE600034B00300000300500B2809D00C2809D07F
:10BE7000182809D019280CBF03204FF0FF30704755
:10BE8000002070470120704702207047014B185C6A
:10BE9000704700BF34B00300C20710B504460CD58C
:10BEA0004FF0A0430322C3F83427C3F83827C3F860
:10BEB0003C27C3F84027FFF78BFFA3070AD54FF0B5
:10BEC000A0430C22C3F82C27C3F83027C3F86027FF
:10BED000C3F8642710BD704707B5044B0093044AAC
:10BEE000402300F032F803B05DF804FBF5BE020019
:10BEF0000D3200202DE9F84388461446B2B10F4BAD
:10BF00000F4E0325002743F00109224608EB0701E5
:10BF1000002001F0AFFA0744241A48B933782BB156
:10BF20004FF47A40C847013D02D13570BDE8F8832F
:10BF300001233370002CE8D1F8E700BF40B00300C4
:10BF40000C320020704701F0C5BAF0B595B01D461F
:10BF5000164608460C46FEF77BF81A9B0D93CDE972
:10BF6000086500252B46082205A920460A958DF86C
:10BF70002C500C95FEF788F8079B0293069B0393C1
:10BF80009DF814308DF8115003F00302012A1DD1E1
:10BF9000BDF81420059DC3F3C203C2F383168DF8C8
:10BFA0001030B20008230EA92046FEF76DF8C5F345
:10BFB000952508AB0093324602AB0EA9284600F047
:10BFC000E3FB2046FEF748F815B0F0BD022AF8D191
:10BFD000BDF81650C3F3C203C5F389158DF81030B0
:10BFE0000827082D2E4628BF08263B4632460EA9B4
:10BFF0002046FEF749F8AD1B08AB02AA31460EA851
:10C00000374400F025FC002DEBD1DAE7014B01228B
:10C010001A7070478E3200207047000070B50E4DC8
:10C0200006460FCD88B06C460FC495E80F00002E71
:10C0300084E80F00094A0A484FF0060308BF0022AF
:10C0400069460093FEF766FA08B1FBF7E3FD054B7E
:10C050001E7008B070BD00BF54B003000DC00200D8
:10C06000802C00204D32002007B5044B0093044A79
:10C070004023FFF76AFF03B05DF804FB85C00200B0
:10C080004E32002038B50D480D4C0E4D0023237064
:10C090000378EB5CD2B263B10430FFF73FFA08B12A
:10C0A000FBF7B8FD084B1A7812B12378002BFBD0B0
:10C0B00038BD0C30FEF7C2FFF1E700BF802C002036
:10C0C0008E320020AC3000204D32002008B50848E8
:10C0D000084A0378D35C3BB10430FFF78FF9BDE821
:10C0E00008400020FFF79ABF0C30FEF73FFFF6E74D
:10C0F000802C0020AC3000200120FFF78FBF000013
:10C1000038B50A4DFFF71FFF0421284600F0A6FAB4
:10C11000074B01245C71FFF7EFFF042105F11000CC
:10C1200000F09CFA034B5C7138BD00BFC8A7030048
:10C13000942C00209C2C0020037813F0040216D0CD
:10C1400003F00303012B03D0022B09D00120704719
:10C150000A6800880232C0F3831002440A60F5E7DF
:10C160000B684288023303EB92130B60EEE7104634
:10C17000704700002DE9F04FDFF81CA187B00F4693
:10C1800000230446861C0DF1070015468DF8073084
:10C19000FBF7A0FFDAF804203A60DAF8083003F57C
:10C1A00080739B1A0AF21C470AF583690AF2144845
:10C1B000B3421AD30020002D69D004F00F039B0175
:10C1C00043F0050363F30F00DAF80430DAB2033208
:10C1D00033444AF822009DF80700CAF80430FBF700
:10C1E0009DFF012007B0BDE8F08F01213846FDF723
:10C1F0009BF94846FDF7B3F94046FDF7B0F9DAF888
:10C2000008000290C0B203300AEB800002A9FFF7D9
:10C2100093FF029B30BBDAB20AEB8202D168039132
:10C220009A1C0133DBB20AEB83030292D3F80CB001
:10C2300001F00303012B22D0022B15D08346404688
:10C24000FDF790F910B1029BCAF8083059463846FC
:10C25000FDF76AF9DAF80830DAF8042003F580739C
:10C260009B1AA5E7D8B2CEE7BDF80E30C3F3891309
:10C2700003334FEA1B4B02EB93030293DFE7BDF856
:10C280000C30C3F383134FEA1B4B1344F5E7A405AB
:10C2900044F0060098E700BF60330020064B0748D3
:10C2A00010B500221A70FDF78CFE044610B9044840
:10C2B000FDF7A1FF204610BD60330020B4A60300A7
:10C2C000B8B0030030B50A4C71B10A4A0A49121BD2
:10C2D000D20800239A4201D1002030BD31F823500A
:10C2E000854202D00133F5E7034654F83300F4E702
:10C2F000D0A60300C8A70300F42B0020094B013986
:10C3000003EBC000032909D8DFE801F00A020406A4
:10C3100004207047007970474079704700207047CB
:10C3200002207047D0A6030070470000034BD3E9FA
:10C330000130C31A58425841704700BF6033002093
:10C340002DE9F04186B0FFF7F1FF0546002840F0E7
:10C35000ED80774CC4F81804BFF34F8FA3680293A5
:10C36000DBB2033304EB830002A9FFF7E5FE029B77
:10C3700018B1D4F81824002A5AD0DAB2991C013323
:10C3800004EB8202DBB204EB8303D268DB68049324
:10C3900002F00303022B0392029154D1BDF80E3038
:10C3A0006448C3F38917502F3E4628BF502606F134
:10C3B000080166F38F13C1F30901ADF80E30FDF7E4
:10C3C00018FE0546002800F09C80FDF741FE002382
:10C3D000082203A92846FDF74DFE0299CB43DBB2A4
:10C3E0000133C9B20331B6EB830F4FEA830204EB8A
:10C3F000810125D95FFA82F80823A6EB08062846B2
:10C40000FDF738FEF6B208F108034B4903F0FC03D0
:10C4100032462846FDF72EFE029B033703EB9707B3
:10C420000297D4F81834002B43D1D4F8106453E0A9
:10C4300062689A4294D8A260284606B0BDE8F081AE
:10C4400008233246E5E7012B5BD1BDF80C303948B3
:10C45000C3F38311062928BF062161F38913023132
:10C4600001F00F018900ADF80C30FDF7C2FD054663
:10C47000002846D0FDF7ECFD0023082203A928463A
:10C48000FDF7F8FD0026BDF80C20C2F38312B300BF
:10C49000964203F10803C4D202994A1CC9B203317F
:10C4A000029204EB810104222846FDF7E3FD0136E8
:10C4B000E9E72846FDF7D0FDFFF738FF80F00100DF
:10C4C000C5B2B9E7F3685B7923B1336829461B68C5
:10C4D00030469847F3681E68002EF3D12846FDF7D2
:10C4E000BBFD0DF107008DF80760FBF7F3FDD4F8F5
:10C4F00018340BB9029BA3609DF80700FBF70EFEF2
:10C50000DAE7D4F8104454B90C4B0D480D49C01A61
:10C51000C008000440F0020000F05EF8CCE7236899
:10C5200020469B689847E3681C68ECE7002583E792
:10C5300060330020B4A603006C330020D0A60300B3
:10C5400008A70300A1B003002DE9F34704460E46F7
:10C55000924601A9012218469946FFF70BFE1C4F8F
:10C5600010B3019D4FF00008AA1CC84508EB02015A
:10C5700025D118480021FCF790FF80F3100000043B
:10C5800040EA1440E4006B1C04F03804DBB2EDB266
:10C5900044F0010407EB8303033544EA881444EABA
:10C5A0008624D86047F825403B781BB1FFF7C8FECA
:10C5B0000028FBD1FFF7B8FE02B0BDE8F087C9B292
:10C5C00007EB81015AF82830CB6008F10108CCE76D
:10C5D000603300207C37002000231A46FFF7B4BFE9
:10C5E00007B50123019201AAFFF7AEFF03B05DF882
:10C5F00004FB07B5CDE9002302236A46FFF7A4FF39
:10C6000003B05DF804FB1FB5CDE90123069B03933E
:10C6100001AA0323FFF798FF05B05DF804FB1FB5DF
:10C62000CDE90023069B0293079B03936A460423EC
:10C63000FFF78AFF05B05DF804FB7FB5CDE9012364
:10C64000089B0393099B04930A9B059301AA052366
:10C65000FFF77AFF07B05DF804FB000030B50F4C20
:10C66000D4F8102403460020114631B9D968087166
:10C670004AB9C4F810340A6030BDC9680D798542E2
:10C6800006D00968F1E7D26814680C601360F3E71C
:10C6900001300A28E8D14FF0FF30EDE76033002089
:10C6A00038B5084B0125D3F810441D7004B938BDC6
:10C6B000E3685D71236820465B689847E3681C68FF
:10C6C000F4E700BF6033002030B5C38885B004466E
:10C6D0000D4633B1144A00921449154A2846FCF716
:10C6E000A4FF217A05291DD0637A4BB1A088FFF7FA
:10C6F00005FE104B104953F820202846FCF795FF03
:10C70000227A0E4BA08853F8222003920021FFF7D3
:10C71000D9FD039A0A490346284605B0BDE83040D2
:10C72000FCF783BF05B030BDE4B00300CCB003001C
:10C73000C4B0030050B1030023C5030074B103006B
:10C74000E9B0030007B503460846197A052911D058
:10C750005B7A2BB1094A0A490190FCF766FF019800
:10C7600008490190FCF761FF019803B05DF804EB04
:10C77000FCF750BF002AF8D0F2E700BFE4B0030096
:10C7800023C50300E1B003002DE9F04385B01F4647
:10C790000C9D002395F80C902B7306460C46904692
:10C7A00029463846FFF790FFB8F1060F09D8DFE8B1
:10C7B00008F00412181F2833400031462846FCF7C1
:10C7C00034FF002229463846FFF7BCFF85F80C905D
:10C7D00005B0BDE8F083226831462846FCF725FF06
:10C7E000EFE7D4E9002331462846FCF71EFFE8E7CF
:10C7F000A36800933146D4E900232846FCF715FFCF
:10C80000DFE7E3680193A36800933146D4E900238E
:10C810002846FCF70AFFD4E723690293E3680193F3
:10C82000A36800933146D4E900232846FCF7FDFEB7
:10C83000C7E76369039323690293E3680193A368DD
:10C8400000933146D4E900232846FCF7EEFEB8E712
:10C8500008292DE9F74F80460E4617461C463DD85D
:10C8600000251B7B2573214610460193FFF72CFF03
:10C87000DFF88CA0DFF88CB0AE4232D918F8052072
:10C8800059462046FCF7D1FE0135082DF4D11B494D
:10C89000DFF874A0DFF874B02046FCF7C6FE4FF056
:10C8A00000094E4524D918F809507E2D1ED8284677
:10C8B00007F022FA002814BF2A462E2259462046A5
:10C8C000FCF7B3FE09F10109B9F1080FE9D1012222
:10C8D00021463846FFF736FF019B237303B0BDE8BE
:10C8E000F08F51462046FCF7A0FECDE72E22E5E76B
:10C8F00051462046FCF799FEE4E700BFFDB0030077
:10C90000F9B00300F3B00300FBB00300FFB0030075
:10C9100028B139B10023C1E900301846704748F208
:10C920001050704748F21350704730B1036848F216
:10C9300040508B4208BF0020704748F210507047AB
:10C9400030B119B10B68934205D30A6000207047DB
:10C9500048F21350704748F2145070472DE9F041E7
:10C960000C4600AF80461146204615461E46FFF78E
:10C97000CFFF00BB31462046FFF7CAFFD8B9227966
:10C98000104B53F82230CBB1B8F1000F0AD10E4949
:10C9900031F8124034B107346A46E408A2EBC4020D
:10C9A0009546E846324629464046984718B9074B0F
:10C9B0002B60063B3360BD46BDE8F08148F2035072
:10C9C000F9E700BFA4B1030088B103007652464DD9
:10C9D00070B505460C461E46FFF79AFF70B9AB7955
:10C9E0006AB1B3420ED12979094B53F8213063B1B2
:10C9F00011462046984708B9064B236070BD48F29F
:10CA00001050FBE748F21150F8E748F20350F5E701
:10CA1000D8B103007052464D2DE9F0410D460D4945
:10CA200004461646FFF781FF90B967683146BA7928
:10CA30002846FFF785FF58B93A79074B53F822305B
:10CA400023B129462046BDE8F041184748F203507B
:10CA5000BDE8F0817052464D0CB20300F0B530B124
:10CA60004079B3B1C9B18AB948F2135313E01846FB
:10CA7000F7E7441E00254E5D0F5D575516550135ED
:10CA8000013CA542F7D91B1A014402448342F0D26B
:10CA90000BB148F211531846F0BD48F21053FAE7B3
:10CAA0002DE9F8430D4600AF04461D4928461646B9
:10CAB0009846FFF73AFF48BB1A493046FFF735FF63
:10CAC00020BBD5F804907368994522D199F80520C8
:10CAD000396A4046FFF734FFC0B999F80430124A6A
