:100000006013002031180000C34100008518000073
:100010008518000085180000851800000000000009
:100020000000000000000000000000005116000069
:100030008518000000000000FD150000A34100002D
:10004000F1170000F1170000F1170000F117000090
:10005000F1170000F1170000F1170000F117000080
:10006000F1170000F1170000F1170000F117000070
:10007000F1170000F1170000F1170000F117000060
:10008000F1170000F1170000F1170000F117000050
:10009000F1170000F1170000F1170000F117000040
:1000A000F1170000F1170000F1170000F117000030
:1000B000F1170000F1170000F1170000F117000020
:1000C000F1170000F1170000F1170000F117000010
:1000D000F1170000F1170000F1170000F117000000
:1000E000F1170000F1170000F1170000F1170000F0
:1000F000F1170000F1170000F1170000F1170000E0
:1001000053B94AB9002908BF00281CBF4FF0FF317E
:100110004FF0FF3000F06CB9ADF1080C6DE904CE82
:1001200000F006F8DDF804E0DDE9022304B07047D2
:100130002DE9F047089E0D4604468E46002B40F000
:1001400082808A42174646D9B2FA82F24AB1C2F197
:10015000200105FA02F320FA01F1974041EA030E6B
:1001600094404FEA1748230CBEFBF8FCB9B208FBD9
:100170001CEE43EA0E430CFB01F098420AD9FB182F
:100180000CF1FF3580F01681984240F21381ACF1FA
:10019000020C3B441B1AA4B2B3FBF8F008FB10336B
:1001A00044EA034400FB01F1A14209D93C1900F1E2
:1001B000FF3380F00181A14240F2FE8002383C44CE
:1001C000641A40EA0C4000211EB1D4400023C6E965
:1001D0000043BDE8F08702B9FFDEB2FA82F2002ADE
:1001E0004FD1CB1B4FEA174E1FFA87F80121B3FB03
:1001F000FEFC250C0EFB1C3345EA034508FB0CF303
:10020000AB4207D97D190CF1FF3002D2AB4200F2AC
:10021000E7808446ED1AA3B2B5FBFEF00EFB105545
:1002200043EA054408FB00F8A04507D93C1900F152
:10023000FF3302D2A04500F2D7801846A4EB080491
:1002400040EA0C40C0E78B4208D9002E00F0AF8096
:100250000021C6E900050846BDE8F087B3FA83F13E
:1002600000294BD1AB4202D3824200F2B780841AFC
:1002700065EB030301209E46002EAAD0C6E9004E7E
:10028000A7E7C2F1200C01FA02F3974020FA0CF024
:100290004FEA174E21FA0CFC1843BCFBFEF1050C8B
:1002A0000EFB11CC1FFA87F845EA0C4501FB08F359
:1002B000AB4204FA02F409D97D1901F1FF3C80F048
:1002C0008B80AB4240F2888002393D44EB1A85B204
:1002D000B3FBFEF00EFB103345EA034500FB08F3C9
:1002E000AB4207D97D1900F1FF3C71D2AB426FD907
:1002F00002383D44EB1A40EA014178E7C1F1200C95
:100300008B4022FA0CF71F4320FA0CF405FA01F394
:100310004FEA174E25FA0CF51C43230CB5FBFEF9EA
:100320001FFA87F80EFB195543EA054509FB08FA41
:10033000AA4502FA01F200FA01F308D97D1909F180
:10034000FF3047D2AA4545D9A9F102093D44A5EBA2
:100350000A05A4B2B5FBFEF00EFB105544EA0544B5
:1003600000FB08F8A04507D93C1900F1FF352DD254
:10037000A0452BD902383C4440EA0940A4EB0804CC
:10038000A0FB02894C45C6464D4619D316D05EB136
:10039000B3EB0E0264EB050404FA0CFCCA404CEA11
:1003A0000202CC40C6E900240021BDE8F0873146B6
:1003B00030460EE7AC46EDE6184601E74345E6D287
:1003C000B8EB020E69EB07050138E0E72846D3E7F2
:1003D00060468FE78146BAE7614677E708464BE714
:1003E000ACF1020C3D4415E702383C4426E700BF5F
:1003F000704700BF0149024803F016BD104C0000D1
:10040000244C00000B6801330B60014B1B6818473C
:1004100000000020014B1860704700BF0000002062
:1004200007B50B46002102460191034801A900F0DF
:10043000EBF803B05DF804FB050400002DE9F84F6C
:10044000B0F8189019F00808044693460DD0012919
:100450000CBF49F0100949F02009A0F818908BF35F
:100460001188BFF36F8FBDE8F88F09F007090229E3
:1004700007D1204603F0E5FC0028F0D00128238BAB
:1004800050D16769218B002F15DA256821F007010B
:10049000C4E9008841F0010121830026218B01F08D
:1004A000070ACA4502D0A368002B5CD10DB9002E03
:1004B00074D0002358E001F007035A1F012A20D806
:1004C00021F00701062B256889B2C4E900880CD108
:1004D000002D2B4638BF00232BB1628B1B680132E5
:1004E0006283002BF8D141F002012183204603F002
:1004F000A8FC06460028D1D0238B43F02003238399
:10050000CBE7042B0CD121F0070189B221832046CF
:1005100003F097FC05460028BFD041F0200121835D
:100520000025BAE7032809D1226923F007031668DA
:1005300043F00603238300252F46AFE7042806D1A6
:10054000226923F00703566843F00403F2E7052805
:1005500006D1226923F00703966843F00503E9E713
:1005600000252E46E8E7012341F0080121838BF3A3
:100570001188BFF36F8F03BB002D33D116B1214912
:100580002046B0474FF02003EFF3118B83F311881F
:10059000BFF36F8F238B23F008032383238BDA06AB
:1005A00028D523F0100323830121B4F8189009F013
:1005B000070900297FF45BAF51E7A1680029DBD070
:1005C0000B68D1F804B0002B38BF0023994652467F
:1005D0003B462046D847B9F1000FCDD0D9F80030BE
:1005E0004946EEE729463B46524620462D6803F031
:1005F00044FCC1E713F020011EBF23F02003238336
:100600000221D2E7A73E00002DE9F04F91B08B46C2
:10061000029092461C4600259AF8000008B9284628
:100620005EE325280AF1010707D0029B5946984747
:100630000028C0F25583013510E2182200210AA8D3
:1006400003F0F7FD9AF80130252B78D0002294466C
:10065000164696461046394617F8013B2B2B00F0FC
:100660009D8000F29480202B00F09B80232B00F0D3
:100670009A8028B19DF8300040F004008DF83000D9
:10068000BEF1000F05D09DF8300040F008008DF855
:1006900030002EB19DF8300040F010008DF8300091
:1006A000BCF1000F05D09DF8300040F020008DF81F
:1006B00030002AB19DF8302042F040028DF8302001
:1006C0009DF8302002F04400442803D16FF38612D5
:1006D0008DF830209DF830202A2B42F080028DF8D2
:1006E00030207BD19DF8312042F001024B1C8DF867
:1006F00031201A782E2A9DF831200CBF01210021CB
:1007000061F341028DF8312074D15A782A2A6AD0D7
:10071000013300210A26184610F8012BA2F13007F8
:10072000092F40F28E809DF830200E91C2F34000D8
:1007300040EAD17161F341028DF830205AE00AF1AC
:1007400002078DF833309DF83130D90740F14981E7
:1007500054F8049BB9F1000F07DA9DF8302042F0FD
:1007600004028DF83020C9F100095A0740F1428196
:1007700054F8048BB8F1000F80F241819DF83130BC
:100780006FF341038DF831304FF0FF3837E12D2BF7
:100790000CD0302B7FF46DAF01225CE74FF0010EDF
:1007A00059E7012657E74FF0010C54E7012052E7C3
:1007B0000CFB0202303A33461E4616F8010BA0F13C
:1007C0003007092FF4D9994293D09DF830100D923B
:1007D000D20F62F341018DF830108AE70B460022F8
:1007E0004FF00A0CE8E79DF8312042F004028DF842
:1007F000312002331F4617F8012B6C2A41D025D82F
:10080000682A2BD06A2A46D04C2A4CD01F4617F8AB
:10081000012B9DF831308DF83320782A00F2D980F1
:10082000572A4DD8412A03D0453A022A00F2D180F6
:100830009DF83230042262F302038DF83230012336
:100840009EE006FB01213039034664E7742A26D076
:100850007A2ADBD19DF8313006220DE05A78682AD9
:100860009DF8312006D1012161F3C6028DF83120B7
:100870009F1CCCE71346022262F3C6038DF8313089
:10088000C5E75A786C2A9DF8312001D10421EBE7A5
:1008900013460322F0E79DF831300522ECE79DF87E
:1008A00031300722E8E7BDF8303023F4F04323F07D
:1008B000020343F4804343F00203ADF83030A6E76F
:1008C000A2F15801202900F2848001A050F821F003
:1008D00095090000D3090000D3090000D3090000E6
:1008E000D3090000D3090000D3090000D309000098
:1008F000D309000031080000D30900009509000069
:1009000055090000310800003108000031080000DE
:10091000D309000055090000D3090000D3090000E5
:10092000D3090000D30900009D09000095090000CB
:10093000B9090000D3090000D3090000B90900007B
:10094000D309000095090000D3090000D309000075
:10095000950900009DF83210012003F0780360F340
:100960000201402B8DF8321002BF9DF8301041F08B
:1009700001018DF83010632A31D1003B18BF0123EB
:100980009DF83020C2F340010B4363F341028DF820
:100990003020D8E69DF832100220DEE79DF83220A4
:1009A00003F07803A3F14000032161F30202434204
:1009B0008DF832204341E3E79DF83220032113F004
:1009C000780F61F302028DF8322014BF0123002357
:1009D000D6E79DF8303043F001038DF83030002326
:1009E000CEE79DF93020002AB4BFDDF834904FF0F7
:1009F000FF39BAE69B077FF5C7AEDDF838809DF872
:100A000031200023CDE90D339DF8323003F0070388
:100A1000012BC2F3C30236D1D31E042B20D8DFE84A
:100A200003F00307071F1F0054F8040BC11704E06D
:100A3000073424F00704F4E80201CDE90A019DF827
:100A4000303013F0030654D002983B4652465946C4
:100A500003F0F7FA0028C0F243810544BA46DBE50B
:100A600054F8040B012A4FEAE071CDE90A0105D1DF
:100A70009DF828300A9300230B93E0E7022ADED189
:100A8000BDF92800D2E7022B23D1D31E042B13D8A3
:100A9000DFE803F0030A0A12120020680A9000211E
:100AA000231D0B911C46CAE7073424F00703F3E823
:100AB0000201CDE90A01F5E754F8043B0A93012A43
:100AC0004FF000030B93D3D0022AB8D1BDF82830E1
:100AD000D0E7042B07D1073424F00704F4E802011F
:100AE000CDE90A01ABE7032B04BF54F8043B0A939A
:100AF000A5E79DF833007828B0D8622822D82528A9
:100B00003FF493AD5828A9D10DF126030093DDE9F8
:100B10000A0104AB0CAA03F049FA8246B8F1000FAF
:100B20000DF126000CDB9DF83020A0EB0A036FF3DB
:100B3000861298458DF8302002D9A8EB03030D9357
:100B400080463DE06338152888D801A151F820F08F
:100B5000D10B0000350C00005D0A00005D0A0000AA
:100B60005D0A00005D0A0000350C00005D0A00000F
:100B70005D0A00005D0A00005D0A0000930C0000A1
:100B8000610C0000650C00005D0A00005D0A0000B9
:100B9000A90B00005D0A0000610C00005D0A000066
:100BA0005D0A0000610C0000B8F1000FDDF828A01C
:100BB0000ADB4146504603F01CFB0AEB0008002606
:100BC000BAF1000F0CD149E7504603F00BFBF4E7F4
:100BD0000A9B8DF8103000260DF111080DF1100A56
:100BE000A8EB0A0306B101339DF83220D0066BD57D
:100BF000023352060D9948BF0E9A0B4448BF9B180A
:100C0000B9F1000F79DD9DF83020A9EB0309C2F39B
:100C100080030393530770D4500664D546B1029BFA
:100C200059463046984700285ADB039B01351E463B
:100C3000302359E01E0711D413F0100618BF2026E8
:100C4000DDE90A23002A73F10001BFF65DAF5242CD
:100C500063EB4303CDE90A232D2655E72B26EFE767
:100C6000002651E70A9848B30DF1260300930CAA19
:100C700004AB002103F09AF9BDF8323003F0EF0322
:100C800043F4F04343F010038246ADF832300026BF
:100C900044E70A9B072A3FF6E1AEDFE802F00D04C5
:100CA000060D08080D0D1D70D8E61D80D6E62846F5
:100CB000E917C3E90001D1E61D60CFE6DFF8C48083
:100CC0000646A8F1050A8BE7110748BF013390E7F4
:100CD000184603935946029B98470028039B04DA61
:100CE00011B0BDE8F08F20234D444A46002AA5EB01
:100CF000090109F1FF39EBDC0D4636B1029B59467B
:100D0000304698470028EBDB01359DF83230D90694
:100D100001D41A0706D5029B59463020984700286F
:100D2000DEDB01359DF83230DB0607D59DF8330058
:100D3000029B594698470028D2DB01350D9E2E4470
:100D4000731B002B16DC029843465246594603F0AB
:100D500078F90028C4DB0544A944A9EB0503002B5E
:100D60007FF77CAE029B5946202098470028B7DBCE
:100D70000135F2E7029B5946302098470028AFDB47
:100D80000135DDE73A4C000008B504464FF020027B
:100D9000EFF3118382F31188BFF36F8F03F003FA2F
:100DA000204600F0A5FF034803F03EF800F0E8FC01
:100DB000FCE700BF3B4C0000F8B505464FF02003B0
:100DC000EFF3118683F31188BFF36F8F0B4B1C6811
:100DD000002C38BF00245CB1094FD4E90132002D4A
:100DE00008BF13460BB1387898472468002CF4D11B
:100DF00086F31188BFF36F8FF8BD00BF1802002083
:100E0000200200201FB50F4B1A68BAB901221A60E0
:100E10000D4A07CA01AB83E807000C4A4AB193E8C0
:100E2000070003F025FA002005B05DF804EBFFF79A
:100E3000C3BF82F31188BFF36F8FF4E705B05DF88D
:100E400004FB00BF040000202002002071420000CB
:100E5000F0B589B06E4601460546304603F008F904
:100E600096E80700174C84E80700207840B3164B3B
:100E7000002119606B1C0ED0144817464FF4004631
:100E80000021134A0023E6FB0701FFF739F901218E
:100E9000281A03F064FC02F041F90120FFF78CFFEF
:100EA00094E8070005AB83E807000A4A1AB193E803
:100EB000070003F0CAF9FFF7A5FF02F0E7F9207871
:100EC00009B0F0BD20020020040000203F420F00C6
:100ED00040420F004B42000010B50748074C01F09C
:100EE000E5FD074B1860204600F0E4FE2046FFF7C2
:100EF00091FA002010BD00BF644C0000050F0000F7
:100F00002C0200200A2838B5074D044604D1286871
:100F100083680D215B68984728688368E1B25B6845
:100F20009847204638BD00BF2C0200200E4A70B5FD
:100F3000841AA3100D4C5C430546E4B20C2000FB60
:100F400004200E464021084403F0A0F8011E05DBF2
:100F5000074B03EBC40463689847002128463346D7
:100F6000BDE87040184700BF44020020B76DDBB6F3
:100F70009C4A00002DE9F041104E841BA310104C38
:100F80005C43E4B20C256543804605F140000F4602
:100F90003044402103F093F8011E09DB094A73191C
:100FA000C3E90E27084B53F83430BDE8F041184729
:100FB00040463B46BDE8F041184700BF44020020D0
:100FC000B76DDBB6214100009C4A0000002270B5DD
:100FD00001210446104600F069FB002000F048FBA8
:100FE0000F4801F0C3FB0F4B984215D103F059FA9B
:100FF00026690D49304602F073FF00280BDB0125FE
:1010000035642469084904F11C0002F069FF0028D6
:1010100001DBE564002070BD6FF00400FBE700BF5A
:10102000611000000000AD0BAC4A000001460C232B
:1010300009484B4370B5C418D4E90E56002240331A
:10104000A263184403F059F82DB132462B460348E9
:10105000BDE87040184770BD4402002010480000F1
:1010600010B1012804D07047034B1B6C5B0701D102
:10107000FFF7DCBF704700BF4402002008B54FF007
:101080002003EFF3118183F31188BFF36F8F124AAE
:10109000136843F0020013F0010310600CD04FF00E
:1010A0008042D2F80C34D2F80C2413F0010303D0A0
:1010B0000A4803F022F8012381F31188BFF36F8FF0
:1010C00023B1BDE808400020FFF7B0BFBDE80840ED
:1010D000012001F05BBB00BF9402002084020020CD
:1010E000094BBFF35B8F53E8002F22F0020143E866
:1010F00000100028F7D1BFF35B8FD30702D4012083
:1011000001F076BB704700BF940200201FB500229B
:101110000123CDE90223094ACDF800D06B46CDF872
:1011200004D003F023F8002805DB4FF480420023AD
:10113000684601F06FFF05B05DF804FB3F41000019
:101140002DE9F8433A49BFF35B8F0646012251E887
:10115000003F41E800200028F9D1BFF35B8F33B98D
:10116000344935484B60CB608A6002F0CCFE731E78
:10117000012B32D8012E07D14FF08043D3F81C3415
:1011800003F00303012B28D003F006FA044618B934
:101190002A4B1B78002B44D14FF02003EFF311852D
:1011A00083F31188BFF36F8F0124254FDFF89480FC
:1011B000DFF894904FF08042D2F81834D2F8182417
:1011C000D2030CD503F00303012B01D0012E06D16D
:1011D0000CB385F31188BFF36F8FBDE8F883ACB112
:1011E000284600F0DBFA4FF08042D2F81835002B89
:1011F000E0D139680029DDD03B603B680123C2F8AB
:101200001835C8F88031C9F80030D3E70021212013
:1012100002F014FAE7E74FF080430222C3F80423F8
:10122000DBE74FF080430222C3F808230546BCE702
:101230009802002034020020600200209E0D002051
:101240000401004000E100E008000040044A136887
:10125000C81A20F07F400344136002F053BB00BF64
:10126000AC0200202DE9F047860006F1804600F12F
:10127000500406F58836A400DFF87C80D6F84035A7
:10128000A4B204F180444FF4803721F07F4504F587
:1012900088348740C146D8F804A5A3EB0A0323F09D
:1012A0007F432AF07F42012BC6F8402502D113204C
:1012B00003F073FA0AF10202AB1A23F07F43B3F58D
:1012C000000F88BF1546002323602368C9F84473C4
:1012D00025F07F43C6F84035D9F804359A4506D045
:1012E000EB1A023B23F07F43B3F5000F01D8BDE8B2
:1012F000F0872B46CFE700BF00100140F8B5154C32
:10130000154F0026154B00201D689C4606B1F8BD00
:10131000D4F80423D203FAD53A68002AF7D03E6005
:101320003A684FF48032C4F84823D4F84015D4F812
:101330000465721A22F07F42B2F5000F88BF314671
:1013400001261DB15A681860A847DBE7CCF80050A9
:10135000DDE700BF0010014040110140A002002065
:1013600038B5104D00244FF48033C5F80845C5F852
:1013700004330D4B4FF40032C3F880210121224683
:10138000112000F093F9112000F072F9074A0123AF
:101390001360074A2B6002201360FFF7D1FE20463E
:1013A00038BD00BF0010014000E100E0081001401E
:1013B000A8020020134BB0F1FF3F08BF18460138C8
:1013C00000281CDD9842A8BF18460F4BD3F804250F
:1013D0000E4B1968521A12F4000F22F07F4318BF07
:1013E00000200B4A013303440A481060002050607B
:1013F000044A934294BFC9188918FFF733BF0020ED
:10140000E3E700BFFFFF7F0000100140AC020020B7
:10141000A00200204D120000044BD3F80405044B39
:101420001B68C01A20F07F40704700BF00100140C9
:10143000AC020020014802F045BB00BFB84A0000E2
:1014400008B5D0B14368042B11D100220368BFF363
:101450005B8F53E8001F012903D143E800200028D7
:10146000F7D1BFF35B8F074808BF104608BD3BB1FB
:10147000006801F069FD0020F8E76FF4E040F5E74F
:101480000148F3E7E98FFFFFEA8FFFFF10B504463D
:1014900018B90D4B0D485B689847616808290DD055
:1014A00031F004030AD011F0020108D008482146A7
:1014B00003F049F8002323600023636010BD206817
:1014C000142202F0B6FEF7E7600000207B4C00001B
:1014D000B002002010B5044618B9164B16485B68D8
:1014E00098476368042B23D0082B21D0CBB92368FD
:1014F000BBB912484FF0FF324FF0FF33214601F0E5
:10150000CFFB08B923681BB90A4B0D485B689847A5
:1015100020681422002102F08CFE636843F002036D
:101520006360206803F045F8636843F0010363607B
:1015300010BD00BF600000207B4C0000B002002006
:10154000A14C000008B508B34368042B10D1012258
:101550000368BFF35B8F53E8001F002903D143E802
:1015600000200028F7D1BFF35B8F0BD1002008BD0E
:1015700053B100684FF0FF324FF0FF3301F066FCCB
:101580000028F3D00348F2E70348F0E76FF4E040A7
:10159000EDE700BFE98FFFFFEA8FFFFF08B50649BF
:1015A00006484023142202F0B3FFBDE80840044976
:1015B000044802F0E9BA00BFCC020020B0020020CB
:1015C000D04A0000C04A0000094A0A4993680968E5
:1015D0009967094958674B6843F080534B60002373
:1015E00083F31188BFF36F8F9368986F704700BFC4
:1015F00034090020844B000000ED00E012498A68A5
:101600004FF030001044EFF3098C80E8F01F2020E9
:1016100080F31188BFF36F8F0C4F4FF000664A6A5A
:101620008A603E60506F0023536780F3118804B5D1
:10163000104600F08FFABDE8044002F1300090E857
:10164000F01F8CF3098870473409002004ED00E096
:101650001EF0040F0CBFEFF30880EFF309808169DF
:1016600011F8021C0229FFD001B502F0A6FD01BD50
:1016700043B2002B08DB012200F01F0002FA00F049
:101680005B09024A42F82300704700BF00E100E016
:10169000054B420900F01F0053F82220012303FAF2
:1016A00000F01040704700BF00E100E043B2002BA3
:1016B000A8BF03F1604301F10101B8BF064B4FEA37
:1016C0004111ACBF03F5614300F00F00C9B2B4BFD4
:1016D000195483F80013704714ED00E042F8203CE1
:1016E000009B42F81C3C0A49019B42F8183C029BB3
:1016F00042F8143C21F001014FF0807342F8043CA1
:1017000042F8081C0023203A02654367704700BF77
:10171000993F00000B4A0346906890B113F1160FF1
:10172000406E05D0A0F120029A4206D8834204D22E
:1017300081422CBF0021012100E00021002908BFC7
:10174000002070473409002008B5094B98600D4609
:10175000144600F0FFF9204685F30988002163B69E
:1017600081F31188BFF36F8F0022002302F014FC75
:1017700034090020014910220A60704710ED00E092
:1017800072B6404080F31188BFF36F8FBFF34F8F65
:1017900030BF62B6BFF36F8F704700BF72B649406B
:1017A00081F3118820BF80F3118862B6704700BFB3
:1017B00030BFFFF7FDBF00BF0B4A08B50B4B22F04F
:1017C0007F029A60BFF34F8FBFF36F8FD3F88820EB
:1017D00022F47002C3F8882001F094F901F0A0FF10
:1017E00000F08EF901F0B2F90000000000ED00E019
:1017F00001B572B60B4A106A00281EBF00211162A3
:1018000002F0D0FE62B6EFF30580A0F110004FEABF
:10181000C0000549014409C99847BDE80140034992
:101820000847000034090020A0480000611A0000A9
:10183000002080F31488BFF36F8F02F0B3FF002005
:101840000D490860BFF34F8F0C4880F3088800F003
:1018500025F9202080F3118809484FF402614018CF
:1018600080F30988EFF314800221084380F3148881
:10187000BFF36F8FFFF7A0FF94ED00E0601300202F
:10188000E0140020EFF30880EFF3098101B5724600
:1018900000F068F801BD00BF38B5194B14469A6ACC
:1018A0009A6A9A6A0546900719D5586B9A6A120681
:1018B00015D519B19A6A22F080029A629A6A9A6AD8
:1018C0009A6AD1060ED49B6A9A070BD400200C4A60
:1018D000936A43F0FF0393620023237038BD6FF0D7
:1018E0001500EBE7064B5B681B05EFD52946FFF7B4
:1018F00011FF0028EAD080F309880220E7E700BF43
:1019000000ED00E00D4B9A6A9A6A9A6A920508D532
:101910009A6B9A6A120404D518B19A6A22F40042AA
:101920009A62064B9A6A9A6AD20558BF9A6A9A6A6C
:10193000002042F47F429A620870704700ED00E098
:10194000074B9A6A9A6A9A6A9A6A9A6A9A6A9A6A29
:101950006FEA02426FEA12429A620020704700BFAB
:1019600000ED00E070B5374B5B688AB00E46C3F3FC
:101970000803002585F31188BFF36F8F02F07F41C4
:10198000B1F17F4F11D102F00C0108290DD01107E0
:1019900001D4064601250022033B8DF80720032BC6
:1019A00048D8DFE803F0043F433C2E46F3E7254BDD
:1019B000DA6A92073ED4DC6A14F0804409D02833F6
:1019C0001B78F3B10DF1070201213046FFF764FFE8
:1019D00004469DF8073093B92022314602A802F050
:1019E0001DFC099B45B3C3F3080222B96FEA5323D8
:1019F0006FEA4323099302A9204602F0DCFB0AB0F8
:101A000070BD114B1B782BB10DF107010120FFF7C1
:101A100079FFDDE70D4B188884B2002CD9D0FFF791
:101A20008FFFD5E70DF107020021CEE70DF1070189
:101A30000020ECE70024CCE723F4FF7323F001033C
:101A4000D8E700BF00ED00E029ED00E02AED00E05E
:101A5000024A536943F010035361704700ED00E000
:101A6000044B9968586A884203D003494FF080526A
:101A70000A6070473409002004ED00E0064A11684E
:101A80000023C1F3072118468B4200D170479360B1
:101A900010610133F8E700BF90ED00E008B572B6C1
:101AA000002383F31388FFF7E9FF144B4FF0FF3255
:101AB000C3F88020C3F88420C3F88820C3F88C20A2
:101AC000C3F89020C3F89420C3F89820C3F89C2052
:101AD000C3F88021C3F88421C3F88821C3F88C217E
:101AE000C3F89021C3F89421C3F89821C3F89C212E
:101AF00062B6BFF34F8FBFF36F8F08BD00E100E008
:101B0000044800232021C2180133302B82F800132F
:101B1000F9D1704700E100E0064B9B68834207D192
:101B2000EFF3058323B1044A536843F080535360B5
:101B300001F0A4BD3409002000ED00E0024B034A8F
:101B40000348012100F068B80000042000000020D4
:101B5000E44A0000426E054B203A1A60044A2021F4
:101B6000C3E901121846012100F060B8CC0700203B
:101B700000000B15F0B51E4F00268E4201DB10460B
:101B8000F0BD446884B353B104F1FF3C14EA0C0F78
:101B900018D11F2C16D905681CEA050F12D1202C6C
:101BA0000568D0F808C0D2B20FD9B4F1004F0ED8F2
:101BB000013CB4FA84F4C4F11F046400072A4CEA1F
:101BC000040406D96FF01502D9E70824F6E73E248D
:101BD000F4E725F01F05154345F0100544F0010416
:101BE000BA60FD6001323C6101360C30C5E700BFD0
:101BF00090ED00E0034B05225A60BFF34F8FBFF317
:101C00006F8F704790ED00E0BFF35F8F014B0022B4
:101C10005A60704790ED00E010B5034C0123227824
:101C2000FFF7A8FF207010BD8C09002008B5084AF6
:101C300000231278FFF79EFF10F1160F03D0054B1B
:101C40000022072800DD08BD98601A610130F8E71E
:101C50008C09002090ED00E013490868082810B5B1
:101C60001ED8FFF7D1FF114C49680022904201F1C4
:101C70000C0105D10E4B1870FFF7BCFF002010BD02
:101C8000A26051F80C3C23F01F03134343F01003F0
:101C9000E36051F8043C43F0010323610132E5E7BE
:101CA0004FF0FF30EBE700BFF04A000090ED00E09E
:101CB0008C090020014B1860704700BF28000020ED
:101CC0004FF02003EFF3118283F31188BFF36F8F7E
:101CD00006490123C1F840354FF08041C1F87835FD
:101CE00082F31188BFF36F8F0020704700E001403E
:101CF0004FF08043C0B2C3F81C05BFF34F8F0549B6
:101D0000054BCA6802F4E0621343CB60BFF34F8F08
:101D100000BFFDE700ED00E00400FA0520B1034B31
:101D2000800143F001031847704700BF804A00005C
:101D300008B5094B1A786AB90121197006200521E6
:101D4000FFF7B4FC0620FFF793FC044B4FF0004272
:101D5000C3F80423002008BD8D0900200060004066
:101D60002B4BF0B544682B481340834241D00DD82B
:101D7000062B15D005D89BB1022B3CD06FF0150077
:101D800036E0B3F5801FF9D1012309E022488342F0
:101D900033D0B3F5A00F32D0B3F5800FEED10223CC
:101DA000D00654BFC2F34016032682F4807597050F
:101DB000C2F34020C5F3002507D512F4006F676811
:101DC0001FD001228A40C7F80825227A134C012A25
:101DD00001F01F0140EA450218BF4FF0A04442EA5B
:101DE000032301F5E07143EA860344F82130002023
:101DF000F0BD0723D4E70423D2E70523D0E703236C
:101E0000CEE7520542BF01228A40C7F80C25DCE725
:101E10000600F00006001000020040000003005021
:101E200000F01F024009084B012818BF4FF0A043E3
:101E300003EB8203D3F8002722F4403242EA014246
:101E4000C3F80027704700BF000300502DE9F84F8A
:101E50000369D0F804A0DE68DFF87CB08846D3E9D7
:101E600005210A4326EA0206DAF804201B69D2F8A3
:101E700010555D4026EA0505374601244FF000095C
:101E800017B92846BDE8F88F3C4221D09AF80830AF
:101E900009F01F00344240EA431014D14209012ADC
:101EA00000F01F0314BF4FF0A0425A4603F5E07341
:101EB00052F82330C3F30143022B02BFD8F800309D
:101EC0002343C8F800300021FFF7AAFF27EA0407E0
:101ED00009F101096400D3E700030050F7B50E468D
:101EE00041680769097A06F01F05B2F5A03F45EA87
:101EF000411510D16809012805F01F015D4801F561
:101F0000E07118BF4FF0A04050F82110C80707D566
:101F10006FF0850093E0B2F5005FF96800F0918002
:101F2000F8680121B14001437869F9600121B140AD
:101F3000B2F5A03FBA690CBF08438843B3F5C02F80
:101F40000CBF0A438A43BA613A697861B3F5802FBE
:101F50000CBF114322EA0101474A3961D2F8043328
:101F60000020DBB200F5A27152F82110C1F3052167
:101F70008D426BD123FA00F1C90767D5830003F1C5
:101F8000804303F5C043D3F8101521F00101C3F8D5
:101F9000101501238340C2F80833C0B200F0A2FC40
:101FA00028460021FFF73CFFF868F04010F00100E0
:101FB00045D07869F04010F001044ED0BB69F34081
:101FC000DB075FBF396921FA06F606F00106C6F1A4
:101FD00002060DF1070054BFF6B2032600F0A4FC80
:101FE000264B984236D19DF807108B0003F18043B1
:101FF00003F5C0432D02D3F8102522F44F3222F40A
:102000004072C3F81025D3F8102505F47C5515430C
:102010008A0002F1804202F5C24245EA06460020EB
:10202000C3F8106510601268D3F8102542F0010261
:10203000C3F81025104A01238B40C2F8043303B0C3
:10204000F0BD0120B04021EA00016DE70130082811
:1020500088D1A5E76FF01200F1E73969F14001F08E
:102060000101C1F103012846C9B2FFF7D9FE20469C
:10207000E5E700BF00030050006000400000AD0B2A
:10208000F0B5002485B0CDE90044CDE90244264EE8
:1020900035685DB102A92548FFF7D8FE03A9009075
:1020A0002348FFF7D3FE019034603368214C0022AF
:1020B00001269446D4F8043306FA02F119421BD0E3
:1020C000910001F1804101F5C2410B68A3B102F515
:1020D000A27304AF54F82330C1F800C0C3F34030FA
:1020E00007EB8000C3F3042350F8107C06FA03F3D7
:1020F0003B4340F8103C0B680132082ADAD1009AC1
:102100001AB10A490C4802F0BEF8019A1AB10849FE
:102110000A4802F0B8F82DB1044802F01EF904484C
:1021200002F01BF905B0F0BD7C6100407048000072
:102130008848000000600040E407002000080020FC
:10214000F0B54B79012B2AD0032B25D110268B79A2
:10215000032B21D1CC792CB1012C1DD143685B68B4
:102160009B0719D00A7912B1022A15D10E220B68E9
:102170004568B3F5164F2D6865D02DD8B3F5165FB9
:1021800064D016D8B3F5966F62D00AD8B3F5967FAF
:1021900061D0B3F5167F61D06FF0850052E0002664
:1021A000D5E7B3F5166F5CD0B3F5965FF4D1374B36
:1021B0003CE0B3F5E14F57D007D8B3F5615F55D098
:1021C000B3F5964FE8D1324B30E047F61227BB42C9
:1021D000E2D14FF4000329E0B3F5613F48D013D8B2
:1021E000B3F5963F47D009D84DF6C027BB4244D03F
:1021F000B3F5614FD0D14FF46B0317E0B3F5E13F76
:10220000CAD14FF0EB7311E0B3F5612F38D008D885
:10221000204FBB4237D0B3F5E12FBDD14FF0E8637B
:1022200004E01D4FBB42B7D14FF08053C5F82435B1
:10223000036903C9344322430433C5F86C2583E89A
:1022400003000020F0BD4FF41D03EFE7134BEDE753
:102250004FF49E23EAE74FF4A033E7E74FF41C3333
:10226000E4E74FF41D23E1E70D4BDFE70D4BDDE71E
:102270004FF06C73DAE70C4BD8E74FF46503D5E702
:102280004FF07063D2E74FF08063CFE700B01300E8
:1022900000A04E0090D0030040420F0000502700E5
:1022A00000C0750000F03A0000903A01F8B50669E8
:1022B00005460F4602F070F910B92C4B1B7883B914
:1022C0004FF02003EFF3118483F31188BFF36F8F76
:1022D000284602F0B1F828BB84F31188BFF36F8F52
:1022E000EEE76424284602F0A7F870B9012002F056
:1022F000D6F8013CF6D10021212001F09FF9F0E74A
:1023000084F31188BFF36F8FF5E74FF02003EFF3ED
:10231000118483F31188BFF36F8F284602F08CF885
:102320000028EDD006F8107F69680B680122C3F819
:102330004465C3F848250022C3F82021D3F82001C2
:10234000C3F85821D3F858214A68D20641BF082261
:10235000C3F800254FF48002C3F8042301229A60D9
:1023600084F31188BFF36F8FF8BD00BF9E0D00206E
:1023700000F01F0240090128044B02F5E07218BF6B
:102380004FF0A043032143F8221070470003005090
:1023900000F01F0140090128044B4FF0010218BF53
:1023A0004FF0A0438A40C3F808257047000300504F
:1023B00043682DE9F0411C6807690D460023C4F805
:1023C0000035064638600868FFF7E2FF2868FFF727
:1023D000CFFF6A68511C0CD05109012902F01F037C
:1023E000404903F5E07318BF4FF0A0410C2041F8BD
:1023F00023002B68C4F80C35AB68C4F814255A1CAC
:102400000CD003F01F025B09012B02F5E072354B83
:1024100018BF4FF0A0430C2143F82210E868431C7A
:1024200004D0FFF7B5FFE868FFF7A2FFD5E9023255
:102430003169C4F808250431C4F810353046FFF777
:102440007FFE8046002847D173685B68190719D55D
:1024500007F1120000F0A0FA234B98423FD1B87C5C
:10246000C30003F1804303F5F83304F10C0204F5D3
:102470009071C3F81015C3F814251C4A012383403A
:10248000C2F804350823C4F800356B6801330CD05A
:102490000023C4F81031D4F8103107F11103C4F847
:1024A00034350123C4F83835236073685B681A0734
:1024B0005CBF4FF48072C4F80423DB0644BF4FF4C2
:1024C0008003C4F8043310370023C4F84475C4F8FB
:1024D00048350123A360E3604046BDE8F0816FF01A
:1024E0000408F9E7000300500000AD0B00F00140C4
:1024F00030B50A4B05460FCB85B06C4684E80F001B
:10250000002201210220FFF7D1F80220FFF7B0F8E6
:1025100021462846FFF74CFF05B030BD604A000059
:1025200030B50A4B05460FCB85B06C4684E80F00EA
:10253000002201212820FFF7B9F82820FFF798F89A
:1025400021462846FFF734FF05B030BD704A000031
:10255000034B1868A0F1080358425841704700BF68
:1025600030010010064B1B68082B06D1054B1B6879
:10257000052B02D8044AD05C70470020704700BF8A
:102580003001001034010010F84C0000024AD2F86B
:102590000034002BFBD0704700E0014010B5FFF77E
:1025A000D7FF40B14FF080430022C3F80C21C3F89D
:1025B0001021C3F83825FFF7CBFF002846D04FF095
:1025C00080525B4BD2F80414C3F82015D2F80814DB
:1025D000C3F82415D2F80C14C3F82815D2F8101437
:1025E000C3F82C15D2F81414C3F83015D2F8181407
:1025F000C3F83415D2F81C14C3F84015D2F82014CF
:10260000C3F84415D2F82414C3F84815D2F8281496
:10261000C3F84C15D2F82C14C3F85015D2F8301466
:10262000C3F85415D2F83414C3F86015D2F838142E
:10263000C3F86415D2F83C14C3F86815D2F84014F6
:10264000C3F86C15D2F84424C3F87025FFF78AFF4D
:1026500010B1384B384A1A60FFF784FF18B1374B76
:10266000FB22C3F81825FFF77DFF48B13449354BED
:102670000A681B6822F00F0203F00F0313430B607C
:10268000FFF770FF18B1304B4FF400721A60FFF77C
:102690005FFF48B14FF08043D3F80024D20744BF16
:1026A0006FF00102C3F80024284B1B68082B0ED1E1
:1026B000274B1B68052B02D8264AD35C3BB14FF051
:1026C0001023D3F808224FF08043C3F858254FF069
:1026D0001023D3F80022002A03DBD3F80432002BA6
:1026E00022DA1D490123C1F80435FFF74FFF4FF0EF
:1026F00010201224C0F80042FFF748FFC0F804423F
:10270000FFF744FF0023C1F80435FFF73FFFBFF395
:102710004F8F1249124BCA6802F4E0621343CB6038
:10272000BFF34F8F00BFFDE70E4B0F4A1A6010BD7D
:1027300000C000408C5600404881030000F000407B
:10274000E40E004058020010409602403001001094
:1027500034010010F24C000000E0014000ED00E008
:102760000400FA05540000200090D003044B1A79AD
:1027700022B9012218609A800248704702487047C7
:10278000200800200000AD0B0C00AD0B10B101289B
:1027900020D070474FF08043D3F81824D3F8181492
:1027A00011F4803F194611D002F00302012A0DD125
:1027B000C3F818250C4B00221A601B684FF08043A9
:1027C0000222C3F8042301229A6070470023C1F853
:1027D0001835EFE7054B00221A601B684FF0804365
:1027E000C3F8040318607047040100400001004072
:1027F00038B510B1012818D038BD4FF080430222FF
:10280000C3F80823184A10601268184A01211160A1
:1028100042F210751C46D4F81834DB03ECD50120C5
:1028200001F03DFE013DF6D1E6E7114B4FF080444B
:102830000022C4F808031A601B680E4B42F21075A0
:102840001860D4F80C34D4F80C24D20303F001033C
:1028500005D523B1012001F022FE013DF1D1064B47
:1028600000225A71C8E700BF040100400C0000407C
:10287000000100400400004020080020164B1A68A8
:1028800010B56AB100221A601B684FF08043012224
:10289000C3F80823114B587910B95A711B6898472F
:1028A0000F4B1A6872B100221A601B684FF0804308
:1028B000D3F81824D3F81814920704D10122C3F8CE
:1028C00018259A6010BD0222C3F80823034BBDE807
:1028D00010401B680120184700010040200800201C
:1028E00004010040012303FA00F010F0FF0F12D0A2
:1028F0004FF02003EFF3118183F31188BFF36F8F43
:10290000064AD36D23EA0000D06581F31188BFF336
:102910006F8F034870470348704700BF28080020A6
:102920000000AD0B0400AD0B2DE9F0410546DFF8CA
:1029300060E01648DFF85C800024FF220126E3B245
:102940004FF02001EFF3118C81F31188BFF36F8FEB
:1029500022FA03F1C9070AD5DEF85C1006FA03F77C
:10296000394201BF3943CEF85C1040462B708CF3DE
:102970001188BFF36F8F404505D006FA03F39A43E1
:1029800004F10104DBD1BDE8F08100BF0200AD0B12
:10299000280800200000AD0B2DE9F041144A154E27
:1029A000154F0546154800244FF0010E5FFA84FCD0
:1029B0004FF02003EFF3118883F31188BFF36F8F7B
:1029C0000EFA0CF3134207D031680B4201BF1943D2
:1029D000316085F800C0384688F31188BFF36F8FE7
:1029E000B84203D09A4304F10104DFD1BDE8F0817D
:1029F000FFFF0F00880800200000AD0B0200AD0BA8
:102A000010B5144C144A1549032323616361144B18
:102A1000A261E3614FF4806323620023A3626362D7
:102A2000E36222660F4A6266E01D1022A2662367F7
:102A3000E366636701F0CCFBBFF35F8F0A49204672
:102A400001F0C6FBBFF35F8F2023A371BFF35F8F3D
:102A500010BD00BF8C080020FE4C0000074D000098
:102A60009E0900208E0900200B4D00000E4B70B512
:102A700053F82040013053F82060A64200D870BDC2
:102A8000D4E900352846984765B1EB6830B1002895
:102A9000B8BF4042FF28A8BFFF2018705A7842F004
:102AA00001025A700834E8E7704B000070B5054623
:102AB00010B90024204670BD0378002BF9D00F4ACE
:102AC0000F4C1646944208D10D4CB442F1D020462A
:102AD00001F0F9FC50B91834F7E7204601F0F3FC97
:102AE00010B12368AB42E5D01834EBE721682846E3
:102AF00001F088FB0028EED1DCE700BFA048000011
:102B0000104800000248034A0021121A01F091BB4C
:102B1000100100205C0F002008B50A4B01220220A2
:102B20001A70FFF7A3FF00F073FF0320FFF79EFF6B
:102B300000F018F9FDF75EFC034A137B23F0010354
:102B4000137308BD9E0D0020900100202DE98048E0
:102B5000DFF80091A7B089F30888364D364E6B69CF
:102B6000DFF8F4A0354F43F4007300246B61E023D9
:102B700085F82230EC772C766C76AC766B6A43F471
:102B8000E0236B62FEF764FFFEF7F4FD4FF0FF33C6
:102B9000AB62EB62FFF760F8294DFEF7CFFF40F222
:102BA0000113ADF8243006ABAB60CDE91F4401F052
:102BB00089FC2046FFF75AFF0120FFF757FF4FF02F
:102BC000010B00F0A1FC1F4B6E621F4905934FF4EF
:102BD00080625346CDE9034BCDE901440094304671
:102BE00000F08EF8737B804623F004033046737345
:102BF00001F045FD0F23CDE902431449144B4FF476
:102C0000A072CDE904B4CDE90054384600F078F85C
:102C10007B7BEF6023F004037B7305F11803C5E9A8
:102C200006332C75C5F80490524641463046FEF7EF
:102C30008BFD00BF00ED00E090010020100100209E
:102C400034090020124D0000600F00208013002086
:102C5000212E0000001D0020192B000070B50E4B26
:102C60000E4CA34201D3002070BDD3E9030141EA19
:102C7000000212F003020BD19D685A61AA4201D1F1
:102C80001C33EEE75E690E60013259610144F5E7DD
:102C90006FF01500E8E700BFC0000020C000002072
:102CA000D3B50C4616461F464FF02003EFF31181B3
:102CB00083F31188BFF36F8F43695BB123601B6897
:102CC0004361836901338361002081F31188BFF37D
:102CD0006F8F11E056EA070203D123606FF00B00FB
:102CE000F3E70246CDE90067083000F089FA18B929
:102CF000024B9B685B69236002B0D0BD34090020A1
:102D00002DE9FF410E9E0673042646730D9E8673C1
:102D100000F158050F46D61DC0E916550C9A00253E
:102D200026F007062037C0E90655C0E91976856008
:102D3000C573C56606F1200802920B9A0192884479
:102D40000A9A009242460446FEF7C8FC044B6565A9
:102D50009B6803B11B6F2367404604B0BDE8F08158
:102D6000340900202DE9F0472A4E2B4D86B0B0469D
:102D7000B54205F1300410D300F0D0F9264CDFF84D
:102D80009CA04FF4004940F2E7360027444521D388
:102D900006B0BDE8F04700F079BA54F8043C05935A
:102DA00054F8103C049354F8143C039354F8183C22
:102DB000029354F81C3C019354F8203C009354E9CE
:102DC0000A2354E90C01FFF79BFF54F8303C5D6582
:102DD0002546CDE7636A5A1C0DD023EAE3733046DB
:102DE0003946C9FB0301B94208BFB042256804D186
:102DF000284600F01FFB3034C8E74FF47A720023F6
:102E0000FDF77EF902460B4605F11800514600F029
:102E1000F1FCF0E7C0000020C00000209F46000049
:102E200008B5094C4FF02002EFF3118382F31188AB
:102E3000BFF36F8F01F083FC2062FEF709F80028D2
:102E4000F0D1FEF79DFCEDE7340900202DE9F341B8
:102E5000044616461F464FF02003EFF3118883F314
:102E60001188BFF36F8FC368354A6BB18068916872
:102E7000884219D056EA070318D188F31188BFF3A6
:102E80006F8F6FF00F000CE0916891F90E102161C7
:102E90000133E3609368A36088F31188BFF36F8FF9
:102EA000002002B0BDE8F0812169F0E791F90E1031
:102EB00090F90E309942A8BF19466FF07E029142F8
:102EC000B8BF11468B422FDD00F0D2FA0546CDE99E
:102ED00000671C482246414600F092F90028E0D0E5
:102EE0004FF02003EFF3118683F31188BFF36F8F48
:102EF000236821699C420AD04BB193F90E30994264
:102F0000A8BF19466FF07E039942B8BF1946A06862
:102F100090F90E30994209D16DB10A48314600F05E
:102F2000EBF86FF00A00BCE70025D0E700F0A0FA4C
:102F30000028F2D1F0E786F31188BFF36F8FF0E736
:102F4000340900209F0D002038B583680446002B0B
:102F500036D01E4A9268934235D1DA7B013ADA7351
:102F6000C368012B05D9013BC36000F08FF9002035
:102F700038BD4FF02003EFF3118583F31188BFF3C1
:102F80006F8F0169806890F90E30994201D000F08E
:102F90006FFA204601F0A5FBA06058B190F90E2011
:102FA00022610022826701F06AFB0948294600F08D
:102FB000A3F8DAE7E06085F31188BFF36F8FD4E7F9
:102FC0006FF01500D4E74FF0FF30D1E7340900204F
:102FD0009F0D002038B504464FF02003EFF3118514
:102FE00083F31188BFF36F8F01F07BFB48B10022A0
:102FF000826701F044FB29460548BDE8384000F0EF
:103000007BB8D4E902329A4218BF0133A360F2E7D9
:103010009F0D002037B514461D464FF02003EFF3F7
:10302000118183F31188BFF36F8F836843B1013B34
:10303000836081F31188BFF36F8F002003B030BD30
:1030400054EA050306D181F31188BFF36F8F6FF047
:103050000F00F3E70246CDE90045024800F0D0F842
:10306000ECE700BF9F0D002010B5084C23685BB152
:10307000FEF7D2F903462068054A0344BDE8104034
:103080001361002101F06BBB10BD00BF6C09002073
:1030900034090020F8B504460D464FF02003EFF345
:1030A000118683F31188BFF36F8F104B00224FF40A
:1030B000004740F2E73000211A61E7FB04010023DA
:1030C0004FF47A72FDF71CF8002C094B09DC1860EC
:1030D000084B1D60FFF7C8FF86F31188BFF36F8FA1
:1030E000F8BD0228B8BF0220F1E700BF3409002074
:1030F0006C0900206809002049B9EFF3058030B958
:10310000054B5A6A9B689A4201D0FEF75DBA81F37B
:103110001188BFF36F8F7047340900204FF02003F0
:10312000EFF3118183F31188BFF36F8F044B9A681B
:10313000D37B013BD37381F31188BFF36F8F70474B
:103140003409002038B502460C480D4D01F060FAF4
:10315000044600B9EC68AB684AB95A7BD20606D17E
:10316000A26922B9DA897F2A01D96B6238BD9C42F3
:1031700001D0FFF779FF6C62F8E700BF5C0900201F
:103180003409002008B590F90D20437B002A014640
:1031900004DA03F07F03437301F012FA044B9868DA
:1031A000431A58425841BDE80840FFF7CBBF00BF63
:1031B000340900202DE9F041064614461D464FF023
:1031C0002003EFF3118783F31188BFF36F8F01F0B2
:1031D00029FA87F31188BFF36F8F6B1C08BFB4F116
:1031E000FF3F08D022462B4606F118000349BDE8F0
:1031F000F04100F0FFBABDE8F08100BF9F4600003B
:1032000010B5074B9868074B0C4618601146DDE96E
:103210000223FFF7CFFF2046BDE81040FEF7D4B9E8
:10322000340900206409002070B50446183001F00C
:1032300070FA4FF02003EFF3118683F31188BFF388
:103240006F8F94F90D20637B002A05DA03F07F036A
:103250006373204601F0B4F90B4D637BA86843F01B
:1032600010036373031B58425841FFF76BFF86F34B
:103270001188BFF36F8FAB68A34203D1BDE87040E4
:1032800001F0BCB970BD00BF3409002010B54FF08B
:103290002003EFF3118483F31188BFF36F8F084B82
:1032A0009A68D37B0133D3730020FFF74BFF84F37D
:1032B0001188BFF36F8FBDE8104001F09FB900BFC8
:1032C0003409002070B590F90D20437B002A014697
:1032D00004DA03F07F03437301F072F94B7B174A62
:1032E00063F07F0310464B7350F8283FD56A834242
:1032F00008BF0023002B38BF0023CBB191F90E602B
:1033000093F90E40A6420FD0A41B002C0CDD586888
:10331000C1E90030016059609068431A5842BDE825
:1033200070405841FFF70EBFAB4201D01B68E4E785
:10333000C1E900052960D162EEE700BF3409002031
:1033400070B501464FF02003EFF3118483F3118829
:10335000BFF36F8F164B174A98681568A8421D4631
:1033600006D1FFF781FE84F31188BFF36F8F70BD24
:1033700000261660104A1268BAB1C2897F2A14D892
:10338000427BD20611D10D4A90F90E601268964226
:103390000BDB0B4A904208D01A698A4202DCFFF725
:1033A00091FFDEE7521A1A61DDE700232B61DAE7AD
:1033B00034090020640900206C09002068090020FD
:1033C0001001002070B490F90D30427B002B2DDBF2
:1033D000D3062BD183694BBB154962F07F02427340
:1033E0000A46CD6A52F8284F944218BF2346002B54
:1033F00038BF0023ABB190F90E6093F90E40A6429E
:103400000BD0A41B002C08DD5A68C0E90032106004
:10341000586070BC0020FFF795BEAB4201D01B681E
:10342000E8E7C0E900252860C862F2E770BC704791
:103430003409002010B54FF02002EFF3118482F31D
:103440001188BFF36F8F427B510704D484F3118836
:10345000BFF36F8F10BD22F004024273FFF7B2FF7B
:1034600021460248BDE81040FFF746BE9F0D0020F0
:10347000F8B504464FF02003EFF3118683F311886B
:10348000BFF36F8F437BDA0649B238D18569002DCF
:1034900035D103F07F03437301F092F8437B8173CE
:1034A00063F07F0343731748034653F8287F9F4216
:1034B00018BF3D46002DC76A1A462B4638BF002369
:1034C000C3B193F90E50A94210D06D1A002D0DDD35
:1034D0005A68C4E9003214605C600120FFF732FED4
:1034E000012086F31188BFF36F8FF8BDBB4201D076
:1034F0001B68E5E7C4E900273C60C462EDE7A173FF
:103500000020EEE734090020044B002103F12802DB
:10351000C3E90A220846FFF7BDBD00BF34090020F9
:10352000F8B54FF02003EFF3118483F31188BFF354
:103530006F8F1B498868437B03F07F03437301F05F
:103540003FF88A68537B084663F07F03537350F853
:10355000283FCE6A834208BF0023002B38BF0023D8
:10356000CBB192F90E7093F90E50AF420FD0ED1B14
:10357000002D0CDD5968C2E900310A605A60012053
:10358000FFF7E0FD2046BDE8F840FEF71DB8B34266
:1035900001D01B68E4E7C2E900063260CA62EEE7C8
:1035A000340900202DE9F04104460D4654EA050196
:1035B00004D1FFF7B5FF0020BDE8F0816FF00101F5
:1035C0000A1A4FF0FF3161EB0503012A73F1000382
:1035D0002ADA01F0DEF806194FF02003EFF3118824
:1035E00083F31188BFF36F8F114F124BB8681860C7
:1035F000FFF7C8FDB868104922462B46183000F086
:10360000F9F8BA68537B43F0100353734046FDF753
:10361000DBFF01F0BEF8301A66EB0601012871F1FC
:103620000003B8BF0020C7E76FF00106361AD3E7E2
:1036300034090020640900209F46000008B50B46AD
:10364000013308BFB0F1FF3F06D1084B9868FFF780
:10365000EBFD4FF0FF3008BDFFF7A4FF4FF47A7386
:1036600080FB0323D00B40EA4340F4E734090020F9
:10367000014B9868704700BF340900202DE9F041E4
:1036800004464FF02003EFF3118683F31188BFF354
:103690006F8F437B1A0705D586F31188BFF36F8FB1
:1036A000BDE8F08123F0200242F00801D20920D1C8
:1036B0004173A36813B1204600F08AFF04F118009B
:1036C00001F027F804F158074FF00008A56DBD423E
:1036D00000D0B5B90120FFF735FD104B9B68A34220
:1036E000DAD1EFF30583002BD6D13046FDF76CFF1E
:1036F000D2E703F05F0343F00803437300F060FF79
:10370000D7E7284600F064FF05F1180001F001F842
:10371000C5F878802846FFF755FED7E73409002022
:1037200008B50648064A0749121A00F077FDBDE8B9
:103730000840054A0549064800F070BD0000002019
:10374000100100204C4D0000000000004C4D000016
:1037500000000020034B1B680BB9FDF75DBE002085
:10376000704700BF7009002030B5036868B10A4A8D
:103770005268904209D043B1D3E90421D0E904450D
:10378000121945EB0101C3E90421426813605A6034
:103790000023C0E9003330BD5800002038B5134B7A
:1037A0001C689C4208BF0024FFF7D4FF0546BCB14B
:1037B000D4E90401401B61EBE571012871F10003BC
:1037C00011DB6FF000420023824273EB010400DA48
:1037D0001046074B1B6913B19842A8BF184638BD65
:1037E0006FF00040F5E70020F3E700BF580000202D
:1037F00034090020B3F1FF3F08BFB2F1FF3F2DE9CC
:10380000F74F044692469B4673D081604FF02003E9
:10381000EFF3118583F31188BFF36F8F6FF001030E
:10382000B3EB0A084FF0FF3262EB0B09B8F1000F5F
:1038300079F100011CDB3048D0E900105B1A62EB23
:103840000002B3EB0A0662EB0B07012E77F10003CF
:10385000BCBF01260027C4E90467284AD2E9003C1E
:1038600093421ED1C4E9002CCCF8004054602DE0F6
:10387000FFF770FF1AF1010300934BF1000301936E
:10388000DDE90023121843EBE073C4E90423E4E705
:10389000B6EB080067EB09016345C4E90401E1D018
:1038A0001B68002BDED0D3E90489D4E904674645C0
:1038B00077EB0901ECDAB8EB060069EB0701C3E925
:1038C00004015968C4E900310C605C6013689342DC
:1038D0000BD09C4209D1FFF761FF18B1084B1B695F
:1038E000834202D00021FDF765FD85F31188BFF307
:1038F0006F8F03B0BDE8F08F100200205800002049
:10390000340900202DE9F74F0646FFF719FD4FF067
:103910002003EFF3118483F31188BFF36F8F2C4DD5
:10392000DFF8B0A0DFF8B0B02E605146D5F800C087
:10393000DBF800006246D3175845DAE90089CDE983
:1039400000230DD060B1D0E90467B445BB411EDA55
:10395000009BB6EB030C019B67EB0306C0E904C6B2
:10396000009B13EB0802019B4FF0000643EB090399
:10397000C1E900232E60FFF711FF3146FDF71AFD64
:1039800084F31188BFF36F8F03B0BDE8F08F18EB9D
:1039900006084FF000024FF0000349EBE679C0E95A
:1039A0000423ACEB0606CAE900892E60FFF7DCFEB3
:1039B00084F31188BFF36F8F836898474FF020031B
:1039C000EFF3118483F31188BFF36F8F0149ADE7E3
:1039D00070090020100200205800002010B54FF0A0
:1039E0002003EFF3118483F31188BFF36F8FFDF78A
:1039F00013FD064BD3E90023121843F1000384F3AF
:103A00001188BFF36F8F1046194610BD10020020B9
:103A1000024A0349034800F007BA00BF4A4D0000BC
:103A2000174D0000244D000010B50A4C23681BB14F
:103A300001232360002010BD00F0D6F80028F7D045
:103A40000138062803D8044B53F8200010BD034862
:103A500010BD00BF74090020884B0000FE8FFFFFDF
:103A6000BFF34F8F0549064BCA6802F4E062134367
:103A7000CB60BFF34F8F00BFFDE700BF00ED00E05C
:103A80000400FA05F0B4094F094E0A4C0A4A0B4DDE
:103A90000B494FF0FE333B605268336023600024D3
:103AA0002B60C1F80045F0BC104700BF00B40250C5
:103AB00004B4025008B40250600000200CB402505C
:103AC00000A00250D0E90012014BC3E90012704778
:103AD0006000002010B5044630B16368DB0602D5F3
:103AE00000232360636010BD024B03485B68984766
:103AF000F3E700BF60000020A44B000068B14368FA
:103B00003BB1DB0607D5BFF35F8F00230360184688
:103B1000704703487047034870476FF4E0407047B0
:103B2000EA8FFFFFE98FFFFF10B5044620B10022A6
:103B300011232260636010BD0148FFF7A3FFF6E781
:103B4000CC4B0000C0B14368A3B1DB0610D5012205
:103B5000BFF35B8F50E8003F40E800210029F9D116
:103B6000BFF35B8F012BF3D0BFF35F8F0020704753
:103B700003487047034870476FF4E040704700BF48
:103B8000E98FFFFFEA8FFFFF70B5D0E90023134CE8
:103B9000134DC4E90023D0E90263C4E90263114B69
:103BA000086818604868586088689860D1E90360C0
:103BB000D5F81411DE601861CB060DD50023C5E9D8
:103BC0004433C5E96D3305F588709047236805F5E2
:103BD000DA70BDE87040184770BD00BF700000206B
:103BE000A00D00208000002010B500F033F820B1B7
:103BF000032400F067F8204610BD00F035F890B9B6
:103C000000F0B0F890B90F4B1B681B0EF02B08D1D9
:103C10000D4A0E4B12689A420AD0072400F01CF895
:103C2000E7E70624FAE70424204610BD0024F5E760
:103C3000012000F097F804460028F7D1044B1860E3
:103C4000D9E700BF28B9025024BA02500000E02092
:103C50000CBA02500020704700207047014B1860DA
:103C6000704700BF04BA025010B5114800F048F880
:103C700000B110BD0F4800F043F80028F9D10E4CF8
:103C8000204600F03DF80028F3D10C4B0C481C6096
:103C900000F036F801460028EBD100F02DF804467C
:103CA00008B1204610BD00F03FF82046FAE700BFFB
:103CB000B8000020AC000020B4000020BC000020B0
:103CC000B000002008B5084800F024F8074800F0CC
:103CD00021F8074800F01EF8064800F01BF8BDE880
:103CE000084000F00BB800BFB8000020AC00002076
:103CF000B4000020B000002000207047704700BFD3
:103D000008B5034B02681B6810689847002008BD7F
:103D10007000002008B5034B02685B681068984784
:103D2000002008BD7000002070B5094C094D2069C5
:103D3000AB68984718B1084B08485B689847084A31
:103D4000EB68206900211160BDE87040184700BF92
:103D5000800000207000002060000020F04B000078
:103D60008809002070B51A4D1A4E0446B2682869B9
:103D70009047F0B95CB1184C2368ABB1012B1AD055
:103D8000013B23602869F3689847002070BD124CFE
:103D9000216839B9114B124A0120C3F80005136894
:103DA000002BFCD101312160F3682869984700207D
:103DB00070BD0C4870BD0A4A1368002BFCD1074A3D
:103DC0006FF07E40C2F80035FFF748FF2368D7E761
:103DD00080000020700000208809002000A0025010
:103DE00010B90250E98FFFFF034658B1426802F054
:103DF0000302012A03D0032A04D1026812B1002071
:103E0000986070476FF0150070474268816002F05B
:103E10000302032A4FF0000203460CBF006810465D
:103E20005A607047002070470FB407B504A951F8D5
:103E3000040B0191FCF7F4FA03B05DF804EB04B055
:103E40007047038B13F0070305D10368002B0CBFE9
:103E5000002003207047022B05D1438B002B14BF99
:103E6000002004207047012B05D10368002B0CBFF4
:103E7000002005207047002070472DE9F0410D46D5
:103E800007461946281D90461E46FFF7BEFF04460A
:103E900038B13346424629463846A446BDE8F0418B
:103EA0006047BDE8F08110B44FF02004EFF31182B9
:103EB00084F31188BFF36F8F416110BC0121FCF7BF
:103EC000BDBA10B50C4640B139B1081DFFF78CFFE3
:103ED00028B9A36833F0030301D06FF0150010BDBB
:103EE00038B50C46054658B151B10B6843B14B6823
:103EF00033B11C22002100F09CF92C61002038BD58
:103F00006FF01500FBE770B504460E46FFF7D9FFCA
:103F1000051E31DB4FF02003EFF3118183F311888D
:103F2000BFF36F8F638B208B4FF6FF75AB4200F0B2
:103F300007022ED0022A0ED10133638315460123D6
:103F400081F31188BFF36F8FB3B100233146204650
:103F5000FFF793FF10E0830701D0062A0ED100235C
:103F60003360636893B9C4E90066154662B90A46CE
:103F700020460221FCF762FA284670BD052A0CBFD4
:103F80006FF085056FF004050023D9E71E606660B9
:103F9000EBE76FF00A05F7E7044608B50846114657
:103FA0001A46A047FFF764FBFDF7B6FD2DE9F74F72
:103FB0009946D37814466F2BA3F1410206460F466B
:103FC00001922DD028D8582B14BF0A251025DDF8D2
:103FD0003080AA464FF0000B52465B4630463946C9
:103FE000FCF78EF8092AD3B21FD830335F45DBB215
:103FF00008BF564508F8013D01D3C84512D82378BB
:104000009B0605D5082D16D1A37843F00803A370AD
:10401000404603B0BDE8F08F03F0F703702BD3E701
:104020000825D4E706460F46D6E7019A192A94BF19
:1040300037335733DAE7102DEAD1A37843F0100372
:10404000E5E72DE9F0410746884615461E46144629
:10405000B442A4EB050002D33EB923782BB114F887
:10406000010B4146B8470028F2DABDE8F0817047FD
:104070000022C0E90022826070470269CBB20C21A5
:1040800003FB0121086C00F0070070474FF020038C
:10409000EFF3118283F31188BFF36F8F036813F07E
:1040A000C00301D08B4207D101230360002082F3BB
:1040B0001188BFF36F8F70474FF0FF30F7E710B5EF
:1040C0004FF02003EFF3118283F31188BFF36F8F5A
:1040D000036803F00704012C06D10160002082F37D
:1040E0001188BFF36F8F10BD03F0C0038B4214BF64
:1040F0004FF0FF306FF07700F1E74FF02003EFF360
:10410000118283F31188BFF36F8F036803F0C0033C
:1041100043F00203036082F31188BFF36F8F70478F
:10412000006910B4CBB21C2403FB0400002110BCB6
:1041300010470020FEF72ABB0020FEF759BB1046AF
:10414000FEF748BF38B5CCB20C230546634300697F
:10415000403380211844FFF799FF002805DB696888
:1041600001EBC40463689847002038BD2DE9F8438B
:10417000CDB20C2704696F43064607F14000802149
:10418000204490469946FFF79AFF002807DB3C44FD
:10419000C4E90E89736853F8353098470020BDE8AC
:1041A000F8837047704770470020FCF7EDBD002191
:1041B000012000F000B800F090B90146006800F05E
:1041C0008CB908B5FDF7F4FABDE80840FDF748BC26
:1041D0000139034611F8012F0AB91A70704703F824
:1041E000012BF7E7034600201A5C02B97047013043
:1041F000FAE7034600201A5C0AB1884200D17047F2
:104200000130F8E7431E013913F8012F11F8010FAF
:10421000824201D1002AF7D1101A704710B5431E0F
:104220000A44914200D110BD11F8014B03F8014F2F
:10423000F7E7C9B202440346934200D1704703F83E
:10424000011BF9E74FF0FF30704784B004AB03E97E
:1042500007009DF80430062B08D14FF0804301225F
:10426000C3F80025BFF34F8F20BFFDE704B07047B0
:1042700084B004AB03E90700002383F31188BFF384
:104280006F8F04B0704770B50E460168154689B14E
:104290000C68002C38BF00248A682A4002D04B6882
:1042A0003046984734B12368002B38BF002321469D
:1042B0001C46F1E770BD43685B68D3F810350B60AE
:1042C0000020704743685B68D3F8040542400A4009
:1042D0004240C3F804250020704743685B68002013
:1042E000C3F80815704743685B680020C3F80C15D5
:1042F000704743685A68D2F804354B40C2F8043519
:10430000002070470369586830B558B100248142D5
:1043100013D108685CB99C685860A14200D19860CC
:104320000020086072B9002030BD2846EFE7206009
:104330009868814208BF9C60F2E705680446002D3A
:10434000F3D13AB15A680A60986859600028EAD1F6
:104350009960E9E76FF01500E6E72DE9F04107699C
:10436000D0F80480FC68D7E90532134324EA03043B
:10437000012600250CB9BDE8F081264210D039692C
:1043800098F80830E94001F00101C1F1030105F09E
:104390001F00C9B240EA4310FDF742FD24EA0604BB
:1043A00001357600E6E743681B68D3F80423D1059E
:1043B00018D5D3F82021AAB14FF02001EFF31182D4
:1043C00081F31188BFF36F8FD3F8201131B1002131
:1043D000C3F82011D3F820110121D96082F311888C
:1043E000BFF36F8F42685268D20615D54FF0200197
:1043F000EFF3118281F31188BFF36F8FD3F8581157
:1044000011B10021C3F800154FF48001C3F808135F
:1044100082F31188BFF36F8F704702690B46D2E9B0
:10442000010183E803000020704743681B68D3F84C
:104430008004C3F88004704742681368D3F85801B9
:1044400040B95268120706D4D3F82001003818BFCB
:104450000120704701207047436802691B68D3F848
:10446000100148B1527C0A700020C3F81001D3F843
:10447000102101221A6070474FF0FF30704708B5D5
:104480000020FDF735FCFFF7CFBA08B5FCF7D2FFE7
:10449000FDF784F8BDE80840FFF7C6BA004700F012
:1044A0007CB908B50020FDF7F3F818B9BDE808405D
:1044B000FDF7DEB808BDFEF7A3BA08B5FFF7FBFFAE
:1044C000002008BD704738B1C3681888C0F30800E1
:1044D000A0F58073584258417047F8B505460E461E
:1044E0004FF02003EFF3118783F31188BFF36F8F31
:1044F000FFF7BEF8314604462846FFF7C0FF87F3B2
:104500001188BFF36F8F2046BDE8F840FDF704BB6C
:1045100030B50024846141EA020414F00304C0E9C8
:10452000023201610CD14461A34203D1C0E9000011
:10453000002030BD45690D60013441611144F3E74D
:104540006FF01500F5E7F8B504460D464FF020036F
:10455000EFF3118683F31188BFF36F8F476977B943
:1045600000F0BFF858B12A684261876700F087F809
:10457000314604F10800BDE8F840FEF7BDBD2B68E8
:1045800062691A602B686361A369013BA36186F3CA
:104590001188BFF36F8FF8BDEFF30580003818BFA7
:1045A0000120704708B5FCF72DFCBDE80840FFF777
:1045B000F9BD03460020C3E90200C3E90033704798
:1045C000D0E9003213605A600023C0E9003370471D
:1045D00008B5FFF7F5FF437B23F002034373002385
:1045E000836008BD034620B9EFF305820AB9FCF7E2
:1045F000EBBF83F31188BFF36F8F70474FF0200339
:10460000EFF3118083F31188BFF36F8FFFF7EABFD9
:1046100003460068834203D0002838BF002070475B
:104620000020704738B504460D46FEF7ABFD637BAE
:1046300043F002036373B5B12B68A5609D4208BFC8
:104640000023002B38BF00239BB194F90E1093F97F
:104650000E20914208D0521A002A05DD5A68C4E99A
:10466000003214605C6038BD6A68934201D01B68F8
:10467000EAE76B68C4E900531C606C60F3E710B5AF
:104680004FF02003EFF3118483F31188BFF36F8F92
:10469000FEF798FE84F31188BFF36F8F10BD10B53D
:1046A00001464FF02003EFF3118483F31188BFF329
:1046B0006F8F10F80B3C13F0280F0DD151F8103C00
:1046C00018380BB1FFF784FF11F80B3C23F01403EB
:1046D00001F80B3CFEF776FE84F31188BFF36F8F71
:1046E00010BD38B54FF02003EFF3118583F3118827
:1046F000BFF36F8FFFF78CFF044620B1FFF768FF11
:10470000183000F006F885F31188BFF36F8F20464C
:1047100038BD10B54FF02002EFF3118482F31188F9
:10472000BFF36F8F03683BB1FFF71EF8002084F3DF
:104730001188BFF36F8F10BD6FF01500F7E710B54C
:104740004FF02003EFF3118483F31188BFF36F8FD1
:10475000FFF724F884F31188BFF36F8F10BD70B595
:1047600004460D464FF02003EFF3118683F31188C2
:10477000BFF36F8FFFF712F8012805DDA04203DBBE
:1047800029462046FCF716FE86F31188BFF36F8F8B
:1047900070BD08B5FFF722F908BD08B1FDF7BEBA34
:0847A00070477047FDF7FABEF7
:0847A80088B9FF7F0100000049
:1047B000C11C000000000000BB440000000000001D
:1047C0005D2C000000000000874400000000000095
:1047D000CD0F0000104800002125000028480000EF
:1047E000F124000040480000D90E00000000000045
:1047F0006113000058480000311D00008848000087
:10480000311D0000704800008B44000000000000D3
:104810006B4C00009C4A0000884A000030020020D7
:10482000440200204A4A0000EB4C0000684B0000A4
:104830004C4B00001C08002040000020404A0000B3
:10484000644C0000604B00004C4B00001808002036
:104850002C000020364A0000714C000000000000CF
:10486000000000009C02002000000000304A000010
:10487000E44C0000344B0000104B0000D80700202F
:10488000E0070020284A0000DD4C0000404B0000FB
:10489000104B0000DC070020FC070020204A00002D
:1048A0007D2800009D44000000000000AF41000092
:1048B00040480000A743000000000000AF41000096
:1048C00000000000AF41000000000000AF41000008
:1048D000000000008120000000000000AF41000047
:1048E00000000000AF41000000000000AF410000E8
:1048F00000000000AF41000000000000AF410000D8
:1049000000000000AF41000000000000AF410000C7
:1049100000000000AF41000000000000AF410000B7
:1049200000000000AF41000000000000FD12000088
:1049300000000000AF41000000000000AF41000097
:1049400000000000AF41000000000000AF41000087
:1049500000000000AF41000000000000AF41000077
:1049600000000000AF41000000000000AF41000067
:1049700000000000AF41000000000000AF41000057
:1049800000000000AF41000000000000AF41000047
:1049900000000000AF41000000000000AF41000037
:1049A00000000000AF41000000000000AF41000027
:1049B00000000000AF41000000000000AF41000017
:1049C00000000000AF41000000000000AF41000007
:1049D00000000000AF41000000000000AF410000F7
:1049E00028480000A743000000000000AF4100007D
:1049F00000000000AF41000000000000AF410000D7
:104A000000000000AF41000000000000AF410000C6
:104A100000000000AF41000000000000AF410000B6
:104A2000FF7FFF7FFF7FFF7FFF7FFF7FFF7FFF7F96
:104A3000FF7FFF7FFF7FFF7FFF7FFF7FFF7FFF7F86
:104A4000FF7FFF7FFF7FFF7FFF7FFF7FFF7FFF7F76
:044A5000FF7FFF7F66
:0C4A5400FFFFFFFFFFFFFFFFFFFFFFFF62
:104A6000060000000800000007000000050000002C
:104A70002200000021000000FFFFFFFFFFFFFFFFFB
:104A80000338FDD8704700000D11000045410000BB
:104A90006D410000000000007B4000007D10000020
:104AA000E11000003341000039410000750F0000A3
:104AB0002D0F00000000000000000000A9410000D0
:104AC000D51400008D1400004515000041140000AD
:104AD0002000002008000020180000200000000036
:104AE00010000020000000200000000000000B0665
:104AF00002000000F84A000000000000CE4C000058
:104B00002600020700000020D64C000022000B11F6
:104B1000611D0000B7420000C5420000DB420000FA
:104B2000E7420000F3420000DD1E000005430000E4
:104B300000000000FFFFFFFF000000500000000029
:104B4000FFFF000000030050010000005944000076
:104B5000AD2200002B440000412100001B44000056
:104B6000002000400B000000008002400800000010
:104B7000B0470000F0470000F84700001048000070
:104B800010480000F5FFFFFFFF8FFFFFFF8FFFFFC3
:104B9000FE8FFFFFFE8FFFFFFD8FFFFFFC8FFFFFEC
:104BA000FC8FFFFF6D757465785F667265652063C5
:104BB000616C6C65642077697468204E554C4C209C
:104BC000706172616D6574657200000043616E27EB
:104BD0007420696E697469616C697A65206D757499
:104BE00065782C20776173204E554C4C0D0A0000DF
:104BF000436F756C64206E6F74206C6F636B2070F4
:104C00006F7765722073617665206D7574657800C5
:104C10006E72663532383430646B5F6E7266353270
:104C20003834300048656C6C6F20576F726C6421AB
:104C30002025730A00286E696C29004661696C653D
:104C40006420746F207265626F6F743A20737069AC
:104C50006E6E696E6720656E646C6573736C792E19
:104C60002E2E0A00554152545F3000434C4F434BA7
:104C7000007379735F636C6F636B006D7574657837
:104C80005F696E69742063616C6C65642077697418
:104C900068204E554C4C20706172616D6574657270
:104CA00000436F756C64206E6F7420616C6C6F6371
:104CB000617465206D75746578206265666F7265D4
:104CC00020696E697469616C697A696E6700464C27
:104CD0004153485F30005352414D5F3000475049C7
:104CE0004F5F31004750494F5F3000554152545F8C
:104CF00031000000000001010100000000005465C7
:104D0000726D696E616C00525454005345474745BB
:104D100052006D61696E0076322E362E39392D6E55
:104D2000637331002A2A2A20426F6F74696E6720EC
:104D30005A6570687972204F53206275696C6420DF
:0C4D40002573202573202A2A2A0A00006F
:104D4C00253E000001000000C00000200100000012
:104D5C00D400002001000000E80000200100000049
:104D6C00FC00002001000000454200000000000093
:104D7C0000C2010000010300000000000000000060
:104D8C000000000000C20100000103000000000050
:104D9C00000000000090D0035800002058000020B4
:104DAC0000000000613A00007809002011000000AA
:104DBC00293B0000D53A0000453B0000FD3A0000BD
:104DCC00A4000020680000209C00002000000000CF
:104DDC00940000207C0900201100000080090020B4
:104DEC001100000084090020110000008400002044
:104DFC00900000208800002080000020B4000020DB
:104E0C00C0000020C00000200000000000000000D6
:104E1C000E000000D4000020D40000200000000090
:104E2C00000000000E000000E8000020E800002058
:104E3C0000000000000000000E000000FC0000203C
:104E4C00FC00002000000000000000000E0000002C
:0400000300001831B0
:00000001FF
