:020000022000DC
:1070000000000420757302005D7302005F730200CC
:1070100061730200637302006573020000000000E8
:107020000000000000000000000000006773020084
:1070300069730200000000006B7302006D730200B0
:1070400069A602006F73020005AB02006F730200B5
:107050006F7302006F73020089A902006F73020050
:107060006F7302006F7302006F7302006F73020090
:107070006F7302002DAC02006F7302006F73020089
:107080006F730200B18302006F7302006F7302001E
:107090006F7302006F730200112B03006F73020005
:1070A0006F7302006F7302006F7302006F73020050
:1070B0006F7302006F730200000000000000000008
:1070C0006F7302006F7302006F7302006F73020030
:1070D0006F7302006F7302006F7302006F73020020
:1070E0006F7302006F730200195B03000000000061
:1070F000000000006F730200000000006F730200C8
:10710000000000000000000000000000000000007F
:10711000000000000000000000000000000000006F
:10712000000000000000000000000000000000005F
:10713000000000000000000000000000000000004F
:10714000000000000000000000000000000000003F
:10715000000000000000000000000000000000002F
:10716000000000000000000000000000000000001F
:10717000000000000000000000000000000000000F
:1071800000000000000000000000000000000000FF
:1071900000000000000000000000000000000000EF
:1071A00000000000000000000000000000000000DF
:1071B00000000000000000000000000000000000CF
:1071C00000000000000000000000000000000000BF
:1071D00000000000000000000000000000000000AF
:1071E000000000000000000000000000000000009F
:1071F000000000000000000000000000000000008F
:10720000354936480A1A02D0072291438D4634493F
:1072100034480A1A06D00722914381F309880222D2
:1072200082F3148830483149314A00F044F831483B
:107230003149324A00F03FF831483249324A00F0D1
:107240003AF832483249334A00F035F83248334987
:10725000334A00F030F833483349344A00F02BF811
:1072600033483449344A00F026F83448344900227F
:1072700000F02CF833483449002200F027F8334856
:107280003349091A082902DB002202604160314AB1
:1072900090471F481F49884205D00268043003B454
:1072A000904703BCF7E700208646EC46002000210B
:1072B000294A9047FEE7884207D0521A05D0037842
:1072C00001300B700131013AF9D17047884202D088
:1072D00002700130FAE770470000042000E003204C
:1072E0000000042000000420E4EE0300F42B002042
:1072F000902D0020D0730200D07302003898030054
:10730000E4EE0300F42B0020F42B0020149A030079
:10731000149A0300149A0300149A0300149A0300A9
:10732000149A0300149A0300149A0300E4EE030075
:1073300080F00300902D0020902D0020902D002043
:10734000306C0020306C0020306C0020306C00204D
:10735000308C00209D73020089C90200FEE7FEE721
:10736000FEE7FEE7FEE7FEE7FEE7FEE7FEE7FEE7F5
:1073700000F002B8FFF7FCBF0F484FF00701884349
:1073800085460E4880470E48016841F4700101604F
:10739000BFF34F8FBFF36F8FFFF732BF09480A4922
:1073A0000A4A884207D0521A05D0037801300B7080
:1073B0000131013AF9D170470000042089CD020063
:1073C00088ED00E0009A0300E02B0020F42B002061
:1073D0001F288ABF094B4FF0A04300F01F0003EBAA
:1073E0008000D0F8003723F44033C0F80037D0F8DD
:1073F000003743EA0141C0F800177047000300500E
:10740000022004F065B900002DE9F04780460D46E2
:1074100004F08CF90328044610D8012D10D0022D59
:1074200030D05DB91A4800F047FD1A4B04EB440216
:1074300013449D78184B1B5DAB4219D0BDE8F08713
:10744000144E00EB4003F218F55C5378470053B13B
:10745000DFF84C900E484A464FF4804100F0FEFCA5
:1074600008B989F8008027443E440B4BB2781A557E
:10747000002DE3D0094B1B68002BDFD02846BDE868
:10748000F047184700EB4004024804446578EFE7F2
:10749000182C0020922D0020AD2D0020A82D0020BA
:1074A000902D002000780221FFF7AEBF08B5094BF0
:1074B0001B7853B1002004F0D9F8012004F0D6F86D
:1074C000BDE80840032004F0D1B8BDE8084004F04E
:1074D000E1B800BF912D0020F8B57A4C237805461D
:1074E0001BB100232370FFF7E1FF172D00F2878007
:1074F000DFE805F00C1717425364757F878C878C83
:10750000949999999999C3C8D0D8E3E3FFF7CEFF2E
:107510006D4800F0D1FC6D4B002204461A702046E5
:10752000F8BD002004F07AF8F0B1002004F09EF8D5
:10753000022D0CBF4FF4E1644FF47A64634B1D706D
:1075400000254FF400464FF47A7029464FF4FA6252
:107550000023E4FB06010BF041FC2A460146BDE88E
:10756000F840594800F07ABC04F06CF8022D0CBFCA
:10757000C8244FF4C874E1E7002004F04FF840B18C
:10758000002004F073F84FF44874504B03221A7033
:10759000D6E704F057F8C824F7E7002004F03EF8D7
:1075A00038B1002004F062F84FF47A64474B0422AB
:1075B000EDE704F047F84FF4C874F7E7002004F053
:1075C0002DF848B1002004F051F8404B05221A7004
:1075D00040F6CD410022C2E704F034F8F5E7002080
:1075E00004F076F8394B06221A70002240F26661E8
:1075F000B5E7002004F026F8344B07221A70002467
:107600008DE70120207004F063F8EEE70120207080
:1076100004F05EF800224FF40051A0E704F049F8AE
:107620002A4B0C22EAE72A482A4E00F045FCD5F105
:10763000110504461CD0D8B9012D13D0C8204543EC
:1076400021464FF400474FF47A704FF4FA6200235A
:10765000C5FB07010BF0C2FB224601461C4800F0A7
:10766000FDFB0446022003F0EDFF0123337056E7D3
:10767000022003F0FBFF0023F8E7FFF717FF134B8F
:107680001222BBE7FFF712FF002003F0DBFF0F4BD6
:107690001322B3E7FFF70AFF012003F0D3FF0B4BE0
:1076A0001422ABE7FFF702FF002003F0CBFF01201D
:1076B00003F0C8FF054B1522A0E703F0FAFF034BC8
:1076C0001D709CE7A42D0020382C0020AC2D00203C
:1076D000F82B0020912D0020044B1B68DB0703D5FD
:1076E000034B1878FFF7F8BE704700BFA02D0020AD
:1076F000AC2D0020032801D804F004B80020704706
:10770000044B1B6813F0010301D0FFF7E5BE1846D8
:10771000704700BFA02D002038B51C4B18601C4BD3
:1077200010F00204054619601AD01A4B1A480E22AE
:107730001A700F22DA7010229A7111225A720421E3
:1077400040F2333200F0F8F9044648B900F04CFA40
:10775000044628B90146114A114800F06DFB044661
:10776000EB0711D5012003F0F9FF6CB921460D4A52
:107770000D4800F061FB044630B9BDE838400B4AC3
:107780000B48012100F058BB204638BDA02D002039
:10779000A82D0020922D0020149A0300A574020049
:1077A000389A0300D97602003C9A03000174020063
:1077B000349A0300032811D8012A0AD101290FD1D4
:1077C00000F10E02D2B20D4B00EB40001A54002023
:1077D00070470129F7D0022904D049B1072070472A
:1077E0000022F8E7054B00EB400018444270EEE73A
:1077F000024B00EB400018448270E8E7922D002015
:10780000032808B506D803F0A3FF0321FFF7E0FD26
:10781000002008BD0620FCE708B501220221002057
:10782000FFF7C8FF08B1072810D107220221012065
:10783000FFF7C0FF08B1072808D100210A22084637
:10784000FFF7B8FF10B1072808BF002008BD0000EF
:107850000388102B10B502D0112B1ED010BD1A4C6E
:107860002168B1B901220846FFF7A4FF08B1072833
:1078700024D1072202210120FFF79CFF08B107282D
:107880001CD1042202210020FFF794FF08B1072831
:1078900014D1236801332360E0E70B4A1368013BEE
:1078A0001360002BDAD1FFF7B7FF0028D6D0074BC3
:1078B0001B68002BD2D0BDE810401847034B1B6853
:1078C000002BE6D09847E4E7B82D0020B42D002027
:1078D00008B50020FFF794FF08B1062806D1012063
:1078E000FFF78EFF10B1062808BF002008BD00007A
:1078F0000D4B10B518600C4629B10120FFF7FAFEB8
:1079000040B102232370094B1B6853B9BDE81040F6
:10791000FFF782BFFFF7EEFE08B10B23F2E72070FE
:10792000F1E7002010BD00BFB42D0020B82D0020CD
:10793000C30710B507D4F023054A4008145C234060
:107940001943115410BD0901C9B20F23F4E700BF58
:10795000D02D002030B5094B1C78094B1968002345
:107960009C4202DC0022104630BD11F833508542A3
:1079700001EBC302F7D00133F2E700BFBC2D0020BA
:10798000F02D002013B504460191FFF7E3FF38B155
:1079900043682BB10199204602B0BDE8104018475A
:1079A00002B010BD034B044819680022490800F0DA
:1079B00055BA00BFC02D0020582C002010B5C0B211
:1079C000FFF7C8FF0446007802F0D0FF63785A1E24
:1079D00053425341834208D1044BD3E9002313435C
:1079E00003D1BDE81040FFF7DDBF10BDC82D00205A
:1079F00037B54308374AD35CC2074CBF1B0903F0B5
:107A00000F0304460D46042B25D8DFE803F00326B8
:107A10002F3C4000F9B10121FFF78AFF00230DF14F
:107A200007008DF8073000F055FB0120A4F120037A
:107A3000C4F12001284A20FA01F100FA03F30B43B4
:107A4000A040D2E9004120430B43C2E900039DF866
:107A5000070000F063FB03B030BD002918BF02210E
:107A6000204603B0BDE83040FFF762BF49B10321B3
:107A7000FFF75EFF0121204603B0BDE83040FFF76D
:107A800081BF0121ECE70029E5D10421E8E709B134
:107A90000321E5E7FFF74CFF29462046FFF772FF79
:107AA0000DF107008DF8075000F014FB0120A4F140
:107AB0002003C4F12001084A20FA01F100FA03F37F
:107AC0000B43A040D2E9004124EA000021EA03036D
:107AD000BBE700BFD02D0020C82D00202DE9F041CC
:107AE000124E134F00243378A34208DC114BD3E924
:107AF0000023134318D0BDE8F041FFF753BF3D68A2
:107B000005EBC40815F8340002F030FF98F8013096
:107B10005A1E53425341181A4142414115F834004C
:107B2000FFF766FF0134DEE7BDE8F081BC2D0020E1
:107B3000F02D0020C82D0020092AF7B505460C4677
:107B400016463ED902F03AFEE8B11F4B1F481D60B1
:107B50001F4B204F1C70204B002120221E600BF079
:107B60007FFA1E4B00200021C3E90001013CE4B272
:107B70000326FF2C0DD11A4A1A48002103B0BDE894
:107B8000F04000F059B902F0D5FD0028DDD003B077
:107B9000F0BD9DF8063015F834008DF8046005EB53
:107BA000C40223F007038DF8063001A993788DF8FD
:107BB00005303A4602F00CFE013CE4B20028D8D071
:107BC000E5E70720E3E700BFF02D0020D02D0020DF
:107BD000BC2D0020BD790200C02D0020C82D002042
:107BE000DD7A02004C9A030070B5084D084E00245F
:107BF0002B789C4201D3002070BD3368012113F81B
:107C0000340002F065FE0134F2E700BFBC2D002015
:107C1000F02D00201FB50021039001AA44F20100BD
:107C2000CDE9011100F004F805B05DF804FB000097
:107C300038B572B604F050F903F09EFF0028FBD16E
:107C4000104B114C114D1249E41AE408240444F07D
:107C5000010004F0DDF8D5F8F030DB0700D500BEF8
:107C60000C4944F0020004F0D3F8BFF34F8FEA68E8
:107C7000094B02F4E0621343EB60BFF34F8F00BF88
:107C8000FDE700BFF89803002899030000ED00E02D
:107C9000509A03005C9A03000400FA0510B5D0E97D
:107CA0000243D1E90202A04272EB03032CBF012080
:107CB000002010BD08B50A4800F063FB094AD2E96C
:107CC0000031C018084BD3E9002341F10001904274
:107CD00071EB030303D210F1807041F1000108BD84
:107CE000782C0020F82D0020702E002037B5054696
:107CF0000C460A4801A901F004FB60B1057044601C
:107D000001A9064801F027FB18B1054800F03EFB29
:107D1000002003B030BD0420FBE700BF5C2E002034
:107D2000782C0020294B73B51E7804461EB9002616
:107D3000304602B070BD0028F9D0FFF7BBFFD4E990
:107D400002239042994139D300230DF107008DF8A9
:107D5000073000F0BFF923692BB94FF0FF324FF025
:107D6000FF33C4E902239DF8070000F0D7F9D4E9F6
:107D70000530984700250DF107008DF8075000F0F9
:107D8000A9F92369C3B1D4E90212B2F1FF3F08BFD8
:107D9000B1F1FF3F05D05B1842F10002C4E90232A5
:107DA00035469DF8070000F0B9F9002DBFD008480E
:107DB000214602F03FFABBE71D46F2E7B3F1FF3F71
:107DC00008BFB2F1FF3FB2D0F1E700BF002E0020A4
:107DD000789A030013B5114B1149186801900823D4
:107DE0001048582201F058FA044698B90E4A0F4834
:107DF00001A900F0B7F9044660B90C48012100F070
:107E0000A3FA01230A4A0948194600F005FA094B6A
:107E100001221A70204602B010BD00BF749A030000
:107E2000042E00205C2E00201D7F0200782C0020F4
:107E3000FFFF7F00002E002030B56AB103684FF0CD
:107E4000FF344FF0FF355A614A1E5142C3E90245E3
:107E500051411961002030BD0720FCE7F7B5044609
:107E600000250DF1070017460E468DF8075000F06B
:107E700031F9D4E90223B3F1FF3F08BFB2F1FF3F6C
:107E800007D1FFF717FF301841F10001C4E90201E3
:107E900001259DF8070000F041F955B12369A7615C
:107EA00003B126612146002003B0BDE8F040FFF792
:107EB0001DBF284603B0F0BD37B5054600240DF1BF
:107EC00007008DF8074000F005F9D5E90223B3F16A
:107ED000FF3F08BFB2F1FF3F1FBF4FF0FF324FF02F
:107EE000FF33C5E9022301249DF8070000F016F9CD
:107EF00034B12946012003B0BDE83040FFF7F6BE9B
:107F0000204603B030BD401A20F07F40704700008B
:107F1000014800F036BA00BF782C00202DE9F74365
:107F2000064600F019FA40B1624AD2E9003113F175
:107F3000807341F10001C2E900310021304600F0B8
:107F40001AFA38B15C4C236823B12068FFF7EAFEC7
:107F5000002323600121304600F00DFA20B1FFF725
:107F6000A9FE564BC3E900015548534C01A901F045
:107F700002FA4FF0FF384FF0FF39A0B9DFF8448123
:107F80004D4D404602F06CF9002800F08580D0E9A4
:107F90000223B3F1FF3F08BFB2F1FF3F32D14046A9
:107FA00002F058F9EDE70378012B20D0022B08D11D
:107FB000444D284602F04EF9002877D0C0E90289E6
:107FC000F7E75BB94168D1E90223B3F1FF3F08BF8E
:107FD000B2F1FF3F02D03B4802F02CF901A938482A
:107FE00001F0F4F901A9364801F0C5F9C5E7416887
:107FF0002368994202D100232360EFE7314802F061
:1080000032F9EBE7296891B12968D1E9020182428E
:108010008B412FD22B68D3E90223B3F1FF3F08BF76
:10802000B2F1FF3F03D02968404602F003F9404611
:1080300002F010F9D0E902490746FFF73BFE201A8B
:1080400069EB0109012879F1000318DBB0F5350F60
:1080500013D3FFF75DFF1C4A02441C484FF49603FC
:10806000002100F0F9F890B92B6813B9304600F000
:10807000CBF82F6003B0BDE8F0832246EDE713484C
:10808000002100F06EF93846FFF74CFE01E00D28A4
:10809000F9D000232B6074E7074B1B68002BE9D154
:1080A000304603B0BDE8F04300F0B2B8084B0122FF
:1080B0001A7093E7F82D0020782E0020702E0020F3
:1080C0005C2E0020789A0300FFFFB400782C00207B
:1080D000002E002070B5EFF3108672B60C4A94683B
:1080E00001239CB993600B4B0B4DD3F880102940B2
:1080F0001160C3F88050D3F8841051604FF0FF3204
:10810000C3F88420047006B962B670BD0370FAE744
:108110007C2E002000E100E0FC06FFBD084B9A68C1
:1081200010B55AB150B9EFF3108172B6054A1C6808
:1081300014605C685460986001B962B610BD00BFFD
:108140007C2E002000E100E0435882B03BB10023C8
:10815000435043580193019B012002B070471846D9
:10816000FBE70000F8B5204B4479204E43F824206B
:108170001F4A204B06EBC4049B1A2279DB081B0420
:1081800032B143F002001C4903F042FE0820F8BD62
:1081900002680C88C2F8084590F904508A7804797E
:1081A0005201002DD2B219DB14494F1987F8002370
:1081B00001226D0904F01F0402FA04F441F825407D
:1081C000427906EBC201012446F832000C7143F0FB
:1081D00003000B4903F01CFE0020D8E7094904F016
:1081E0000F040A55ECE700BF902E0020882E0020D7
:1081F000F898030038990300849A030000E100E036
:10820000A69A030014ED00E0036801221A6070478B
:10821000036801225A60704773B501F15005AD0043
:108220000068ADB24FF480348C400026C0F808439B
:10823000C0F84843465101F5A8714559019522F00F
:108240007F42019D40F82120C0F844430BB1C0F8A3
:10825000044302B070BD00002DE9F74F0D4622F037
:108260007F4402684FF4803705F150068F40804606
:10827000B60002EB8500C2F84873B6B2C2F80873C4
:10828000D2F8041599464FF0000BD0F84035C0F8ED
:10829000401542F806B05B1A9259009223F07F43D2
:1082A000012B009A4FEA850A0CD1264B4FF48060CF
:1082B00043F001039847D8F8003043F806B09B59C3
:1082C0000193019BD8F80010D1F80465C1F84473FC
:1082D000A31B23F07F43012B1CD11A4B05F5A87576
:1082E000013443F0010341F825404FF48060984782
:1082F000D8F80030D3F804359E4209D1D8F80030C0
:108300000020C3F84473C3F8047303B0BDE8F08FD2
:108310000D20FAE78A44C9F1FF13CAF84045D1F8A5
:108320000405221A013A22F07F4203F57F4393426B
:10833000EED3002AE2D10134CAF84045D1F8043521
:108340009842DAE7C09A030003680222C3F8442384
:1083500009B1C3F80423704700684FF48271FFF736
:10836000F3BE4FF4803303FA01F10368C3F84813F6
:10837000C3F80813704750318900006889B2FFF7CD
:10838000E3BE0368D3F804057047000090F9043099
:10839000002B09DB5A09012103F01F0301FA03F343
:1083A0004032024941F82230704700BF00E100E04E
:1083B000024B034A1B681068184700BF902E00202C
:1083C000882E002070B5064D0646002455F8043B63
:1083D0000BB1304698470134042CF7D170BD00BF73
:1083E000A02E00204388033300EB830399420BD374
:1083F00082884FF6FF739A4208D0038833B18068B1
:10840000431C584258417047022070470120704772
:10841000033080B240F2FE33984230B51FD8134B80
:108420001A783AB91C895D892C440444A4B2B4F585
:10843000806F0AD91A7DAAB99A8BDC8B2244024438
:1084400092B2B2F5806F0DD801220A801446142230
:1084500002FB04335A8910445881002030BD48F291
:108460000860FBE748F20660F8E700BFD42E002062
:108470000B4A0C495388142000FB0311CB6833B915
:108480000420496810700122074801F063BB0749C6
:108490000523137002238B80012209680023F3E770
:1084A000B82E0020D42E0020E02B00209C2F00208E
:1084B00007B5002305490093054A096805480823C4
:1084C00001F0AEFA03B05DF804FB00BF9C2F002062
:1084D000D49A0300E02B002007B500230146009347
:1084E000034A0448082301F09BFA03B05DF804FB3B
:1084F000CC9A0300E02B002013B500230C46009318
:108500000146084A0848042301F08AFA38B9074BA3
:10851000142101FB043101230B7402B010BD48F299
:108520000D60FAE7C89A0300E02B0020D42E00204B
:1085300037B50A480A4B42689C8819685388032556
:10854000033305709BB2002000909B0001EB840177
:10855000044801F065FA03B030BD00BFB82E00201A
:108560009C2F0020E02B002010B50146044800F0AD
:10857000C8FE1C22044600210AF072FD204610BDF0
:10858000882F002068B10268084B9A4209D14068E0
:10859000074B984207D00133984214BF03200120B3
:1085A0007047032070470020704700BFDEC0ADDE7B
:1085B000FE011EF12DE9F0410D460223154F2B80DF
:1085C000164600F5805100F108044FF001088C4276
:1085D0000ED2236801330BD02046FFF703FF48B1CA
:1085E0000EB186F80080022809D14FF480632B80F9
:1085F000BDE8F081A3683A68934200D93B602B88BC
:108600006288033313442B806388033304EB8304B1
:10861000DDE700BFCC2E002038B5144B14220D46E8
:1086200002FB00302B68446804F58051A3B15C88DC
:10863000033403EB84048C4215D22368013312D037
:108640002046FFF7CFFE012808D002280BD00028D3
:10865000F1D12C60012038BD0834ECE76388033386
:1086600004EB8304E7E70020F5E700BFD42E0020E9
:10867000426873B504460D466AB3234BD9688A42F3
:1086800029D31B699A4226D812F0030323D11F492C
:108690000089098988421ED12068916888421AD1D0
:1086A0001B4841688A4203D901F580518A420DD3A3
:1086B00081698A420CD901F580518A4208D201228F
:1086C0002A80B3FA83F0400902B070BD1A46F7E77A
:1086D00048F20963F5E700262E800196288801A953
:1086E000FFF79AFF30B92B8801339BB2012B2B8007
:1086F000F3D9E9E7019B226899689142EED1636062
:10870000024B1B892381DFE7E02B0020B82E0020DD
:10871000D42E00202DE9F8431C461D4B1B7806463D
:108720000F46154673B382B37CB3DFF86C804FF00D
:108730001409A388012B02D948F2096020E009FB43
:1087400003F318F803302BB9A0882146FFF764FF24
:1087500020B92060A3880133A380EAE723681EB113
:10876000998832889142EFD11FB119883A88914295
:10877000EAD19A68C5E90023064B1B892B810020AA
:10878000BDE8F88348F20160FAE748F20460F7E7D1
:10879000B02E0020B82E0020D42E002008B5074BA4
:1087A0005888191DFFF738FF18B1BDE80840FFF7DA
:1087B000BFBEBDE80840FFF75BBE00BFB82E00207B
:1087C0002DE9F0479F4FDFF8A08288B006463B684E
:1087D00023B99D48414600F0CEFD38603D682978B8
:1087E0004B1E052B07D8DFE813F02000740074003F
:1087F000060106015D0148F20E641422002103A85F
:108800000AF02EFC41F61D539C4208BF00243B6831
:1088100004941A78023A042A00F2FC81DFE812F08C
:10882000DD01E9010B0213021A022EB1874B00226F
:108830005A604FF40644E0E72B79032B1CD8DFE89D
:1088400003F014022A35824A1378022B1AD0137DC2
:10885000022B4FF0010317D114214B43D1180020F4
:10886000D0544868FFF738FE03E001232B71FFF76F
:108870001FFE002800F0B980744B00225A6048F2B5
:108880000D64BAE70023E7E7704A137000235360D2
:1088900041F61D54B1E76F496F48002302222B7146
:1088A0008A800968012201F055F9E2E76B4B684CB8
:1088B0005B88684A14214B43E11800262E714D68ED
:1088C00010681560958848600D810221E6549180FA
:1088D000C8E7B5F814A0AA7DDFF87491AEB1022AFA
:1088E000EB8806D9142101FB0A91DA1C088902449D
:1088F0000A81142202FB0A99C3F57F43B9F80A20C2
:10890000FD331344A9F80A3093E7142303FB0A93B9
:1089100018895C6804EB8004062A69D8DFE802F055
:10892000274E36441D5A040041F61D54AA7DEB889B
:10893000022A06D9142101FB0A91DA1C0889024493
:108940000A81142202FB0A99C3F57F43B9F80A2071
:10895000FD331344A9F80A304FE741484149002349
:108960004360AB690360FFF783FE00285BD00223FE
:10897000AB75002300930423EA182146364801F022
:108980004FF8002831D048F20D64CFE72B69002B57
:1089900014BF03230123AB750023009305F10C02E0
:1089A000042304F10801E9E70123AB750022EB88F9
:1089B00000922A699B0004F10C01DFE703290CBF38
:1089C00005230623AB7500230093042305F1080259
:1089D000E118D3E70623AB75224B1988204B586862
:1089E000FFF78AFD04460028A0D108B0BDE8F08753
:1089F00048F20E649AE7002E7FF41BAF2B79012B0F
:108A000034D0022B3FF444AF002B7FF4F4AE0223AA
:108A10002B710DF10A01EB68039303A8CDE90466FD
:108A2000FFF726FE10B948F20964E6E60498BDF89F
:108A30000A108388EB8003882B81FFF75DFD0446D5
:108A400029E000BFD02E0020882F0020B02E00206B
:108A5000D42E00209C2F0020E02B0020B82E0020D8
:108A6000942E0020A82F0020C82E0020DFF80092AE
:108A700003AA4B463146A81DFFF74CFE044670B9C9
:108A8000B9F804100498FFF737FD044648F209636B
:108A90009C423FF4FDAE002C7FF4AFAEA5E7C9E9E0
:108AA0000066F3E7002E7FF4C4AE6C4B1A7BBAB1BC
:108AB0001E731A78013A062A3FF69DAE01A151F8BD
:108AC00022F000BF6F8B0200958B0200B38B020077
:108AD000B98B0200F7870200BF8B0200D18B020026
:108AE0001A78072AE5D801A151F822F00D8B02006F
:108AF000B38A0200B38A0200338B0200478B020064
:108B00006B8B02006B8B02002F8B02001A89544979
:108B100001321A8100225A801A730A78B2FA82F25C
:108B200052099A720A7DB2FA82F25209DA7201226D
:108B300007E04C4958688A884088033202448A809A
:108B400002221A70B5E75C88454A4649142505FBA0
:108B500004220868546850608888108102200C60E4
:108B60008880002111740622EBE70722E9E79A7A50
:108B700032B9DA7A8AB900221A705A805A6087E6C6
:108B8000374900229A72CA68002AF2D1097C00296A
:108B9000EFD05A80FFF702FE51E70022DA72304A26
:108BA000116A0029E7D192F82420002AE3D001229B
:108BB000EFE7FFF7BDFC42E7FFF75AFC3FE75A88B3
:108BC000274B142101FB02335868FFF785FC36E779
:108BD00000225A60FFF76CFC31E701228DF80C206F
:108BE0001A89ADF818209A88DB68ADF81A20059329
:108BF00010E002228DF80C201A89ADF818209A880E
:108C0000ADF81A20DA689B7D05929A1F53425341B2
:108C10008DF81C3003A8FFF7D5FB0026414612480B
:108C20003E6000F0D3FB1148012100F089FC0028D0
:108C30007FF4CDADD9E603228DF80C20DA88ADF8AB
:108C400018201A89D0E704228DF80C20DB88ADF8B3
:108C50001830DFE705238DF80C30DBE7B82E002055
:108C6000D42E00209C2F0020882F0020982F002039
:108C7000AC2F00204068FFF7A3BD000008B50548F1
:108C8000012100F045FC18B9BDE80840FFF798BD88
:108C900008BD00BF982F00202DE9F3419846374BBF
:108CA0001B7806460D46002B5CD000295DD0098854
:108CB0004FF6FF7399425BD06B88002B58D06B68DE
:108CC0009B0758D14AB92F890DF102013846FFF7A9
:108CD0009FFB30B102B0BDE8F08113885788ADF832
:108CE000023001A8FFF740FC044660B9BDF802203D
:108CF000234B142101FB023358890338C01B5881D0
:108D000048F20760E6E780F8008000238375BDF82D
:108D1000023083826B68036101211A4800F004FC71
:108D20002B882381B8F1030F6B88A38004BF042331
:108D3000A3754FF0000508BF3368E06008BFA3616A
:108D40001148E780658101A900F005FB36B1E368B1
:108D500033600E4B75601B89B5723381FFF78EFF50
:108D60000020B7E748F20160B4E748F20460B1E7D9
:108D700048F20360AEE748F20260ABE7B02E002095
:108D8000D42E0020CC2E0020882F0020B82E0020CA
:108D900008B5034607480268042A08D00168064A55
:108DA00042F82130012100F0BFFB002008BD48F24D
:108DB0000B60FBE7A42F0020A02E00202DE9F04F30
:108DC000DFF8208289B01422002103A80AF048F9B4
:108DD00098F8003003F0FF0200923BB103A8FFF7C0
:108DE000F1FA0027384609B0BDE8F08F08F1040019
:108DF00000F0B2FB0028F4D1009BDFF8ECA1D3F81F
:108E0000F83F5C1C08BF4FF010234FF0805208BFA2
:108E10005B6911695269581C08BF02FB01F3CAF86B
:108E200010306949A3F5405300225046CAF80C306F
:108E300000F0C4FD07460028D4D11C2363496448D0
:108E4000DFF8A8B18C2200F027FA0323B9463D468B
:108E500001933C46DAF80C604E443046FFF792FB33
:108E6000012867D0032817D000283DD159494FF079
:108E7000140C0CFB04FC01EB0C0201F80C00566016
:108E80000CF110020CF1080C0A4430466144FFF763
:108E900091FB45F002054AE03268531C02D04E4B6C
:108EA0009A4239D1321D06F580511068013033D114
:108EB00004329142F9D1DBF800203AB902220123B1
:108EC000CBF80060ABF8042000930BE0142262435F
:108ED000404B022099189854404A4E605480013407
:108EE0000881A4B245F0010509F58059B9F5405F44
:108EF000B0D1019B012B98BF0025EDB2022D03D00C
:108F0000062D36D0002D3ED1002388F8003048F2DF
:108F10000A67C8F8043065E7019B2E495A1E93B2D0
:108F20001422624388180193466003208854013458
:108F3000A4B2D9E7009B6BB1264B14226243991867
:108F400002209854DBF800204A60244A08815480AB
:108F50000134A4B200222249CBF800603046FFF76A
:108F600029FBBBF80420022A0CBF04220822154367
:108F7000BAE7012388F8003003A80023C8F80430BA
:108F8000FFF720FA2EE702A8FFF7EEFAC8B1012397
:108F9000013D03700A2D09D8DFE805F00608060830
:108FA000070807080F110F000023037102A90848E2
:108FB00000F0D1F9FFF762FE14E70323F5E702237F
:108FC000F3E748F207670DE7D09C0300FC2E002072
:108FD000882F0020D42E0020DEC0ADDEB82E002069
:108FE000A02F0020B02E0020E02B00209C2F00207E
:108FF00073B50D460446C8B1C1B10DF10601FFF7C6
:1090000037FBB0B1BDF806300B486668142202FB8E
:10901000030001210C3000F087FA63682E600C33E6
:109020006B600123A372002002B070BD48F204609F
:10903000FAE748F20960F7E7D42E002013B504469A
:10904000A8B10DF10601FFF713FB98B1BDF806209A
:109050000B4B142101FB0233DA6872B1A27A62B1C0
:10906000DA680020013ADA60A07202B010BD48F25E
:109070000460FAE748F20960F7E748F20560F4E7B0
:10908000D42E002002230022FFF706BE18B10323CE
:109090000022FFF701BE48F204607047114B1B78B5
:1090A00013B50446ABB14FF6FF73984214D001A834
:1090B000FFF75AFA98B10523037001230371C480A6
:1090C00001A9094800F047F9FFF7D8FD002002B0D8
:1090D00010BD48F20160FAE748F20360F7E748F292
:1090E0000760F4E7B02E0020882F00200F4B1B787C
:1090F00007B5A3B101A8FFF737FA98B106230370AB
:1091000001A90B4800F027F90A4B1A780AB101228D
:109110001A73FFF7B3FD002003B05DF804FB48F2BB
:109120000160F9E748F20760F6E700BFB02E0020C3
:10913000882F0020B82E002007B5ADF80600ADF846
:1091400004100DF1060001A9FFF7E4FA03B05DF881
:1091500004FB07B51346ADF806000A4600200DF1E2
:109160000601FFF7D7FA03B05DF804FB07B5134615
:10917000ADF806000A460DF106000021FFF7CAFA15
:1091800003B05DF804FB20B119B103680B60002047
:10919000704748F2046070472DE9F84F3C4B1B784C
:1091A0000446002B6DD000286ED0DFF8E890122224
:1091B000002109F055FF032323804FF0000A4F469A
:1091C00014264FF00108D9F80410B9F80AB0B9F81C
:1091D00008500846FFF7D6F9032808BF238862889D
:1091E00004BF03F1FF33238006FB0A735D44DB6891
:1091F0001344638023899B446389A4F808B0ADB20B
:109200002B446381C5F58065A389ADB2AB4238BFFD
:10921000A58101F1080501F58051A94229D92B68E2
:10922000013326D02846FFF7DDF801280AD00228AE
:1092300015D00028F1D1A3880133A3800AE04FF0B4
:10924000010AC0E7E3880133E380E3896A880333D6
:109250001344E3816B88033305EB8305DDE7E38883
:1092600084F810804D1BE189013301EBA501E380F7
:10927000E18109F11409BAF1000FE0D00020BDE846
:10928000F88F48F20160FAE748F20460F7E700BFA0
:10929000B02E0020D42E002010B561B1B2FBF3F443
:1092A00003FB1424A4B244B9C0E900148460828191
:1092B000C381204610BD0E20FCE70920FAE782B0EA
:1092C00050E8022FC188B2EB324F4FF0000317BFB6
:1092D00092B241EA014142EA014104E04268B2EB44
:1092E000324F08BF012340E80212002AE8D18DF86E
:1092F00007309DF80730002B0CBF1120002002B072
:10930000704737B550E8013F9DB2C4892544848930
:10931000A54228BF2D1B0489A54202BFBFF32F8F92
:10932000002207E0C5EA030540E80154002CE9D11A
:109330004FF001028DF803200193019A0A609DF815
:10934000031001F0FF0321B1006810FA82F003B0AE
:1093500030BD1846FBE70A884B889A4209D150E88D
:10936000012FC2EA024240E80123002BF7D101207D
:1093700070470020704737B550E8023F1FFAA3F549
:10938000C488A54202BFBFF32F8F00220DE0C4891D
:1093900025448489A54228BF2D1BC3EA054540E822
:1093A0000254002CE8D14FF001028DF80320019304
:1093B000019A0A609DF8031001F0FF0321B10068D3
:1093C00000EB124003B030BD1846FBE70A884B881B
:1093D0009A4209D150E8022FC2EA224240E8022311
:1093E000002BF7D1012070470020704701F01F02C9
:1093F0004B090121914000EB830000F065B84B0957
:1094000010B501F01F040121A14000EB830000F022
:109410004FF8E04000F0010010BD01F01F030122F1
:109420009A404B0900EB8300D14300F065B84B092B
:1094300001F01F0150F82300C84000F00100704700
:109440002DE9F0474F1E7F0980460E460137002563
:1094500058F8254008EB8509E44394FAA4F4B4FADB
:1094600084F44FEA451A202C06D10135AF42EFD8DB
:1094700034462046BDE8F0875444A642F5D921463B
:109480004046FFF7BCFF0028F3D0D9F80040E44382
:1094900094FAA4F4B4FA84F4E5E710B5034653E86B
:1094A000000F0A4643E8002494F0000FF7D110BDE6
:1094B00010B5034653E8000F40EA010243E80024D8
:1094C00094F0000FF6D110BD10B5034653E8002FFD
:1094D00042EA010043E8000494F0000FF6D110BD09
:1094E00010B5034653E8000F00EA010243E80024E8
:1094F00094F0000FF6D110BD10B5034653E8002FCD
:1095000002EA010043E8000494F0000FF6D110BD18
:1095100010B5034653E8000F00EB010243E80024B6
:1095200094F0000FF6D110BD10B5034653E8002F9C
:1095300002EB010043E8000494F0000FF6D110BDE7
:1095400010B5034653E8002FA2EB010043E80004E6
:1095500094F0000FF6D110BD0121FFF7A9BF012142
:10956000FFF7B2BF0021FFF7BBBF10B590B1D0E944
:10957000012301689B1ADBB20A60013BDBB2FF2BBF
:10958000026802D10020107110BD11684C1C1460DB
:109590000B70F2E70E20F7E737B5054600240DF112
:1095A00007008DF80740FEF795FD2A686B68116883
:1095B00099420ED9481E106011F8013CEC68298AC6
:1095C00001FB0344AB6811791B1ADBB2994238BF27
:1095D00013719DF80700FEF7A1FD204603B030BDD2
:1095E00037B5054600230DF107000C468DF807300E
:1095F000FEF770FD2A681368591C1160E968641A47
:10960000298AB4FBF1F41C709DF80700FEF786FD73
:1096100003B030BD826810B504462AB143690168C1
:10962000006998470023A36010BD0EB403B50399E9
:1096300021B104AB01AA019300F076F802B05DF805
:1096400004EB03B070470A2938B504460D4602D131
:109650000D21FFF7F8FFA3682268591CA160D554BB
:10966000D4E901329A4204D32046BDE83840FFF7DE
:10967000D1BF38BD2DE9F84F9846DDE90A431546BC
:1096800082460F460A464FF00109AA420FD2C14551
:1096900038BFC14613F0010B01D16CB9002401267B
:1096A000B8F1010F1BD908F1FF386E43F8E709F153
:1096B0000109B2FBF5F2E8E79B070ED5B8F1000F00
:1096C0000CBF30262026A145E9D2013C3146504648
:1096D000FFF7B9FF002CF6D1E0E72026F3E7B7FB50
:1096E000F6F39D42E1D9DFF83C80B7FBF6F3504634
:1096F00018F8031006FB1377FFF7A5FF3346AB42BC
:10970000B6FBF5F6F1D2BBF1000F02D00CB1A145CA
:1097100001D3BDE8F88F20215046013CFFF793FFAD
:10972000F4E700BFE59A03002DE9F74F0546174619
:109730008846002900F03E8118F8011B49B92B7BAF
:10974000002B00F03781284603B0BDE8F04FFFF74B
:1097500061BF252940F0B780002698F800302D2BF6
:10976000424608F1010823D0302B24D02B2B25D0E2
:1097700000242A2B02F1010123D13B681A1D1B682A
:109780003A601C440A4613782E2B26D101324FF042
:10979000000A104610F8011BA1F1300CBCF1090FB2
:1097A0001DD80A2303FB0A13A3F1300A0246F0E78F
:1097B00046F00106D1E746F00206CEE746F0040681
:1097C000CBE711F8013CA3F130000928DBD80A22CD
:1097D00002FB0434303C0A46CBE74FF0000A12F893
:1097E000011B01F0FB0068289046F8D0782909D8C1
:1097F0006F290CD8632962D022D8252963D0582933
:1098000000F0888098F80030002B95D197E77039E8
:109810000829F7D801A353F821F000BF8F9902005F
:10982000059802000598020025990200059802009B
:10983000039902000598020005980200159902009C
:10984000642901D06929DDD13A68D2F80090111D50
:1098500089EAE9723960A2EBE9724FF0010B092A3B
:1098600035DCD34538BFD3462CB1B9F1000F01DB4D
:10987000720700D5013CB30702D5BAF1000F03D03F
:10988000F00701D44CBB0024B9F1000F2DDAC9F167
:1098900000092D212846FFF7D6FE06F00302022A12
:1098A00004D1BAF1000F01D11CBB0024CDE9004660
:1098B00053460A2249462846FFF7DCFEA2E73B68EA
:1098C0001A1D19783A602846FFF7BDFE9AE70A2369
:1098D0000BF1010BB2FBF3F2C1E7A345D4D2202177
:1098E0002846013CFFF7AFFECCE77107D5D52B2109
:1098F000D0E7A345DAD230212846013CFFF7A3FE8A
:10990000D2E73968CDE900460A1D3A6053460A227B
:109910000968D0E739680A1D3A60CDE90046534628
:109920001022F5E73B681A1D3A6016F00106D3F8DD
:10993000009024D1B9F1000F03D0484609F0C3FBD1
:109940000646B4421DD809F1FF3919F8011F002954
:109950003FF458AF2846FFF776FEF6E72846013673
:10996000FFF771FE19F806100029F7D1A642BFF4DF
:1099700049AF20212846013CFFF765FEF6E70026A7
:10998000F0E720212846013CFFF75DFED9E73B6860
:109990001A1D3A60302128461C68FFF754FE7821D2
:1099A0002846FFF750FE00220823CDE90032214669
:1099B000102280E703B0BDE8F08F00BF13B50B465F
:1099C000114680B9104B1148114AC01A0E23C00825
:1099D0000093104B0004104940F0010002F02FFAF0
:1099E0000E2002B010BD4BB9074B08480B4AC01AF5
:1099F000C0080E2300930004064BECE703601B68CD
:109A000002B0BDE810401847F898030068990300B9
:109A1000F59A0300B19C0300FA9A0300299B030006
:109A20002DE9F743DDF8288088B93E4B3E483F4A90
:109A3000C01AC0080E243E4B009400043D4940F07B
:109A4000010002F0FCF9204603B0BDE8F0834AB9FA
:109A5000344B3548384AC01AC0080E24344B0094A1
:109A60000004EBE7D0F800E0BEF1000F09D12D4B68
:109A70002D48324AC01AC00808242D4B0094000417
:109A8000DCE74BB9274B28482D4AC01AC0080924E7
:109A9000274B00940004D1E74568D5F80490B3FB48
:109AA000F9F509FB15354DB11E4B1F48254AC01A63
:109AB000C00809241E4B00940004BFE78D0709D09D
:109AC000184B1948204AC01AC0081024184B00949B
:109AD0000004B3E712F0030F09D0124B12481B4ADF
:109AE000C01AC0081024124B00940004A6E7C568F1
:109AF000A9420DD34D1EEC180569AC4208D8CDF82B
:109B00002880DEF80C40A44603B0BDE8F04360476F
:109B1000044B05480E4AC01AC0081024044B009498
:109B200000048BE7F898030068990300F59A030096
:109B30009E9C0300FA9A0300779B0300239B03007B
:109B4000369B03007D9B0300A79B0300BF9B030084
:109B5000E29B0300F7B580B92A4B2B482B4AC01A69
:109B6000C0080E242A4B009400042A4940F001004A
:109B700002F065F9204603B0F0BDD0F800C0BCF19A
:109B8000000F09D11F4B2048234AC01AC0080824DF
:109B90001F4B00940004E8E74AB91A4B1A481F4AC1
:109BA000C01AC00809241A4B00940004DDE7456878
:109BB000D5F800E00EF1FF350D4209D0114B1248E7
:109BC000174AC01AC0081024114B00940004CCE7B7
:109BD000C568A9420CD34D1E0EFB02540569AC4268
:109BE00006D8DCF81040A44603B0BDE8F04060475A
:109BF000044B05480B4AC01AC0081024044B0094BB
:109C00000004B2E7F898030068990300F59A03008E
:109C10008B9C0300FA9A0300239B0300369B0300EE
:109C2000099C03002F9C030029DF704728DF704741
:109C300070B503689E6886B004460D466EB1142266
:109C40000021684609F00CFAA36805932379019571
:109C50002BB1012B0DD06846B04706B070BD012373
:109C60008DF8003023690293E368039363690493DA
:109C7000F1E702238DF80030E3681B030293F5E758
:109C80000846704700207047024B187A003818BF0A
:109C90000120704750300020034B187A0122B0FA9F
:109CA00080F05A74400970475030002008B51046C3
:109CB0001A4609F0ACF9002008BD000008B51422CE
:109CC0000021044809F0CCF90348FFF7F8FA002016
:109CD00008BD00BF503000204030002010B5094CB6
:109CE000094B43602046FFF737FC40B908F0F6FE09
:109CF000064920741C2306488C22FFF7CDFA002069
:109D000010BD00BF50300020C49C0300B42F0020C1
:109D10004030002038B5234D234C2B7A3BB92349E2
:109D20002348FFF728FB206008B9686038BD02238C
:109D300024682B72237973B1012B24D02046032190
:109D4000FFF776FF00232B726B6018491848BDE8B7
:109D50003840FFF73BBBD4E90523D21AB2F5805F48
:109D6000D4E9031028BF4FF480529208012A38BF6B
:109D7000012219441844FFF757FF50B11128DDD1D3
:109D800001232B72D2E7D4E903031844FFF74EFFF7
:109D9000F3E72B7C002BC9D1BDE83840022000F04E
:109DA00009B800BF50300020683000206430002027
:109DB0004030002038B5234C237A002B41D0022BB1
:109DC00009D1032830D0204B00221B68E2601A79A9
:109DD0003AB1012A22D0637C7BBBBDE83840FFF753
:109DE00099BFD3E905128D1AB5F5805F94BF52195A
:109DF00002F580529A619142EDD102284FF00003A2
:109E000008BF19462372104B18BF0D211868FFF7C1
:109E10000FFF0E490E48FFF7D9FADCE71A69013245
:109E20001A615B699A42E7E7E3680133082B01D8BE
:109E3000E360D0E70023E360DFE7BDE8384008F0E7
:109E40003DBE38BD50300020683000206430002016
:109E500040300020831E012B01D8FFF7ABBF7047B5
:109E600000F0FD03012B08D1044B00225A74421E5E
:109E7000504250411874FFF74DBF704750300020DA
:109E800010B5064C201DFFF767FB28B9637C1BB992
:109E9000BDE81040FFF73EBF10BD00BF50300020AE
:109EA0002DE9F34180460D46104801A916461F468C
:109EB000FFF727FA0446B0B118220021043009F058
:109EC000CFF82D0B0123237101A90848C4F80080A5
:109ED000A760E5606661FFF73EFAFFF7D1FF00205B
:109EE00002B0BDE8F0810420FAE700BF4030002056
:109EF0002DE9F34180460F460F4801A916461D463D
:109F0000FFF7FFF90446A8B118220021043009F038
:109F1000A7F8089BA36001A9C4E903670648C4F831
:109F200000806561FFF717FAFFF7AAFF002002B073
:109F3000BDE8F0810420FAE7403000202DE9F84F19
:109F4000B0F806A04579D2F800B09DF828900AFB39
:109F500005F5043D88460BEB0301A94203F1040417
:109F600088BFA5EB030BB4FBFAF607460AFB1644C1
:109F7000C2F800B04EB9AAEB04055D4528BF5D46A6
:109F8000BBF1000F04D1BDE8F88F3F68013EF1E757
:109F9000043408EB06003C442A46B9F1000F0DD00A
:109FA0002146ABEB050B09F032F8DA452E443F6849
:109FB00055464FF0000428BF5D46E1E701462046C4
:109FC000EFE7FFF7D2BAF8B546790146721E0546AB
:109FD000002393422D6803D30024A64202D8F8BD83
:109FE0000133F6E70F682846FFF7FAFA01343946DD
:109FF000F3E72DE9F843068ACD1C0746FFF7CCFAB4
:10A00000043E35440446B5FBF6F5F0B14FF48073D9
:10A01000EDB28380C680013D076081464FF00008A5
:10A02000A84512D23846FFF7B7FA064648B1637919
:10A030000133637108F10108C9F800000760814627
:10A04000EEE72046FFF7BFFF34462046BDE8F88321
:10A0500001210430FFF768BA10B50121044604302D
:10A06000FFF76EFAC0B220B92046BDE81040FFF7F6
:10A07000AABF10BD1FB503920022009203AAFFF7EA
:10A080005DFF05B05DF804FB1FB50392012200924D
:10A0900003AAFFF753FF05B05DF804FB41DF7047EB
:10A0A000064B10B500241C70054B1C60BFF35F8F7E
:10A0B0000449054800F0A8F8204610BD743000207F
:10A0C00078300020FC9C03006C30002007B5002392
:10A0D0000DF107008DF80730FDF7FCFFF1EE103AA7
:10A0E00023F09F03E1EE103ABFF35F8F0A4B40224B
:10A0F000C3F884219DF80700FEF710F808F0EEFC85
:10A1000020B103B05DF804EBFFF7C8BF20BF40BF2C
:10A1100020BF03B05DF804FB00E100E002681368B3
:10A120005268934291BFD01A80680130801888BF6E
:10A13000C01A7047036881681A685B688B4234BF35
:10A1400001330023D31A58425841704773B5002396
:10A1500004460DF107000D468DF80730FDF7BAFFF4
:10A160002046FFF7E7FF10B1237C002B3BD123688B
:10A17000A1685E685A688A4234BF013200225A6080
:10A1800028B11A688A4234BF013200221A60E2689C
:10A190006368511E072920D8DFE801F004101F145E
:10A1A0001F1F1F182A789A552046FFF7B7FF23680C
:10A1B0009A68824200D29860002415E02A8823F829
:10A1C0001620F1E72A6843F82620EDE7D5E90001DB
:10A1D00003EBC603C3E90001E6E7294602FB0630AC
:10A1E00008F015FFE0E704249DF80700FDF796FF4F
:10A1F000204602B070BD836800225A60C3E9042281
:10A200009A60DA601A6070470B684A68436093424C
:10A2100008BF0023016008BF43607047436843B133
:10A220000268916852680B449342436004BF002364
:10A230004360704770B5446806460D46206818B103
:10A24000B3682946984718B923682B60256070BD0C
:10A250002468F3E74368186808B102681A60704719
:10A260004368186870474368186800B970478842A7
:10A2700003D102681A600120704703460068F4E7C2
:10A2800010B50D49A1F59472914201D800200FE05C
:10A290008C1AE30F03EBE4035B1002EBC30452F8E8
:10A2A0003330834205D802D204F10802ECE760683B
:10A2B00010BD2146E8E700BF08A2030008B5FFF77C
:10A2C000DFFF024B002808BF184608BDCBA00300E3
:10A2D0000B7B23B14B6803600023037170470B684D
:10A2E00003600123F9E703684A68896810B5D41A46
:10A2F0008C428BBF5B1800230360026098BF037120
:10A3000010BD03680A68896810B59C1A8C428BBF1F
:10A310005B1A01230360026098BF037110BD0379CB
:10A3200010B504461BB1FFF7DEFF206810BDFFF734
:10A33000E8FFFAE738B5074C051E04F1080318BF1B
:10A340001C4623682BB11A6822605B682846984730
:10A35000F7E738BD8430002020B9054B01225A7040
:10A36000FFF7E8BF012802D1014A9070F8E7704773
:10A370007C30002020B9034B01225A70FFF7DABF6E
:10A38000704700BF7C30002038B50E4C2378B3B93D
:10A390000D486360A3602361E36000F035F9054672
:10A3A00008F09CFB08B900F03BF901232370074B30
:10A3B000D3F800340BB10123A370284638BD85259E
:10A3C000F5E700BF7C30002059A3020000000140E7
:10A3D00037B50D4C00230DF107008DF80730FDF760
:10A3E00079FEE368013BE360E36833B9074BD3F8D8
:10A3F000005415B900F026F9A5709DF80700FDF787
:10A400008DFE03B030BD00BF7C3000200000014055
:10A41000012813B50CD0032820D038B9134B0122E2
:10A42000C3F88020BFF34F8FBFF36F8F02B010BD12
:10A430000F4C00230DF107008DF80730FDF74AFEA1
:10A4400023780BB9FFF7A0FFE3689DF807000133FD
:10A45000E3600123A370FDF761FEE7E700F0E0F899
:10A4600002B0BDE81040FFF7B3BF00BF00E100E05D
:10A470007C3000201FB500238DF807000DF10F0080
:10A480008DF80F30FDF726FE08F028FB50B909487B
:10A490000DF10701FFF75AFE0648FFF74BFE08B122
:10A4A00000F0A4FB9DF80F00FDF738FE05B05DF845
:10A4B00004FB00BF9898030007B520B103280DD016
:10A4C00003B05DF804FB104B1B78012BF8D100F0B2
:10A4D0008DFB03B05DF804EB00F090BB00230DF1A1
:10A4E00007008DF80730FDF7F5FD07480378012BCD
:10A4F00005D10649013000F039FB00F065FB9DF8FD
:10A500000700FDF70BFEDBE7E030002075A402003A
:10A510001FB503788DF800304368019383688DF888
:10A520000830C368054A0393054B684653F8213049
:10A5300052F82110984705B05DF804FBE430002084
:10A54000EC3000201FB503788DF80030436801938C
:10A5500083688DF80830C368054A0393054B684645
:10A5600053F8213052F82110984705B05DF804FBEC
:10A57000E4300020EC300020F0B5194B90F800C01A
:10A58000DFF86CE043F82C20164B16460A6943F8B6
:10A590002C204B7F0EF80C300C4607460FCC89B0B0
:10A5A0006D460FC594E80F0085E80F003B78CDF8A5
:10A5B00010C01EF803304BB1002E0B4A694608BF8D
:10A5C0003246381D00F070FE09B0F0BD002E074A7B
:10A5D000694608BF324607F10C0000F029FCF3E79A
:10A5E000EC300020E430002011A5020045A5020057
:10A5F000F430002000F18040002382B00360036843
:10A600000193019B02B07047044A137923B90121D9
:10A61000106091801846704785207047F830002000
:10A62000074B1A68D20704D4C02283F80023012202
:10A630001A604FF080430122C3F81825704700BF0D
:10A6400000E100E04FF0804208B50223C2F8083371
:10A650004FF48270FFF7CEFF0123D360D2F8183495
:10A66000DB03FBD408BD00004FF0804110B5D1F8EA
:10A67000003163B14FF48070FFF7BCFF0D4B587988
:10A680000122C1F8082310B95A711B6898474FF08E
:10A690008042D2F8043163B14FF48270FFF7AAFF11
:10A6A0000223C2F80833034BBDE810401B680120A9
:10A6B000184710BDF830002000F1804000F5C04080
:10A6C000002382B0036003680193019B02B07047CE
:10A6D00003681F2B83BF03F01F03036001484FF083
:10A6E000A04070470003005007B5019001A8FFF794
:10A6F000EFFF019B00EB8300D0F8003723F44033D9
:10A70000C0F80037D0F8003743EA0141C0F800171D
:10A7100003B05DF804FB0000054B4FF0FF32072843
:10A7200043F8202084BFC01880F85820704700BF2D
:10A730000031002038B51D4991F86A30A3BB4FF6AF
:10A74000FF70FF245A09012A0CBF02464FF0FF3266
:10A7500003F01F05EA40D20748BFCA1803F10103FE
:10A7600048BF82F83040302BECD10024E0B20134F5
:10A77000FFF7D2FF0C2CF9D10D4B00224A669A80CC
:10A780000C4BC02083F80603402018604FF4BE70C5
:10A79000FFF792FF084B4FF00040C3F8040301237A
:10A7A00081F86A30104638BD0820FCE700310020EF
:10A7B0006431002000E100E000600040034B93F8AA
:10A7C0006A00003818BF0120704700BF0031002028
:10A7D000F7B53D4F3B18044693F93030002B71DA42
:10A7E0008B78C3F34003002B0BBF082500250C20FA
:10A7F0000820854202D1042003B0F0BD57F825603F
:10A80000013647D138196EB247F8252080F83060FC
:10A8100013B97B1983F858408B785A071AD4D80794
:10A820003AD501A80194FFF753FF019B00EB830089
:10A83000D0F8003723F00203C0F800372348E208BD
:10A8400004F0070C012303FA0CF310F802C043EAEA
:10A850000C03835488780B7810F0020028D0AD00E8
:10A8600005F1804505F5C0452402D5F8102522F4F0
:10A870004F3222F44072C5F810251B04D5F810257C
:10A8800004F47C5403F440331C431443C5F81045CE
:10A890000020B1E70135ACE701A84A780194FFF741
:10A8A00017FF019B03F5E073920040F82320C5E7F2
:10A8B000083E47FA86F797F8604044EA831387F822
:10A8C000603099E7082097E70031002064310020CC
:10A8D00073B5244D2E18044696F93020072A1DDD45
:10A8E000083A45FA82F595F860309B09032B10D1A0
:10A8F000019001A8FFF7ECFE019BD0F81015D9409C
:10A9000001F001010231204602B0BDE87040FFF7BE
:10A91000EBBE012B0CBF02210321F4E7D3B2072BBE
:10A920001DD8930003F1804303F5C043D3F810050D
:10A9300040F00100C3F8100502F1400040B2800071
:10A9400080B2FFF7B9FE51B196F9303055F8233097
:10A950002BB1012303FA02F2034BC3F8042302B024
:10A9600070BD00BF003100200060004007B50190BD
:10A9700001A8FFF7ADFE019BD0F81005D84000F00C
:10A98000010003B05DF804FB2DE9FF470024CDE989
:10A990000244584D4FF48072012102F1804303F5C7
:10A9A000C04390B21B68012B06D1D5F804330B428B
:10A9B00002D0FFF781FE0C430432B2F5907F4FEADC
:10A9C0004101EAD14B4BD3F87C31012B11D14FF42B
:10A9D000BE70FFF771FE4FF0A04344F00044D3F87F
:10A9E00020250292C3F82025D3F820280392C3F82B
:10A9F0002028E3B2D3B1404F00250126344210D0C5
:10AA0000AB0003F1804303F5C043D3F81005D3F83E
:10AA1000101557F8253023B1C1F30141C0F30520CB
:10AA200098470135082D4FEA4606E7D1002C59DA40
:10AA3000314D324C324E4FF00008012716F9013BE0
:10AA40005A1C3CD0C3F3C201103169445FFA83F948
:10AA500011F8081C03F03F0203F0070307FA03F3A1
:10AA600019422CD001A80192FFF732FE019B03F599
:10AA7000E07350F82330C3F3014ABAF1020F0CBF60
:10AA8000032102211046FFF72FFE01A80192FFF7D4
:10AA90001FFE019B07FA03F3C0F82035AB1893F9AA
:10AAA000303055F8233053B14FEA9911032904D0BF
:10AAB000BAF1020F19D1012901D11046984708F1C6
:10AAC0000108B8F1040FB9D14FF0A043D3F8202505
:10AAD0000292C3F82025D4F820350393C4F820351A
:10AAE0001343A7D104B0BDE8F087BAF1030FE6D154
:10AAF0000229E1E70060004000310020000300501F
:10AB000060310020014B1B68184700BF6C310020EA
:10AB10000E4B984237B50C4602D0002003B030BD32
:10AB200000230DF107008DF80730FDF7D3FA084B2D
:10AB30001D7915B901221C601A719DF80700FDF7F7
:10AB4000EDFA002DE9D01120E8E700BF0020004019
:10AB50006C310020034B984201BF034B00221A6066
:10AB60001A717047002000406C31002010B5124C63
:10AB70002378FBB9114B1960037813F0010F104BC8
:10AB80001EBFD3F8042542F00102C3F80425D3F810
:10AB9000002222F00102C3F800224378094A5B0137
:10ABA000DBB282F80D334FF400531360012323709E
:10ABB000002010BD8520FCE7783100207431002092
:10ABC00000D0004000E100E0074B0022C3F8002164
:10ABD00082B0D3F800210192019A0122C3F8042324
:10ABE0001A6002B0704700BF00D00040024B012243
:10ABF000C3F808235A60704700D00040084B012278
:10AC0000C3F808235A60074B4FF40052C3F8802062
:10AC1000BFF34F8FBFF36F8F034B00221A70704743
:10AC200000D0004000E100E078310020074B002216
:10AC3000C3F8002182B0D3F800210192019AD3F821
:10AC40000805034B1B68C0B202B0184700D0004093
:10AC5000743100200023435082B043580193019B7C
:10AC600002B070470A4610B54FF48E71FFF7F2FF3D
:10AC7000136A9168C95C136A01331362C0F81C152A
:10AC800010BD8B690A4610B54FF4847123B9FFF7E4
:10AC9000E1FFD0F8183510BDFFF7DCFF536AD1682B
:10ACA000D0F81805C854536A01335362F3E7000023
:10ACB0001FB501238DF80030044BCDE90110D3E915
:10ACC00000126846904705B05DF804FB7C31002017
:10ACD00030B54D4DD5F804339A0585B051D5D5F82A
:10ACE0002431002B4DD04FF492712846FFF7B2FF6C
:10ACF0004FF40173C5F80833444B93F829200AB97F
:10AD000001226A60404902228DF80020D1F8802497
:10AD1000C1F8802403929A690292DA6801920022B3
:10AD2000C3E906226846D3E9001290473648D0F8B6
:10AD30001C315BB1354A5169136A99424DD992F879
:10AD40002830002B49D11146FFF78CFF2E48D0F850
:10AD50004431002B56D04FF4A271FFF77BFF2B4BF1
:10AD600093F829200AB1012202609A69002A49D089
:10AD7000586AD96800229A6105B0BDE83040FFF7F3
:10AD800097BFD5F804335B07D0D5D5F80831002B31
:10AD9000CCD01E4C1C482146FFF773FF636AA269A2
:10ADA0009A42C3D1E369E1684BB1A3612369E360CF
:10ADB0000023606AE3616362FFF77AFFB6E794F805
:10ADC00029300BB901236B600F4B4FF40172C3F8AC
:10ADD00008230023606AA361EEE70B484FF48E71ED
:10ADE000FFF738FF5369002BB0D05169029100235F
:10ADF00091688DF80030019153616846D2E90013E3
:10AE00009847A3E705B030BD002000407C3100200A
:10AE10001F2886BF00F01F00044B4FF0A04300F531
:10AE2000E070022243F82020704700BF000300506A
:10AE30002DE9F843604D90F804802C2303FB085360
:10AE4000064693F82A300C469146002B40F0AF801E
:10AE50005A490068FFF75CFE0746002840F0A980C9
:10AE60002268531C10D01F2A87BF554902F01F03C8
:10AE700013464FF0A0410120984003F5E073C1F85C
:10AE80000805032041F823006168481C0DD01F29E4
:10AE90008BBF01F01F030B4649484FF0A04003F55C
:10AEA000E0734FF0000C40F823C03068A369C0F88D
:10AEB000243594F814C0637DBCF1010F4CEA030300
:10AEC000C0F86C35C0F81415C0F80C252BD1A36858
:10AED000591C0DD01F2B8BBF03F01F021A46384997
:10AEE0004FF0A04102F5E0724FF0000C41F822C093
:10AEF000E1684A1C13D01F2987BF314A01F01F0C9B
:10AF00008C464FF0A0424FF0010E0EFA0CFE0CF5ED
:10AF1000E07CC2F808E54FF0030E42F82CE0C0F8E0
:10AF20000815C0F810352C2202FB08F2AB18C3F844
:10AF300004902369AB50B9F1000F20D04FF48E710B
:10AF4000247FFFF787FE4FF4A2713068FFF782FE7F
:10AF500032681C4BC2F80433130B42F30732610111
:10AF6000002AC9B21EDB1848841884F80013012196
:10AF7000520903F01F0301FA03F340F8223033684B
:10AF80000422C3F800252C2303FB08530022C3E945
:10AF9000062283F829205A61012283F82A203846A4
:10AFA000BDE8F883094A03F00F03D154E7E7082707
:10AFB000F5E71127F3E700BF7C310020D1AC020098
:10AFC000000300508000020000E100E014ED00E00A
:10AFD0002DE9F04103680579284C0022C3F80025CB
:10AFE0002C2202FB054201465268A2B1244AC3F852
:10AFF00008231A0B43F30733002B0CDB02F01F006E
:10B000005B090122824020331E4840F82320BFF311
:10B010004F8FBFF36F8F0B68D3F80C05D3F81485EF
:10B02000D3F80865D3F810754FF0FF329042C3F89B
:10B030001425C3F80C25C3F80825C3F8102501D042
:10B04000FFF7E6FEB8F1FF3F02D04046FFF7E0FE13
:10B050007A1C02D03846FFF7DBFE731C02D0304664
:10B06000FFF7D6FE0868FFF775FD2C2303FB0544A8
:10B07000002384F82A306360BDE8F0817C31002031
:10B080008402020000E100E00279044B2C2101FB64
:10B0900002335869003818BF012070477C31002006
:10B0A0002DE9F84F064690F8048089469246FFF74E
:10B0B000EBFF044600283CD1204F2C2508FB057BE4
:10B0C0004FF48E71CBF814A0CBF80890CBF8200089
:10B0D0008BF828003068FFF7BDFD306801238360DE
:10B0E0005946FFF7BFFDDBF804305D461BBB3068F7
:10B0F000DBF814402B6A9C4211D83368D3F81C212A
:10B10000002AFBD00122DA6000202C2303FB087701
:10B1100000237B61BDE8F88F95F828303BB9D0F863
:10B120001C31002BF8D05946FFF79CFDE2E70F20B9
:10B13000EBE71120EEE72046ECE700BF7C31002072
:10B140000023435082B043580193019B02B07047E3
:10B150001FB501238DF80030044BCDE90110D3E970
:10B1600000126846904705B05DF804FBA831002046
:10B170007FB5434AD2F82461002E60D010464FF4C8
:10B180009271FFF7DDFF02238DF80030D2F8803492
:10B19000C2F880340393D2F83C350293394BDA6815
:10B1A00001920022C3E906226846D3E900129047C3
:10B1B0003348D0F8443173B14FF4A271FFF7C0FFA8
:10B1C000304B9A693AB10022C3E90622D968D0F817
:10B1D0003C05FFF7BDFF2A48D0F82031ABB14FF452
:10B1E0009071FFF7ADFF0123C360264B5A6962B12E
:10B1F000D0F84C150291002299688DF80020019139
:10B200005A616846D3E9001290471D48D0F858317A
:10B210009BB14FF4AC71FFF793FF1A4B5A6962B1BF
:10B22000D0F84C150291002299688DF80020019108
:10B230005A616846D3E90012904704B070BDD2F855
:10B240001031002BB4D04FF488711046FFF778FF0F
:10B250000C4BD2F83C0599698842A9D1DC69D968C0
:10B2600064B1D2F8005225F02005C2F800521A69E4
:10B270009C61DA60DE61FFF76BFF99E79C61FAE79A
:10B2800000200040A83100201F2886BF00F01F00CA
:10B29000044B4FF0A04300F5E070022243F8202059
:10B2A000704700BF000300502DE9F843664E90F848
:10B2B0000480242303FB0863044693F820300D46E2
:10B2C0009146002B40F0BC8060490068FFF720FCED
:10B2D0000746002840F0B68029684B1C10D01F2973
:10B2E00087BF5B4A01F01F030B464FF0A0420120CD
:10B2F000984003F5E073C2F80805032042F82300E4
:10B300006A68501C0DD01F2A8BBF02F01F03134622
:10B310004F484FF0A04003F5E0734FF0000C40F8A9
:10B3200023C02068AB69C0F8243595F814C06B7D44
:10B33000BCF1010F4CEA0303C0F86C35C0F80C15E2
:10B34000C0F814252BD1AB68591C0DD01F2B8BBF17
:10B3500003F01F021A463E494FF0A04102F5E07289
:10B360004FF0000C41F822C0E9684A1C13D01F2995
:10B3700087BF374A01F01F0C8C464FF0A0424FF0B8
:10B38000010E0EFA0CFE0CF5E07CC2F808E54FF059
:10B39000030E42F82CE0C0F80815C0F8103524223E
:10B3A00002FB08F2B318C3F804902B69B350B9F14B
:10B3B000000F2FD04FF488712A7FFFF7C1FE20685D
:10B3C0004FF49071FFF7BCFE20684FF49271FFF7C5
:10B3D000B7FE20684FF4A271FFF7B2FE4FF4AC71D4
:10B3E0002068FFF7ADFE23681A49C3F80413190B50
:10B3F00043F307335201002BD2B21CDB1648C518A9
:10B4000085F8002301225B0901F01F0102FA01F116
:10B4100040F8231023680822C3F80025242303FBE7
:10B4200008660023C6E906337361012386F82030DD
:10B430003846BDE8F883094B01F00F015A54E9E79B
:10B440000827F5E71127F3E7A831002071B10200C2
:10B45000000300501003420000E100E014ED00E0A2
:10B460002DE9F0413D4D06790468242303FB065382
:10B4700002465B68ABB13A4BC4F8083344F3073378
:10B48000002B4FEA14310CDB01F01F005B09012196
:10B4900081402033334840F82310BFF34F8FBFF370
:10B4A0006F8FD4F8003223F02003C4F80032242335
:10B4B00003FB06539B6933B14FF4A2712046FFF79B
:10B4C0003FFE012363604FF4AC712046FFF738FE66
:10B4D0000123E360242303FB0653D4F85811002909
:10B4E000FBD0996919B1D4F844110029F5D0002393
:10B4F000C4F800351368D3F80C05D3F81485D3F8D5
:10B500000815D3F810754FF0FF329042C3F80C25A0
:10B51000C3F81425C3F80825C3F8102501D0FFF798
:10B52000B3FEB8F1FF3F02D04046FFF7ADFE7A1CF4
:10B5300002D03846FFF7A8FE4B1C02D00846FFF7A2
:10B54000A3FE2046FFF706FB242303FB065500233A
:10B5500085F820306B60BDE8F08100BFA831002085
:10B560001003420000E100E00279044B242101FBBA
:10B5700002335869003818BF01207047A8310020F5
:10B5800001F06043B3F1005F2DE9F04706468846BD
:10B5900092463BD190F80490FFF7E6FF044600285E
:10B5A00036D11D4F3068242505FB09754FF4907185
:10B5B000C5F814A0C5F80880FFF7C2FD4FF4AC71C0
:10B5C0003068FFF7BDFD33686A69A968C3F84415A0
:10B5D000C3F8482501229A606A68DAB9D3F82021B5
:10B5E000D3F858011AB90028F8D00F2007E0002836
:10B5F000FBD10122DA60D3F85821002AFBD02423A2
:10B6000003FB097700237B61BDE8F0871020FBE78F
:10B610001120F9E72046F7E7A8310020074B1B5C13
:10B620001F2B8ABF064A4FF0A04203F01F03D2F837
:10B630000405D840C04300F00100704736A2030063
:10B6400000030050074B1B5C1F2B86BF064903F00D
:10B650001F034FF0A041012202FA03F3C1F80C3599
:10B66000704700BF36A2030000030050074B1B5C6D
:10B670001F2B86BF064903F01F034FF0A041012294
:10B6800002FA03F3C1F80835704700BF36A2030081
:10B690000003005008B50020FFF7E8FF0120FFF786
:10B6A000E5FF0220FFF7E2FFBDE808400320FFF7B7
:10B6B000DDBF08B50020FFF7C5FF0120FFF7C2FF7F
:10B6C0000220FFF7BFFFBDE808400320FFF7BABF25
:10B6D0000A4B185C1F288ABF094B4FF0A04300F0AB
:10B6E0001F00D3F804250121814021EA02000A400D
:10B6F000C3F80805C3F80C25704700BF36A2030045
:10B7000000030050074B1B5C1F2B8ABF064A4FF0FB
:10B71000A04203F01F03D2F81005D840C04300F048
:10B720000100704732A20300000300500B2809D02B
:10B730000C2809D0182809D019280CBF03204FF075
:10B74000FF3070470020704701207047022070478B
:10B75000014B185C704700BF32A20300C20710B54E
:10B7600004460CD54FF0A0430322C3F83427C3F896
:10B770003827C3F83C27C3F84027FFF78BFFA30700
:10B780000AD54FF0A0430C22C3F82C27C3F830276A
:10B79000C3F86027C3F8642710BDF0B595B01D4607
:10B7A000164608460C46FEF753FC1A9B0D93CDE94E
:10B7B000086500252B46082205A920460A958DF824
:10B7C0002C500C95FEF760FC079B0293069B03939D
:10B7D0009DF814308DF8115003F00302012A1DD199
:10B7E000BDF81420059DC3F3C203C2F383168DF880
:10B7F0001030B20008230EA92046FEF745FCC5F321
:10B80000952508AB0093324602AB0EA9284600F0FE
:10B81000D7FB2046FEF720FC15B0F0BD022AF8D178
:10B82000BDF81650C3F3C203C5F389158DF8103067
:10B830000827082D2E4628BF08263B4632460EA96B
:10B840002046FEF721FCAD1B08AB02AA31460EA82C
:10B85000374400F019FC002DEBD1DAE7014B01224F
:10B860001A7070470D3200207047000070B50E4D01
:10B8700006460FCD88B06C460FC495E80F00002E29
:10B8800084E80F00094A0A484FF0060308BF002267
:10B8900069460093FEF770FE08B1FCF7BBF9054B53
:10B8A0001E7008B070BD00BF3CA203005DB802006E
:10B8B000802C0020CC31002007B5044B0093044AB3
:10B8C0004023FFF76AFF03B05DF804FBD5B8020020
:10B8D000CD31002038B50D480D4C0E4D002323709E
:10B8E0000378EB5CD2B263B10430FFF749FE08B1D4
:10B8F000FCF790F9084B1A7812B12378002BFBD093
:10B9000038BD0C30FFF7CCFBF1E700BF802C0020E6
:10B910000D320020F4300020CC31002008B508485A
:10B92000084A0378D35C3BB10430FFF799FDBDE8CA
:10B9300008400020FFF79ABF0C30FFF749FBF6E7FD
:10B94000802C0020F43000200120FFF78FBF000082
:10B9500008B5FFF7F9FF0448042100F09BFA034BF8
:10B9600001225A7108BD00BFF0990300942C0020F9
:10B97000037813F0040216D003F00303012B03D065
:10B98000022B09D0012070470A6800880232C0F3F8
:10B99000831002440A60F5E70B684288023303EB28
:10B9A00092130B60EEE71046704700002DE9F04F50
:10B9B000DFF81CA187B00F4600230446861C0DF15A
:10B9C000070015468DF80730FCF784FBDAF80420F1
:10B9D0003A60DAF8083003F580739B1A0AF21C47C4
:10B9E0000AF583690AF21448B3421AD30020002DE5
:10B9F00069D004F00F039B0143F0050363F30F00CC
:10BA0000DAF80430DAB2033233444AF822009DF8FF
:10BA10000700CAF80430FCF781FB012007B0BDE83D
:10BA2000F08F01213846FDF77FFD4846FDF797FD71
:10BA30004046FDF794FDDAF808000290C0B20330EA
:10BA40000AEB800002A9FFF793FF029B30BBDAB23A
:10BA50000AEB8202D16803919A1C0133DBB20AEB34
:10BA600083030292D3F80CB001F00303012B22D020
:10BA7000022B15D083464046FDF774FD10B1029BA2
:10BA8000CAF8083059463846FDF74EFDDAF8083056
:10BA9000DAF8042003F580739B1AA5E7D8B2CEE745
:10BAA000BDF80E30C3F3891303334FEA1B4B02EB8F
:10BAB00093030293DFE7BDF80C30C3F383134FEA1F
:10BAC0001B4B1344F5E7A40544F0060098E700BFBC
:10BAD000E0320020064B074810B500221A70FEF72E
:10BAE00070FA044610B90448FEF785FB204610BDE5
:10BAF000E0320020DC98030090A2030030B50A4C2D
:10BB000071B10A4A0A49121BD20800239A4201D194
:10BB1000002030BD31F82350854202D00133F5E7D3
:10BB2000034654F83300F4E7F8980300F099030053
:10BB3000F42B0020094B013903EBC000032909D87D
:10BB4000DFE801F00A02040604207047007970471C
:10BB5000407970470020704702207047F898030032
:10BB600070470000034BD3E90130C31A58425841D3
:10BB7000704700BFE03200202DE9F04186B0FFF7AA
:10BB8000F1FF0546002840F0ED80774CC4F818041A
:10BB9000BFF34F8FA3680293DBB2033304EB830040
:10BBA00002A9FFF7E5FE029B18B1D4F81824002A79
:10BBB0005AD0DAB2991C013304EB8202DBB204EBF7
:10BBC0008303D268DB68049302F00303022B039221
:10BBD000029154D1BDF80E306448C3F38917502F39
:10BBE0003E4628BF502606F1080166F38F13C1F3C5
:10BBF0000901ADF80E30FEF7FCF90546002800F00B
:10BC00009C80FEF725FA0023082203A92846FEF7A8
:10BC100031FA0299CB43DBB20133C9B20331B6EB3F
:10BC2000830F4FEA830204EB810125D95FFA82F882
:10BC30000823A6EB08062846FEF71CFAF6B208F120
:10BC400008034B4903F0FC0332462846FEF712FA7C
:10BC5000029B033703EB97070297D4F81834002BA5
:10BC600043D1D4F8106453E062689A4294D8A26039
:10BC7000284606B0BDE8F08108233246E5E7012BEF
:10BC80005BD1BDF80C303948C3F38311062928BFB6
:10BC9000062161F38913023101F00F018900ADF82B
:10BCA0000C30FEF7A6F90546002846D0FEF7D0F97D
:10BCB0000023082203A92846FEF7DCF90026BDF878
:10BCC0000C20C2F38312B300964203F10803C4D2DE
:10BCD00002994A1CC9B20331029204EB8101042289
:10BCE0002846FEF7C7F90136E9E72846FEF7B4F91A
:10BCF000FFF738FF80F00100C5B2B9E7F3685B7960
:10BD000023B1336829461B6830469847F3681E689C
:10BD1000002EF3D12846FEF79FF90DF107008DF8AC
:10BD20000760FCF7D7F9D4F818340BB9029BA3606D
:10BD30009DF80700FCF7F2F9DAE7D4F8104454B99B
:10BD40000C4B0D480D49C01AC008000440F0020019
:10BD500000F05EF8CCE7236820469B689847E368CC
:10BD60001C68ECE7002583E7E0320020DC98030044
:10BD7000EC320020F89803002899030079A2030010
:10BD80002DE9F34704460E46924601A901221846C2
:10BD90009946FFF70BFE1C4F10B3019D4FF00008B2
:10BDA000AA1CC84508EB020125D118480021FDF75F
:10BDB00074FB80F31000000440EA1440E4006B1CA4
:10BDC00004F03804DBB2EDB244F0010407EB830366
:10BDD000033544EA881444EA8624D86047F82540AD
:10BDE0003B781BB1FFF7C8FE0028FBD1FFF7B8FE78
:10BDF00002B0BDE8F087C9B207EB81015AF82830DC
:10BE0000CB6008F10108CCE7E0320020FC360020CE
:10BE100000231A46FFF7B4BF07B50123019201AA18
:10BE2000FFF7AEFF03B05DF804FB07B5CDE90023D3
:10BE300002236A46FFF7A4FF03B05DF804FB1FB5B9
:10BE4000CDE90123069B039301AA0323FFF798FF83
:10BE500005B05DF804FB1FB5CDE90023069B0293F6
:10BE6000079B03936A460423FFF78AFF05B05DF83A
:10BE700004FB7FB5CDE90123089B0393099B049341
:10BE80000A9B059301AA0523FFF77AFF07B05DF827
:10BE900004FB000030B50F4CD4F8102403460020FA
:10BEA000114631B9D96808714AB9C4F810340A602A
:10BEB00030BDC9680D79854206D00968F1E7D268BE
:10BEC00014680C601360F3E701300A28E8D14FF0E2
:10BED000FF30EDE7E032002038B5084B0125D3F8FC
:10BEE00010441D7004B938BDE3685D7123682046B5
:10BEF0005B689847E3681C68F4E700BFE032002005
:10BF000030B5C38885B004460D4633B1144A00925B
:10BF10001449154A2846FDF788FB217A05291DD0CA
:10BF2000637A4BB1A088FFF705FE104B104953F818
:10BF300020202846FDF779FB227A0E4BA08853F883
:10BF4000222003920021FFF7D9FD039A0A490346F4
:10BF5000284605B0BDE83040FDF767BB05B030BDF1
:10BF6000BCA20300A4A203009CA2030028A3030018
:10BF7000EFB603004CA30300C1A2030007B50346BC
:10BF80000846197A052911D05B7A2BB1094A0A496A
:10BF90000190FDF74AFB019808490190FDF745FB28
:10BFA000019803B05DF804EBFDF734BB002AF8D02C
:10BFB000F2E700BFBCA20300EFB60300B9A2030082
:10BFC0002DE9F04385B01F460C9D002395F80C9099
:10BFD0002B7306460C46904629463846FFF790FFDD
:10BFE000B8F1060F09D8DFE808F00412181F28334B
:10BFF000400031462846FDF718FB00222946384606
:10C00000FFF7BCFF85F80C9005B0BDE8F08322680F
:10C0100031462846FDF709FBEFE7D4E90023314616
:10C020002846FDF702FBE8E7A36800933146D4E910
:10C0300000232846FDF7F9FADFE7E3680193A368D8
:10C0400000933146D4E900232846FDF7EEFAD4E701
:10C0500023690293E3680193A36800933146D4E90E
:10C0600000232846FDF7E1FAC7E7636903932369D4
:10C070000293E3680193A36800933146D4E9002357
:10C080002846FDF7D2FAB8E708292DE9F74F804690
:10C090000E4617461C463DD800251B7B25732146BE
:10C0A00010460193FFF72CFFDFF88CA0DFF88CB06F
:10C0B000AE4232D918F8052059462046FDF7B5FAA8
:10C0C0000135082DF4D11B49DFF874A0DFF874B0F6
:10C0D0002046FDF7AAFA4FF000094E4524D918F87A
:10C0E00009507E2D1ED8284606F038FF002814BFC0
:10C0F0002A462E2259462046FDF797FA09F10109F2
:10C10000B9F1080FE9D1012221463846FFF736FF81
:10C11000019B237303B0BDE8F08F51462046FDF725
:10C1200084FACDE72E22E5E751462046FDF77DFA59
:10C13000E4E700BFD5A20300D1A20300CBA2030015
:10C14000D3A20300D7A2030028B139B10023C1E96B
:10C1500000301846704748F21050704748F21350AC
:10C16000704730B1036848F240508B4208BF00204E
:10C17000704748F21050704730B119B10B689342C4
:10C1800005D30A600020704748F21350704748F208
:10C19000145070472DE9F0410C4600AF804611461F
:10C1A000204615461E46FFF7CFFF00BB314620460E
:10C1B000FFF7CAFFD8B92279104B53F82230CBB120
:10C1C000B8F1000F0AD10E4931F8124034B10734EA
:10C1D0006A46E408A2EBC4029546E8463246294680
:10C1E0004046984718B9074B2B60063B3360BD4665
:10C1F000BDE8F08148F20350F9E700BF7CA30300DB
:10C2000060A303007652464D70B505460C461E46A7
:10C21000FFF79AFF70B9AB796AB1B3420ED12979B1
:10C22000094B53F8213063B111462046984708B9AD
:10C23000064B236070BD48F21050FBE748F21150E6
:10C24000F8E748F20350F5E7B0A303007052464DFB
:10C250002DE9F0410D460D4904461646FFF781FFD2
:10C2600090B967683146BA792846FFF785FF58B913
:10C270003A79074B53F8223023B129462046BDE8CE
:10C28000F041184748F20350BDE8F0817052464D26
:10C29000E4A30300F0B530B14079B3B1C9B18AB9B4
:10C2A00048F2135313E01846F7E7441E00254E5D8D
:10C2B0000F5D575516550135013CA542F7D91B1A9C
:10C2C000014402448342F0D20BB148F211531846A4
:10C2D000F0BD48F21053FAE72DE9F8430D4600AFE0
:10C2E00004461D49284616469846FFF73AFF48BBC4
:10C2F0001A493046FFF735FF20BBD5F80490736824
:10C30000994522D199F80520396A4046FFF734FF54
:10C31000C0B999F80430124A52F82390B9F1000FCD
:10C3200016D054B90F4A32F8133033B107336A4686
:10C33000DB08A2EBC3039D466C46434632462946C2
:10C340002046C847BD46BDE8F88348F24150F9E7AA
:10C3500048F20350F6E700BF7652464D7052464D04
:10C3600018A4030048A40300F8B50A4F0A4C0B4E6A
:10C37000E41B0123E40833700025A54203D1022306
:10C3800033700020F8BD57F8353098470028F9D1B0
:10C390000135F2E7F0980300F89803009837002081
:10C3A000054B1A78022A04D01878431E5842584187
:10C3B00070470120704700BF9837002070B50646CF
:10C3C0000D466A46194B9A4205D3FFF7E9FF78B943
:10C3D0004FF4054070BD164B16481749C01AC008E7
:10C3E000000440F00100FFF713FD48F21950F1E797
:10C3F000124C236823B1124B1A68124B9A420FD089
:10C4000086B97DB910481149206000F0F1FF00287D
:10C41000E0D10B4B0B4A1A6023680D4A1A60D9E72A
:10C420000020D7E748F21750D4E700BF00E0032010
:10C43000F89803002899030060A4030068500020C6
:10C44000843800206572E54B9C3700208838002036
:10C450006169614D10B56C46154B9C420FD3DAB93A
:10C46000144B1C68144B9C421BD1E8B9134813466B
:10C47000BDE810400A460068114900F0F7BF114BB3
:10C4800011481249C01AC008000440F00100FFF72B
:10C49000BFFC48F2195010BD0029E1D148F21050FC
:10C4A000F9E748F20250F6E748F21750F3E700BF09
:10C4B00000E00320843800206572E54B68500020BE
:10C4C00088380020F89803002899030060A403002E
:10C4D00073B513460D460446F8B111B3144A1168FA
:10C4E000144A914220D1144E01932A4601463068E5
:10C4F00000F09EFF48F27152904210D10022114686
:10C500001046FFF7A7FF50B9019B30682A46214625
:10C5100002B0BDE8704000F08BBF48F2135002B08B
:10C5200070BD48F21450FAE748F20250F7E700BF36
:10C53000843800206572E54B685000200122FFF727
:10C54000C7BF0022FFF7C4BF33DF704776DF7047F5
:10C5500078DF70477ADF70477CDF70478FDF704786
:10C56000FBF758BB08B50020FBF7CAF808B1FBF78A
:10C5700051FBFBF7ADF908B1FBF74CFBFFF7E4FF0C
:10C5800018B1BDE80840FBF745BB08BD034B0448A4
:10C59000197881F00101197006F0AFB970550020CB
:10C5A000FC54002010B51249124C1348FDF7B7FE99
:10C5B000236881B201331148236006F05AF930F044
:10C5C000080209D020F00202112A05D043F20142EC
:10C5D000904201D0FBF71EFB094A23685343B3F195
:10C5E000553F084A94BF00230123137010BD00BFBC
:10C5F000E45400206C500020F4540020FC5400202F
:10C60000ABAAAAAAF02C002008B50D490D48FDF7E9
:10C6100086FE4FF6FE72C1B20B4805F0E1FE30F027
:10C6200008020BD020F00202112A07D043F2014287
:10C63000904203D0BDE80840FBF7ECBA08BD00BF4C
:10C64000B8540020C8540020A454002010B503881A
:10C65000212B86B004460FD80F2B11D9103B112B7C
:10C660000ED8DFE803F00F350D0D0D0D0D5A676E76
:10C670000D0D0D0D0D0D0D453B2B47D0562B45D007
:10C6800006B010BD3A4B3B483B49C01AC0080004F5
:10C6900040F00300FFF7BCFB0720FBF731F808B1BF
:10C6A000FBF7B8FA354BA1883548198003F048FBF1
:10C6B00008B1FBF7AFFAA088002104F0E9F91128CE
:10C6C000DED00028DCD006B0BDE81040FBF7A2BAEF
:10C6D000274B2848227A2B49C01AC008000440F092
:10C6E0000300FFF799FB254B4FF6FF721A80C7E74F
:10C6F000002380888DF8143005A98DF81530FFF7D8
:10C700002DFF0028BCD0FBF785FAB9E7A0881321DC
:10C71000FFF71CFF0028B3D0D5E71648144B1A4981
:10C72000C01AC008000440F0030006B0BDE8104085
:10C73000FFF76EBB0F480E4B1449C01AC008000427
:10C74000F1E7437A0A4A0B481149801A627B029248
:10C75000227B0192A27AC008C2F3C00200040092B8
:10C76000C3F38003227A40F00300FFF782FB87E7E0
:10C77000F89803002899030079A40300C82C00202E
:10C780004C55002084A403009DA40300BAA4030018
:10C79000D9A403000A8840F677239A4210B50C46C4
:10C7A0000BD1094B09484A88C01AC00800048B887D
:10C7B000074940F00300FFF738FB21460548BDE874
:10C7C000104006F09DB800BFF898030028990300B8
:10C7D0002FA50300FC54002008B503784BB9054B86
:10C7E0003B211888FFF7B2FE18B1BDE80840FBF7FF
:10C7F00011BA08BDC82C0020072808B513D00A2894
:10C800000DD0042819D10D4B13211888FFF79EFE77
:10C8100030F0080311D0BDE80840FBF7FBB9BDE8D4
:10C820000840FFF79FBE054B1A884FF6FF739A42E8
:10C8300003D1034801F016FCEAE708BDC82C00202C
:10C840007050002008B598B1032815D10B4B0C4847
:10C850000C49C01AC008000440F00300FFF7D8FAE2
:10C860000220FAF74DFF38B1BDE80840FBF7D2B916
:10C87000BDE80840FFF776BE08BD00BFF89803008A
:10C88000289903005EA5030008B51B4B1B78002BFD
:10C8900031D01A491A48FDF742FD81B2194806F015
:10C8A00014F816491648FDF73AFD81B2154806F00E
:10C8B0000CF812491248FDF732FD81B2114806F01A
:10C8C00004F80E490E48FDF72AFD81B20D4805F027
:10C8D000FCFF0A490A48FDF722FD81B2094805F02C
:10C8E000F4FF06490648FDF71AFDBDE8084081B28D
:10C8F000044805F0EABF08BDF02C00205855002080
:10C9000068550020FC54002008B50548032101F0BB
:10C9100065FA18B1BDE80840FBF77CB908BD00BF57
:10C920007050002010B5044604F08CFD204604F041
:10C93000ADFD204604F042FB23780D2B03D1BDE86A
:10C940001040FFF7E1BF10BDFBF764B908B580B137
:10C950000A4B0B480B49C01AC008000440F0030002
:10C96000FFF756FA04F0B6F838B1BDE80840FBF717
:10C9700051B9BDE80840FFF7C7BF08BDF8980300EC
:10C980002899030070A5030080B54FF48041B6B02C
:10C990000020FFF79FF808B1FBF73CF9FEF7D8FF3E
:10C9A000FBF718FA08B1FBF735F9B54AB54801218C
:10C9B000FBF742FA08B1FBF72DF9B34AB34801215E
:10C9C000FBF73AFA08B1FBF725F9B14AB148012162
:10C9D000FBF732FA08B1FBF71DF9AF4AAF48012166
:10C9E000FBF72AFA08B1FBF715F9AD490320FAF76E
:10C9F00093FE08B1FBF70EF90BA90020FAF778FFB8
:10CA000008B1FBF707F99DF82C40A51E6C426C415C
:10CA1000FDF746FB08B1FBF7FDF805F0E1FF08B1B3
:10CA2000FBF7F8F800230BA901200B9306F0AAF8F6
:10CA300008B1FBF7EFF80BA806F062F908B1FBF7B5
:10CA4000E9F8112397498DF81C300A2207A8FFF74F
:10CA500083FD08B1FBF7DEF840F24130FFF778FDC7
:10CA600008B1FBF7D7F80023ADF830304FF4A073CE
:10CA7000ADF82C304FF40273ADF82E300BA84FF404
:10CA8000C873ADF83230FFF765FD08B1FBF7C2F8A7
:10CA90008549864802F052FE08B1FBF7BBF8002139
:10CAA000AC220BA806F0DCFA02238DF82C3040F201
:10CAB0000163ADF82E300323ADF83C307C4B10936E
:10CAC00001234FF496708DF8A83044F25063CDE9FD
:10CAD0002D030BA9774B7848349301F00AF908B17C
